:020000040800F2
:10000000984C0020490100089B2C00085D21000845
:10001000992C000891130008A52F0008000000008B
:10002000000000000000000000000000512F000848
:10003000BF130008000000009D2C000861010008AB
:100040006301000863010008630100086301000800
:1000500063010008630100086301000863010008F0
:1000600063010008630100086301000863010008E0
:1000700063010008630100086301000863010008D0
:1000800063010008630100086301000863010008C0
:10009000A12F000863010008630100086301000844
:1000A00063010008630100086301000863010008A0
:1000B0006301000863010008630100086301000890
:1000C0006301000863010008630100086301000880
:1000D0006301000863010008630100086301000870
:1000E0006301000863010008630100086301000860
:1000F0006301000863010008630100086301000850
:10010000630100086301000863010008630100083F
:10011000630100086301000863010008630100082F
:10012000630100086301000863010008630100081F
:10013000DFF810D000F06EFC00480047B94C000812
:10014000AFF30080984C00200648804706480047DF
:10015000FEE7FEE7FEE7FEE7FEE7FEE7FEE7FEE777
:10016000FEE7FEE7552F00083101000840EA0103D1
:100170009B0703D009E008C9121F08C0042AFAD25D
:1001800003E011F8013B00F8013B521EF9D2704721
:10019000D2B201E000F8012B491EFBD270470022C9
:1001A000F6E710B513460A4604461946FFF7F0FF76
:1001B000204610BD421E12F8013F002BFBD111F862
:1001C000013B02F8013B002BF9D17047F0B480EA03
:1001D0000102D40F4200B2EB410F02D202460846A0
:1001E00011464A0042D0C30DDDB2C1F3C752AD1A69
:1001F000202D35DAC1F3160141F4000204B1524258
:10020000C5F1200602FA06F12A411044B3EBD05F93
:1002100023D0C4B1012DA0EBC35009DCF0BC4FF0DA
:10022000004202EAC352DBB200F5000000F0E6BA79
:10023000400000F1807000EBC350A0F1807040EAF4
:10024000D170490009E0490841EAC071A0EBC350F0
:1002500000F50000400800EBC350F0BC00F0C5BA48
:100260006142012202EB4101001BF6E7F0BC70473E
:1002700081F00041AAE780F00040A7E780EA010290
:1002800010B502F00043400022D04A001FD0010EFA
:1002900001EB1261C0F35600C2F3560240F40000B5
:1002A00042F40002A0FB022000047F39140400D0B5
:1002B000401C50EA124001D44000491EC2B20C0654
:1002C00004EBD010401C4008802A02D003E000203C
:1002D00010BD20F00100002900DA0020184310BDF5
:1002E00030B480EA010202F0004530F0004221F013
:1002F000004013D090B1C30DD40DC2F31601C0F36A
:100300001600E41A41F4000140F400027D349142E9
:1003100001D3641C00E04900002C02DA30BC00204C
:1003200070474FF400000023914201D3891A034320
:1003300040084FEA4101F7D151B1914202D14FF04B
:10034000004105E002D24FF0010101E06FF0010130
:1003500003EBC450284430BC00F047BA420005D03B
:10036000C0F3C7525242914201DC0020704700EBBB
:10037000C15070472DE9FE4F804681EA0300C00F4F
:100380000C46009021F0004123F00045B8EB02003C
:10039000A94105D24046214690461C460B460246DE
:1003A00023F00040104347D0270DC7F30A00C3F3E2
:1003B0000A510290401A019040286BDAC3F31300EF
:1003C00040F4801B0098924620B10023D2EB030A30
:1003D00063EB0B0B01985946C0F14002504600F008
:1003E000E3F906460D4650465946019A00F0EBF9EE
:1003F00010EB08006141002487EA115284EAE77398
:100400001A4340D0009A62B3019A012A4FEA075278
:1004100015DC001B61EB02014FF0004202EA0752BB
:10042000CDE90042001C41F5801132462B4600F018
:1004300022FA03B0BDE8F08F40462146F9E7001BE1
:1004400061EB0201001C41F5801300185B4120188C
:10045000A2F5001747EB030140EAD570B6196D41CC
:1004600011E06D084FEA360645EAC0754FEA0752BB
:10047000001B61EB0201001C41F5801149084FEAA5
:1004800030000019514132462B4603B0BDE8F04F11
:1004900000F0E2B90098012240000023D0EB0202F4
:1004A00063EBE073009821464FEAE074B8EB00007C
:1004B00061EB0401E9E783F000435BE781F0004171
:1004C00058E72DE9FE4F81EA030404F0004421F0CF
:1004D000004100944FF0000B23F0004350EA010468
:1004E0005ED052EA03045BD0C3F30A54C1F30A5549
:1004F0002C44A4F2F3340194A0FB0254C1F3130181
:1005000041F48011C3F3130343F4801301FB02444D
:1005100000FB034E840A970A44EA815447EA835752
:10052000A4FB076802958D0A05FB07854FEA932C0B
:1005300004FB0C542705029D4FEA065847EA16377C
:10054000B5EB08056EEB070C870E920E47EA811794
:1005500042EA8312A7FB0201B6EB0B0164EB000435
:100560002B0D43EA0C335E1844EB1C50DA4651461F
:10057000E7FB0201C5F313044FEA0B3343EA1453BC
:100580004FEA0432019C43EA0603A4F10C040294EE
:10059000009CCDE900B400F06EF903B0BDE8F08F27
:1005A00000200146F9E72DE9F04D81EA030404F04B
:1005B000004B21F0004514464FF0000A23F00041A3
:1005C00050EA050220D054EA01021DD0C5F30A57B3
:1005D0000246C5F31303C1F31300C1F30A5640F4F6
:1005E000801543F48013A7EB0608101BD64608F2CB
:1005F000FD3873EB050002D308F1010801E0921801
:100600005B41B8F1000F03DA00200146BDE8F08D30
:1006100000204FF48011064684460EE0171B73EB52
:10062000050705D3121B63EB050306434CEA010CD7
:1006300049084FEA300092185B4150EA0107EDD1BA
:1006400052EA030012D082EA040083EA050108435B
:1006500005D0101BAB4106D20122002306E0002288
:100660004FF0004302E06FF0010253101AEB060056
:100670004CEB085110EB0A0041EB0B01BDE8F04DCB
:1006800000F0EAB8C10F80EAE0700844CA07962378
:10069000002100F0B3B896230022114600F0AEB856
:1006A0000EB5C10F80EAE0700844CA07002140F28D
:1006B00033438DE80E000A460B4600F0DCF803B029
:1006C00000BD0EB540F2334102910021CDE9001189
:1006D0000A460B4600F0CFF803B000BD00F0004220
:1006E00020F00040C10DC0F3160040F400007F2947
:1006F00001DA00207047962903DCC1F19601C84059
:1007000001E096398840002AF4D04042704720F03A
:100710000040C10DC0F3160040F400007F2901DA4B
:1007200000207047962903DCC1F19601C84070474C
:1007300096398840704700F0004230F000400AD0FF
:10074000C10D01F56071C0F3160042EA0151C20803
:1007500040071143704700200146704701F00043F5
:1007600030B421F0004150EA010206D00A0DA2F592
:100770006072C1F31301002A02DC30BC0020704714
:10078000440F44EAC104C100E01830BC00EBC25081
:1007900000F02BB8002801DBC0F10040002901DB8C
:1007A000C1F1004188427047202A04DB203A00FA58
:1007B00002F1002070479140C2F1200320FA03F3B8
:1007C000194390407047202A06DBCB17203A41FAA4
:1007D00002F043EAE07306E041FA02F3D040C2F1CE
:1007E000200291400843194670470029A8BF70476E
:1007F000401C490008BF20F00100704710B4B0FA57
:1008000080FC00FA0CF050EA010404BF10BC7047F1
:1008100049B1CCF1200421FA04F411FA0CF118BF0B
:10082000012121430843A3EB0C01CB1D4FEA0061DA
:100830004FEA102042BF002010BC704700EBC350AD
:1008400010440029A4BF10BC7047401C490008BFD9
:1008500020F0010010BC704710B5141E73F10004A5
:1008600008DA401C41F1000192185B411A4301D1A2
:1008700020F0010010BD2DE9F04D92469B4611B1CC
:10088000B1FA81F202E0B0FA80F220329046FFF72E
:100890008BFF04460F4640EA0A0041EA0B0153462B
:1008A0005A46084313D0114653EA010019D0C8F143
:1008B0004002504600F0C0F805460E4650465946E4
:1008C0004246FFF771FF084305D0012004E02046AF
:1008D0003946BDE8F08D0020054346EAE0762C431A
:1008E00037430A986305E40AA0EB08000022FD0ADA
:1008F00044EA47540A3002D500200146E9E70105E1
:1009000010196941DDE9084500196941BDE8F04D5C
:10091000A2E770B521F0004303430CD0C1F30A55A0
:100920000024D5EB040564EB0403D617AD1AB341DC
:1009300002DB0020014670BD201841EB025170BD62
:100940002DE9F04D00231A461B1A8A4103DB0020D3
:100950000146BDE8F08DC1F30A52C1F3130141F421
:1009600080154FF0000BD10702D100186D41521EC7
:100970000027044640F2FF11384601EB620A3E466A
:100980008046024600204FF4801100F055F8C2194D
:100990007141BB1846EB0100B4EB030C75EB000C86
:1009A00004D3E41A65EB000517460E46241908F136
:1009B00001006D4180463428E3DDF91946EB06005D
:1009C000091BA84103D24FF0FF32134601E0002279
:1009D00013461BEB070046EB0A51BDE8F04DFFF74D
:1009E0003BBF000030B5041E71F1000404DB4FF082
:1009F0000044404264EB0101141E73F1000405DB66
:100A00001C464FF00043524263EB0403994208BF77
:100A1000904230BD064C074D06E0E06840F001030F
:100A200094E8070098471034AC42F6D3FFF784FBF4
:100A30006079000880790008202A04DB203A21FA36
:100A400002F00021704721FA02F3D040C2F12002E7
:100A5000914008431946704770B58C1810F8015B37
:100A600015F0070301D110F8013B2A1106D110F847
:100A7000012B03E010F8016B01F8016B5B1EF9D14B
:100A80002B0705D40023521E0DD401F8013BFAE7D1
:100A900010F8013BCB1A921C03E013F8015B01F83C
:100AA000015B521EF9D5A142D8D3002070BD0000D1
:100AB0002DE9FF4F8FB099460C460746B0F882B635
:100AC00001F0C8FF08902146384601F069FFF84D53
:100AD00007902946FFF77AFBFFF72DFEDFF8D48356
:100AE0000022434604F030FBFFF738FE0646294655
:100AF0004846FFF76BFBFFF71EFE0022434604F05B
:100B000023FBFFF72BFE05463146FFF7B1FB11999A
:100B1000FFF7E6FB2946FFF7AEFB0290E649E06AE5
:100B2000FFF7ACFB4FF07E594D464946FFF74EFBB1
:100B300001462846FFF7D4FBCDE90305B4F9400090
:100B40000646FFF79FFD616BFFF798FB2946FFF70D
:100B50003DFB0590B4F94200801BFFF793FDA16BAC
:100B6000FFF78CFB2946FFF731FB0599FFF786FB62
:100B70000690B7F81406FFF78EFDD04E0546B0423A
:100B800004DD4FF08F41FFF773FB0546B4F9140005
:100B9000FFF778FD2946FFF7A3FB0990B7F8800619
:100BA000802101EA501AB7F81006FFF774FD009093
:100BB000B7F85006FFF76FFD00256E46019056F816
:100BC0002500BE49884205DD4FF08F41FFF750FBFD
:100BD00046F825006E465DF825000999FFF74EFBA3
:100BE00046F825006D1C022DE9DBB5490898FFF792
:100BF0003FFB0B90E169FFF741FB4FF07E55294623
:100C0000FFF7E4FA0646AF490798FFF731FB0A9071
:100C1000216AFFF733FB2946FFF7D8FA04F500599C
:100C20000546B9F94C0AFFF72DFD2946FFF726FBCB
:100C30003146FFF723FB0099FFF71DFB009094F866
:100C40002510B9F94E0A514502D1FFF71BFD05E009
:100C5000FFF718FDD9F8501AFFF7B8FA2946FFF741
:100C60000DFB3146FFF70AFB0199FFF704FB002556
:100C70000190EA1705EB926105EBD26089114011F2
:100C8000494200EB410046B205EBD57040104042AE
:100C900005EB4000AB1C70404FEAE37C4FFA80F854
:100CA00003EB9C73E81C4FEAE07C9B1000EB9C700C
:100CB000691CA3EBA000CB1701EB937100EBA10023
:100CC00005EB9271A0EBA1007242012101EB420100
:100CD000484340B20D90BAF1000F00D1B046B7F8CA
:100CE000820640457DD137F81500FFF7D4FC7349E3
:100CF000884203DD4FF08F41FFF7BAFA0999FFF7F9
:100D0000BDFA079004EB85000B9A00F58058089017
:100D10001046D8F8441EFFF7B1FA4FF07E51FFF7A6
:100D200055FA0C900A98D8F84412FFF7A7FA4FF03A
:100D30007E51FFF74BFA804604EB4500B0F9440CB6
:100D4000FFF7A0FC4146FFF799FA0C99FFF796FAD6
:100D50000799FFF790FA94F825108046514518D06E
:100D60000D98FFF78FFCD9F8541AFFF787FA079010
:100D70004FF0FF3000EB4600FFF784FCD9F8581A1B
:100D8000FFF77CFA4146FFF721FA0799FFF770FA5F
:100D9000804640461199FFF7A3FAD4F8188006461A
:100DA0005DF82B104046FFF769FA3146FFF763FA0A
:100DB00007900A98A16AFFF761FA4FF07E51FFF79A
:100DC00005FA064604EB8B0000F50050D0F8441AF3
:100DD0004046FFF753FA0899496CFFF74CFA314641
:100DE00000E0BBE0FFF74AFA08900299FFF746FAE5
:100DF0000799FFF7EBF9FFF79EFC0646884608982F
:100E0000FFF799FC0022304B04F09EF9324643462E
:100E1000FFF757FBFFF7A2FC0646206BFFF78BFCA2
:100E2000804630460C91FFF786FC05F0F0F805F09F
:100E3000EEF842460C9BFFF744FBFFF78FFC06469B
:100E40001B49206BFFF71AFA4FF07E51FFF713FA98
:100E50000899FFF713FA3146FFF7B8F901460798EA
:100E6000FFF73EFA0299FFF7B1F9FFF764FC05F0CE
:100E7000CEF805F0CCF84FF0C042144BFFF71BFB47
:100E8000FFF76CFC8046B4F93E00FFF7FBFB4146E0
:100E9000FFF780FC01D2002625E0B4F94000FFF7FF
:100EA000F1FB4146FFF776FC12D201261BE0000061
:100EB00033938843000010400000204200FEFF46AC
:100EC000333353400000C8410000084066127140AF
:100ED000B4F94200FFF7D6FB4146FFF75BFC01D2B5
:100EE000022600E0032604EB4600B0F93C00FFF7C1
:100EF000C9FB4146FFF7BFF904EB8601C96AFFF75A
:100F0000BDF94FF07E51FFF761F9804603A850F814
:100F100026100898FFF7B2F94146FFF7AFF90146EE
:100F20000798FFF7DDF90299FFF750F9FFF703FC87
:100F300005F06DF805F06BF84FF066320B4BFFF7DC
:100F4000BAFAFFF70BFC0A49FFF798F90949FFF7CE
:100F50003DF9FFF7DCFB1C9921F815006D1CB5F578
:100F6000407FFFF686AE13B0BDE8F08F6612714089
:100F7000000020410000C84310B588B040F2026074
:100F800004F07CFF40F2096004F078FF4FF4A060A9
:100F900004F074FF032004F03FFF03231A460021EE
:100FA000354803F010FB354C0021204602F086FD49
:100FB0003348002100908DF8181001208DF8190099
:100FC0004002019080000390022004902D4A00030B
:100FD000029205908DF81A106A46204602F089FDAB
:100FE0000021204602F05AFD0021204602F046FD75
:100FF000234C4C3C204602F0AFF8002002F002F9EE
:1010000001220221204602F055F901221102204658
:1010100002F050F90021204602F094F8022201214A
:10102000204602F074F8002205231146204602F003
:10103000F5F8012205231146204602F0EFF84FF49F
:1010400060220121204602F0CDF8012211462046FF
:1010500002F0ADF8204602F0A2F8012002F0BEFB3B
:10106000204602F045F8204602F094F8012120467F
:1010700002F013F908B010BD000801400000024062
:101080004C240140B8000020F0B5094F059E0BE04C
:10109000044601EB810504E004EB851C641C07F8A1
:1010A0000C609442F8D9491C9942F1D9F0BD000076
:1010B000B40100202DE9F8439846089D14008946A4
:1010C000064605D554422D22009500F061F80836F9
:1010D0000A27642C25DB642094FBF0F03030C2B288
:1010E000434649463046009500F052F894FBF7F02D
:1010F00090FBF7F107FB11003030C2B2434649467E
:1011000006F10800009500F043F894FBF7F007FBA8
:1011100010403030C2B24346494606F110000095F7
:101120001DE00A2C15DB94FBF7F03030C2B24346C9
:1011300049463046009500F02BF894FBF7F007FB8A
:1011400010403030C2B24346494606F108000095CF
:1011500005E03034E2B2434649463046009500F09F
:1011600017F8BDE8F8832DE9F8411F461446884674
:101170000546079E07E03B4641462846009600F09C
:1011800007F8641C08352278002AF4D1BDE8F881FC
:101190002DE9F04F203AD5B2DDF824C0324A80273D
:1011A000324EDCB2BCF1000F09D0BCF1010F23D0EC
:1011B000C1F106039346B946C1F1100A50E000237D
:1011C0009246B94603EB05121AF8028000225F1816
:1011D00007EB870700EB871C29FA02F737EA0807B5
:1011E00002D10CEB0207F455521C082AF4D35B1C05
:1011F000082BE7D3BDE8F08F08239246B94603EBEE
:1012000005125F181AF802800022083F07EB8707D3
:1012100000EB871C29FA02F737EA080702D10CEB2A
:101220000207F455521C082AF4D35B1C102BE6D39A
:10123000E0E703EB05125F181BF802800022BF1FD6
:1012400007EB870700EB871C29FA02F737EA080744
:1012500002D10CEB0207F455521C082AF4D35B1C94
:101260009A45E6D8C6E70000E46F0008B401002004
:101270002DE9F8479946099C15008A46064607D588
:10128000504205B22D2230460094FFF781FF083608
:101290004FF47A700A274FF0640885421FDB95FBF4
:1012A000F0F03030C2B24B46514630460094FFF762
:1012B0006FFF95FBF8F090FBF7F107FB1100303062
:1012C000C2B208364B46514630460094FFF760FFE5
:1012D00095FBF8F108FB115090FBF7F011E0642D3D
:1012E00028DB95FBF8F03030C2B24B465146304611
:1012F0000094FFF74DFF95FBF7F090FBF7F107FB2C
:1013000011003030C2B24B46514608360094304688
:10131000FFF73EFF08364B462E22514630460094DA
:10132000FFF736FF95FBF7F007FB10503030C2B2E5
:1013300000941BE00A2D07DB95FBF7F03030C2B2BA
:101340004B4651460094E2E74B4630225146304628
:101350000094FFF71DFF08364B462E2251463046BB
:101360000094FFF715FF3035EAB2009408364B467B
:1013700051463046FFF70CFF06F108004B4603A22A
:1013800051460094FFF7EFFEBDE8F88727430000C1
:10139000FEE7411A01F121026FF00500032A06D38E
:1013A0004A1C032A03D31F39032900D300207047A6
:1013B000007D10F0400001D06FF0060070477047CC
:1013C000F8B5FE2406220923012110460094FFF7F8
:1013D0005BFE18220923012110460094FFF754FEFA
:1013E00001231822194606200094FFF74DFE092319
:1013F0001822194606200094FFF746FE0623052210
:10140000042103200094FFF73FFE40F6F64540F626
:1014100012664FF400511C4803F01DF950B3082325
:101420001722022107200094FFF72EFE174800889C
:1014300080B2A84201D2284602E0B04200D930462C
:10144000A0F6F64000EB00104FF48E7190FBF1F027
:10145000002485B2FF260AE0C4F1170082B280B2F0
:10146000082302210096FFF70FFE641CA4B2AC42D1
:10147000F2D3F8BD90200090082317220221072004
:10148000FFF702FEF8BD000000100140B800002088
:101490002DE9F84FC84E002740F64850378070803D
:1014A000DFF8189338464FF4407239F8101033883B
:1014B000994201D9318005467388994201D27180E1
:1014C0000446401C80B29042EFD330887188EF23ED
:1014D000401A40F6E21191FBF0F0B080002140F29A
:1014E0003F12084601F0CCF8B549042008600820F6
:1014F000091D086000220921104602F043FBFFF796
:101500005FFFB04B03224FF01E0C02EB82000CEB8E
:10151000801081B200205854491C401C80B289B20E
:10152000FE28F8D3521C92B2082AEED9022000906D
:10153000A548FE230268A548017840F21F10FFF776
:1015400012FE0A2005F02EFD002213210A2002F0CF
:1015500019FB00977088FE23A0F5C87002B2B04650
:1015600002211E20FFF784FE0097B8F80000FE233A
:10157000A0F5C87002B20221EC20FFF779FEDFF877
:1015800050A200974FF4907BFE2302215846DAF8D0
:101590000020FFF7E8FD0A2005F004FD00221D21D0
:1015A000142002F0EFFA01260096B8F80200FE239C
:1015B000A0F5C87002B200211E20FFF759FE009668
:1015C000B8F80000FE23A0F5C87002B20021EC209C
:1015D000FFF74EFE0096FE2300215846DAF8002061
:1015E000FFF7C1FD0A2005F0DDFC012273211E205A
:1015F00002F0C8FA00227D21742002F0C3FA4FF0F5
:10160000FF080523A42219469C20CDF80080FFF78F
:101610003BFDA022092301211046CDF80080FFF7F1
:1016200033FD0A2005F0BEFC0122DB217E2002F002
:10163000A9FA0022E521DC2002F0A4FAFE2365A22B
:10164000022104200097FFF78EFDDFF894A1634983
:10165000DAF80000FEF712FEFFF740F80246FE231C
:10166000022124200097FFF725FD0097B9F8E0023A
:10167000FE23A0F5C87002B202218C20FFF7F8FD0E
:10168000FE2358A20221F0200097FFF76CFDDFF83F
:101690005C81DFF854B15946D8F80000FEF7EEFD42
:1016A000FFF71CF8009702B24FF48477FE23022163
:1016B0003846FFF7DDFD0A2005F074FC0022EF211B
:1016C000E62002F05FFAFE2342A2002104200096E9
:1016D000FFF749FD4149DAF80000FEF7CFFDFEF7BC
:1016E000FDFF0246FE23002124200096FFF7E2FCC6
:1016F0000096B9F8E002FE23A0F5C87002B20021FE
:101700008C20FFF7B5FDFE2336A20021F0200096C5
:10171000FFF729FD5946D8F80000FEF7AFFDFEF7A8
:10172000DDFF02B2FE23002138460096FFF7A0FD40
:101730000A2005F037FCDFF8B8801F2D08F12009DA
:101740001AD905F01F014FF61F0718F801004600CF
:1017500009EB5510F21D007800974500F01F2B464D
:1017600080B2194600F07CFEEB1DED1F3246A9B297
:101770001046009700F074FE1F2C1AD904F01F01C8
:101780004FF4FC6618F80100450009EB5410EA1DFF
:10179000007800964400E81F234680B2194600F006
:1017A0005FFEE31DE41F2A46A1B21046009600F03A
:1017B00057FEBDE8F88F0000C0000020B4110020E3
:1017C00010080140B40100200400002000000020A7
:1017D00008000020653D302E000000000000C842D7
:1017E0000C00002054613A0000002041100000204D
:1017F000D47700082DE9F34F0746B0F840001E21CA
:10180000BDB000F00F03C0F3031AC0F3032B01EBCC
:101810001038B7F842003B90002020AA07EB4001A7
:101820008400B1F84410401C01F00F0542F8245028
:1018300002EB8404C1F303156560C1F30325090BB2
:10184000C4E902510628E9DB002052F820100729DC
:1018500002DD103942F82010401C1828F5DB00206A
:101860006D4607EB40018400B1F85010401C01F0B8
:101870000F0645F8246005EB8404C1F30316666087
:10188000C1F30326090BC4E902610828E9DB002043
:1018900055F82010072902DD103945F82010401CAA
:1018A0002028F5DB012000269840FEF7EBFE3A9059
:1018B0004046FEF706FFCDE93801002505EB46144A
:1018C00007EB4400B0F88000C0F30510FEF7E3FE1C
:1018D0003E9901EB84041E496064884204DD4FF0A8
:1018E0008541FEF7C5FC60643A98616CFEF7C6FC62
:1018F000804620A83B9950F8260000FA0BF04218C9
:101900005DF8250000FA0AF01044FEF7BBFE4146E0
:10191000FEF75CFC6064DDE938210B4600204FF0E7
:10192000804103F011FC80468946606CFEF703FF9E
:1019300042464B46FEF737FEFEF710FF6D1C606413
:10194000202DBBDB761C182EB7DB3FB0BDE8F08F37
:101950000000F8412DE9F0470D46818A8022B0F859
:101960006A4002EA111181F0800604F03F00FEF7A0
:1019700092FE1A49884203DD4FF08541FEF778FC5C
:101980006FF00301FEF7EAFC8046C4F38410FEF713
:1019900082FE134F4FF0844AB84202DD5146FEF7F3
:1019A00067FC4FF0FF31FEF7D9FC8146E00AFEF7F5
:1019B00072FEB84202DD5146FEF75AFC6FF002019A
:1019C000FEF7CCFC85F8256005F50055C5F8549A5E
:1019D000C5F8508AC5F8580ABDE8F0870000F841FC
:1019E000000070412DE9F05F04460F46B0F840005A
:1019F0001B2101EB1038B4F87410C1F3090060F337
:101A00000F05B0F5007F03DBA0F5806060F30F05E4
:101A1000880A60F31F451F2802DD403860F31F4528
:101A200005EB254060F31F45B4F87200C0F30900D0
:101A3000FEF731FE49490646884204DD4FF08941F0
:101A4000FEF716FC06464046FEF73BFE02460B46F6
:101A500000204FF0804103F077FB804689463046F6
:101A6000FEF769FE42464B46FEF79DFDFEF776FE09
:101A70008046B4F87200800AFEF70DFE38498842AD
:101A800003DD4FF08541FEF7F3FB6FF00601FEF733
:101A900065FC4FF07E51FEF799FB4146FEF7EEFBE9
:101AA000834694F87600FEF7F6FD06462D488642FA
:101AB00005DD4FF087413046FEF7DAFB064694F825
:101AC0007000C0F303100830FEF7FBFD02460B4622
:101AD00000204FF0804103F037FB81468A463046B4
:101AE000FEF729FE4A465346FEF75DFDFEF736FE39
:101AF0003862B4F87600000AFEF7CDFD19490646B3
:101B0000884204DD4FF08741FEF7B2FB0646B4F889
:101B10007000C0F30320FEF7D4FD02460B46002000
:101B20004FF0804103F010FB044689463046FEF733
:101B300002FE4B462246FEF736FDFEF70FFEF86129
:101B400007F500572814C7F848BAC7F8448AA7F819
:101B50004C5AA7F84E0ABDE8F09F00000080FF43F2
:101B60000000F8410000FE422DE9F0410B46002143
:101B700006460D460C4608464FF6FF7703EB41023A
:101B800002F50052491CA2F85C7A89B2A2F8667A82
:101B90000529F3D300214FF4407712E006EB410210
:101BA000B2F88020BAB1D20707D003EB440202F5A5
:101BB0000052641CA2F8661AA4B2491C89B2B94248
:101BC00003D2052D01D2052CE8D3042D0CD96FF0DA
:101BD0000200BDE8F08103EB450202F500526D1CE6
:101BE000A2F85C1AADB2E8E7042C02D96FF003004A
:101BF000EFE72919042902D96FF00400E9E700276B
:101C000016E003EB47017E1C01F500580CE003EBE6
:101C1000460000F50050B0F85C1AB8F85C0AFFF70F
:101C2000B8FB0028D5D1761CAE42F0DB7F1CBFB2DA
:101C3000AF42E6D3002716E003EB47017E1C01F517
:101C400000580CE003EB460000F50050B0F8661AAF
:101C5000B8F8660AFFF79DFB0028BAD1761CA642A9
:101C6000F0DB7F1CBFB2A742E6D3002716E003EBF0
:101C70004701002601F500580CE003EB460000F593
:101C80000050B0F8661AB8F85C0AFFF782FB00282B
:101C90009FD1761CA642F0DB7F1CBFB2AF42E6D3D9
:101CA00097E7B0F96000B0F5004F00DB00B2888222
:101CB0007047000010B5B0F878000C46000AFEF737
:101CC000EAFC0649884203DD4FF08741FEF7D0FA6F
:101CD0006FF00C01FEF742FBA06210BD0000FE4257
:101CE0002DE9F04705460C4635F87E0F6FF02701C9
:101CF000A1870021E18715F80419C0F30130C1F371
:101D0000031124F8401F00EB80004000AA884143E3
:101D1000C2F3032224F8141902FB0010E082287990
:101D2000012600F00F00083086402878FEF7B3FC4B
:101D300020602888000AFEF7AEFC6060A878FEF7F5
:101D4000AAFCA0606888000AFEF7A5FCE0600025F8
:101D50000D4F4FF0874930462C3CFEF793FC8046F0
:101D600004EB8506F06AB84203DD4946FEF780FAC7
:101D7000F0624146F06AFEF7B3FA6D1CF062042D82
:101D8000EEDBBDE8F08700000000FE422DE9F34FD6
:101D9000B0F86C10074641F3072085B07F2800DDBE
:101DA00040B28DF8000048B27F2800DD40B28DF8C7
:101DB0000200B7F86E1041F307207F2800DD40B223
:101DC0008DF8010048B27F2800DD40B28DF8030095
:101DD00097F870000026C0F3031400F00F010120F3
:101DE0008840DFF8CCA0EB460834FEF74BFC0390AC
:101DF0002046FEF766FCCDE90110002505EB4614F0
:101E0000E01704EBD06104EB90608011491140426F
:101E100001EB400004EBD47121F00101611A01EBE8
:101E2000400000F0FF0907EB440090F88000C0F389
:101E30004200FEF730FC0699504501EB840404F59E
:101E40008054C4F8440205DD4FF08241FEF710FAD9
:101E5000C4F84402D4F84412039804F51174FEF750
:101E60000DFA80461BF90900FEF70CFC4146FEF70F
:101E7000ADF92060DDE901310A4600204FF08041D4
:101E800003F062F9804689462068FEF754FC42461A
:101E90004B46FEF788FBFEF761FC6D1C2060202D91
:101EA000ACDB761C182EA8DB07B0BDE8F08F000075
:101EB000000040402DE9FE4FB0F868208A46110B23
:101EC000072900DD10398DF80010C2F3032107291E
:101ED00000DD10398DF80210C2F30311072900DD6F
:101EE00010398DF8011002F00F01072900DD1039BB
:101EF0008DF80310B0F870000026C0F30320E94607
:101F0000FEF7DFFBCDE901104FF0804B002505EB1C
:101F10004614E01704EBD06104EB90608011491186
:101F2000404201EB400004EBD47121F00101611A41
:101F300001EB4000C0B219F90000FEF7A3FB0AEB69
:101F40008404A4F5DE7404F500542060DDE9013159
:101F50000A460020594603F0F7F8074688462068ED
:101F6000FEF7E9FB3A464346FEF71DFBFEF7F6FB9C
:101F70006D1C2060202DCADB761C182EC6DBBDE848
:101F8000FE8F2DE9F04F8B46018CB0F92230B8B0AE
:101F900001F00F08C1F30316C1F3032AB3F5004F94
:101FA00000DB1BB2002120AD00EB41028C00928CC3
:101FB000491C02F00F0745F8247005EB8404C2F3B6
:101FC00003176760C2F30327120BC4E902720629E4
:101FD000EADB002155F82120072A02DD103A45F8F6
:101FE0002120491C1829F5DB0021EC4600EB4102B9
:101FF0008C00128E491C02F00F074CF824700CEB79
:102000008404C2F303176760C2F30327120BC4E909
:1020100002720829EADB00215CF82120072A02DD90
:10202000103A4CF82120491C2029F5DB0022AE464D
:10203000E1465EF82270002107FA0AF701EB42142C
:1020400000EB44050BEB4404B5F88050AD0AA4F84E
:10205000445C1F2D02DD403DA4F8445C39F821C0EA
:10206000ADB205FA08F50CFA06FCBC441D44654403
:10207000491CA4F8445C2029E0DB521C182AD8DB58
:1020800038B0BDE8F08F00002DE9F041B0F8646091
:1020900005460C46B00AFEF7FEFA1949884203DDF0
:1020A0004FF08541FEF7E4F86FF00B01FEF756F9AB
:1020B0008046C6F30900FEF7EEFA1249884203DDB6
:1020C0004FF08941FEF7D4F86FF00201FEF746F9B0
:1020D0000746288CB5F8626000F47040FEF7F1FA0C
:1020E0000022094BFEF75FFA0022084BFEF742F987
:1020F000FEF734FBC4E90187A6812061BDE8F081C9
:102100000000F8410080FF430000D0400000204064
:1021100010B50C4690F87800FEF7BDFA06498842E3
:1021200003DD4FF08741FEF7A3F86FF00401FEF7DF
:1021300015F9A06110BD00000000FE42B0F8662055
:10214000100A7F2801DDA0F580704001D2B24FF463
:10215000404303EB421208804A807047FEE70000CC
:102160002DE9F05F8A46804600254FF4004B3BE0A6
:10217000012000F018FFDFF878905F465946484686
:1021800002F01FFABB4600244F4626464FF4007962
:10219000012000F008FF4946384602F012FA0120FB
:1021A00000F001FF6006040E5946384602F053FA6B
:1021B00008B1641CE4B2012000F0F5FE494638463F
:1021C00002F0FDF9012000F0EEFE761C082EDFDBA8
:1021D000A8F10100854202D100F0BCF801E000F056
:1021E0005FF80AF805406D1C4545C1DBBDE8F09F6E
:1021F000000801402DE9F041134D4FF400463146EF
:10220000284602F0DEF9012000F0CDFE6F153946B8
:10221000284602F0D6F9012000F0C5FE31462846D6
:1022200002F019FA70B10124012000F0BCFE394619
:10223000284602F0C4F93146284602F0C0F920468B
:10224000BDE8F0810024EFE70008014070B5134DB0
:102250004FF400742146284602F0B1F9012000F045
:10226000A2FEA6013146284602F0ABF9012000F09B
:102270009AFE2146284602F0A4F9012000F093FEC0
:102280003146284602F09BF9012000F08CFE2146E1
:102290002846BDE8704002F092B9000000080140F5
:1022A00070B5114D4FF400442146284602F087F9DD
:1022B000012000F078FEA6113146284602F081F98F
:1022C000012000F070FE012000F06DFE314628462E
:1022D00002F075F9012000F066FE21462846BDE8AF
:1022E000704002F06EB90000000801402DE9F04195
:1022F000174F002504464FF400487E15012000F0DA
:1023000052FE20064146384602D502F05AF901E055
:1023100002F055F9012000F046FE3146384602F041
:1023200050F9012000F03FFE012000F03CFE314654
:10233000384602F044F960006D1C44B2082DDDDB24
:10234000012000F030FEBDE8F041FFF753BF000070
:102350000008014070B5114D4FF400442146284655
:1023600002F02FF9012000F01EFEA611314628468A
:1023700002F027F9012000F016FE012000F013FE04
:102380003146284602F01BF9012000F00CFE2146E0
:102390002846BDE8704002F014B900000008014072
:1023A00070B5114D4FF400442146284602F009F95A
:1023B000A6113146284602F004F9012000F0F3FD91
:1023C000012000F0F0FD2146284602F0F8F8012037
:1023D00000F0E9FD3146284602F0F1F8BDE8704012
:1023E000012000F0E0BD00000008014070B50F4D75
:1023F0004FF400742146284602F0E1F8A601314668
:10240000284602F0DCF8012000F0CDFD21462846E8
:1024100002F0D7F8012000F0C6FD3146284602F050
:10242000D0F8BDE87040012000F0BDBD00080140BB
:10243000084908220A6004230B600749D3020B6194
:10244000064B18601003486108610248001F0260D3
:102450007047000014080140001001400C0C0140BE
:102460002DE9FF4F91460C468346DDF834A0039BCF
:1024700000F006F90E4D08264FF0040C05F1040893
:102480000C4A31030C4B0EE0584609E0C5F800C079
:10249000C8F80060C2F800A0596119612E60401CA4
:1024A0004845F3D9641C03988442EDD9BDE8FF8FF9
:1024B000100801400C0C014000100140F0B500F084
:1024C00041F82E20FFF7B4FF1B4C4FF088302060FE
:1024D000251D2860184E00200C363060174F042050
:1024E0003860410316480161391D4FF0080CC1F8EE
:1024F00000C04FF4804141612B1D1A6801614161A8
:102500001A68016192B241611B6801619BB2C7F810
:1025100000C04FF03330206028604FF6FF7131600B
:10252000D0B201EA002022EA6111800A41EA40109B
:1025300040EAD320F0BD0000000C0140100801402B
:10254000001001402DE9F34F83462A20FFF770FF6A
:102550001D4C4FF00408C4F8008004F1040908255C
:10256000C9F80050DFF864A04FEA1B21CAF8001038
:10257000174F2E037E613E612560C4F80080C9F8C4
:1025800000500BF0FF01CAF800107E613E6125602B
:102590002B20FFF74DFFC4F80080C9F800500198C8
:1025A000010ACAF800107E613E612560C4F800800F
:1025B000C9F800500198C1B2CAF800107E613E61AE
:1025C0002560BDE8FC8F0000100801400C0C0140A4
:1025D000001001402DE9F8411F4614468846054683
:1025E000079E07E03B4641462846009600F008F863
:1025F000641C08352278002AF4D1BDE8F881000077
:102600002DE9FF4F203A02F0FF0B01F10F03C21D2D
:1026100000F036F8174F0021DFF854E00825164C7B
:10262000164B4FF0800A4FF0040907F104082A0303
:1026300001EB0B101EF8006000202AFA00FC3CEAB7
:10264000060CC7F80090C8F800500ED0DDF834C072
:10265000C4F800C05A611A613D60401C0828ECD3E0
:10266000491C1029E4D3BDE8FF8FDDF80CC0EFE76B
:10267000E46F0008100801400C0C014000100140FC
:102680002DE9FF4F83462A20FFF7D2FE354C4FF04D
:102690000408C4F8008004F104090825C9F80050B2
:1026A000DFF8C4A04FEA1B21CAF800102F4F2E03F9
:1026B0007E613E612560C4F80080C9F800500BF0CF
:1026C000FF01CAF800107E613E612560C4F80080F9
:1026D000C9F800500298010ACAF800107E613E61F4
:1026E0002560C4F80080C9F800500298C1B2CAF849
:1026F00000107E613E6125602B20FFF799FEC4F833
:102700000080C9F800500198010ACAF800107E61E3
:102710003E612560C4F80080C9F800500198C1B23C
:10272000CAF800107E613E612560C4F80080C9F8D7
:1027300000500398010ACAF800107E613E612560CE
:10274000C4F80080C9F800500398C1B2CAF800105C
:102750007E613E61256004B02C20BDE8F04FFFF79C
:1027600067BE0000100801400C0C01400010014041
:102770002DE9F04F3620FFF75BFE364C4FF0040892
:10278000C4F8008004F104090825C9F80050DFF8F6
:10279000C8A06821CAF80010304F2E037E613E6148
:1027A00025602A20FFF744FEC4F80080C9F80050D5
:1027B0004FF0000BCAF800B07E613E612560C4F89E
:1027C0000080C9F80050CAF800B07E613E61256003
:1027D000C4F80080C9F800500121CAF800107E61D9
:1027E0003E612560C4F80080C9F800503F21CAF856
:1027F00000107E613E6125602B20FFF719FEC4F8B2
:102800000080C9F80050CAF800B07E613E612560C2
:10281000C4F80080C9F80050CAF800B07E613E617B
:102820002560C4F80080C9F80050CAF800B07E6185
:102830003E612560C4F80080C9F80050EF21CAF855
:1028400000107E613E612560BDE8F04F2C20FFF74F
:10285000EFBD0000100801400C0C014000100140C9
:102860000B464FF450724FF4105100F061B970B53F
:102870000C460546FEF79CFD00283BD12146284624
:10288000FFF75CFC21462846FFF7FEFB2146284661
:10289000FFF707FA21462846FFF73AFCB5F8700023
:1028A0002146C0F3013084F824002846FFF702FADD
:1028B00021462846FFF714FA21462846FEF79AFFDC
:1028C00021462846FFF75DFB21462846FFF75EFAC2
:1028D00021462846FFF7EEFA21462846FFF782F800
:1028E00021462846FFF736F821462846BDE87040C5
:1028F000FFF73AB970BD2DE9FC470D46814600242B
:102900004FF400466B4601223146484600F010F96C
:1029100000282DD1BDF8000010F0080FF2D04FF4C0
:1029200050774FF48068052C1ED23022314648463D
:1029300000F05AF9411C1BD02B463A464146484606
:1029400000F0F6F8002813D16B46012231464846C4
:1029500000F0EEF800280BD1BDF8000004F10104EE
:1029600010F0080FE4B2DED1042C03D96FF0070099
:10297000BDE8FC8701AB012248F20D01484600F09A
:10298000D7F8BDF80410A5F88016BDF8001000288F
:1029900001F00101A5F88216EAD10846E8E7000037
:1029A0002DE9F0470C46054600F054F88146B5F88D
:1029B0004006FDF770FE234F06464FF08F48B842A1
:1029C00003DD4146FDF754FC0646B5F80006FDF769
:1029D00062FE0546B84203DD4146FDF749FC054667
:1029E00030462169FDF74AFC2946FDF7EFFB014619
:1029F0003046FDF775FCFDF79EFE0022124BFDF7F9
:102A000060FDFDF7ABFE0546A089FDF744FE0646D6
:102A10000E494846FDF72CFC6168FDF72FFC4FF08E
:102A20007E51FDF7D3FB01462846FDF759FC3146A0
:102A3000FDF71EFCA168FDF753FCBDE8F047044913
:102A4000FDF7C4BB00FEFF46000010413333534086
:102A50000000C8412DE9F04106460D46B0F8540685
:102A6000FDF719FE21490446884204DD4FF08F41ED
:102A7000FDF7FEFB0446B6F88006C0F38120FDF7A3
:102A80000FFE02460B464FF080480020414602F000
:102A90005BFB06460F4695F82400FDF712FE024642
:102AA0000B460020414602F04FFB32463B46FDF705
:102AB0007AFDFDF753FE0646B5F90000FDF7E2FD8D
:102AC0000746B5F90200FDF7DDFD05462146304613
:102AD000FDF7D4FB2946FDF7CBFB3946FDF700FC9B
:102AE000BDE8F0410249FDF771BB000000FEFF4662
:102AF0003333534070B50D4E4FF400742346032218
:102B00001021304601F05FFDA5012B460322102164
:102B1000304601F058FD2146304601F052FD29466D
:102B20003046BDE8704001F04CBD00000008014097
:102B30002DE9F043ADF2846D8946804600241D46A0
:102B4000174626464FF4D0616846FDF728FB4FEA4A
:102B500048604FEA10684FEA192060F3070669F3EE
:102B60000F26FFF743FC012000F01DFAFFF718FCC9
:102B7000012000F018FA4FFA88F0FFF7B7FB00B118
:102B800001204FF0FF39A0B970B2FFF7AFFB00B1E1
:102B9000012070B946F30720FFF7A8FB00B1012020
:102BA00038B9FFF753FB48F0010040B2FFF79EFB36
:102BB00020B148460DF2846DBDE8F0837800694687
:102BC000FFF7CEFAFFF712FC694608E060000A182A
:102BD000085C5278641C02EB002025F8020BBC4212
:102BE000F4DB0020E6E700002DE9F84380460020F2
:102BF0000090080A8DF800008DF80110100A8DF879
:102C0000020015460E464FEA48048DF80320FFF7F0
:102C1000EDFB012000F0C7F9FFF7C2FB60B2FFF740
:102C200065FB10B10120BDE8F88300246F463857DA
:102C3000FFF75CFB10B14FF0FF30F4E7641C042C8D
:102C4000F5DBFFF7D3FB074B012231464046FFF788
:102C50006FFF04480088A84202D06FF00100E2E74D
:102C60000020E0E7C6000020F8B506464807840DBE
:102C700048F20D056B46012229463046FFF758FF02
:102C8000002808D1BDF80000294620F460722243D4
:102C90003046FFF7A9FFF8BDFEE770477047000018
:102CA00010B5074C1021204601F089FC062003F0E6
:102CB00073F92046BDE81040102101F082BC0000ED
:102CC0000008014070B50403FFF7EAFF00F09EF82A
:102CD0000D4D1021284601F072FC202003F05CF914
:102CE000C4F3074003F058F9C4F3072003F054F984
:102CF000E0B203F051F91021284601F062FCBDE872
:102D0000704000F083B800000008014010B588B0A2
:102D100040F2026003F0B2F840F20C6003F0AEF84B
:102D2000184CA02303221821204601F04CFC40231C
:102D300003220421204601F046FC102303221946F9
:102D4000204601F040FC1021204601F03AFC002012
:102D50004FF48271CDE900106115CDE90201102117
:102D6000CDE90501084C04906946204603F038F986
:102D70000721204603F004F9204603F007F908B0C4
:102D800010BD000000080140003001402DE9F04175
:102D9000124F0C46064615461021384601F00FFC2E
:102DA000032003F0F9F8C4F3074003F0F5F8C4F387
:102DB000072003F0F1F8E0B203F0EEF8002405E09C
:102DC000FF2003F0E9F83055641CA4B2AC42F7D3FD
:102DD0003846BDE8F041102101F0F3BB0008014086
:102DE00070B5094C1021204601F0E9FB052003F0E5
:102DF000D3F8FF2003F0D0F805461021204601F05B
:102E0000E0FB284670BD00000008014010B5FFF748
:102E1000E7FFC007FBD110BD2DE9F05FC1F30B0642
:102E20000F0BC6F58054894680461546A24200D84D
:102E30001446DFF87CA039038B464FF480521C48BF
:102E4000FFF7A4FF002006E032181AF80210FF294D
:102E500003D1401C80B2A042F6D3A04221D2384612
:102E6000FFF730FF0020524605E018F800108319E4
:102E7000401CD15480B2A042F7D359464FF480523F
:102E80000B4800F017F8A5420FD0281BA044A1441E
:102E9000002685B24FF480547F1CA542CBD82C4627
:102EA000C9E7224649464046EBE7BDE8F09F0000EF
:102EB000B40100202DE9F0410746C8B2C0F5807486
:102EC0000E461546A24200D814464FF4807822469A
:102ED0003146384600F00EF8A54208D0281B27449A
:102EE000264485B24446A542F1D82C46EFE7BDE81A
:102EF000F08100002DE9F04115460C460646FFF72B
:102F0000CFFE124F1021384601F059FB022003F08A
:102F100043F8C4F3074003F03FF8C4F3072003F07D
:102F20003BF8E0B203F038F8002404E0305D03F031
:102F300033F8641CA4B2AC42F8D31021384601F037
:102F400040FBBDE8F041FFF761BF00000008014011
:102F5000704700000E48016841F0010101604168BE
:102F60000C4A1140416002680B490A400260026845
:102F700022F4802202604268084B1A4042600268D4
:102F80000A4002604FF41F01816003F0EFB80000B7
:102F9000001002400C00FFE8FFFFF6FEFFFF00F705
:102FA00003F0FABDFEE7002100E0491C8142FCDB92
:102FB0007047490050EAC12018BF04204A0D18BFCD
:102FC00040F0010040F2FF72B2EB515F08BF40F0E9
:102FD0000200012808BF052070472DE9F0414F1E6F
:102FE00000EBC7010446D1E9000115461E4637F043
:102FF00006020DD02A463346FDF763FA7F1E04EB26
:10300000C703D3E90023FDF7B5F937F00602F1D184
:10301000022F25D0042F13D0062F18BFBDE8F08152
:103020002A463346FDF74DFAD4E90A23FDF7A2F903
:103030002A463346FDF745FAD4E90823FDF79AF905
:103040002A463346FDF73DFAD4E90623FDF792F907
:103050002A463346FDF735FAD4E90423FDF78AF909
:103060002A463346FDF72DFAD4E90223FDF782F90B
:103070002A463346FDF725FAD4E90023BDE8F0419E
:10308000FDF778B90022134610460149FDF78BBAC7
:103090000000F03FFDF76EB90022134610461146BE
:1030A000FDF781BA40F2013200204FF0E041FDF718
:1030B00030BC0000024A00201107FDF72ABC0000C6
:1030C00001FDFFFF02E008C8121F08C1002AFAD163
:1030D00070477047002001E001C1121F002AFBD198
:1030E000704700000149086070470000B0010020EF
:1030F000816841F00801816081680907FCD481681A
:1031000041F00401816081684907FCD470471205D1
:10311000A2F5801201290BD0022908D1816B21F47C
:103120004011816302F44011826B11438163704747
:10313000C16A21F47001C16202F47001C26A1143D4
:10314000C16270470029816802D041F4006101E04A
:1031500021F40061816070470D4910B540180FD00F
:10316000B0F5806F0FD0B0F5C05F0FD140F20F34D3
:10317000204602F09FFE2046BDE8104002F08CBEC3
:1031800040F20934F4E740F20A34F1E710BD0000E0
:1031900000DCFEBF816841F4807181607047816806
:1031A000C90703D1816841F0010181607047002A9D
:1031B0004FEAC1720AD01AB1826842F4801282606A
:1031C00089070ED5816841F4004109E01AB182688F
:1031D00022F480128260890703D5816821F40041BE
:1031E00081607047012909D0022906D1816821F444
:1031F000E04181608168114381607047816821F4FA
:103200006021F6E704490A6822F470220A600A681D
:1032100002430A60704700000424014030B51F24B7
:10322000062909D2456B01EB81018C40A54302FAC6
:1032300001F42C43446318E00C290AD2056B891F62
:1032400001EB81018C40A54302FA01F42C43046395
:103250000BE0102909D2C56A0C3901EB81018C40C1
:10326000A54302FA01F42C43C46207250A2A08D2B6
:10327000046902EB42018D40AC438B402343036160
:1032800030BD122AFCD2C4680A3A02EB42018D40DA
:10329000AC438B402343C36030BDCA0703D0826870
:1032A00042F480028260890703D5816841F40011ED
:1032B00081607047002A4FEAC15211D0002A03DA18
:1032C000426842F4807242604A0503D5426842F483
:1032D00080624260890715D5816841F0020110E0E3
:1032E000002A03DA426822F4807242604A0503D55C
:1032F000426822F480624260890703D5816821F028
:10330000020181607047000070B50646184D1948EB
:103310006C7883686CB1012C16D0032C27D1002067
:1033200068703046BDE870401F23124A022103F046
:103330009BB901206870C5E90113934200D9AA60C6
:1033400028890A4683B20CE0A9684068591A00220D
:1033500000F012F8074A0D2320320320C5E90123AB
:1033600068703046BDE87040812103F0C9B970BD76
:103370001C0100206444002010B5044B024C1C606A
:10338000C3E901011A7310BD555342538444002010
:103390002DE9F04F68A0ADF5277DD0E90010CDE90B
:1033A0009C10182266499EA8FCF7E0FE2820CDF864
:1033B0003A02C400CDF83E42F020CDF8420201208E
:1033C000ADF846021020ADF848020320CDF84A02BD
:1033D0004FF41630CDF84E0244F64250ADF82C02B0
:1033E0005848CDF82E024225CDF836524FF4784099
:1033F000CDF862024FF4FC60CDF866021F204FF05A
:103400000009CDF86A026FF02E070A2603229CA954
:1034100001A800F0E5FC50B106229CA901A800F02B
:10342000DFFCF8B101200DF5277DBDE8F08F01A884
:1034300000F0A2FC9DF870029DF87112303800EB8C
:10344000800007EB40000844C0B2B0FBF6F1303119
:103450008DF87012B0FBF6F106FB110030308DF8DC
:103460007102D3E7A5AB2A468BA901A800F0A6FDFF
:1034700040F23F1B0021A490EF235A460846FFF775
:10348000FFF80027304EEF254FF4A06AA046002435
:10349000A9B2A0B2FFF712F83919641C24B226F8B9
:1034A00011004445F4DBE80734D047466D1E2DB2C9
:1034B000E02DECDA9CA99EA8FCF77CFE4FF6FF738A
:1034C0009EAAE0210020CDF80090FFF783F80021AC
:1034D000EF235A460846FFF7D3F80027B146DF2509
:1034E00046460024C846A9B2A0B2FEF7E7FF3A1943
:1034F000641C24B228F81200B442F4DBE80712D0AE
:1035000037466D1E2DB2002DEBDA01A800F034FC19
:10351000A49888E7A5AB52460B4901A800F04EFDE0
:103520000027A490C2E7A5AB5246074901A800F0C6
:1035300045FD0027A490E4E730302E626D70000056
:103540000C78000842580200B411002010B504465F
:1035500000202071401EE062204601F0F2FC08B11C
:10356000032010BDB4F82E02A0F52A41553901D030
:10357000022010BD94F8660094F8691094F8672052
:1035800040EA016194F86800000440EA0220014327
:103590000A48B0EB012F0DD014F8821FE27863784F
:1035A00041EA0261A278120442EA03221143B0EB1D
:1035B000012F01D1002010BD012010BD0046415453
:1035C00000E0401C02780AB18A42FAD1D0B27047BA
:1035D000426A0068490A8078B1FBF0F0121D02CA05
:1035E00019B1884203D3401AF8E7002070471168E8
:1035F000084470474269891E921E8A4201D8002001
:103600007047826A807801FB002070472DE9F04105
:103610000F00064606D000F052FF022809D2012012
:10362000BDE8F081F56815B17069A84207D8012599
:1036300005E0411CF4D071698142F1D83D462C4629
:103640007069641CA04202D80224022D0AD32146CC
:10365000304600F034FF38B1411CE1D00128DFD002
:10366000AC42EDD10020DBE76FF0704221463046DE
:1036700002F056FB30B957B122463946304602F0C7
:103680004FFB20B101280DD001242046C8E7F4608B
:103690003069411CF9D0401E3061707940F0010062
:1036A0007071F2E74FF0FF34EFE700002DE9F05FB3
:1036B0008B460968884609782F291DD05C291BD0C4
:1036C00080690B228146202101F034FC00252E4622
:1036D00037464FF0080A18F807407F1C202C4AD9BB
:1036E0002F2C48D05C2C46D02E2C01D056450ED322
:1036F000BAF1080F4ED102E008F10101DAE72E2CF1
:1037000048D10826A8064FF00B0A050EE3E7802CE7
:1037100001D345F00305A4F181007D2813D818F8E2
:1037200007007F1CA0F140013F2902D340397F29C7
:1037300030D2AAF101018E422CD209F80640761C43
:1037400009F8060015E0214620A0FFF739FF08BB65
:10375000A4F14100192802D845F0020507E0A4F1C0
:103760006100192803D8203C45F00105E4B209F8AE
:103770000640761CAFE708EB0701CBF80010202CC1
:1037800001D8042000E0002026B199F80010E529B6
:1037900003D005E00620BDE8F09F052289F800204F
:1037A000BAF1080F01D1A9060D0E05F00301012998
:1037B00001D140F01000C5F38101012901D140F091
:1037C000080089F80B000020E5E70000222A2B2CD6
:1037D0003A3B3C3D3E3F5B5D7C7F0000002244F66F
:1037E000382306E00021491C89B29942FBD3521CC0
:1037F00092B28242F6D3704770B50E46054600215C
:1038000000F0AAF888B900242969286801F099FB1A
:1038100058B969690978E5290BD051B10024012113
:10382000284600F00AF80028EED0042800D107202E
:1038300070BD641CB442F2D170BD2DE9F041C7885F
:1038400004467F1C38040E46000C2CD0206950B36F
:1038500039075AD1401C2061E168206829B182787B
:10386000521E12EA171F04D04FE00089B8421AD93D
:103870004BE000F024FE0546012819D9681C30D021
:1038800020684169A9423AD86EB1E168FFF7BEFEEF
:1038900005000BD0012D0BD0681C22D0206802F04F
:1038A0003CFCF0B906E00420BDE8F0810720FBE70E
:1038B0000220F9E720684FF400720021303001F057
:1038C00039FB29462068FFF795FE216800264FF056
:1038D0000108C8620CE080F80480206802F01DFC3A
:1038E00008B10120E0E72068C16A491C761CC1626A
:1038F00020688178B142EED8C16A891BC162E56057
:1039000029462068FFF776FE2061E78007F00F0167
:103910003022206802EB4111084460610020C3E7B7
:1039200070B504460121FFF767FF050012D1216938
:10393000206801F006FB05000CD1202200216069FF
:1039400001F0F8FAD4E905010B2201F0EBFA216845
:1039500001200871284670BD70B5C18083680D468E
:103960000446012B34D020684169994230D923B9EB
:103970000178032904D1436A13B18078060110E06D
:103980000189A94224D9406A11E000F098FD03465C
:10399000401C1BD0022B1BD320684069984217D9CA
:1039A000AD1B2068B5421946EFD2FFF723FEE36056
:1039B00070B100EB1510206105F00F013022206876
:1039C00002EB411108446061002070BD012070BD10
:1039D000022070BD002800D00120704708B10120EE
:1039E000704739B101290DD0022905D0032906D02D
:1039F00004207047002070474FF4007000E008205A
:103A00001080F7E74FF400401060F3E72DE9F04134
:103A10001C0015460E4603D020B10120BDE8F08100
:103A20000420FBE74FF4007769023A463046FFF77F
:103A3000ADF9641E05F1010506F50076F4D100200C
:103A4000ECE7002070472DE9F0411C0015460E46BA
:103A500003D020B10120BDE8F0810420FBE74FF442
:103A6000007769023A463046FFF7D6F9641E05F141
:103A7000010506F50076F4D10020ECE770B50C46A0
:103A8000054600F073F840B104EB840005EB8000BC
:103A9000816841F00101816070BDFEE770B50C46A0
:103AA000054600F063F840B104EB840005EB8000AC
:103AB000816841F02001816070BDFEE770B50D4660
:103AC000044600F053F898B105EB850004EB800242
:103AD000906820F00100906000209060D06010613C
:103AE00050616068AA000F2191400843606070BD7A
:103AF000FEE770B514460D46064600F037F850B3A1
:103B000005EB850006EB800021680161A168416139
:103B1000218A89B2C1608168E36821F47C526168BE
:103B200019436369134319438160217E0129816828
:103B300012D021F040018160617E012981680ED0A0
:103B400021F080018160A17E002981680AD041F0C6
:103B50001001816070BDFEE741F04001EBE741F0EC
:103B60008001EFE721F01001F3E700000246044B6B
:103B700001209A4202D1042900D900207047000098
:103B8000000402402DE9F74F81B0039B8BB90B1A5B
:103B90005B1C0A2B0DDD00204A49FD234FF4A07465
:103BA0008B54521C401C80B292B2A042F8D3BDE8A4
:103BB000FF8F4008490800230291C42100FB01F255
:103BC0007AE0900AC2F309093F4C0090C432002009
:103BD000B4F802E0B4F804B0C9F5806792B20146C7
:103BE000DDF800C0860AC6EB4C161F36DFF8DC8015
:103BF000B6B2C0F3090538F816C008EB4606C5F59D
:103C00008064B6F840800CFB04FC08FB04F836F82E
:103C1000024CF68F6C430CFB07FC7C436E4308FBA5
:103C200009CC06FB09440CEB04054FF6FF7404EACB
:103C30002554A4EB0E0404FB0BF40A2594FBF5F4C5
:103C4000204DC630491CEC545B1C9BB289B2EC542D
:103C50005B1C80B29BB2A029C2D30398D0B11C4E8A
:103C60001C4F1D4C00214FF400434FF4A07C00205A
:103C700015F8008036F81880C7F80080636123616A
:103C8000401C80B26045F3D3491CC9B20229EED36F
:103C900000230EE000204FF4A074E918A1F5805134
:103CA000401C91F8C01EE9545B1C80B29BB2A0423C
:103CB000F3D30AF1010080B202998246884280D98A
:103CC00075E70000B4010020C0000020B4110020FE
:103CD000D47500080C0C01400010014070B5234859
:103CE0004FF4807404604FF4C06002F0C7F840F2F3
:103CF000026002F0C3F840F2036002F0BFF840F245
:103D0000046002F0BBF840F2056002F0B7F840F240
:103D1000066002F0B3F8154D0823143D032210216C
:103D2000284600F050FC042303221021284600F00E
:103D30004AFC0F4EE30103221021304600F043FC01
:103D4000A30103221021304600F03DFC234603224C
:103D50001021284600F037FCBDE8704003224FF6E2
:103D6000FF731021034800F02EBC0000140801402E
:103D700000100140000C014010B5044600F0D2F8DC
:103D8000002806D1204603F0FAF8002801D10021CE
:103D9000216010BD17B581B01446029800906846A6
:103DA00000F0EFFB002802DA0B2004B010BD0B4B33
:103DB000002253F8201001B10A700199002900D0A7
:103DC0000A7043F8201001D0012C01D00020ECE74C
:103DD000002202A901A800F0B3F9E6E7AC01002037
:103DE0002DE9F7478BB006000ED04FF0000802F027
:103DF0001F0727F001020CA96846C6F8008000F0F2
:103E00009FF9050004D08BE009200EB0BDE8F087D3
:103E100007A8069068460C9900F0FCFA059C05007E
:103E200001D104B9062517F01C0F4AD055B1042D55
:103E300003D16846FFF774FD0546059C47F0080767
:103E400045B16DE0E07A10F0110F44D1780701D54B
:103E5000082565E0380744D500F091FBA073010AFE
:103E6000E173010C2174000E607484F80B8084F8F7
:103E70001C8084F81D8084F81E8084F81F802146F1
:103E8000009800F0E4FE81460021204602F0E5F8AB
:103E900000990120B9F1000F087120D0009849461F
:103EA000D0F82CA002F01EF8050039D10099A9F134
:103EB0000100C8605146009801F043F8051E0CD07F
:103EC0002EE06DBBE07AC10601D5042528E0B907D4
:103ED00003D5C00701D0072522E0380701D547F0F8
:103EE000200700982146C06AC6E90704B77186F822
:103EF00007804746009800F0AAFE3061207FE17FEE
:103F0000627F40EA0160A17F090441EA022108437F
:103F1000C6E90270B761776200983060C088B080EF
:103F2000284672E770B5044603F029F800280ED140
:103F3000A1798A060BD548060ED52068012304F125
:103F400028014078A269FFF77EFD08B1012070BD0D
:103F5000A07920F04000A071E169206800F0F1FF35
:103F60000028F4D1256AE87A40F02000E872207B2E
:103F70002877A089000A6877E068000CA877E068D5
:103F8000000EE8772846216902F067F800F0F7FA9A
:103F9000A875010AE975010C2976000E68760020E3
:103FA000A874E874A07920F02000A0712168012095
:103FB00008712068BDE8704002F057B82DE9F84F4D
:103FC000894600219A4616460446196002F0D7FF3A
:103FD000002806D1E079002803D1A079800702D417
:103FE0000720BDE8F88FA06804F1280182194FF07E
:103FF000010B0091824274D393E0A168C80574D18B
:1040000022689078401E00EA512010F0FF0519D177
:1040100029B1606A58B12046FFF7DAFA0BE020694F
:1040200058B900211046FFF7F1FA206103E010466D
:104030006169FFF7EBFA002876D0012828D0411CEF
:104040004BD06061A07940060BD520680123A2699E
:1040500040780099FFF7F7FC78BBA07920F040008A
:10406000A07161692068FFF7C5FA88B100EB050807
:10407000770A23D02068EA1981788A4200D94F1B39
:1040800040783B4642464946FFF7DDFCA8B902E0CE
:104090000220E071A5E7A169A1EB0800B8420AD2AD
:1040A00009EB40214FF40072009800F03BFFA0792B
:1040B00020F04000A0717D0229E00EE0A169414599
:1040C00011D0D4E9020188420DD220680123424672
:1040D00040780099FFF79AFC28B184F807B00120D6
:1040E0007FE721E001E0C4F818802089C0F30800D0
:1040F000C0F50075B54200D9354620442A464946E8
:10410000283000F00FFFA07940F04000A071A068B7
:10411000A9442844A060DAF800004119761BCAF8C7
:104120000010002E7FF469AFD4E90201884200D963
:10413000E060A07940F02000A071002051E700006D
:104140002DE9FF474FF000090746C0F800901646DA
:10415000084600F016FA050003D50B2004B0BDE8B0
:10416000F087A14850F825408CB13C60207820B100
:104170006078FFF766FCC1070BD084F80090E8B2C6
:104180006070FFF727FCC10708D00320E6E70C208A
:10419000E4E70EB1400704D40020DFE71EB140077A
:1041A00001D50A20DAE7002631462046FFF7CEF98E
:1041B000012825D100216D4604EB011090F8F22171
:1041C00000F5F7704AB1027AC37A42EA0362837A51
:1041D000407A1B0443EA0020024345F82120491C91
:1041E0000429E9D3002755F8276026B13146204637
:1041F000FFF7ACF900E0022040B17F1C042FF2D39E
:10420000032801D0F0BB01E00120A7E7B4F83B0090
:10421000B0F5007F6DD1B4F8460068B994F8540049
:1042200094F8571094F8552040EA016094F856101D
:10423000090441EA02210843A06194F840C084F8CF
:1042400003C0BCF1010F02D0BCF1020F51D194F8B0
:104250003D500CFB00FCA570A5B1691E0D4248D174
:10426000B4F841202281110743D1B4F8431079B941
:1042700094F8501094F8533041EA036194F85230A6
:104280001B0400E035E094F8517043EA072319431A
:10429000E38F73B303EB0C0707EB1217B94228D374
:1042A000C91BB1FBF5F121B3012540F6F678414574
:1042B00000D302254FF6F678414500D30325891C2B
:1042C0003744A76233446161C4E90763032D12D008
:1042D0007AB103EB0C026262022D1FD001F00102E1
:1042E00001EB410102EB510101F2FF11B0EB512F43
:1042F00016D20D2032E7002AFBD194F85C2094F806
:104300005F3094F85D7042EA036294F85E301B04FB
:1043100043EA07231A4389006262E5E74900E3E7BD
:104320004FF0FF302061E06080206071032D52D19A
:10433000B4F8600001284ED12046711C00F001FE47
:10434000E8BB84F80590B4F82E02A0F52A4155394F
:1043500041D194F8300094F8331094F8312040EAB9
:10436000016094F83210090441EA022108431F4910
:10437000884230D194F8140294F8171294F8152258
:1043800040EA016094F81612090441EA0221084348
:10439000174988421FD194F8180294F81B1294F818
:1043A000192240EA016094F81A12090441EA022134
:1043B0000843206194F81C0294F81F1200E00AE000
:1043C00040EA016094F81E1294F81D22090441EAA3
:1043D00002210843E06004492570091F0888401C39
:1043E0000880E080D8E60000AC0100205252614114
:1043F000727241610020704710B55A4392B2FEF7C5
:10440000C5FC002010BD10B55A4392B2FEF704FD62
:10441000002010BD73B50446019908782F2801D0FB
:104420005C2801D1491C01910025A5600198007804
:10443000202805D200212046FFF78EFA65617CBD59
:1044400001A92046FFF732F90028F8D100212046C3
:10445000FFF782FAF8B92169206800F072FDD0B93F
:1044600061690A7872B1CA7A12070ED40B25A26963
:1044700000236D1E08D311F8013B12F8016B9B1B42
:10448000F7D002E0042006E02BB100212046FFF720
:10449000D4F90028DFD0A169C97A28B10428CED187
:1044A0004907CCD405207CBD4907FCD46169C87A92
:1044B000C006F7D5206800F0CAFBA060C0E72DE970
:1044C000F0410D460446022909D36069A84206D985
:1044D0002078012806D0022828D0032832D00120D5
:1044E000BDE8F081206A05EB550600EB5621204619
:1044F00000F027FD68BBC6F308002044761C90F846
:104500003070206A00EB5621204600F01AFD00BBF7
:10451000C6F308002044E90790F8300047EA00207D
:1045200001D00009DCE7C0F30B00D9E7206A00EBFB
:104530001521204600F005FD58B9E8B204EB400013
:10454000008ECDE7206A00EBD511204600F0F9FC83
:1045500010B14FF0FF30C3E740F2FF1000EA8500D2
:10456000204410F8301FC27841EA02618278407816
:10457000120442EA0020014321F07040B0E700201D
:10458000704710B503464FF0FF301C68002C13D065
:10459000214600E0491C0A78212A0ED33A2AF9D193
:1045A00014F8012B303A0A2A06D28C4204D1002A90
:1045B00002D1491C1046196010BD002010BD416198
:1045C0007047016170472DE9F04301F00F04CD06FB
:1045D00000D5144300224FF00F094FF0010808FAEC
:1045E00002F51D4013D00768960009FA06FC27EA79
:1045F0000C0704FA06FC4CEA070C282902D04829CB
:1046000002D002E0456100E00561C0F800C0521C24
:1046100092B2082AE3D3082208FA02F51D4014D00A
:1046200047689600203E09FA06FC27EA0C0704FAC0
:1046300006FC4CEA070C282902D0482902D002E0E7
:10464000456100E00561C0F804C0521C92B2102A16
:10465000E2D3BDE8F0838068084000D001207047B5
:10466000F0B5144C002801DAE36900E06368450DF9
:104670002E0185B2C0F30157B540C0F30342032FAA
:1046800005D0C6020AD503269640B34307E023F0BF
:104690007062636823F07063636002E0AB4343F0D1
:1046A000706201B12A43002801DAE261F0BD626064
:1046B000F0BD0000000001402DE9F05F0520FFF78C
:1046C0008DF8CF20FDF7B4FEFF4E4FF00408C6F87A
:1046D000008006F104090827C9F80070DFF8ECA390
:1046E0000021CAF80010FA4D3C036C612C61376060
:1046F000C6F80080C9F800708121CAF800106C610A
:104700002C613760C6F80080C9F800703020CAF804
:1047100000006C612C6137600520FFF75FF8ED2029
:10472000FDF786FEC6F80080C9F800706421CAF85B
:1047300000106C612C613760C6F80080C9F8007009
:104740000320CAF800006C612C613760C6F8008055
:10475000C9F800701221CAF800106C612C61376032
:10476000C6F80080C9F800708121CAF800106C6199
:104770002C6137600520FFF731F8E820FDF758FE7F
:10478000C6F80080C9F800708521CAF800106C6175
:104790002C613760C6F80080C9F800701020CAF894
:1047A00000006C612C613760C6F80080C9F80070A9
:1047B0007821CAF800106C612C6137600520FFF782
:1047C0000DF8CB20FDF734FEC6F80080C9F8007064
:1047D0003921CAF800106C612C613760C6F800807E
:1047E000C9F800702C21CAF800106C612C61376088
:1047F000C6F80080C9F800700021CAF800106C618A
:104800002C613760C6F80080C9F800703421CAF8FE
:1048100000106C612C613760C6F80080C9F8007028
:104820000221CAF800106C612C6137600520FEF788
:10483000D5FFF720FDF7FCFDC6F80080C9F8007031
:104840002021CAF800106C612C6137600520FEF74A
:10485000C5FFEA20FDF7ECFDC6F80080C9F800703E
:104860000021CAF800106C612C613760C6F8008026
:10487000C9F80070CAF800106C612C61376005201F
:10488000FEF7ACFFB120FDF7D3FDC6F80080C9F8F4
:1048900000700021CAF800106C612C613760C6F806
:1048A0000080C9F800701B20CAF800006C612C6100
:1048B00037600520FEF792FFB620FDF7B9FDC6F878
:1048C0000080C9F800700A21CAF800106C612C61E0
:1048D0003760C6F80080C9F800704FF0A20BCAF824
:1048E00000B06C612C6137600520FEF777FFC020B7
:1048F000FDF79EFDC6F80080C9F800703521CAF8A2
:1049000000106C612C6137600520FEF767FFC12045
:10491000FDF78EFDC6F80080C9F800701121CAF8B5
:1049200000106C612C613760C520FDF781FDC6F871
:104930000080C9F800704520CAF800006C612C6145
:104940003760C6F80080C9F80070CAF800006C61D2
:104950002C613760C720FDF76BFDC6F80080C9F8F1
:104960000070CAF800B06C612C613760F220FDF76E
:104970005FFDC6F80080C9F800704FF0000BCAF860
:1049800000B06C612C6137602620FDF751FDC6F840
:104990000080C9F800700121CAF800106C612C6118
:1049A00037600520FEF71AFFE020FDF741FDC6F84D
:1049B0000080C9F800700F20CAF800006C612C61FB
:1049C0003760C6F80080C9F800702621CAF80010C8
:1049D0006C612C613760C6F80080C9F80070242132
:1049E000CAF800106C612C613760C6F80080C9F805
:1049F00000700B21CAF800106C612C613760C6F89A
:104A00000080C9F800700E21CAF800106C612C619A
:104A10003760C6F80080C9F800700920CAF80000A5
:104A20006C612C613760C6F80080C9F800705422B0
:104A3000CAF800206C612C613760C6F80080C9F8A4
:104A40000070A822CAF800206C612C613760C6F89B
:104A50000080C9F800704622CAF800206C612C6101
:104A60003760C6F80080C9F800700C22CAF8002030
:104A70006C612C613760C6F80080C9F8007017229D
:104A8000CAF800206C612C613760C6F80080C9F854
:104A900000705146CAF800006C612C613760C6F89E
:104AA0000080C9F800700F20CAF800006C612C610A
:104AB0003760C6F80080C9F800700720CAF8000007
:104AC0006C612C61376005E0100801400C0C01405E
:104AD00000100140C6F80080C9F80070C1F800B0AD
:104AE0006C612C613760E120FDF7A2FCC6F8008004
:104AF000C9F80070CAF800B06C612C613760C6F864
:104B00000080C9F800701921CAF800106C612C618E
:104B10003760C6F80080C9F800701B20CAF8000092
:104B20006C612C613760C6F80080C9F80070CAF863
:104B300000806C612C613760C6F80080C9F8007095
:104B40001021CAF800106C612C613760C6F8008033
:104B5000C9F800700720CAF800006C612C6137604A
:104B6000C6F80080C9F800702A21CAF800106C61EC
:104B70002C613760C6F80080C9F800704721CAF878
:104B800000106C612C613760C6F80080C9F80070B5
:104B90003920CAF800006C612C613760C6F80080CB
:104BA000C9F800700320CAF800006C612C613760FE
:104BB000C6F80080C9F800700620CAF800006C61D1
:104BC0002C613760C6F80080C9F80070CAF8000090
:104BD0006C612C613760C6F80080C9F80070302025
:104BE000CAF800006C612C613760C6F80080C9F813
:104BF00000703821CAF800106C612C613760C6F86B
:104C00000080C9F800700F20CAF800006C612C61A8
:104C100037600520FEF7E2FD3A20FDF709FCC6F8F3
:104C20000080C9F800705521CAF800106C612C6131
:104C300037601120FDF7FCFB0520FEF7CFFD0520B6
:104C4000FEF7CCFDBDE8F05F2920FDF7F1BB024681
:104C5000488B1278032A02D1898A40EA01407047C2
:104C600010B54FF4C06001F009F940F2026001F0A4
:104C700005F940F2036001F001F940F2046001F02F
:104C8000FDF801210948FFF7EBFC4FF48063032294
:104C900010210748FFF797FC0322BDE810404FF4AE
:104CA000005348210348FFF78EBC0000000230008B
:104CB000000801400010014008B50126002503242A
:104CC000C820FEF78BFDFFF7CBFFFCF755F9FEF789
:104CD0001DF8012270A17148FFF75CF8FEF7FEFF96
:104CE000FFF7EAFCFDF744FDFDF704FF0321332045
:104CF000FDF7BAFF6A493320FDF7B2FD69496848FC
:104D0000FDF7B5FD4FF0000AADF800A001F0A0FAE4
:104D1000BDF80000401C80B2ADF800000428F5D3B7
:104D200061494FF480700860DFF88081604F4FF078
:104D3000020B4FF4967901226B46D1033320FDF725
:104D4000F7FEBDF80000000703D501F081FAFCF77B
:104D50009FFB55EA060032D098F80110404621B179
:104D6000012907D002292AD122E052A1416080F80E
:104D700000A021E051A1416080F800B0082C15D2BC
:104D8000DFE804F00406080A0C0E10124DA114E02E
:104D90004EA112E04FA110E050A10EE051A10CE095
:104DA00052A10AE053A108E054A106E055A104E095
:104DB00056A1416080F800B056A1C8F80810786884
:104DC000484513D26420FEF709FD78684845B2D201
:104DD000002EB0D198F801000126401CC0B288F81E
:104DE00001000328A7D388F801A0A4E740F25721C7
:104DF000A0F2D76088424BD26420FEF7EFFC7868BF
:104E000040F62E11884296D240F2D661884292D95D
:104E1000002D90D198F80100012550B301282DD024
:104E2000022888D12049C001091D086001F010F84E
:104E30001E48143001F08CFA00F02CF91A48A9022F
:104E40001038FFF7BEFB1948052114304170417836
:104E50000329FCD17868C828FDD2BFF34F8F2F48B3
:104E600001682F4A01F4E06111430160BFF34F8FE5
:104E7000FEE7FEF78DFA01F0EBF95CE7641CE4B2A3
:104E8000032C00D9012421463320FDF7EDFE52E723
:104E900000252E464FE70000303A00002442002053
:104EA000B4010020B41700201008014000000020C9
:104EB000B8000020736E61700000000072617465BC
:104EC000000000002E35487A000000003120487AAA
:104ED000000000003220487A000000003420487AA8
:104EE000000000003820487A000000003136487A7F
:104EF000000000003332487A000000003634487A5F
:104F0000000000006661696C00000000207573629B
:104F10000000000020202020000000000CED00E038
:104F20000400FA0503E011F8013B00F8013B521EB2
:104F3000F9D27047C9B201E000F8011B521EFBD242
:104F4000704770B50446C06A0D46A8420ED0204690
:104F500001F0E3F838B9607801232A4604F1300102
:104F6000FEF754FD08B1012070BDE562002070BD60
:104F700010B504460C480129037801D039B108E086
:104F8000012A06D153B1204600F0CAFD06E0022AEC
:104F900001D0022010BD1BB1022BF4D0002010BDA7
:104FA00000F0E0FFEFE700001D01002010B504460F
:104FB000812101F073FA0221204601F06FFA054ABF
:104FC00000211F231170044A0221204601F04CFBEE
:104FD000002010BD1D0100206444002010B50446CF
:104FE0000B4A002101F086FA094A0021D21D204611
:104FF00001F080FAFFF7FEF9064800211F23017037
:10500000054A0221204601F02FFB002010BD0000C0
:10501000960100201D0100206444002070B50A782C
:10502000194D12F0600218D0202A2BD14A780023A3
:10503000164CFE2A05D0FF2A08D001F0CBF9022039
:1050400070BD2B70237001230F4A11E023701F23C2
:105050000F4A022101F008FB14E04A78012A0ED021
:105060000A2A02D00B2A0DD106E0074A0123521C5E
:10507000802101F045FB05E08878687002E081211D
:1050800001F00AFB002070BD820100201D010020FC
:105090006444002010B54FF4C06000F04BF80022CB
:1050A0000121BDE810401420AFF30080F0B50646A2
:1050B0001F4800240F460068234600F4E0654FF4C3
:1050C000A06085420FD006DCB5F5407F16D0B5F55F
:1050D000806F06D10FE0B5F5C06F09D0B5F5E06F70
:1050E00004D000F027F80224234608E0042306E059
:1050F0000124032303E00324012300E00424C4F17A
:1051000004008740C3F104010F20C8401040384319
:1051100006F1E021000181F8000406F01F010120E2
:1051200088407109890001F1E021C1F80001F0BD5A
:105130000CED00E002490843024908607047000096
:105140000000FA050CED00E02DE9F04D1D460C467F
:1051500098B0174621F0004123F00043002814BF07
:105160004FF0010C4FF0000C0CEB440CFE4A0CEB22
:1051700002064FEA620C66452BD33E0018BF01269B
:1051800006EB45061644F94A964222D3F84A53EAFA
:10519000070C02D0944205D148B918B0002011463E
:1051A000BDE8F08D002808BF4FF0000C01D04FF093
:1051B000010C0CEB440212F5001F0AD8002F14BF9B
:1051C0004FF0010C4FF0000C0CEB450212F5001FE4
:1051D00007D918B03A462B462146BDE8F04DFDF7F9
:1051E00059BF0022DFF88CA3002CB8BF534526DA44
:1051F000DFF884C36345A8BF022220DADFF870C35A
:105200009C451CDCDFF874C30CEB235CBCF1140F71
:1052100008DDCCF1340627FA06FC0CFA06F6BE428D
:105220000DD108E05FB9CCF1140623FA06FC0CFAA4
:1052300006F69E4203D10CF00102C2F1020251EACD
:10524000000C19D1002D17DA002C18BF022A01D04A
:10525000012A07D00220FDF745FF18B0BDE8F04D48
:10526000FDF710BF0220FDF73DFFFDF70BFF18B063
:1052700081F00041BDE8F08DB7F1000C6CD15345D1
:1052800025D104F1804212F5801201BF00280020D0
:10529000B74918B008BFBDE8F08DB548884207DCB3
:1052A000002DA1BF6046294618B0BDE8F08D07E08B
:1052B000281E05DA80F0004118B06046BDE8F08D88
:1052C000AF497944D1E9000118B0BDE8F08DDFF8AD
:1052D000A0C2634525D1002D1FDA19B1514512D165
:1052E000D8B909E0002840F0EC82A24A214618B063
:1052F00062F31E01BDE8F08D0020214618B060F376
:105300001E01BDE8F08D08DA18B02346BDE8F04D67
:10531000024600206146FBF746B918B02146BDE8B9
:10532000F08D514518DAB5F1804F0DD0A5F1005C34
:10533000BCF1FF5C10D1B4F1000C0DDB18B061467C
:10534000BDE8F04D00F063BE234618B00246BDE84C
:10535000F04D1946FBF7B5B8060024F0004C3BD1E0
:10536000D9B1514533D1002C06DD002DA1BF00205D
:10537000514618B0BDE8F08D002C01DD002D1BDB7F
:10538000002C13DA002D11DB012A4FF0000014BFAE
:1053900078497C4918B0BDE8F08D022A18BF002C6E
:1053A0000AD0012A08D1002C06DA0AE0002CB8BF86
:1053B000002D11DA012A04D0002018B00146BDE802
:1053C000F08D18B000204FF00041BDE8F08DA1F144
:1053D0004050B0F17F601AD0012000EBE47050EA39
:1053E000020421D0624C521E4FF0000B104304BF48
:1053F0004FF0000B644C654883427CDD644A65488D
:1054000093421FDD884217DB002D25DB37E0002C9F
:1054100000DA4AB1022A0CBF01204FF0FF3018B069
:10542000BDE8F04DFBF73CB90120FDF75BFE18B07D
:10543000BDE8F04DFDF730BE4D4A8A4202DC002D3A
:105440000ADC1CE0814202DA002D18DA04E0484B45
:10545000994220DD002D12DD0220FDF743FEFDF70D
:1054600021FE05460E460022534658462146FBF7CC
:1054700028F818B066F31E012846BDE8F08D02201A
:10548000FDF730FEFDF716FE0A46214618B062F31E
:105490001E01BDE8F08D002230466146FBF70BF897
:1054A00080460E466FF00102FBF733FA4FF055329B
:1054B000394BFBF703F842463346FBF702F800226C
:1054C000364BFAF7FBFF82464246334604911046BC
:1054D0001946FAF7F6FF5246049BFAF7F2FF8A469E
:1054E00000904FF0C0422E4B40463146FAF7E9FF9C
:1054F0002C4A2B4B00E027E0CDE9060151460098ED
:10550000FAF7DFFF82460191274A284B4046314691
:10551000FAF7D7FF5246019BFAF7CDFF82460B46BA
:1055200002460591DDE90601FAF724FFDDE90623CD
:10553000002688463046FAF7BEFF5246059BFAF72A
:10554000BDFF024600F07EB90020B1F5801F07DAEA
:10555000352230466146FBF7DCF906466FF0340031
:1055600000EB215024E00000FFFF1F00FFFF0F00B1
:105570000000F03F0000F07F0000404301FCFFFF0F
:105580008A2600000000F0FF0000F0BF0000E041AC
:105590000000F043FFFFEF3F5555D53F0000E03FCF
:1055A0004715F73FFE822B6544DF5DF80BAE543E96
:1055B000A0F2FF300190C1F3130040F07F6141F091
:1055C00040510291FE498842D8BF002004DDFD49C8
:1055D0008142C8BF012001DD0D9008E000200D9040
:1055E0000198401C01900298A0F580100290029949
:1055F000F54878440B910D9900EBC100D0E90023E8
:105600000F9330460A920B99FAF755FFCDE9060140
:10561000DDE90A2130460F9BFAF7ACFE02460B4645
:105620000020EA49FAF7BFFF059102460B460090B9
:10563000DDE90601FAF745FF1490E5488A464FF088
:10564000000878440299006812904FF0005040EA38
:1056500061010D980F9B01EB804000F5002109913D
:105660000A9A1298FAF727FF32460B9BFAF726FFA1
:1056700042465346FAF725FF0646029140465146F8
:10568000099B129AFAF71DFFDDE90623FAF716FFC8
:105690003246029BFAF70FFF059B009AFAF711FFBB
:1056A0000091149A0490534610461946FAF709FFE0
:1056B00006460246C7480B46029106217844FDF78C
:1056C0008CFCCDE90510029B324610461946FAF7CC
:1056D000F8FEDDE90532FAF7F4FE05910646534679
:1056E00040461946149AFAF745FE009B049AFAF7C9
:1056F000E8FE3246059BFAF73DFECDE9051042462D
:10570000534610461946FAF7DCFE0022B24B0291CE
:105710000A90FAF72FFEDDE90532FAF72BFE0E4666
:105720004246AD4B4046FAF7C6FE029B0A9AFAF78C
:10573000C2FEDDE90532FAF7C1FE424602910A9047
:10574000334610465146FAF7BCFECDE906015346F2
:10575000149A02990A98FAF7B4FE8A4602903346E0
:10576000424600990498FAF7ACFE5346029AFAF7BB
:1057700001FE82460B4602460591DDE90601FAF775
:10578000F9FDDDE90623002088460646FAF793FE78
:105790005246059BFAF792FE824609914FF060420D
:1057A0008E4B30464146FAF78CFE049006918C4AA7
:1057B0008A4B50460999FAF784FE82460291894A3B
:1057C000894B30464146FAF77CFE5246029BFAF777
:1057D000D1FD864B7B440D9A03EBC203D3E9002332
:1057E000FAF7C8FD0E9007910198FAF759FF059155
:1057F000DDE9061382460E9A0498FAF7BBFD7C4A4F
:105800007A440D9B02EBC303D3E900230093029279
:10581000FAF7B0FD5246059BFAF7ACFD0026884624
:1058200052463046059BFAF746FE009B029AFAF76D
:1058300042FE069B049AFAF73EFE079B0E9AFAF781
:105840003DFE024600200B46029038462946FAF7F4
:1058500038FE824601912B4638461946029AFAF7DD
:105860002AFE32464346FAF72CFE5246019BFAF7CF
:1058700081FD07468A463246434629460298FAF792
:1058800020FE05460E463A465346FAF773FD594A3E
:105890008846914221DBA8EB020353EA000210D1B3
:1058A0002A463346FAF707FECDE90401524A534B24
:1058B00038465146FAF75EFDDDE90423FBF792F81E
:1058C00021D20220FDF70EFCFDF7ECFB0A46214633
:1058D00018B062F31E01BDE8F08D494B28F000427C
:1058E0009A4210D3474A08EB020353EA00027FF4BE
:1058F000C6AD2A463346FAF7DEFD3A465346FBF775
:1059000071F87FF6BCAD0022019228F000403E49BC
:105910003E4A01EB2051824223DA481C4FF48011A9
:1059200021FA00F040443A4AC0F30A517A44394B14
:10593000A1F2FF31CB4020EA0303C0F3130040F48F
:105940008010C1F11401C84012680190B8F1000F35
:10595000BCBF4042019028463146FAF7ACFD0546EF
:105960000E462A46334638465146FAF703FD4FF0B5
:1059700000084246284B40460591FAF7A2FDCDE9C2
:105980000601264A264B40460599FAF79AFD0091F2
:1059900002902A46334640460599FAF78CFD3A466E
:1059A0005346FAF78BFD1F4A1F4BFAF78AFD009BFF
:1059B000029AFAF7DFFC0746884602460B4635E0B6
:1059C0008E9803007AB60B00D22200000000F03F50
:1059D0000A230000382200000000084009C7EE3FFB
:1059E000FD033ADCF5015B14E02F3EBE1021000000
:1059F000D420000000009040FE822B654715973CA4
:105A000000CC904000346F3F01FCFFFF0000E03FFE
:105A100020200000FFFF0F00432EE63F396CA80C4A
:105A2000615C20BEEF39FAFE422EE63FDDE9060159
:105A3000FAF7A0FCDDE9062305460E46FAF73BFD22
:105A40003A464346FAF73AFD0F462A463346009057
:105A500010461946FAF735FD824602462E4888461A
:105A60000B4605217844FDF7B8FA52464346FAF74B
:105A700028FD2A463346FAF721FD80468A463B46F2
:105A800028463146009AFAF71CFD3B46009AFAF781
:105A900071FC0691009000224FF080434046514631
:105AA000FAF709FD0F460C90424653462846314608
:105AB000FAF707FD3B460C9AFAF775FD069B009A2C
:105AC000FAF7F9FC2A463346FAF7F5FC0022134BA5
:105AD000FAF7F4FC054601980E4601EB0051081553
