:020000040800F2
:10000000F84F002045010008B342000841350008C0
:10001000AF4200087D170008F54500080000000009
:1000200000000000000000000000000085450008FE
:10003000CF17000800000000B54200085D0100086D
:100040005F0100085F0100085F0100085F01000810
:100050005F0100085F0100085F0100085F01000800
:100060005F0100085F0100085F0100085F010008F0
:100070005F0100085F0100085F0100085F010008E0
:100080005F0100085F0100085F0100085F010008D0
:10009000ED4500085F0100085F0100085F010008EE
:1000A0005F0100085F0100085F0100085F010008B0
:1000B0005F0100085F0100085F0100085F010008A0
:1000C0005F0100085F0100085F0100085F01000890
:1000D0005F0100085F0100085F0100085F01000880
:1000E0005F0100085F0100085F0100085F01000870
:1000F0005F0100085F0100085F0100085F01000860
:100100005F0100085F0100085F0100085F0100084F
:100110005F0100085F0100085F0100085F0100083F
:100120005F0100085F0100085F0100085F0100082F
:10013000DFF80CD000F060FC00480047B96A000806
:10014000F84F00200648804706480047FEE7FEE7D4
:10015000FEE7FEE7FEE7FEE7FEE7FEE7FEE7FEE777
:10016000894500083101000840EA01039B0703D0DC
:1001700009E008C9121F08C0042AFAD203E011F8E6
:10018000013B00F8013B521EF9D27047D2B201E0A8
:1001900000F8012B491EFBD270470022F6E710B58C
:1001A00013460A4604461946FFF7F0FF204610BDE5
:1001B000421E12F8013F002BFBD111F8013B02F85F
:1001C000013B002BF9D17047F0B480EA0102D40F53
:1001D0004200B2EB410F02D20246084611464A00E5
:1001E00042D0C30DDDB2C1F3C752AD1A202D35DAAE
:1001F000C1F3160141F4000204B15242C5F12006D8
:1002000002FA06F12A411044B3EBD05F23D0C4B107
:10021000012DA0EBC35009DCF0BC4FF0004202EA14
:10022000C352DBB200F5000000F0F2BA400000F16A
:10023000807000EBC350A0F1807040EAD17049009B
:1002400009E0490841EAC071A0EBC35000F5000085
:10025000400800EBC350F0BC00F0D1BA614201226B
:1002600002EB4101001BF6E7F0BC704781F0004152
:10027000AAE780F00040A7E780EA010210B502F08B
:100280000043400022D04A001FD0010E01EB126152
:10029000C0F35600C2F3560240F4000042F40002DC
:1002A000A0FB022000047F39140400D0401C50EA57
:1002B000124001D44000491EC2B20C0604EBD0101B
:1002C000401C4008802A02D003E0002010BD20F02E
:1002D0000100002900DA0020184310BD30B480EA84
:1002E000010202F0004530F0004221F0004013D03E
:1002F00090B1C30DD40DC2F31601C0F31600E41A79
:1003000041F4000140F400027D34914201D3641CA9
:1003100000E04900002C02DA30BC002070474FF4A6
:1003200000000023914201D3891A034340084FEA99
:100330004101F7D151B1914202D14FF0004105E0A6
:1003400002D24FF0010101E06FF0010103EBC45054
:10035000284430BC00F053BA2DE9FE4F804681EAB4
:100360000300C00F0C46009021F0004123F000452F
:10037000B8EB0200A94105D24046214690461C46F2
:100380000B46024623F00040104347D0270DC7F329
:100390000A00C3F30A510290401A019040286BDA18
:1003A000C3F3130040F4801B0098924620B1002351
:1003B000D2EB030A63EB0B0B01985946C0F14002E4
:1003C000504600F0FBF906460D4650465946019A44
:1003D00000F003FA10EB08006141002487EA115293
:1003E00084EAE7731A4340D0009A62B3019A012A63
:1003F0004FEA075215DC001B61EB02014FF000428F
:1004000002EA0752CDE90042001C41F58011324654
:100410002B4600F03AFA03B0BDE8F08F4046214683
:10042000F9E7001B61EB0201001C41F58013001885
:100430005B412018A2F5001747EB030140EAD57095
:10044000B6196D4111E06D084FEA360645EAC075F0
:100450004FEA0752001B61EB0201001C41F58011BD
:1004600049084FEA30000019514132462B4603B08B
:10047000BDE8F04F00F0FAB90098012240000023D7
:10048000D0EB020263EBE073009821464FEAE07480
:10049000B8EB000061EB0401E9E783F000435BE7A0
:1004A00081F0004158E72DE9FE4F81EA030404F092
:1004B000004421F0004100944FF0000B23F0004372
:1004C00050EA01045ED052EA03045BD0C3F30A543D
:1004D000C1F30A552C44A4F2F3340194A0FB025456
:1004E000C1F3130141F48011C3F3130343F48013E8
:1004F00001FB024400FB034E840A970A44EA81543C
:1005000047EA8357A4FB076802958D0A05FB078518
:100510004FEA932C04FB0C542705029D4FEA065822
:1005200047EA1637B5EB08056EEB070C870E920EFF
:1005300047EA811742EA8312A7FB0201B6EB0B01DF
:1005400064EB00042B0D43EA0C335E1844EB1C50A3
:10055000DA465146E7FB0201C5F313044FEA0B33B9
:1005600043EA14534FEA0432019C43EA0603A4F120
:100570000C040294009CCDE900B400F086F903B0AD
:10058000BDE8F08F00200146F9E72DE9F04D81EA42
:10059000030404F0004B21F0004514464FF0000A1C
:1005A00023F0004150EA050220D054EA01021DD098
:1005B000C5F30A570246C5F31303C1F31300C1F391
:1005C0000A5640F4801543F48013A7EB0608101B6D
:1005D000D64608F2FD3873EB050002D308F1010896
:1005E00001E092185B41B8F1000F03DA00200146E8
:1005F000BDE8F08D00204FF48011064684460EE0E1
:10060000171B73EB050705D3121B63EB05030643AA
:100610004CEA010C49084FEA300092185B4150EA5D
:100620000107EDD152EA030012D082EA040083EA06
:100630000501084305D0101BAB4106D2012200235F
:1006400006E000224FF0004302E06FF00102531079
:100650001AEB06004CEB085110EB0A0041EB0B01C2
:10066000BDE8F04D00F002B9C10F80EAE070084427
:10067000CA079623002100F0CBB89623002211462A
:1006800000F0C6B80EB5C10F80EAE0700844CA0792
:10069000002140F233438DE80E000A460B4600F07D
:1006A000F4F803B000BD0EB540F2334102910021D1
:1006B000CDE900110A460B4600F0E7F803B000BD93
:1006C00000F0004220F00040C10DC0F3160040F4DD
:1006D00000007F2901DA00207047962903DCC1F170
:1006E0009601C84001E096398840002AF4D0404283
:1006F000704720F00040C10DC0F3160040F4000028
:100700007F2901DA00207047962903DCC1F19601A8
:10071000C840704796398840704700F0004230F07A
:1007200000400AD0C10D01F56071C0F3160042EA25
:100730000151C2084007114370470020014670472D
:1007400030B5041E71F1000404DB4FF00044404258
:1007500064EB0101141E73F1000405DB1C464FF02D
:100760000043524263EB0403994208BF904230BDFC
:1007700001F0004330B421F0004150EA010206D0FC
:100780000A0DA2F56072C1F31301002A02DC30BC2D
:1007900000207047440F44EAC104C100E01830BC97
:1007A00000EBC25000F02BB8002801DBC0F1004084
:1007B000002901DBC1F1004188427047202A04DB97
:1007C000203A00FA02F1002070479140C2F1200364
:1007D00020FA03F3194390407047202A06DBCB1719
:1007E000203A41FA02F043EAE07306E041FA02F3EC
:1007F000D040C2F1200291400843194670470029B9
:10080000A8BF7047401C490008BF20F00100704796
:1008100010B4B0FA80FC00FA0CF050EA010404BFF6
:1008200010BC704749B1CCF1200421FA04F411FA4C
:100830000CF118BF012121430843A3EB0C01CB1D90
:100840004FEA00614FEA102042BF002010BC704701
:1008500000EBC35010440029A4BF10BC7047401CDB
:10086000490008BF20F0010010BC704710B5141EED
:1008700073F1000408DA401C41F1000192185B4159
:100880001A4301D120F0010010BD2DE9F04D924630
:100890009B4611B1B1FA81F202E0B0FA80F2203247
:1008A0009046FFF78BFF04460F4640EA0A0041EAF4
:1008B0000B0153465A46084313D0114653EA010030
:1008C00019D0C8F14002504600F0A8F805460E467F
:1008D000504659464246FFF771FF084305D00120B4
:1008E00004E020463946BDE8F08D0020054346EA85
:1008F000E0762C4337430A986305E40AA0EB08002E
:100900000022FD0A44EA47540A3002D5002001467D
:10091000E9E7010510196941DDE908450019694158
:10092000BDE8F04DA2E770B521F0004303430CD0C1
:10093000C1F30A550024D5EB040564EB0403D61774
:10094000AD1AB34102DB0020014670BD201841EB17
:10095000025170BD2DE9F04D00231A461B1A8A4141
:1009600003DB00200146BDE8F08DC1F30A52C1F35C
:10097000130141F480154FF0000BD10702D100188C
:100980006D41521E0027044640F2FF11384601EB2C
:10099000620A3E468046024600204FF4801100F075
:1009A0003DF8C2197141BB1846EB0100B4EB030CD2
:1009B00075EB000C04D3E41A65EB000517460E46F0
:1009C000241908F101006D4180463428E3DDF9194E
:1009D00046EB0600091BA84103D24FF0FF32134635
:1009E00001E0002213461BEB070046EB0A51BDE86D
:1009F000F04DFFF73BBF0000064C074D06E0E068F6
:100A000040F0010394E8070098471034AC42F6D355
:100A1000FFF792FB78A3000898A30008202A04DBC4
:100A2000203A21FA02F00021704721FA02F3D04067
:100A3000C2F12002914008431946704770B58C18E6
:100A400010F8015B15F0070301D110F8013B2A11E2
:100A500006D110F8012B03E010F8016B01F8016BCF
:100A60005B1EF9D12B0705D40023521E0DD401F8CB
:100A7000013BFAE710F8013BCB1A921C03E013F894
:100A8000015B01F8015B521EF9D5A142D8D30020C9
:100A900070BD00000FB5ABB02B98B0F88206139074
:100AA000DDE92B0103F08AFA2990DDE92B0103F03F
:100AB00009FA2890FE492898FFF786FB0D90FFF76A
:100AC0002CFE0022FB4BCDE90E0106F053FACDE9D6
:100AD0001001FFF74DFE2790F5492E98FFF774FBA4
:100AE0000D90FFF71AFE0022F24BCDE90E0106F041
:100AF00041FACDE91001FFF73BFE2690DDE9260122
:100B0000FFF7B4FB11902D99FFF7E8FB129026999F
:100B1000FFF7AFFB25902C98C06AE7491090FFF7CC
:100B2000ABFB4FF07E511190FFF74EFB0146129048
:100B30004FF07E50FFF7D2FB15904FF07E5016908D
:100B40002C98B0F940001090FFF78EFD11902C9872
:100B5000406B014610901198FFF78EFB4FF07E51CD
:100B60001290FFF731FB17902C98B0F94210B0F9B2
:100B70004000081A0F90FFF777FD10902C98806BBB
:100B800001460F901098FFF777FB4FF07E511190C0
:100B9000FFF71AFB12901798014611901298FFF771
:100BA0006BFB18902B98B0F814061290FFF765FDB8
:100BB0002490C2492498FFF7F7FD05D24FF08F41EA
:100BC0002498FFF753FB24902C98B0F9140011904F
:100BD000FFF74AFD12902499FFF780FB24902B9891
:100BE000B0F8800600F4805040111F902B98B0F8A8
:100BF00010061290FFF741FD22902B98B0F8500696
:100C00001290FFF73AFD23900020129024E022A9D1
:100C1000129851F82000A9491190FFF7C5FD0CD298
:100C200022A9129851F820004FF08F411190FFF740
:100C30001DFB22AA129942F8210022A9129851F80C
:100C4000200011902499FFF717FB22AA129942F86D
:100C500021001298401C129012980228D7DB984964
:100C60002998FFF703FB0E902C98C06901460D9060
:100C70000E98FFF701FB4FF07E510F90FFF7A4FA9B
:100C8000904911902898FFF7F1FA0C902C98006A7F
:100C900001460B900C98FFF7EFFA4FF07E510D9044
:100CA000FFF792FA0F902C9800F50050B0F94C0A1B
:100CB0000D90FFF7D9FC0E900F99FFF7DDFA109019
:100CC0001199FFF7D9FA12902298014611901298C3
:100CD000FFF7CFFA22902C9890F825101F988142A8
:100CE0003DD177492998FFF7C1FA0E902C98C06939
:100CF00001460D900E98FFF7BFFA4FF07E510F900E
:100D0000FFF762FA6F4911902898FFF7AFFA0C903D
:100D10002C98006A01460B900C98FFF7ADFA4FF043
:100D20007E510D90FFF750FA0F9042F64C212C980F
:100D30000844B0F902000D90FFF796FC0E900F9951
:100D4000FFF79AFA10901199FFF796FA12902398EC
:100D5000014611901298FFF78CFA239047E058490A
:100D60002998FFF783FA0E902C98C06901460D90E0
:100D70000E98FFF781FA4FF07E510F90FFF724FA9B
:100D8000504911902898FFF771FA0C902C98006A3E
:100D900001460B900C98FFF76FFA4FF07E510D90C3
:100DA000FFF712FA0F9042F64C212C980844B0F944
:100DB00002000C90FFF758FC0D902C9800F50050A5
:100DC000D0F8500A01460C900D98FFF7FDF90E90EF
:100DD0000F99FFF751FA10901199FFF74DFA129001
:100DE0002398014611901298FFF743FA23900020B0
:100DF000129026E21298C117109000EBD1604111B9
:100E00001298C217119000EB92608011A1EB400084
:100E100040B21E901298119000EBD07041101298C1
:100E2000A0EB41011E98414048B21D901298801CD1
:100E3000C1170E9000EB917081101298C01CC21760
:100E40000F9000EB9270A1EBA0011298401CC2170A
:100E5000109000EB927001EBA0011298C217119054
:100E600000EB9270A1EBA0011E984000C0F10100C0
:100E7000414348B21B901F9810B91E981C9001E086
:100E80001D981C902B98B0F882161C9881427DD139
:100E900012992B9830F811001190FFF7EEFB21907A
:100EA00006492198FFF780FC12D24FF08F410BE0EA
:100EB00033938843000010400000204200FEFF46AC
:100EC000333353400000C8412198FFF7CFF92190F8
:100ED00024992198FFF7D0F92190DD492998FFF74F
:100EE000C5F90D9041F644612C980144129851F8CF
:100EF000200001460C900D98FFF7BEF94FF07E518F
:100F00000E90FFF761F9D34910902898FFF7AEF9DA
:100F10000B9041F244212C980144129851F8200082
:100F200001460A900B98FFF7A7F94FF07E510C90FD
:100F3000FFF74AF90E902C9800F64440129930F9C8
:100F400011000C90FFF790FB0D900E99FFF794F9AC
:100F50000F901099FFF790F911902199FFF789F9F7
:100F600021902C9890F825101F9881422AD01B9828
:100F7000FFF77AFB0F9042F650212C980844406806
:100F800001460E900F98FFF777F900E056E11190B7
:100F90001E984000401E0D90FFF766FB0E9042F633
:100FA00050212C980844806801460D900E98FFF758
:100FB00063F90F902199FFF707F910901199FFF746
:100FC00055F921902D992198FFF788F9219022A9B0
:100FD000139851F8200010902C9880690F90109968
:100FE000FFF74AF911902199FFF743F921909949A8
:100FF0002898FFF73BF90E902C98806A01460D90D7
:101000000E98FFF739F94FF07E510F90FFF7DCF89B
:10101000119042F644212C980144139851F8200075
:101020000E902C9880690D900E99FFF725F90F907E
:101030002C984430129950F8210001460E900F98D8
:10104000FFF717F910901199FFF716F920902599DD
:101050002098FFF711F90A902199FFF7B5F80B9046
:10106000FFF75BFBCDE90E012098FFF756FB00224E
:10107000794BCDE90A0105F07DFFCDE90C01DDE9F1
:101080000E23FFF710FACDE91001FFF771FB1A905C
:101090002C98006B0B90FFF740FBCDE90E011A98DE
:1010A000FFF73BFBCDE9080106F0E5FFCDE90A01BA
:1010B00006F0E1FFCDE90C01DDE90E23FFF7F3F9BE
:1010C000CDE91001FFF754FB1A902C98006B63498F
:1010D0000390FFF7D1F84FF07E510490FFF7C9F865
:1010E00005902099FFF7C8F806901A99FFF76CF859
:1010F000014607902198FFF7F1F808902599FFF72E
:1011000063F80990FFF709FBCDE90A0106F0B3FF88
:10111000CDE90C0106F0AFFF4FF0C042504BCDE9D6
:101120000E01FFF7BAF9CDE91001FFF721FB199085
:101130002C98B0F93E001090FFF796FA119019998B
:10114000FFF732FB02D2002014901DE02C98B0F97A
:1011500040001090FFF788FA11901999FFF724FBCF
:1011600002D2012014900FE02C98B0F942001090A8
:10117000FFF77AFA11901999FFF716FB02D20220B5
:10118000149001E0032014902C983C30149930F90D
:1011900011000190FFF768FA02901999FFF769F8BA
:1011A00003902C982C30149950F82100014602909D
:1011B0000398FFF761F84FF07E510490FFF704F8B1
:1011C00015A90690149851F8200001460490209823
:1011D000FFF752F805900699FFF74EF80146079081
:1011E0002198FFF77BF808902599FEF7EDFF09900D
:1011F000FFF793FACDE90A0106F03DFFCDE90C01B6
:1012000006F039FF4FF06632154BCDE90E01FFF7BE
:1012100044F9CDE91001FFF7ABFA1990114919987B
:10122000FFF72AF810491090FEF7CEFF1190FFF754
:1012300060FA82B21299309820F811201298401C5E
:1012400012901298B0F5407FFFF6D4AD2FB000BDDC
:10125000333353400000C8410000084033938843B3
:1012600066127140000020410000C84300B587B0FD
:1012700040F2026006F01EFE40F2096006F01AFE1F
:101280004FF4A06006F016FE032006F0DBFD0323FA
:101290001A4600213B4804F0EBFE00213A4804F0D6
:1012A000ADF83A48009000208DF8180038480290B8
:1012B00001208DF819004002019080000390002069
:1012C0008DF81A0002200490000305906A46002160
:1012D0002D4804F0CBF800212B4804F076F80021CB
:1012E000294804F059F829484C3803F06FFA0020D7
:1012F00003F0DEFA0122022124484C3803F04BFBB4
:101300000122110221484C3803F045FB00211F48FF
:101310004C3803F04FFA022201211C484C3803F0EC
:1013200026FA05230022114618484C3803F0CEFA5D
:1013300005230122114615484C3803F0C7FA4FF433
:101340006022012111484C3803F099FA012211461C
:101350000E484C3803F074FA0C484C3803F067FA26
:10136000012003F03DFE09484C3803F0EBF9074833
:101370004C3803F057FA012104484C3803F0FCFACA
:1013800007B000BD00080140000002404C240140AD
:10139000AC000020F0B504460D46059E28460DE041
:1013A000214608E000EB800701EB8717DFF814C047
:1013B0000CF80760491C9142F4D9401C9842EFD9BF
:1013C000F0BD0000A80100202DE9F84306460F46B5
:1013D00014469846089D002C08DA644243462D22A4
:1013E00039463046009500F077F80836642C30DB3B
:1013F000642094FBF0F0303000F0FF0943464A4689
:1014000039463046009500F067F80A2094FBF0F06A
:101410000A2190FBF1F201FB1200303000F0FF09CD
:1014200043464A46394606F10800009500F054F854
:101430000A2094FBF0F100FB1140303000F0FF096E
:1014400043464A46394606F11000009500F044F83C
:1014500028E00A2C1DDB0A2094FBF0F0303000F06D
:10146000FF0943464A4639463046009500F034F8B5
:101470000A2094FBF0F100FB1140303000F0FF092E
:1014800043464A46394606F10800009500F024F824
:1014900008E004F13000C2B24346394630460095B8
:1014A00000F01AF8BDE8F8832DE9F84105460E462C
:1014B00014461F46DDF81C8009E0CDF80080227834
:1014C0003B463146284600F007F80835641C207872
:1014D0000028F2D1BDE8F8812DE9F04705460E4617
:1014E0001F46DDF820C0A2F1200808F0FF02BCF181
:1014F000000F28D1002123E0134601EB0313DFF88E
:101500009C8018F80340002017E04FF0800848FA4C
:1015100000F808EA04084FF0800949FA00F9C845C4
:101520000AD101EB060909EB890905EB8919814408
:10153000DFF86CA00AF80970401C0828E5D3491CA4
:101540000829D9D328E0082124E0134601EB03132E
:10155000DFF8488018F80340002018E04FF08008BA
:1015600048FA00F808EA04094FF0800848FA00F841
:10157000C1450BD1A1F10808B04408EB880805EB80
:1015800088188044DFF818A00AF80870401C082862
:10159000E4D3491C1029D8D3BDE8F0872A97000866
:1015A000A80100202DE9F84306460F461546984647
:1015B000089C002D09DA684205B243462D223946BF
:1015C00030460094FFF788FF0836B5F57A7F4CDB8C
:1015D0004FF47A7095FBF0F0303000F0FF0943468D
:1015E0004A46394630460094FFF776FF08366420B5
:1015F00095FBF0F00A2190FBF1F201FB1200303074
:1016000000F0FF0943464A46394630460094FFF74A
:1016100063FF0836642095FBF0F100FB11500A21AE
:1016200090FBF1F0303000F0FF0943464A4639465E
:1016300030460094FFF750FF083643462E223946C5
:1016400030460094FFF748FF08360A2095FBF0F17A
:1016500000FB1150303000F0FF0943464A4639463E
:1016600030460094FFF738FF7BE0642D38DB6420C0
:1016700095FBF0F0303000F0FF0943464A4639460A
:1016800030460094FFF728FF08360A2095FBF0F05B
:101690000A2190FBF1F201FB1200303000F0FF094B
:1016A00043464A46394630460094FFF715FF083650
:1016B00043462E22394630460094FFF70DFF083688
:1016C0000A2095FBF0F100FB1150303000F0FF09CB
:1016D00043464A46394630460094FFF7FDFE40E057
:1016E0000A2D25DB0A2095FBF0F0303000F0FF09D1
:1016F00043464A46394630460094FFF7EDFE083629
:1017000043462E22394630460094FFF7E5FE083660
:101710000A2095FBF0F100FB1150303000F0FF097A
:1017200043464A46394630460094FFF7D5FE18E056
:1017300043463022394630460094FFF7CDFE083646
:1017400043462E22394630460094FFF7C5FE083640
:1017500005F13000C2B24346394630460094FFF7E7
:10176000BBFE0836434604A2394630460094FFF7D4
:101770009BFEBDE8F88300002743000000BFFEE7A2
:1017800002460B46D11A11F1220F05DD11F11E0F91
:1017900002DA6FF00500704711F1020F04DD022933
:1017A00002DA6FF00500F6E71E2904DD222902DACD
:1017B0006FF00500EFE70020EDE70146087D00F03F
:1017C00040020AB9002070476FF00600FBE770473F
:1017D00038B5FE2009234FF4937200210090104683
:1017E000FFF7D8FDFE2009234FF49C7200210090E2
:1017F0001046FFF7CFFDFE2000234FF49C721946E0
:1018000000904FF49370FFF7C5FDFE2009234FF4BD
:101810009C72194600904FF49370FFF7BBFDFE20B9
:10182000062340F22312032100901046FFF7B2FD79
:10183000FE2006234FF49272032100901046FFF71A
:10184000A9FDFE20062340F2251203210090104638
:10185000FFF7A0FD4FF40051234804F05FFCB0B344
:10186000FF20082340F237120121009040F2271098
:10187000FFF790FD1D4800684FF425714843C0F301
:101880000F3540F21B20854201DA054604E040F2A4
:101890008220854200DD0546A5F21B20C0EB00102A
:1018A000672190FBF1F085B200240DE0FE20C4F525
:1018B0009B718AB2C4F59B71009088B20723022104
:1018C000FFF768FD601C84B2AC42EFDB0AE0FFE783
:1018D0009020082340F237120121009040F2271097
:1018E000FFF758FD38BD000000100140AC0000209B
:1018F0002DE9F04F8BB000200A9040F64850099037
:10190000002417E0FE4830F814100A98814204DDE4
:10191000FB4830F814000A900794F94830F8141086
:101920000998814204DAF64830F8140009900694C8
:10193000601C84B2B4F5407FE4DBDDE90910401A95
:1019400040F6E21191FBF0F080B20890EF2340F2F4
:101950003F120021084602F0C7F80420E949086058
:101960000820091D08604FF0000900254FF0000A0B
:10197000FAE04FEAA92BC9F30900ADF81200BDF84F
:101980001200C0F5806080B2ADF8100009F1C4000B
:101990001FFA80F94FF0000800245BE04FEAA8200E
:1019A0000390C8F30900ADF81600BDF81600C0F5A5
:1019B000806080B2ADF8140008F1C6001FFA80F80C
:1019C0001F2000EB4B110398081A86B2CC4830F860
:1019D0001600BDF814104843BDF810104843C84A1B
:1019E00006F1200132F81110BDF814205143BDF862
:1019F000122001FB0201701EC14A32F81000BDF82E
:101A000016205043BDF8102000FB0211BC4A06F11D
:101A10001F0032F81000BDF816205043BDF8122008
:101A200000FB02104FF6FF7101EA20570998381A9F
:101A3000089948430A2190FBF1F087B22846691CB7
:101A40008DB2B1490F542846691C8DB2AE490F546E
:101A5000601C84B2102CA1DB002406E02846691C1F
:101A60008DB2A9490C54601C84B2FE2CF6DB46F6FC
:101A70009A688F245BE04FEAA8200390C8F309001E
:101A8000ADF81600BDF81600C0F5806080B2ADF864
:101A9000140008F1C6001FFA80F81F2000EB4B115C
:101AA0000398081A86B2964830F81600BDF814104C
:101AB0004843BDF810104843914A06F1200132F81E
:101AC0001110BDF814205143BDF8122001FB020192
:101AD000701E8B4A32F81000BDF816205043BDF836
:101AE000102000FB0211864A06F11F0032F8100098
:101AF000BDF816205043BDF8122000FB02104FF62F
:101B0000FF7101EA20570998381A089948430A21B9
:101B100090FBF1F087B22846691C8DB27A490F54C8
:101B20002846691C8DB278490F54601C84B2A02CE1
:101B3000A1DB002412E0A5F5A07073490A5C2846D9
:101B4000691C8DB270490A54A5F5A0700A5C28463C
:101B5000691C8DB26C490A54601C84B2A02CEADB6B
:101B60000AF101001FFA80FABAF1050FFFF601AF82
:101B7000FFF72EFE00240DE06348005D634931F855
:101B80001000634908604FF40040624948610861F1
:101B9000601C84B2AC42EFDB00258EE04FEAA92B3B
:101BA000C9F30900ADF81200BDF81200C0F580605D
:101BB00080B2ADF8100009F1C4001FFA80F94FF0AF
:101BC000000800245BE04FEAA8200390C8F3090056
:101BD000ADF81600BDF81600C0F5806080B2ADF813
:101BE000140008F1C6001FFA80F81F2000EB4B110B
:101BF0000398081A86B2424830F81600BDF814104F
:101C00004843BDF8101048433D4A06F1200132F820
:101C10001110BDF814205143BDF8122001FB020140
:101C2000701E374A32F81000BDF816205043BDF838
:101C3000102000FB0211324A06F11F0032F810009A
:101C4000BDF816205043BDF8122000FB02104FF6DD
:101C5000FF7101EA20570998381A089948430A2168
:101C600090FBF1F087B22846691C8DB226490F54CB
:101C70002846691C8DB224490F54601C84B2A02CE4
:101C8000A1DB002413E0A5F5A0701F490A5C2946DA
:101C9000681C85B21C484254A5F5A0701A490A5C1C
:101CA0002846691C8DB218490A54601C84B2A02CC5
:101CB000E9DB0AF101001FFA80FABAF10A0FFFF618
:101CC0006DAF0020FE2314A2022100900420FFF734
:101CD000EBFB0020FE2312A202210090E620FFF77A
:101CE000E3FB002000900998A0F5C87002B2FE2323
:101CF00002212420FFF756FC002000900A9813E0F0
:101D0000A811002010080140A8010020F29F00083F
:101D10000C0C0140001001404D696E3A00000000BB
:101D20004D61783A00000000A0F5C87002B2FE23B1
:101D300002214FF48370FFF735FC00240DE0F948D1
:101D4000005DF94931F81000F84908604FF400408F
:101D5000F74948610861601C84B2AC42EFDB0025A2
:101D60008DE04FEAA92BC9F30900ADF81200BDF8C8
:101D70001200C0F5806080B2ADF8100009F1C40017
:101D80001FFA80F94FF0000800245BE04FEAA8201A
:101D90000390C8F30900ADF81600BDF81600C0F5B1
:101DA000806080B2ADF8140008F1C6001FFA80F818
:101DB0001F2000EB4B110398081A86B2DD4830F85B
:101DC0001600BDF814104843BDF810104843D94A16
:101DD00006F1200132F81110BDF814205143BDF86E
:101DE000122001FB0201701ED24A32F81000BDF829
:101DF00016205043BDF8102000FB0211CD4A06F119
:101E00001F0032F81000BDF816205043BDF8122014
:101E100000FB02104FF6FF7101EA20570998381AAB
:101E2000089948430A2190FBF1F087B22846691CC3
:101E30008DB2BC490F542846691C8DB2B9490F5464
:101E4000601C84B2A02CA1DB002412E0A5F5A070D8
:101E5000B4490A5C2846691C8DB2B2490A54A5F5FA
:101E6000A0700A5C2846691C8DB2AE490A54601CF9
:101E700084B2A02CEADB0AF101001FFA80FABAF161
:101E80000F0FFFF66EAF0120FE23AFF27412002198
:101E900000900420FFF708FB0120FE23AFF2801220
:101EA00000210090E620FFF7FFFA0120009009983A
:101EB000A0F5C87002B2FE2300212420FFF772FBB8
:101EC000012000900A98A0F5C87002B2FE230021FC
:101ED0004FF48370FFF766FB00240DE09148005D2E
:101EE000914931F81000914908604FF40040904941
:101EF00048610861601C84B2AC42EFDB96E04FEAB7
:101F0000A92BC9F30900ADF81200BDF81200C0F505
:101F1000806080B2ADF8100009F1C4001FFA80F9AA
:101F20004FF00008002463E04FEAA8200390C8F3B4
:101F30000900ADF81600BDF81600C0F5806080B24B
:101F4000ADF8140008F1C6001FFA80F81F2000EB5E
:101F50004B110398081A86B2764830F81600BDF87F
:101F600014104843BDF810104843724A06F120018E
:101F700032F81110BDF814205143BDF8122001FBB6
:101F80000201701E6B4A32F81000BDF81620504353
:101F9000BDF8102000FB0211664A06F11F0032F85E
:101FA0001000BDF816205043BDF8122000FB0210AF
:101FB0004FF6FF7101EA20570998381A08994843EB
:101FC0000A2190FBF1F087B2574830F81760554965
:101FD0000F55564806604FF4004055494861086166
:101FE000524806604FF4004048610861601C84B2AA
:101FF000A02C99DB002413E04A48005D4A4931F8DF
:1020000010604A4806604FF4004049494861086141
:10201000464806604FF4004048610861601C84B285
:10202000A02CE9DB0AF101001FFA80FABAF13A0F9D
:10203000FFF665AF002598E04FEAA92BC9F3090028
:10204000ADF81200BDF81200C0F5806080B2ADF8A6
:10205000100009F1C4001FFA80F94FF000080024B5
:102060005BE04FEAA8200390C8F30900ADF8160022
:10207000BDF81600C0F5806080B2ADF8140008F11C
:10208000C6001FFA80F81F2000EB4B110398081AB6
:1020900086B2284830F81600BDF814104843BDF841
:1020A00010104843234A06F1200132F81110BDF800
:1020B00014205143BDF8122001FB0201701E1D4A7D
:1020C00032F81000BDF816205043BDF8102000FB78
:1020D0000211184A06F11F0032F81000BDF8162050
:1020E0005043BDF8122000FB02104FF6FF7101EAC9
:1020F00020570998381A089948430A2190FBF1F0B3
:1021000087B22846691C8DB206490F542846691CBF
:102110008DB204490F54601C84B2A02CA1DB0024B2
:102120001DE00000A8010020F29F00080C0C0140F7
:1021300000100140A8110020A5F5A070FE490A5C1E
:102140002846691C8DB2FC490A54A5F5A0700A5CAA
:102150002846691C8DB2F8490A54601C84B2A02C30
:10216000EADB0AF101001FFA80FABAF13F0FFFF62D
:1021700063AFFF200523A522194600909B20FFF79F
:1021800009F9FF200923A022002100901046FFF743
:1021900001F900240DE0E848005DE84931F810003D
:1021A000E74908604FF40040E64948610861601C57
:1021B00084B2AC42EFDB96E04FEAA92BC9F30900E9
:1021C000ADF81200BDF81200C0F5806080B2ADF825
:1021D000100009F1C4001FFA80F94FF00008002434
:1021E00063E04FEAA8200390C8F30900ADF8160099
:1021F000BDF81600C0F5806080B2ADF8140008F19B
:10220000C6001FFA80F81F2000EB4B110398081A34
:1022100086B2CD4830F81600BDF814104843BDF81A
:1022200010104843C84A06F1200132F81110BDF8D9
:1022300014205143BDF8122001FB0201701EC24A56
:1022400032F81000BDF816205043BDF8102000FBF6
:102250000211BD4A06F11F0032F81000BDF8162029
:102260005043BDF8122000FB02104FF6FF7101EA47
:1022700020570998381A089948430A2190FBF1F031
:1022800087B2AE4830F81760AB490F55AC480660CE
:102290004FF40040AB4948610861A94806604FF41B
:1022A000004048610861601C84B2A02C99DB0024C6
:1022B00013E0A148005DA14931F81060A048066014
:1022C0004FF400409F49486108619D4806604FF403
:1022D000004048610861601C84B2A02CE9DB0AF16F
:1022E00001001FFA80FABAF16E0FFFF665AF002504
:1022F0008DE04FEAA92BC9F30900ADF81200BDF833
:102300001200C0F5806080B2ADF8100009F1C40081
:102310001FFA80F94FF0000800245BE04FEAA82084
:102320000390C8F30900ADF81600BDF81600C0F51B
:10233000806080B2ADF8140008F1C6001FFA80F882
:102340001F2000EB4B110398081A86B27E4830F824
:102350001600BDF814104843BDF8101048437A4ADF
:1023600006F1200132F81110BDF814205143BDF8D8
:10237000122001FB0201701E734A32F81000BDF8F2
:1023800016205043BDF8102000FB02116E4A06F1E2
:102390001F0032F81000BDF816205043BDF812207F
:1023A00000FB02104FF6FF7101EA20570998381A16
:1023B000089948430A2190FBF1F087B22846691C2E
:1023C0008DB25D490F542846691C8DB25A490F548D
:1023D000601C84B2A02CA1DB002412E0A5F5A07043
:1023E00055490A5C2846691C8DB253490A54A5F523
:1023F000A0700A5C2946681C85B24F484254601C94
:1024000084B2A02CEADB0AF101001FFA80FABAF1CB
:10241000730FFFF66EAF0020FE234CA20221009046
:102420000420FFF741F84B494B480068FDF724FFB3
:102430000190FEF745F902900020FE230090022152
:102440002420029AFEF7C0FF002000903E48B0F81A
:10245000E002A0F5C87002B2FE2302218C20FFF733
:10246000A1F80020FE233DA202210090F020FFF7FA
:102470001BF83B493B480068FDF7FEFE0190FEF764
:102480001FF900B202900020FE23009002214FF4B9
:102490008470029AFFF786F800240DE02648005D5C
:1024A000264931F81000264908604FF400402549BC
:1024B00048610861601C84B2AC42EFDB0025A6E0F5
:1024C0004FEAA92BC9F30900ADF81200BDF81200BC
:1024D000C0F5806080B2ADF8100009F1C4001FFAA9
:1024E00080F94FF00008002474E04FEAA820039020
:1024F000C8F30900ADF81600BDF81600C0F58060FD
:1025000080B2ADF8140008F1C6001FFA80F81F2051
:1025100000EB4B110398081A86B20B4830F81600EE
:10252000BDF814104843BDF810104843064A06F1A0
:10253000200132F8111017E0A8010020F29F0008D6
:102540000C0C014000100140A8110020653D302E08
:10255000000000000000C8420400002054613A005E
:102560000000204100000020BDF814205143BDF8B8
:10257000122001FB0201701E7F4A32F81000BDF8E4
:1025800016205043BDF8102000FB02117A4A06F1D4
:102590001F0032F81000BDF816205043BDF812207D
:1025A00000FB02104FF6FF7101EA20570998381A14
:1025B000089948430A2190FBF1F087B22846691C2C
:1025C0008DB26E490F542846691C8DB26B490F5469
:1025D000601C84B2A02C88DB002412E0A5F5A0705A
:1025E00066490A5C2846691C8DB264490A54A5F5FF
:1025F000A0700A5C2846691C8DB260490A54601CB0
:1026000084B2A02CEADB0AF101001FFA80FABAF1C9
:10261000780FFFF655AF0120FE23AFF2D002002164
:1026200000900420FEF740FF554956480068FDF72A
:1026300023FE0190FEF744F802900120FE23009053
:1026400000212420029AFEF7BFFE012000904A4894
:10265000B0F8E002A0F5C87002B2FE2300218C2081
:10266000FEF7A0FF0120FE23AFF210120021009020
:10267000F020FEF719FF444944480068FDF7FCFDCF
:102680000190FEF71DF800B202900120FE23009099
:1026900000214FF48470029AFEF784FF00240DE0BD
:1026A0003648005D3A4931F810003A4908604FF465
:1026B0000040394948610861601C84B2AC42EFDBDC
:1026C00007981F2828DD0798C11700EBD161491131
:1026D000A0EB4111314A515C4C000798C11700EB47
:1026E000D16149112E4A515C4FEA410A4FF61F0051
:1026F000E21DE11F009088B25346514601F0A2F856
:102700004FF61F000AF107030090AAF1070081B2FB
:102710002246204601F096F806981F2828DD0698E4
:10272000C11700EBD1614911A0EB41111B4A515C6B
:102730004C000698C11700EBD1614911184A515C51
:102740004FEA410A4FF4FC60E21DE11F009088B29D
:102750005346514601F076F84FF4FC600AF1070346
:102760000090AAF1070081B22246204601F06AF8E3
:102770000BB0BDE8F08F0000A8110020A8010020D8
:102780000000C8420400002000002041000000209A
:10279000F29F00080C0C014000100140F2A100085B
:1027A00012A200082DE9F04FC3B005460E460024E2
:1027B00015F8400F00F00F0006902878C0F30310C2
:1027C00007902888C0F30320089028881E2101EB79
:1027D00010300990B5F80290403D002025E08400BB
:1027E00000F1220115F8111001F00F012AAA42F898
:1027F000241000F1220115F81110C1F303122AABC5
:10280000611C43F8212000F1220135F81110C1F3B9
:102810000322A11C43F8212000F1220135F81110F8
:102820000A0BE11C43F82120401C0628D7DB0020BE
:102830000CE02AA951F82010072906DD2AA951F831
:10284000201010392AAA42F82010401C1828F0DB6A
:10285000002025E0840000F1280115F8111001F096
:102860000F010AAA42F8241000F1280115F81110EE
:10287000C1F303120AAB611C43F8212000F12801C7
:1028800035F81110C1F30322A11C43F8212000F1F7
:10289000280135F811100A0BE11C43F82120401CD7
:1028A0000828D7DB00200CE00AA951F820100729DE
:1028B00006DD0AA951F8201010390AAA42F82010A2
:1028C000401C2028F0DB4FF0000A78E04FF0000BAE
:1028D00070E0202000FB0AB404F1400135F811102B
:1028E000C1F30510FDF7C0FE06F1440141F82400D4
:1028F00051F824003549FDF757FF0BD206F144018A
:1029000051F824004FF08541FDF7B0FC06F1440179
:1029100041F824000122069902FA01F0FDF7A4FE15
:10292000074606F1440050F824103846FDF7A4FC91
:1029300006F1440141F824002AA951F82A10089A06
:10294000914001EB09030AA951F82B10079A914015
:102950005818FDF789FE074606F1440050F8241088
:102960003846FDF731FC06F1440141F8240009988E
:10297000FDF799FE02460B46CDE9000100204FF01D
:10298000804104F0F7FACDE9020106F1440151F863
:102990002400FDF7C2FE0746DDE90223FDF7F5FD41
:1029A000CDE90401FDF7E4FE06F1440141F82400FD
:1029B0000BF1010BBBF1200F8BDB0AF1010ABAF11D
:1029C000180F83DB43B0BDE8F08F00000000F84132
:1029D000FEB504460D46A08A00F40060061186F09C
:1029E000800694F86A1001F03F00FDF73DFE00906C
:1029F00028490098FDF7D8FE05D24FF08541009890
:102A0000FDF734FC00904FF083410098FDF766FC21
:102A10000090B4F86A10C1F38410FDF725FE019010
:102A20001D490198FDF7C0FE05D24FF08441019881
:102A3000FDF71CFC01904FF080410198FDF74EFC22
:102A40000190B4F86A10C80AFDF70EFE0290124910
:102A50000298FDF7A9FE05D24FF084410298FDF7D8
:102A600005FC02904FF082410298FDF737FC02907E
:102A700085F8256042F650200099415142F65021D8
:102A800029440198486042F6502129440298886000
:102A9000FEBD00000000F841000070412DE9F04F3C
:102AA0008BB004460D46B4F840001B2101EB1030FA
:102AB0000490B4F87400C0F30900ADF81C00BDF92F
:102AC0001C00B0F5007F06DBBDF81C00A0F580609F
:102AD00000B2ADF81C00B4F87400800AADF81E0016
:102AE000BDF91E001F2805DDBDF81E00403800B2EC
:102AF000ADF81E00BDF81E00BDF81C10084400B261
:102B0000ADF81E00B4F87210C1F30900FDF7ACFD7A
:102B100008905E490898FDF747FE05D24FF08941BD
:102B20000898FDF7A3FB08900498FDF7BCFD02464A
:102B30000B46CDE9000100204FF0804104F01AFA65
:102B4000CDE902010898FDF7E8FD0746DDE902231B
:102B5000FDF71BFD8246FDF70BFE0890B4F87210DE
:102B6000880AFDF781FD099049490998FDF71CFE87
:102B700005D24FF085410998FDF778FB09904FF099
:102B800086410998FDF7AAFB80464FF07E51FDF77C
:102B90001BFB07460899FDF76FFB099094F8760038
:102BA000FDF762FD05903B490598FDF7FDFD05D257
:102BB0004FF087410598FDF759FB059094F8700098
:102BC000C0F3031000F108063046FDF76CFD8246A5
:102BD00052460B4600204FF0804104F0CBF9CDE97E
:102BE00000010598FDF799FD0746DDE90023FDF793
:102BF000CCFCCDE90201FDF7BBFD2862B4F87610EC
:102C0000080AFDF731FD069022490698FDF7CCFD34
:102C100005D24FF087410698FDF728FB0690B4F8DF
:102C20007000C0F303294846FDF73DFD02460B4600
:102C3000CDE9000100204FF0804104F09BF982466D
:102C40008B460698FDF769FD52465B46CDE90201C9
:102C5000FDF79BFC0746FDF78BFDE86142F644203B
:102C60000899415142F64421294409984860BDF829
:102C70001C1042F64C204153BDF81E0042F64C2178
:102C8000294448800BB0BDE8F08F00000080FF436E
:102C90000000F8410000FE422DE9F04782460D4653
:102CA00000240027A046A14600BF0DE04FF6FF70AC
:102CB00042F65C21294421F8140042F66621294499
:102CC00021F81400601C84B2052CEFDB00241EE008
:102CD00004F140003AF8100038B942F65C2028446C
:102CE00020F81740781C87B20FE004F140001AF872
:102CF000100000F0010040B142F66620284420F8A0
:102D0000184008F101001FFA80F8601C84B2B4F585
:102D1000407F04DA052F02DAB8F1050FD8DB042F63
:102D200002DD6FF0020964E0B8F1040F02DD6FF01C
:102D300003095EE007EB0800042802DD6FF00409D8
:102D400057E0002419E0661C13E042F65C222A4496
:102D500032F8161042F65C222A4432F81400FEF7CC
:102D60000FFD8146B9F1000F02D04846BDE8F0875B
:102D7000761CBE42E9DB601C84B2BC42E3DB00246B
:102D800018E0661C12E042F666222A4432F8161059
:102D900042F666222A4432F81400FEF7F1FC81461E
:102DA000B9F1000F01D04846E0E7761C4645EADB62
:102DB000601C84B24445E4DB002418E0002612E0E5
:102DC00042F666222A4432F8161042F65C222A4461
:102DD00032F81400FEF7D4FC8146B9F1000F01D09F
:102DE0004846C3E7761C4645EADB601C84B2BC4219
:102DF000E4DB4846BAE70246B2F8603018B2B0F5F4
:102E0000004F00DB00B288827047000070B50446B6
:102E10000D46B4F87810080AFDF726FC0646094965
:102E20003046FDF7C1FC05D24FF087413046FDF733
:102E30001DFA06464FF08C413046FDF74FFA064624
:102E4000AE6270BD0000FE422DE9F04705460C461B
:102E50007A35A888C0F3013000EB80004FEA4008C3
:102E60006FF02700A0870021E1872879C0F30311C4
:102E700040200153A888C0F3032142200153402081
:102E8000005B00FB08F001B240200153B4F9401090
:102E9000B4F9420000FB081001B242200153287926
:102EA00000F00F0000F10807012000FA07F728786A
:102EB000FDF7DAFBE0622988080AFDF7D5FB2063FD
:102EC000A878FDF7D1FB606369887A3D080AFDF7B1
:102ED000CBFBA063002623E004F12C0151F826006F
:102EE0001149FDF761FC0BD204F12C0151F82600C9
:102EF0004FF08741FDF7BAF904F12C0141F82600A3
:102F00003846FDF7B1FB814604F12C0151F826004B
:102F10004946FDF7E3F904F12C0141F82600761C3F
:102F2000042ED9DBBDE8F0870000FE422DE9F04F0A
:102F30008DB006460D460024B6F86C00000A4FFA24
:102F400080FABAF17F0F01DD4FFA8AFA8DF830A0CE
:102F500096F86C004FFA80F8B8F17F0F01DD4FFA58
:102F600088F88DF83280B6F86E00000A47B27F2FDD
:102F700000DD7FB28DF8317096F86E004FFA80F95F
:102F8000B9F17F0F01DD4FFA89F98DF8339096F88A
:102F90007000C0F3031008300B9096F8700000F03A
:102FA0000F000A904FF0000B98E0002008908FE08F
:102FB0002021089801FB0B042046E31704EBD363A0
:102FC0005B1121464FEAE47C04EB9C6C4FEAAC1C9D
:102FD000A3EB4C03224604EBD27C4FEA6C0CA4EB2F
:102FE0004C0C4FF0020E0EFB03C3DBB209934031D1
:102FF00016F81110C1F34200FDF736FB41F24421EF
:10300000294441F8240041F24421294451F8240084
:103010003649FDF7C9FB0DD241F24421294451F84C
:1030200024004FF08241FDF721F941F24421294467
:1030300041F8240001220A9902FA01F0FDF714FB7D
:10304000079041F24420284450F824100798FDF7D7
:1030500013F941F24421294441F824000CAA0999AA
:103060005056FDF701FB079041F24420284450F8E8
:1030700024100798FDF7A8F841F24421294441F8AB
:1030800024000B98FDF70FFB02460B46CDE900012B
:1030900000204FF0804103F06DFFCDE9040141F2C3
:1030A0004421294451F82400FDF737FBCDE9020102
:1030B000DDE90423FDF769FACDE90601FDF758FBC8
:1030C00041F24421294441F824000898401C08900A
:1030D00008982028FFF66CAF0BF1010BBBF1180F1D
:1030E000FFF663AF0DB0BDE8F08F00000000404078
:1030F0002DE9F04F8DB005460E460024B5F8680066
:103100004FEA103ABAF1070F03DDAAF110004FFAA7
:1031100080FA8DF82CA0B5F86800C0F30328B8F148
:10312000070F03DDA8F110004FFA80F88DF82E800C
:1031300095F86800C0F30317072F02DDA7F1100010
:1031400047B28DF82D7095F8680000F00F09B9F1BD
:10315000070F03DDA9F110004FFA80F98DF82F90C9
:10316000B5F87000C0F303200A904FF0000B57E051
:10317000002008904FE02021089801FB0B04204616
:10318000E31704EBD3635B1121464FEAE47C04EBC5
:103190009C6C4FEAAC1CA3EB4C03224604EBD27CA4
:1031A0004FEA6C0CA4EB4C0C4FF0020E0EFB03C369
:1031B000DBB209930BA9099BC856FDF755FA41F6F6
:1031C0004461314441F824000A98FDF76CFA024644
:1031D0000B46CDE9000100204FF0804103F0CAFE0C
:1031E000CDE9040141F64461314451F82400FDF772
:1031F00094FACDE90201DDE90423FDF7C6F9CDE932
:103200000601FDF7B5FA41F64461314441F8240066
:103210000898401C089008982028ACDB0BF1010BA3
:10322000BBF1180FA4DB0DB0BDE8F08F2DE9F04322
:10323000B8B00246002092F8203003F00F0C92F84C
:103240002030C3F30317138CC3F30326538C1DB232
:10325000B5F5004F00DB2DB2002328E0980003F104
:10326000120412F8144004F00F040DF1800848F81D
:10327000204003F1120412F81440C4F303180DF1B6
:103280008009441C49F8248003F1120432F81440E8
:10329000C4F30328841C49F8248003F1120432F893
:1032A00014404FEA1438C41C49F824805B1C062BD8
:1032B000D4DB00230DE020AC54F82340072C07DDBD
:1032C00020AC54F82340103C0DF1800848F823400E
:1032D0005B1C182BEFDB002324E0980003F118049B
:1032E00012F8144004F00F044DF8204003F11804C4
:1032F00012F81440C4F30318441C4DF8248003F161
:10330000180432F81440C4F30328841C4DF82480B8
:1033100003F1180432F814404FEA1438C41C4DF875
:1033200024805B1C082BD8DB002309E05DF82340D8
:10333000072C04DD5DF82340103C4DF823405B1C56
:10334000202BF3DB00234CE0002447E04FF0200863
:1033500008FB034000F1400832F818804FEA982932
:1033600001F6444828F8109038F91080B8F11F0F82
:103370000BDD01F6444838F81080A8F140080FFA38
:1033800088F901F6444828F8109001F6444838F8C6
:1033900010804FF0010909FA0CF908FB09F80FFA3F
:1033A00088F901F6444828F810900DF1800838F8A3
:1033B000238008FA06F808EB05093DF8248008FA8E
:1033C00007F8C14401F6444838F81080C8440FFAA1
:1033D00088F901F6444828F81090641C202CB5DBCD
:1033E0005B1C182BB0DB38B0BDE8F0832DE9F04F43
:1033F00087B004460D46B4F86410880AFDF734F926
:1034000082462B495046FDF7CFF905D24FF0854152
:103410005046FCF72BFF82464FF08B415046FCF79D
:103420005DFF8246B4F86410C1F30900FDF71CF992
:10343000064620493046FDF7B7F905D24FF08941DD
:103440003046FCF713FF06464FF082413046FCF74A
:1034500045FF0646B4F862000FFA80FB0022164BC7
:1034600010464FF0804103F085FD07468846218CC9
:1034700001F47040FDF706F93A464346CDE90001F4
:10348000FDF783F800220D4BCDE90201FCF764FF44
:10349000CDE90401FDF76CF98146C5F804A0AE60E2
:1034A000A5F80CB0C5F8109007B0BDE8F08F00008B
:1034B0000000F8410080FF4300002C400000204045
:1034C000B0F87030C3F3013281F824207047000057
:1034D00070B504460D4694F87800FDF7C5F8064629
:1034E00009493046FDF760F905D24FF08741304673
:1034F000FCF7BCFE06464FF084413046FCF7EEFE7A
:103500000646AE6170BD00000000FE4230B50A46BE
:10351000B0F8664021B2B0F86640210A7F2902DD8A
:10352000A1F5807421B24C0121B290F86630A3F568
:1035300080744FF40055C5EB44131180538030BDA7
:1035400000BFFEE72DE9F04105460F46002439E0B3
:10355000012001F051F84FF400411C4802F086FDB3
:103560000026B04621E0012001F046F84FF400713A
:10357000164802F07BFD012001F03EF87006060EB1
:103580004FF40041114802F0C9FD08B1701CC6B2E9
:10359000012001F031F84FF400710C4802F064FD95
:1035A000012001F029F808F10108B8F1080FDADB71
:1035B000681EA04202D100F0C1F801E000F05EF800
:1035C0003E55641CAC42C3DBBDE8F08100080140FD
:1035D00010B54FF40041134802F048FD012001F0FE
:1035E0000BF84FF400710F4802F040FD012001F08C
:1035F00003F84FF400410B4802F090FD08B9002495
:1036000000E00124012000F0F7FF4FF400710548AD
:1036100002F02AFD4FF40041024802F025FD204649
:1036200010BD00000008014010B54FF400711248B1
:1036300002F01AFD012000F0DFFF4FF400410E48B8
:1036400002F014FD012000F0D7FF4FF400710A488A
:1036500002F00CFD012000F0CFFF4FF400410648BE
:1036600002F002FD012000F0C7FF4FF40071024894
:1036700002F0FAFC10BD00000008014010B54FF444
:1036800000410F4802F0F0FC012000F0B5FF4FF4BC
:1036900000710B4802F0EAFC012000F0ADFF0120B0
:1036A00000F0AAFF4FF40071054802F0DDFC012094
:1036B00000F0A2FF4FF40041014802F0D7FC10BD1A
:1036C000000801402DE9F041044601272546002667
:1036D00026E0012000F090FF05F0800028B14FF4B3
:1036E0000041154802F0C2FC04E04FF400411248CA
:1036F00002F0BAFC012000F07FFF4FF400710E4889
:1037000002F0B4FC012000F077FF012000F074FF0C
:103710004FF40071084802F0A7FC680045B2761C1F
:10372000082ED6DB012000F067FFFFF751FF0746A8
:103730003846BDE8F08100000008014010B54FF4A4
:1037400000410F4802F092FC012000F055FF4FF4B9
:1037500000710B4802F08AFC012000F04DFF0120AF
:1037600000F04AFF4FF40071054802F07DFC012093
:1037700000F042FF4FF40041014802F077FC10BD19
:103780000008014010B54FF400410F4802F06EFCF4
:103790004FF400710C4802F069FC012000F02CFF8E
:1037A000012000F029FF4FF40041074802F05CFCC3
:1037B000012000F021FF4FF40071034802F054FC97
:1037C000012000F019FF10BD0008014010B54FF4B2
:1037D00000710E4802F048FC4FF400410B4802F023
:1037E00043FC012000F008FF4FF40071074802F08D
:1037F0003DFC012000F000FF4FF40041034802F0BF
:1038000035FC012000F0F8FE10BD0000000801406A
:103810000821094A1160042111600903074A116156
:10382000074908604FF40041516111610821024AC3
:10383000121F116070470000140801400010014081
:103840000C0C01402DE9F04704460D4616461F4674
:10385000DDF820A03B4632462946204600F044F9D8
:10386000A84618E0A14612E004200D49086008208F
:10387000091D08600B48C0F800A04FF400400A4939
:103880004861086108200649086009F10109B1454D
:10389000EAD908F10108B845E4D9BDE8F08700008D
:1038A000100801400C0C0140001001402DE9F041CE
:1038B00006460F4600240025A0463946304600F053
:1038C00053F82E20FFF7A4FF4FF0883023490860FB
:1038D000091D0860002021490C310860042020499E
:1038E000086040031F49086108201D49091D086040
:1038F000C0021C49486119480830006884B24FF47E
:1039000080400861486115480830006884B24FF46F
:103910008040086148611148083000681FFA80F84B
:103920004FF48040086108200D4908604FF03330A3
:103930000A490860091D08604FF6FF7007490C31FD
:103940000860E5B200EA0525E012C002A91240EACB
:10395000411040EAE820BDE8F0810000000C014081
:10396000100801400010014010B504460B462A2003
:10397000FFF74EFF0420224908600820091D086057
:10398000200A204908604FF400401F49486108613F
:1039900008201B490860042008600820091D0860F1
:1039A000E0B2184908604FF40040174948610861C7
:1039B0000820134908602B20FFF72AFF0420104934
:1039C00008600820091D0860180A0E4908604FF4B5
:1039D00000400D4948610861082009490860042039
:1039E00008600820091D0860D8B2064908604FF435
:1039F000004005494861086108200149086010BD80
:103A0000100801400C0C0140001001402DE9F84164
:103A100005460E4614461F46DDF81C8009E0CDF829
:103A2000008022783B463146284600F007F80835EA
:103A3000641C20780028F2D1BDE8F8812DE9F04F10
:103A40008046894614469A46A4F12000C4B209F182
:103A50000F0308F107024946404600F045F80026EA
:103A600036E0274606EB07171B4810F807B000257D
:103A70002BE08020284100EA0B0080212941884268
:103A800011D10420154908600820091D0860144858
:103A9000C0F800A04FF400401249486108610820B6
:103AA0000E49086010E004200C4908600820091D38
:103AB00008600B49099808604FF4004009494861C3
:103AC00008610820054908606D1C082DD1D3761CBB
:103AD000102EC6D3BDE8F08F2A97000810080140C9
:103AE0000C0C01400010014070B506460C4615460E
:103AF0002A20FFF78DFE0420434908600820091D95
:103B00000860300A414908604FF40040404948616C
:103B1000086108203C490860042008600820091D4D
:103B20000860F0B2394908604FF4004038494861F4
:103B30000861082034490860042008600820091D35
:103B40000860280A314908604FF400403049486154
:103B5000086108202C490860042008600820091D1D
:103B60000860E8B2294908604FF4004028494861DC
:103B700008610820244908602B20FFF749FE042033
:103B8000214908600820091D0860200A1F490860B3
:103B90004FF400401E494861086108201A49086036
:103BA000042008600820091D0860E0B21749086079
:103BB0004FF4004016494861086108201249086026
:103BC000042008600820091D0860180A0F490860D1
:103BD0004FF400400E494861086108200A49086016
:103BE000042008600820091D0860D8B20749086051
:103BF0004FF4004006494861086108200249086006
:103C00002C20FFF705FE70BD100801400C0C014090
:103C10000010014000B53620FFF7FAFD04204D49A1
:103C200008600820091D086068204B4908604FF4AF
:103C300000404A49486108610820464908602A2036
:103C4000FFF7E6FD0420434908600820091D0860CD
:103C50000020414908604FF4004040494861086134
:103C600008203C490860042008600820091D0860FD
:103C70000020394908604FF4004038494861086124
:103C8000082034490860042008600820091D0860E5
:103C9000012031490860C0033049486108610820AB
:103CA0002C490860042008600820091D08603F2096
:103CB000294908604FF400402849486108610820FC
:103CC000244908602B20FFF7A3FD04202149086048
:103CD0000820091D086000201F4908604FF40040BB
:103CE0001E494861086108201A49086004200860DC
:103CF0000820091D08600020174908604FF40040A3
:103D000016494861086108201249086004200860CB
:103D10000820091D086000200F4908604FF400408A
:103D20000E494861086108200A49086004200860BB
:103D30000820091D0860EF20074908604FF4004083
:103D40000649486108610820024908602C20FFF7F5
:103D50005FFD00BD100801400C0C01400010014047
:103D600070B505460C4623464FF450724FF410517F
:103D7000284600F09FF970BD70B505460E462846EE
:103D8000FDF71BFD0446002C38D131462846FFF7CD
:103D9000BDFB31462846FFF729FB31462846FFF791
:103DA0002AF831462846FFF793FB31462846FFF7AD
:103DB00087FB31462846FFF729F831462846FFF7AA
:103DC00043F831462846FEF7EDFC31462846FFF71A
:103DD0002DFA31462846FFF7A9F831462846FFF765
:103DE00087F931462846FEF759FE31462846FEF748
:103DF000EFFD31462846FEF74FFF0446204670BDD2
:103E00002DE9FC4180460D460127012400260027AC
:103E10000EE06B460122D103404600F04BF9044608
:103E200014B12046BDE8FC81BDF8000000F0080791
:103E3000002FEED026E030224FF40041404600F043
:103E4000B3F90446601C08B92046EBE72B464FF453
:103E500050724FF48061404600F02CF904460CB1DA
:103E60002046DFE76B460122D103404600F022F9ED
:103E700004460CB12046D5E7BDF8000000F0080765
:103E8000701CC6B20FB1052ED5DB042E02DD6FF01B
:103E90000700C7E701AB012248F20D01404600F0E0
:103EA00009F90446BDF80400A5F88006BDF8000035
:103EB00000F00100A5F882060CB12046B2E7B5F883
:103EC0008206AFE72DE9F04F89B081460C462146C6
:103ED000484600F073F80690B9F84006FCF7CDFBB1
:103EE000079032490798FCF75FFC05D24FF08F41ED
:103EF0000798FCF7BBF90790B9F80006FCF7BDFB83
:103F000082462A495046FCF74FFC05D24FF08F41BC
:103F10005046FCF7ABF982460022254B1046590368
:103F200003F028F80746884621690798FCF7A4F9AA
:103F300051460190FCF748F9014602900798FCF7BA
:103F4000CDF90390FCF7E9FB3A464346CDE904017D
:103F5000FCF7A9FA0546FCF70BFC8246A089FCF7A2
:103F60008CFB804613490698FCF780F90590616840
:103F7000FCF782F907464FF07E51FCF725F906461B
:103F800031465046FCF7AAF905464146FCF76EF962
:103F900083465846A168FCF7A1F905460649FCF797
:103FA00013F98346584609B0BDE8F08F00FEFF467E
:103FB00000003240333353400000C8412DE9F04F38
:103FC00087B005460C46B5F85406FCF756FB064686
:103FD00028493046FCF7E8FB05D24FF08F413046C8
:103FE000FCF744F90646B5F88006C0F3812A50462E
:103FF000FCF748FB07463A460B4600204FF080414D
:1040000002F0B8FFCDE9020194F82400FCF74BFB65
:1040100007463A460B4600204FF0804102F0AAFFC7
:10402000CDE90001DDE90223FCF7AFFACDE9040197
:10403000FCF79EFB8146B4F90000FCF715FB0590E8
:10404000B4F90200FCF710FB834631464846FCF702
:1040500013F959460490FCF709F980460599FCF7D5
:104060003DF907460449FCF7AFF80646304607B06D
:10407000BDE8F08F00FEFF463333534010B54FF4D8
:104080000073032210210A4801F0F2FF4FF40043AD
:1040900003221021064801F0EBFF4FF400710448A1
:1040A00001F0E4FF4FF40041014801F0DFFF10BDD3
:1040B000000801402DE9FF4FADF2846D81460D46A9
:1040C00016460024A046A2460020CDF880064FF4F4
:1040D000D0616846FCF761F8DDF890B64FEA4960B8
:1040E000070E28128DF88006E8B28DF88106FFF7DA
:1040F0006DFB012000F080FAFFF744FB012000F087
:104100007BFA78B2FFF7DEFA08B1012000E0002068
:1041100004462CB14FF0FF300DF2946DBDE8F08FE6
:104120009DF8801648B2FFF7CDFA08B1012000E0F3
:104130000020044614B14FF0FF30EDE79DF88116E2
:1041400048B2FFF7BFFA08B1012000E000200446A2
:1041500014B14FF0FF30DFE7FFF766FA47F00107D1
:1041600078B2FFF7AFFA044614B14FF0FF30D3E74F
:1041700070006946FFF7E6F9FFF728FB4FF00008EB
:104180000DE04FEA480A0AF101001DF800101DF881
:104190000A0001EB00202BF8020B08F10108B045E2
:1041A000EFDB0020B8E700002DE9F84307460D4695
:1041B00014464FF000080020009078064FEA10697E
:1041C00028128DF80000E8B28DF8010020128DF859
:1041D0000200E0B28DF80300FFF7F8FA012000F0CA
:1041E0000BFAFFF7CFFA4FFA89F0FFF76BFA804628
:1041F000B8F1000F02D00120BDE8F88300260CE0E2
:104200001DF8061048B2FFF75DFA8046B8F1000FBE
:1042100002D04FF0FF30EFE7761C042EF0DBFFF703
:10422000D5FA074B012229463846FFF743FF0448D9
:104230000088A04202D06FF00100DDE70020DBE73C
:10424000B4000020F8B506466B46012248F20D0185
:104250003046FFF72FFF054655B9BDF8000040F482
:104260008054224648F20D013046FFF79DFF054677
:104270002846F8BDF8B507460C466007850D6B4625
:10428000012248F20D013846FFF714FF064666B9D1
:10429000BDF800004FF67F4108400543AAB248F23E
:1042A0000D013846FFF780FF06463046F8BD00BFD7
:1042B000FEE770477047000010B51021054801F077
:1042C000D3FE062003F094FE1021024801F0CEFE3A
:1042D00010BD00000008014010B504462403FFF79C
:1042E000EBFF00F09BF810210B4801F0BDFE2020F1
:1042F00003F07EFEC4F3074003F07AFEC4F3072008
:1043000003F076FEE0B203F073FE1021024801F0E4
:10431000ADFE00F083F810BD0008014000B587B085
:1043200040F2026003F0C6FD40F20C6003F0C2FDF3
:10433000A02303221821174801F09AFE40230322EC
:104340000421144801F094FE102303221946114859
:1043500001F08EFE10210F4801F088FE0020019030
:104360004FF4827000900020029005904FF400708E
:10437000039010200690002004906946064803F040
:1043800061FE0721044803F027FE034803F02AFEDC
:1043900007B000BD00080140003001402DE9F041A8
:1043A00006460C4617461021104801F05DFE03201A
:1043B00003F01EFEC4F3074003F01AFEC4F3072007
:1043C00003F016FEE0B203F013FE002505E0FF2027
:1043D00003F00EFE7055681C85B2BD42F7DB10215C
:1043E000024801F043FEBDE8F081000000080140F2
:1043F00010B500241021084801F036FE052003F016
:10440000F7FDFF2003F0F4FD04461021024801F0FF
:104410002DFE204610BD00000008014010B500BF71
:10442000FFF7E6FF00F001000028F9D110BD000001
:104430002DE9F04781460F4616464FEA1738C7F375
:104440000B0ACAF58054A64200DC344644E04FEA29
:1044500008314FF480522248FFF7A0FF002508E002
:104460000AEB05001E49085CFF2800D003E0681C29
:1044700085B2A542F4DB00BFA54216DA4046FFF73D
:104480002BFF002507E019F8050005EB0A01144A87
:104490005054681C85B2A542F5DB4FEA08314FF451
:1044A00080520F4800F01EF804E022463946484684
:1044B00000F018F8A64200D10FE008F101084FF013
:1044C000000AA1442744301B86B2B6F5805F02DDA6
:1044D0004FF4805400E03446B9E700BFBDE8F087F0
:1044E000A80100202DE9F04107460E461446F0B21F
:1044F000C0F58075AC4200DC254612E02A46314604
:10450000384600F013F8AC4200D10BE02F442E44A3
:10451000601B84B2B4F5807F02DD4FF4807500E04B
:104520002546EBE700BFBDE8F08100002DE9F04132
:1045300006460C461746FFF7BFFE1021104801F053
:1045400093FD022003F054FDC4F3074003F050FD37
:10455000C4F3072003F04CFDE0B203F049FD002551
:1045600004E0705D03F044FD681C85B2BD42F8DBD9
:104570001021034801F07AFDFFF750FFBDE8F081FC
:10458000000801407047000010B51448006840F072
:1045900001001249086008464068114908400F4967
:1045A0004860084600680F4908400C490860084602
:1045B000006820F480200860084640680A490840E6
:1045C00006494860084600680649084003490860F3
:1045D0004FF41F00886003F0ABFE10BD00100240D6
:1045E0000C00FFE8FFFFF6FEFFFF00F710B504F038
:1045F000BDFD10BD00BFFEE7002100E0491C814267
:10460000FCDB7047490050EAC12018BF04204A0D66
:1046100018BF40F0010040F2FF72B2EB515F08BFDB
:1046200040F00200012808BF052070472DE9F04145
:104630004F1E00EBC7010446D1E9000115461E4696
:1046400037F006020DD02A463346FBF72CFF7F1EBB
:1046500004EBC703D3E90023FBF77EFE37F0060225
:10466000F1D1022F25D0042F13D0062F18BFBDE89B
:10467000F0812A463346FBF716FFD4E90A23FBF7FD
:104680006BFE2A463346FBF70EFFD4E90823FBF7FF
:1046900063FE2A463346FBF706FFD4E90623FBF701
:1046A0005BFE2A463346FBF7FEFED4E90423FBF704
:1046B00053FE2A463346FBF7F6FED4E90223FBF706
:1046C0004BFE2A463346FBF7EEFED4E90023BDE855
:1046D000F041FBF741BE000000221346104601499D
:1046E000FBF753BF0000F03FFBF736BE0022134636
:1046F00010461146FBF749BF40F2013200204FF04F
:10470000E041FCF710B90000024A00201107FCF755
:104710000AB9000001FDFFFF02E008C8121F08C12E
:10472000002AFAD170477047002001E001C1121F32
:10473000002AFBD170470000014908607047000063
:10474000A4010020816841F00801816000BF8168F8
:1047500001F008010029FAD1816841F0040181606B
:1047600000BF816801F004010029FAD1704730B51B
:10477000012902D002291AD10CE0C36A23F4700384
:10478000C362C36A541E4FF4700505EA0454234300
:10479000C3620DE0836B23F440138363836B541E69
:1047A0004FF4401505EA04542343836300E000BF3F
:1047B00000BF30BD21B1826842F40062826003E034
:1047C000826822F4006282607047000010B50446DF
:1047D0001348204430B1B0F5806F0CD0B0F5C05F05
:1047E0001BD111E040F2093003F084FB40F20930A4
:1047F00003F070FB12E040F20A3003F07BFB40F262
:104800000A3003F067FB09E040F20F3003F072FB5F
:1048100040F20F3003F05EFB00E000BF00BF10BDB0
:1048200000DCFEBF816841F480718160704781685F
:1048300001F0010119B9816841F0010181607047FF
:1048400072B101F001031BB1836843F480138360EC
:1048500001F0020393B1836843F4004383600DE0E9
:1048600001F001031BB1836823F48013836001F01E
:1048700002031BB1836823F400438360704701295E
:1048800002D0022910D107E0836823F460238360FB
:1048900083681343836008E0836823F4E043836004
:1048A00083681343836000E000BF00BF70470000CF
:1048B0000549096821F47021034A1160114609680D
:1048C000014311607047000004240140F0B51D460B
:1048D00006290CDA436B01EB81071F26BE40B34368
:1048E00001EB810602FA06F63343436322E00C290A
:1048F0000EDA036B8E1F06EB86071F26BE40B343FE
:104900008E1F06EB860602FA06F63343036311E0B8
:1049100010290FDAC36AA1F10C0606EB86071F26E1
:10492000BE40B343A1F10C0606EB860602FA06F67A
:104930003343C3620A2A0CDA046902EB42070726F2
:10494000BE40B44302EB420605FA06F63443046166
:1049500011E0122A0FDAC468A2F10A0606EB460734
:104960000726BE40B443A2F10A0606EB460605FA46
:1049700006F63443C460F0BD01F001021AB182684A
:1049800042F48002826001F002021AB1826842F4AD
:10499000001282607047AAB101F480731BB14368B2
:1049A00043F48073436001F480631BB1436843F4B4
:1049B0008063436001F00203CBB1836843F00203DC
:1049C000836014E001F480731BB1436823F48073A7
:1049D000436001F480631BB1436823F48063436048
:1049E00001F002031BB1836823F002038360704768
:1049F0002DE9F04781460D46144628480078C0B995
:104A00000120264908702648056026488068264906
:104A1000086008460068A04201D9084604602248A0
:104A2000008883B21E4881210268484604F056F887
:104A300032E01A48007801281FD11A484668806879
:104A400019490968471A4FF000084246394630466E
:104A500000F02EF81548124908600D201249086030
:104A600003200E4908701048008883B20C48812149
:104A70000268484604F032F80EE00848007803283F
:104A80000AD10020054908701F23064A0221484622
:104A900003F0AEFFBDE8F08700BFFBE76201002036
:104AA0006401002058440020680100207844002060
:104AB00010B5044B044C23602346586099601A7368
:104AC00010BD00005553425378440020F0B5ADF5B9
:104AD000257D002776A103C9CDE908011822764972
:104AE00002A8FBF741FB42262820CDF83600C10082
:104AF000CDF83A10F021CDF83E1001210AA84183EB
:104B0000102181830321CDF84610DDF83E10DDF839
:104B10003A2051430AAA928B01FB02F0C11700EB25
:104B20005171CA10CDF84A2044F64250ADF8280021
:104B3000DDF84A003044CDF82A00CDF832604FF459
:104B40007840CDF85E004FF4FC61CDF862101F2173
:104B5000CDF8661032E0032208A91BA800F0B8FDCA
:104B60000746FFB91BA800F075FD9DF821003038FD
:104B70009DF82010303901EB810100EB4100401C11
:104B8000C7B20A2097FBF0F03030C0B28DF8200099
:104B90000A2097FBF0F100FB11703030C0B28DF8A5
:104BA00021000BE0062208A91BA800F091FD074692
:104BB00007B904E001200DF5257DF0BDCBE700BF6E
:104BC00001AB32460AA91BA800F08CFE0746EF2372
:104BD00040F23F1200210846FEF786FF0026EF2430
:104BE00023E0002509E0A1B2A8B2FEF75FFE71192B
:104BF000324A22F81100681C05B2B5F5A07FF2DB3D
:104C0000204604EBD0714910A4EB410149B901AB36
:104C10004FF4A06229491BA800F064FE0746002655
:104C200001E04FF4A076601E04B2E02CD9DA08A9A6
:104C300002A8FBF7BDFA00204FF6FF7302AAE0219D
:104C40000090FEF7E3FEEF2340F23F1200210846FA
:104C5000FEF74AFF0026DF2423E0002509E0A1B289
:104C6000A8B2FEF723FE7119144A22F81100681C3D
:104C700005B2B5F5A07FF2DB204604EBD0714910F8
:104C8000A4EB410149B901AB4FF4A0620B491BA849
:104C900000F028FE0746002601E04FF4A076601ED3
:104CA00004B2002CD9DA1BA800F0D4FC384682E705
:104CB00030302E626D7000002CA20008A811002078
:104CC00070B504460D4600202071401EE062294662
:104CD000204602F00FF808B1032070BD94F82E12A0
:104CE00094F82F0241EA00204AF65521884201D06B
:104CF0000220F2E794F86900010694F8680041EA9E
:104D0000004194F8670041EA002094F866100843D7
:104D100020F07F400D49884201D10020DDE794F862
:104D20008500010694F8840041EA004194F883006C
:104D300041EA002094F88210084320F07F400349A4
:104D4000884201D10020C8E70120C6E7464154004F
:104D5000024600E0521C107810B110788842F9D158
:104D60001078704770B503460D46586A021D680AF0
:104D70001E68B678B0FBF6F400BF02CA09B900207D
:104D800070BD8C4200D202E0641A121DF5E700BF2C
:104D900010682044F4E70246891E5069801E88424C
:104DA00001D8002070479378906A01FB0300F9E76F
:104DB0002DE9F04704468946B9F1000F06D1E768AE
:104DC00017B16069B84215D8012713E0494620465B
:104DD00001F0B0F80646022E02D20120BDE8F087AD
:104DE000701C08B93046F9E76069B04201D9304615
:104DF000F4E74F463D4600BF6D1C6069A84204D8E9
:104E00000225BD4201D90020E8E72946204601F0ED
:104E100091F8064606B909E0701C08B1012E01D1CF
:104E20003046DBE7BD42E7D10020D7E700BF6FF097
:104E300070422946204602F069FF8046B8F1000F13
:104E400008D1B9F1000F05D02A464946204602F0A4
:104E50005DFF8046B8F1000F0BD1E5602069401C72
:104E600078B12069401E2061607940F001006071D6
:104E700007E0B8F1010F02D14FF0FF3000E0012050
:104E800005462846AAE700002DE9F35F0198D0F80F
:104E9000009001E009F1010999F800002F28F9D0EC
:104EA00099F800005C28F5D0009886690B22202133
:104EB000304601F015FF00252F46AB464FF0080A9B
:104EC00000BF58460BF1010B19F80040202C03DD00
:104ED0002F2C01D05C2C00D153E02E2C01D0574553
:104EE0000DD3BAF1080F01D12E2C02D00620BDE857
:104EF000FC9F08274FF00B0AA806050EE1E7802C5F
:104F000001DB45F00305812C20DBFE2C1EDC58461E
:104F10000BF1010B19F80080B8F1400F02DBB8F17A
:104F20007E0F05DDB8F1800F06DBB8F1FE0F03DC64
:104F3000AAF10100B84201D80620D8E738467F1C04
:104F4000345438467F1C06F8008019E0214620A022
:104F5000FFF7FEFE08B10620C9E7412C04DB5A2CFE
:104F600002DC45F0020508E0612C06DB7A2C04DC4B
:104F700045F00105A4F12000C4B238467F1C34542A
:104F80009FE700BF09EB0B0101980160202C01DCB9
:104F9000042000E0002004460FB90620A7E730787F
:104FA000E52801D105203070BAF1080F01D1A8061B
:104FB000050E05F00300012801D144F0100405F0AE
:104FC0000C00042801D144F00804F47200208EE79C
:104FD000222A2B2C3A3B3C3D3E3F5B5D7C7F000010
:104FE000002109E0002201E0531C9AB244F6382364
:104FF0009A42F9DB4B1C99B28142F3DB70472DE9F1
:10500000F04104460E460021204600F0F9F805461E
:10501000EDB9002700BF2169206801F06BFE05464D
:1050200005B113E060690078E52802D06069007876
:1050300020B9781C0746B04201D107E000270121C2
:10504000204600F038F80546002DE4D000BF042DBE
:1050500000D107252846BDE8F0812DE9F04104463E
:105060000021204600F0CCF8054615B12846BDE8E1
:10507000F08100BF2169206801F03CFE054605B1C2
:1050800016E0666937780FB9042511E0F07A00F070
:10509000080030B90B223046A16901F001FE00B9C9
:1050A00006E00021204600F006F80546002DE1D07C
:1050B00000BF2846DBE72DE9F04104468846E0883A
:1050C000461CB0B208B1206910B90420BDE8F081D7
:1050D00006F00F0000286CD12069401C2061E068B8
:1050E00028B920680089B04263D80420EEE7206820
:1050F0008078401E00EA161000285AD1E168206826
:1051000000F018FF0546012D01D80220DEE7681CDB
:1051100008B90120DAE720684069A84243D8B8F10D
:10512000000F01D10420D1E7E1682068FFF740FEBD
:1051300005460DB90720C9E7012D01D10220C5E7B9
:10514000681C08B90120C1E7206803F026F808B1FF
:105150000120BBE7216801F130004FF4007200210B
:1051600001F0BEFD29462068FFF715FE2168C862E0
:1051700000270EE0012021680871206803F00DF877
:1051800008B10120A2E72068C06A401C2168C862FB
:105190007F1C20688078B842ECD82068C06AC01BA9
:1051A0002168C86200BFE56029462068FFF7F3FD6B
:1051B0002061E6802068303006F00F0100EB4110DE
:1051C0006061002082E770B5044601212046FFF7A8
:1051D00016FF054695B92169206801F08BFD05464B
:1051E00065B920220021606901F07AFD0B22D4E923
:1051F000050101F068FD012021680871284670BD95
:105200002DE9F04104460E46E680A568012D03D045
:1052100020684069A84202D80220BDE8F0812DB97B
:1052200020680078032801D12068456A45B92068C4
:105230000089B04201D80220EFE72068476A1EE0EB
:10524000206880784FEA001812E02946206800F0B4
:1052500071FE0546681C08B90120DEE7022D03D364
:1052600020684069A84201D80220D6E7A6EB0806CC
:105270004645EAD229462068FFF78DFD0746E560DE
:105280000FB90220C9E707EB161020612068303003
:1052900006F00F0100EB411060610020BDE7014600
:1052A000002201B901E0012200BF00BF0AB10120C4
:1052B00070470020FCE710B50346D3B931B101298E
:1052C0000FD0022904D0032910D106E000200FE0FE
:1052D0004FF40074148000200AE008241480002099
:1052E00006E04FF400441460002001E0042000BFF9
:1052F00000E0012010BD2DE9F04107460D4616469D
:105300001C464FF0000814B90420BDE8F08177B9BD
:1053100009E071024FF400722846FFF73FF8761C4F
:1053200005F50075641E002CF3D1A04602E04FF095
:10533000010800BF00BFB8F1000F01D10020E4E771
:105340000120E2E70146002070472DE9F0410746C1
:105350000D4616461C464FF0000814B90420BDE85F
:10536000F08177B909E071024FF400722846FFF727
:105370005FF8761C05F50075641E002CF3D1A0467D
:1053800002E04FF0010800BF00BFB8F1000F01D1EB
:105390000020E4E70120E2E770B505460C4621460F
:1053A000284600F0FBF808B900BFFEE704EB8400D4
:1053B000810005F10800405840F0010104EB840031
:1053C000820005F10800815070BD70B505460C469D
:1053D0002146284600F0E2F808B900BFFEE704EBDA
:1053E0008400810005F10800405840F0200104EBE2
:1053F0008400820005F10800815070BD70B504463C
:105400000D462946204600F0C9F808B900BFFEE75E
:1054100005EB8500810004F10800405820F00101EF
:1054200005EB8500820004F108008150002105EBA6
:105430008500820004F10800815005EB85008200A0
:1054400004F10C00815005EB8500820004F110008E
:10545000815005EB8500820004F1140081506068E2
:10546000AA000F2191400843606070BD2DE9F04112
:1054700004460D4616462946204600F08FF808B926
:1054800000BFFEE705EB8500820004F110003168E3
:10549000815005EB8500820004F11400B168815051
:1054A000308A81B205EB8500820004F10C00815046
:1054B00005EB8500810004F10800475827F47C576C
:1054C000F1687068084371690843074305EB85007C
:1054D000810004F108004750307E01280ED105EB11
:1054E0008500810004F10800405840F0400105EBC0
:1054F0008500820004F1080081500DE005EB850075
:10550000810004F10800405820F0400105EB8500BF
:10551000820004F108008150707E01280ED105EB55
:105520008500810004F10800405840F0800105EB3F
:105530008500820004F1080081500DE005EB850034
:10554000810004F10800405820F0800105EB85003F
:10555000820004F108008150B07E70B905EB85002F
:10556000810004F10800405820F0100105EB85008F
:10557000820004F1080081500DE005EB85008100F8
:1055800004F10800405840F0100105EB850082004E
:1055900004F108008150BDE8F081000002460120BE
:1055A000034B9A4202D1042900DD0020704700001D
:1055B0000004024010B54FF48070234908604FF496
:1055C000C06002F077FC40F2026002F073FC40F22F
:1055D000036002F06FFC40F2046002F06BFC40F2EA
:1055E000056002F067FC40F2066002F063FC0823ED
:1055F000032210211448143800F03AFD042303223A
:1056000010211148143800F033FD4FF400430322F9
:1056100010210E4800F02CFD4FF48043032210218E
:105620000A4800F025FD4FF480730322102106483C
:10563000143800F01DFD4FF6FF73032210210448BB
:1056400000F016FD10BD00001408014000100140DC
:10565000000C014070B50546284600F0EBF8044602
:1056600034B9284604F046F804460CB900202860F6
:10567000204670BDF7B582B016460398019001A888
:1056800000F0CEFC0546002D02DA0B2005B0F0BD7F
:105690000E4850F825400CB100202070029810B13F
:1056A0000020029908700949029841F825000298E3
:1056B00008B1012E01D00020E8E7002203A902A8CA
:1056C00000F00AFA07463846E0E700009C01002097
:1056D0002DE9F7438AB0054616461DB909200DB0DD
:1056E000BDE8F0830020286006F01F0626F00102C6
:1056F0000BA903A800F0F0F90746002F7ED1CDF8E2
:1057000024D003A80B9900F0CDFB0746089C0FB9E5
:1057100004B9062706F01C00002851D04FB1042F11
:1057200003D103A8FFF74FFD074646F00806089C83
:1057300009E0E07A00F0110008B1072703E006F065
:10574000040000B10827002F39D106F00800002816
:1057500035D000F063FC804684F80E804FEA1821B3
:10576000E1734FEA184121744FEA18616174002017
:10577000E072207700216177A177E17721460398D5
:1057800001F060F981460021204602F09AFC0120D8
:1057900003990871B9F1000F11D00398D0F82C804B
:1057A0004946039802F0C2FB074647B9A9F1010038
:1057B0000399C8604146039801F09CFA07460EE041
:1057C0006FB9E07A00F0100008B1042707E006F096
:1057D000020020B1E07A00F0010000B1072747B9CC
:1057E00006F0080008B146F020060398C06AE86198
:1057F0002C621FB9AE710020E87100E018E021466C
:10580000039801F01FF92861E07F0106A07F41EABB
:105810000041607F41EA0020217F0843E8600020CA
:10582000A860A8616862039828602868C088A8807A
:10583000384654E72DE9F0410446204603F05AFF6C
:105840000746002F4CD1A07900F02000002847D057
:10585000A07900F0400078B121684878012304F174
:105860002801A269FFF771FD10B10120BDE8F081A8
:10587000A07920F04000A071E169206801F03AFAB7
:105880000746002F2CD1256AE87A40F02000E87204
:10589000207B2877A089010A6977E068010CA97745
:1058A000E068010EE9772846216902F00AFC00F061
:1058B000B5FB0646AE75310AE975310C2976310E15
:1058C00069760020A8740021E974A07920F02000F6
:1058D000A071012021680871206802F0FAFB0746D8
:1058E0003846C3E72DE9FF4F83B0044615469B4673
:1058F000049801900020CBF80000204603F0FAFE47
:105900000290029818B1029807B0BDE8F08FE079D4
:1059100008B1E079F8E7A07900F0020008B90720A3
:10592000F2E7A0682844A168884200D20025C2E0BE
:105930002089C0F3080000286FD120688078401EBD
:10594000A16800EA512000F0FF0ABAF1000F2CD143
:10595000A06858B9D4F81080B8F1000F13D1002115
:105960002068FFF725FA804620610CE0606A28B1C4
:105970002046A168FFF7F6F9804604E061692068D7
:10598000FFF716FA8046B8F1000F00D196E0B8F1A3
:10599000010F02D10220E071B6E708F1010010B951
:1059A0000120E071B0E7C4F81480A07900F0400055
:1059B00078B121684878012304F12801A269FFF732
:1059C000C4FC10B10120E0719EE7A07920F04000F6
:1059D000A07161692068FFF7DEF9064616B902205A
:1059E000E07191E756444FEA5529B9F1000F2BD0E9
:1059F0000AEB090021688978884203D920688078F9
:105A0000A0EB0A09216848784B4632460199FFF716
:105A10009CFC18B10120E07176E729E0A069801BA9
:105A200048450ED2A069801B019A02EB40214FF439
:105A3000007204F1280001F046F9A07920F040003E
:105A4000A0714FEA49272AE0A069B0420FD0D4E9FB
:105A5000020188420BD2216848780123324604F1C2
:105A60002801FFF748FC10B10120E0714CE7A66166
:105A70002089C0F30800C0F50077AF4200D92F4657
:105A80002189C1F3080204F1280150183A4601990E
:105A900001F019F9A07940F04000A07100BF019811
:105AA00038440190A0683844A060DBF80000384416
:105AB000CBF80000ED1B002D7FF43AAF00BFD4E916
:105AC0000201884201D9A068E060A07940F020007E
:105AD000A071002018E700002DE9F74F88B00021E1
