:020000040800F2
:10000000A84C0020490100080F2B0008952100088A
:100010000D2B00086D130008192E000800000000C9
:10002000000000000000000000000000C52D0008D6
:100030009B13000800000000112B0008610100085C
:100040006301000863010008630100086301000800
:1000500063010008630100086301000863010008F0
:1000600063010008630100086301000863010008E0
:1000700063010008630100086301000863010008D0
:1000800063010008630100086301000863010008C0
:10009000152E0008630100086301000863010008D1
:1000A00063010008630100086301000863010008A0
:1000B0006301000863010008630100086301000890
:1000C0006301000863010008630100086301000880
:1000D0006301000863010008630100086301000870
:1000E0006301000863010008630100086301000860
:1000F0006301000863010008630100086301000850
:10010000630100086301000863010008630100083F
:10011000630100086301000863010008630100082F
:10012000630100086301000863010008630100081F
:10013000DFF810D000F050FC00480047594000089C
:10014000AFF30080A84C00200648804706480047CF
:10015000FEE7FEE7FEE7FEE7FEE7FEE7FEE7FEE777
:10016000FEE7FEE7C92D000831010008D2B201E028
:1001700000F8012B491EFBD270470022F6E710B5AC
:1001800013460A4604461946FFF7F0FF204610BD05
:10019000F0B480EA0102D40F4200B2EB410F02D268
:1001A0000246084611464A0042D0C30DDDB2C1F3F3
:1001B000C752AD1A202D35DAC1F3160141F4000201
:1001C00004B15242C5F1200602FA06F12A41104458
:1001D000B3EBD05F23D0C4B1012DA0EBC35009DC39
:1001E000F0BC4FF0004202EAC352DBB200F500005F
:1001F00000F0E6BA400000F1807000EBC350A0F1BF
:10020000807040EAD170490009E0490841EAC071B4
:10021000A0EBC35000F50000400800EBC350F0BC59
:1002200000F0C5BA6142012202EB4101001BF6E772
:10023000F0BC704781F00041AAE780F00040A7E7DA
:1002400080EA010210B502F00043400022D04A00CB
:100250001FD0010E01EB1261C0F35600C2F356022B
:1002600040F4000042F40002A0FB022000047F39A9
:10027000140400D0401C50EA124001D44000491E32
:10028000C2B20C0604EBD010401C4008802A02D0F9
:1002900003E0002010BD20F00100002900DA00205A
:1002A000184310BD30B480EA010202F0004530F07E
:1002B000004221F0004013D090B1C30DD40DC2F321
:1002C0001601C0F31600E41A41F4000140F40002E4
:1002D0007D34914201D3641C00E04900002C02DA15
:1002E00030BC002070474FF400000023914201D33E
:1002F000891A034340084FEA4101F7D151B19142B5
:1003000002D14FF0004105E002D24FF0010101E0BF
:100310006FF0010103EBC450284430BC00F047BA31
:10032000420005D0C0F3C7525242914201DC002086
:10033000704700EBC15070472DE9FE4F804681EABF
:100340000300C00F0C46009021F0004123F000454F
:10035000B8EB0200A94105D24046214690461C4612
:100360000B46024623F00040104347D0270DC7F349
:100370000A00C3F30A510290401A019040286BDA38
:10038000C3F3130040F4801B0098924620B1002371
:10039000D2EB030A63EB0B0B01985946C0F1400204
:1003A000504600F0E3F906460D4650465946019A7C
:1003B00000F0EBF910EB08006141002487EA1152CC
:1003C00084EAE7731A4340D0009A62B3019A012A83
:1003D0004FEA075215DC001B61EB02014FF00042AF
:1003E00002EA0752CDE90042001C41F58011324675
:1003F0002B4600F022FA03B0BDE8F08F40462146BC
:10040000F9E7001B61EB0201001C41F580130018A5
:100410005B412018A2F5001747EB030140EAD570B5
:10042000B6196D4111E06D084FEA360645EAC07510
:100430004FEA0752001B61EB0201001C41F58011DD
:1004400049084FEA30000019514132462B4603B0AB
:10045000BDE8F04F00F0E2B900980122400000230F
:10046000D0EB020263EBE073009821464FEAE074A0
:10047000B8EB000061EB0401E9E783F000435BE7C0
:1004800081F0004158E72DE9FE4F81EA030404F0B2
:10049000004421F0004100944FF0000B23F0004392
:1004A00050EA01045ED052EA03045BD0C3F30A545D
:1004B000C1F30A552C44A4F2F3340194A0FB025476
:1004C000C1F3130141F48011C3F3130343F4801308
:1004D00001FB024400FB034E840A970A44EA81545C
:1004E00047EA8357A4FB076802958D0A05FB078539
:1004F0004FEA932C04FB0C542705029D4FEA065843
:1005000047EA1637B5EB08056EEB070C870E920E1F
:1005100047EA811742EA8312A7FB0201B6EB0B01FF
:1005200064EB00042B0D43EA0C335E1844EB1C50C3
:10053000DA465146E7FB0201C5F313044FEA0B33D9
:1005400043EA14534FEA0432019C43EA0603A4F140
:100550000C040294009CCDE900B400F06EF903B0E5
:10056000BDE8F08F00200146F9E72DE9F04D81EA62
:10057000030404F0004B21F0004514464FF0000A3C
:1005800023F0004150EA050220D054EA01021DD0B8
:10059000C5F30A570246C5F31303C1F31300C1F3B1
:1005A0000A5640F4801543F48013A7EB0608101B8D
:1005B000D64608F2FD3873EB050002D308F10108B6
:1005C00001E092185B41B8F1000F03DA0020014608
:1005D000BDE8F08D00204FF48011064684460EE001
:1005E000171B73EB050705D3121B63EB05030643CB
:1005F0004CEA010C49084FEA300092185B4150EA7E
:100600000107EDD152EA030012D082EA040083EA26
:100610000501084305D0101BAB4106D2012200237F
:1006200006E000224FF0004302E06FF00102531099
:100630001AEB06004CEB085110EB0A0041EB0B01E2
:10064000BDE8F04D00F0EAB8C10F80EAE070084460
:10065000CA079623002100F0B3B896230022114662
:1006600000F0AEB80EB5C10F80EAE0700844CA07CA
:10067000002140F233438DE80E000A460B4600F09D
:10068000DCF803B000BD0EB540F233410291002109
:10069000CDE900110A460B4600F0CFF803B000BDCB
:1006A00000F0004220F00040C10DC0F3160040F4FD
:1006B00000007F2901DA00207047962903DCC1F190
:1006C0009601C84001E096398840002AF4D04042A3
:1006D000704720F00040C10DC0F3160040F4000048
:1006E0007F2901DA00207047962903DCC1F19601C9
:1006F000C840704796398840704700F0004230F09B
:1007000000400AD0C10D01F56071C0F3160042EA45
:100710000151C2084007114370470020014670474D
:1007200001F0004330B421F0004150EA010206D04C
:100730000A0DA2F56072C1F31301002A02DC30BC7D
:1007400000207047440F44EAC104C100E01830BCE7
:1007500000EBC25000F02BB8002801DBC0F10040D4
:10076000002901DBC1F1004188427047202A04DBE7
:10077000203A00FA02F1002070479140C2F12003B4
:1007800020FA03F3194390407047202A06DBCB1769
:10079000203A41FA02F043EAE07306E041FA02F33C
:1007A000D040C2F120029140084319467047002909
:1007B000A8BF7047401C490008BF20F001007047E7
:1007C00010B4B0FA80FC00FA0CF050EA010404BF47
:1007D00010BC704749B1CCF1200421FA04F411FA9D
:1007E0000CF118BF012121430843A3EB0C01CB1DE1
:1007F0004FEA00614FEA102042BF002010BC704752
:1008000000EBC35010440029A4BF10BC7047401C2B
:10081000490008BF20F0010010BC704710B5141E3D
:1008200073F1000408DA401C41F1000192185B41A9
:100830001A4301D120F0010010BD2DE9F04D924680
:100840009B4611B1B1FA81F202E0B0FA80F2203297
:100850009046FFF78BFF04460F4640EA0A0041EA44
:100860000B0153465A46084313D0114653EA010080
:1008700019D0C8F14002504600F0C0F805460E46B7
:10088000504659464246FFF771FF084305D0012004
:1008900004E020463946BDE8F08D0020054346EAD5
:1008A000E0762C4337430A986305E40AA0EB08007E
:1008B0000022FD0A44EA47540A3002D500200146CE
:1008C000E9E7010510196941DDE9084500196941A9
:1008D000BDE8F04DA2E770B521F0004303430CD012
:1008E000C1F30A550024D5EB040564EB0403D617C5
:1008F000AD1AB34102DB0020014670BD201841EB68
:10090000025170BD2DE9F04D00231A461B1A8A4191
:1009100003DB00200146BDE8F08DC1F30A52C1F3AC
:10092000130141F480154FF0000BD10702D10018DC
:100930006D41521E0027044640F2FF11384601EB7C
:10094000620A3E468046024600204FF4801100F0C5
:1009500055F8C2197141BB1846EB0100B4EB030C0A
:1009600075EB000C04D3E41A65EB000517460E4640
:10097000241908F101006D4180463428E3DDF9199E
:1009800046EB0600091BA84103D24FF0FF32134685
:1009900001E0002213461BEB070046EB0A51BDE8BD
:1009A000F04DFFF73BBF000030B5041E71F10004AD
:1009B00004DB4FF00044404264EB0101141E73F16C
:1009C000000405DB1C464FF00043524263EB040376
:1009D000994208BF904230BD064C074D06E0E068E2
:1009E00040F0010394E8070098471034AC42F6D376
:1009F000FFF7A2FB4873000868730008202A04DB95
:100A0000203A21FA02F00021704721FA02F3D04087
:100A1000C2F12002914008431946704770B58C1806
:100A200010F8015B15F0070301D110F8013B2A1102
:100A300006D110F8012B03E010F8016B01F8016BEF
:100A40005B1EF9D12B0705D40023521E0DD401F8EB
:100A5000013BFAE710F8013BCB1A921C03E013F8B4
:100A6000015B01F8015B521EF9D5A142D8D30020E9
:100A700070BD00002DE9FF4F8FB099460C46074628
:100A8000B0F882B601F020FF08902146384601F008
:100A9000C1FEF84D07902946FFF77AFBFFF72DFEC0
:100AA000DFF8D4830022434603F04EFEFFF738FE02
:100AB000064629464846FFF76BFBFFF71EFE00225D
:100AC000434603F041FEFFF72BFE05463146FFF794
:100AD000B1FB1199FFF7E6FB2946FFF7AEFB029049
:100AE000E649E06AFFF7ACFB4FF07E594D464946B8
:100AF000FFF74EFB01462846FFF7D4FBCDE903057F
:100B0000B4F940000646FFF79FFD616BFFF798FBC5
:100B10002946FFF73DFB0590B4F94200801BFFF723
:100B200093FDA16BFFF78CFB2946FFF731FB05997D
:100B3000FFF786FB0690B7F81406FFF78EFDD04E40
:100B40000546B04204DD4FF08F41FFF773FB0546C9
:100B5000B4F91400FFF778FD2946FFF7A3FB0990CD
:100B6000B7F88006802101EA501AB7F81006FFF79F
:100B700074FD0090B7F85006FFF76FFD00256E4634
:100B8000019056F82500BE49884205DD4FF08F419F
:100B9000FFF750FB46F825006E465DF825000999E1
:100BA000FFF74EFB46F825006D1C022DE9DBB54929
:100BB0000898FFF73FFB0B90E169FFF741FB4FF00F
:100BC0007E552946FFF7E4FA0646AF490798FFF736
:100BD00031FB0A90216AFFF733FB2946FFF7D8FA69
:100BE00004F500590546B9F94C0AFFF72DFD2946D1
:100BF000FFF726FB3146FFF723FB0099FFF71DFBAC
:100C0000009094F82510B9F94E0A514502D1FFF72A
:100C10001BFD05E0FFF718FDD9F8501AFFF7B8FAE9
:100C20002946FFF70DFB3146FFF70AFB0199FFF755
:100C300004FB00250190EA1705EB926105EBD260F9
:100C400089114011494200EB410046B205EBD570D5
:100C50004010404205EB4000AB1C70404FEAE37C83
:100C60004FFA80F803EB9C73E81C4FEAE07C9B1082
:100C700000EB9C70691CA3EBA000CB1701EB9371F8
:100C800000EBA10005EB9271A0EBA10072420121E3
:100C900001EB4201484340B20D90BAF1000F00D180
:100CA000B046B7F8820640457DD137F81500FFF70A
:100CB000D4FC7349884203DD4FF08F41FFF7BAFA45
:100CC0000999FFF7BDFA079004EB85000B9A00F530
:100CD000805808901046D8F8441EFFF7B1FA4FF03C
:100CE0007E51FFF755FA0C900A98D8F84412FFF796
:100CF000A7FA4FF07E51FFF74BFA804604EB450010
:100D0000B0F9440CFFF7A0FC4146FFF799FA0C99A3
:100D1000FFF796FA0799FFF790FA94F825108046A6
:100D2000514518D00D98FFF78FFCD9F8541AFFF7EA
:100D300087FA07904FF0FF3000EB4600FFF784FC86
:100D4000D9F8581AFFF77CFA4146FFF721FA0799BC
:100D5000FFF770FA804640461199FFF7A3FAD4F8DE
:100D6000188006465DF82B104046FFF769FA3146B9
:100D7000FFF763FA07900A98A16AFFF761FA4FF04C
:100D80007E51FFF705FA064604EB8B0000F5005094
:100D9000D0F8441A4046FFF753FA0899496CFFF718
:100DA0004CFA314600E0BBE0FFF74AFA089002999E
:100DB000FFF746FA0799FFF7EBF9FFF79EFC0646A7
:100DC00088460898FFF799FC0022304B03F0BCFCE2
:100DD00032464346FFF757FBFFF7A2FC0646206B5F
:100DE000FFF78BFC804630460C91FFF786FC04F041
:100DF00060FB04F05EFB42460C9BFFF744FBFFF7F1
:100E00008FFC06461B49206BFFF71AFA4FF07E5104
:100E1000FFF713FA0899FFF713FA3146FFF7B8F90D
:100E200001460798FFF73EFA0299FFF7B1F9FFF77D
:100E300064FC04F03EFB04F03CFB4FF0C042144B5A
:100E4000FFF71BFBFFF76CFC8046B4F93E00FFF791
:100E5000FBFB4146FFF780FC01D2002625E0B4F9F8
:100E60004000FFF7F1FB4146FFF776FC12D2012666
:100E70001BE0000033938843000010400000204234
:100E800000FEFF46333353400000C84100000840D5
:100E900066127140B4F94200FFF7D6FB4146FFF7F6
:100EA0005BFC01D2022600E0032604EB4600B0F909
:100EB0003C00FFF7C9FB4146FFF7BFF904EB860191
:100EC000C96AFFF7BDF94FF07E51FFF761F980461F
:100ED00003A850F826100898FFF7B2F94146FFF72B
:100EE000AFF901460798FFF7DDF90299FFF750F9CE
:100EF000FFF703FC04F0DDFA04F0DBFA4FF0663292
:100F00000B4BFFF7BAFAFFF70BFC0A49FFF798F90A
:100F10000949FFF73DF9FFF7DCFB1C9921F81500A3
:100F20006D1CB5F5407FFFF686AE13B0BDE8F08FBF
:100F300066127140000020410000C84310B588B01F
:100F400040F2026004F01EFA40F2096004F01AFA5E
:100F50004FF4A06004F016FA032004F0E1F9032333
:100F60001A460021354802F005FD354C0021204687
:100F700002F0ECF93348002100908DF818100120A0
:100F80008DF8190040020190800003900220049027
:100F90002D4A0003029205908DF81A106A462046E9
:100FA00002F0EFF90021204602F0C0F900212046AE
:100FB00002F0ACF9234C4C3C204602F007F800202C
:100FC00002F05AF801220221204602F0ADF8012277
:100FD0001102204602F0A8F80021204601F0ECFFA3
:100FE00002220121204601F0CCFF002205231146F8
:100FF000204602F04DF8012205231146204602F05A
:1010000047F84FF460220121204602F025F8012222
:101010001146204602F005F8204601F0FAFF0120B3
:1010200002F02AF9204601F09DFF204601F0ECFF76
:101030000121204602F06BF808B010BD0008014005
:10104000000002404C240140C4000020F0B5094FCC
:10105000059E0BE0044601EB810504E004EB851CD2
:10106000641C07F80C609442F8D9491C9942F1D9E4
:10107000F0BD0000C40100202DE9F8439846089D0A
:1010800014008946064605D554422D22009500F0ED
:1010900061F808360A27642C25DB642094FBF0F005
:1010A0003030C2B2434649463046009500F052F80F
:1010B00094FBF7F090FBF7F107FB11003030C2B260
:1010C0004346494606F10800009500F043F894FBBA
:1010D000F7F007FB10403030C2B24346494606F1F4
:1010E000100000951DE00A2C15DB94FBF7F0303062
:1010F000C2B2434649463046009500F02BF894FBB7
:10110000F7F007FB10403030C2B24346494606F1C3
:101110000800009505E03034E2B2434649463046C7
:10112000009500F017F8BDE8F8832DE9F8411F4657
:10113000144688460546079E07E03B46414628463A
:10114000009600F007F8641C08352278002AF4D1D4
:10115000BDE8F8812DE9F04F203AD5B2DDF824C082
:10116000324A8027324EDCB2BCF1000F09D0BCF10C
:10117000010F23D0C1F106039346B946C1F1100A0D
:1011800050E000239246B94603EB05121AF802809C
:1011900000225F1807EB870700EB871C29FA02F78C
:1011A00037EA080702D10CEB0207F455521C082A53
:1011B000F4D35B1C082BE7D3BDE8F08F08239246DD
:1011C000B94603EB05125F181AF802800022083FA7
:1011D00007EB870700EB871C29FA02F737EA0807B5
:1011E00002D10CEB0207F455521C082AF4D35B1C05
:1011F000102BE6D3E0E703EB05125F181BF8028023
:101200000022BF1F07EB870700EB871C29FA02F7B4
:1012100037EA080702D10CEB0207F455521C082AE2
:10122000F4D35B1C9A45E6D8C6E70000E46B0008DF
:10123000C40100202DE9F84F9A46DDE90A47150060
:101240008B46064607D5504205B22D223046009403
:10125000FFF780FF08364FF47A704FF064094FF0C3
:101260000A08854220DB95FBF0F03030C2B25346CD
:10127000594630460094FFF76DFF95FBF9F047465D
:1012800090FBF7F108FB11003030C2B2083653462C
:10129000594630460094FFF75DFF95FBF9F109FBD5
:1012A000115090FBF7F014E0642D2BDB07B10836EA
:1012B00095FBF9F03030C2B253465946304600949F
:1012C000FFF748FF474695FBF7F090FBF7F108FB67
:1012D00011003030C2B253465946083600943046A9
:1012E000FFF738FF083653462E2259463046009401
:1012F000FFF730FF95FBF7F007FB10503030C2B21C
:10130000009420E00A2D0ADB07B11036474695FB12
:10131000F7F03030C2B2534659460094DFE707B1C8
:10132000183653463022594630460094FFF712FFD4
:10133000083653462E22594630460094FFF70AFFDE
:101340003035EAB200940836534659463046FFF726
:1013500001FF06F10800534603A259460094FFF727
:10136000E4FEBDE8F88F000027430000FEE7411AC5
:1013700001F121026FF00500032A06D34A1C032A5B
:1013800003D31F39032900D300207047007D10F0DC
:10139000400001D06FF0060070477047F8B5FE2599
:1013A00006220923012110460095FFF74FFE18225F
:1013B0000923012110460095FFF748FE012318225A
:1013C000194606200095FFF741FE09231822194609
:1013D00006200095FFF73AFE042106230522084661
:1013E0000095FFF733FE40F6255440F612664FF4A1
:1013F00000511A4802F006FB58B31948008880B221
:10140000A04201D2204602E0B04200D93046A0F608
:10141000255000EB0010ED2190FBF1F00404240CAA
:1014200009D0FF200090C4F1180080B208231722D1
:101430000221FFF70BFEC4F111000004000C07D0DD
:10144000801D82B20823009502210720FFF7FEFDD0
:10145000F8BD9020082317220090F5E70010014006
:10146000C40000202DE9FC5FDF4E002740F6485005
:1014700037807080DFF8749338464FF4407239F843
:1014800010103388994201D93180054673889942FA
:1014900001D271800446401C80B29042EFD3D44800
:1014A0006FF02702B0F90000904204DBD149B1F996
:1014B0000010914203DA7088F08030880CE0283008
:1014C00000EB80024FF6FF7000EA4202283101EB88
:1014D0008101F28000EA4100B080F18880B2401AB8
:1014E0004CF2A85191FBF0F030810021EF2340F243
:1014F0003F12084600F0FEFFBF49042008600820A4
:10150000091D086000220921104601F083FFFFF742
:1015100045FFBA4B03224FF01E0C02EB82000CEB8E
:10152000801081B200205854491C401C80B289B2FE
:10153000FE28F8D3521C92B2082AEED9022000905D
:10154000AF4840F21F1BFE230268AE4801785846A0
:10155000FFF7EBFD0A2004F005FF002213210A200B
:1015600001F058FF00970197F088FE23A0F5C8709E
:1015700002B2B04602211E20FFF75CFE0126CDE933
:101580000076B8F80400FE23A0F5C87002B202216C
:10159000E420FFF74FFEDFF870A20097FE23022140
:1015A0005846DAF80020FFF7C0FD0A2004F0DAFE02
:1015B00000221D21142001F02DFFCDE90067B8F8AD
:1015C0000600FE23A0F5C87002B200211E20FFF71E
:1015D00031FE00960196B8F80400FE23A0F5C8700D
:1015E00002B20021E420FFF725FE0096FE23002131
:1015F0005846DAF80020FFF798FD0A2004F0B2FE02
:10160000012273211E2001F005FF00227D2174209C
:1016100001F000FF4FF0FF0A0523A42219469C2089
:10162000CDF800A0FFF712FDA022092301211046EA
:10163000CDF800A0FFF70AFD0A2004F093FE012276
:10164000DB217E2001F0E6FE0022E521DC2001F016
:10165000E1FEFE236DA2022104200097FFF765FD45
:10166000DFF8B4B16B49DBF80000FEF7E9FDFFF7E6
:1016700017F80246FE23022124200097FFF7FCFC06
:1016800000970197B9F8E002FE23A0F5C87002B2F6
:1016900002218C20FFF7CEFDFE2360A20221F02064
:1016A0000097FFF742FDDFF87CA15D49DAF8000002
:1016B000FEF7C6FDFEF7F4FF02B20097FE230221FB
:1016C0004FF484700197FFF7B5FD0A2004F04AFE3D
:1016D0000022EF21E62001F09DFEFE234BA2002117
:1016E00004200096FFF721FD4A49DBF80000FEF7D1
:1016F000A7FDFEF7D5FF0246FE2300212420009619
:10170000FFF7BAFCCDE90067B9F8E002FE23A0F5C7
:10171000C87002B200218C20FFF78CFDFE233FA28F
:101720000021F0200096FFF700FD3D49DAF80000A7
:10173000FEF786FDFEF7B4FF02B2FE2300214FF450
:101740008470CDE90067FFF775FD0A2004F00AFEFA
:10175000B8F80010B8F80400DFF8CC90814209F125
:10176000200A1CD11F2D1AD905F01F014FF61F07A3
:1017700019F8010046000AEB5510F21D0078009799
:101780004500F01F2B4680B2194600F085FEEB1D88
:10179000ED1F3246A9B21046009700F07DFEB8F862
:1017A0000210B8F8060081421CD11F2C1AD904F08F
:1017B0001F014FF4FC6619F8010045000AEB5410B4
:1017C000EA1D007800964400E81F234680B21946BF
:1017D00000F062FEE31DE41F2A46A1B21046009607
:1017E00000F05AFEBDE8FC9FCC000020C411002090
:1017F000060000200800002010080140C40100205D
:10180000100000200400002014000020653D302E50
:10181000000000000000C8420C00002054613A00A3
:10182000000020411C000020D47100082DE9F34F76
:101830000746B0F840001E21BDB000F00F03C0F312
:10184000031AC0F3032B01EB1038B7F842003B90AA
:10185000002020AA07EB40018400B1F84410401C8E
:1018600001F00F0542F8245002EB8404C1F3031584
:101870006560C1F30325090BC4E902510628E9DBC1
:10188000002052F82010072902DD103942F82010FC
:10189000401C1828F5DB00206D4607EB4001840052
:1018A000B1F85010401C01F00F0645F8246005EB1C
:1018B0008404C1F303166660C1F30326090BC4E96F
:1018C00002610828E9DB002055F82010072902DD15
:1018D000103945F82010401C2028F5DB0120002697
:1018E0009840FEF7B1FE3A904046FEF7CCFECDE9B7
:1018F0003801002505EB461407EB4400B0F88000E2
:10190000C0F30510FEF7A9FE3E9901EB84041E49C1
:101910006064884204DD4FF08541FEF78BFC606413
:101920003A98616CFEF78CFC804620A83B9950F8F1
:10193000260000FA0BF042185DF8250000FA0AF0C4
:101940001044FEF781FE4146FEF722FC6064DDE9AB
:1019500038210B4600204FF0804102F0F5FE804612
:101960008946606CFEF7C9FE42464B46FEF7FDFD18
:10197000FEF7D6FE6D1C6064202DBBDB761C182E96
:10198000B7DB3FB0BDE8F08F0000F8412DE9F0472C
:101990000D46818A8022B0F86A4002EA111181F076
:1019A000800604F03F00FEF758FE1A49884203DD26
:1019B0004FF08541FEF73EFC6FF00301FEF7B0FCEF
:1019C0008046C4F38410FEF748FE134F4FF0844A5C
:1019D000B84202DD5146FEF72DFC4FF0FF31FEF715
:1019E0009FFC8146E00AFEF738FEB84202DD514610
:1019F000FEF720FC6FF00201FEF792FC85F82560EF
:101A000005F50055C5F8549AC5F8508AC5F8580A26
:101A1000BDE8F0870000F841000070412DE9F05F5B
:101A200004460F46B0F840001B2101EB1038B4F813
:101A30007410C1F3090060F30F05B0F5007F03DBFC
:101A4000A0F5806060F30F05880A60F31F451F282A
:101A500002DD403860F31F4505EB254060F31F456C
:101A6000B4F87200C0F30900FEF7F7FD49490646D5
:101A7000884204DD4FF08941FEF7DCFB0646404614
:101A8000FEF701FE02460B4600204FF0804102F0B7
:101A90005BFE804689463046FEF72FFE42464B46A7
:101AA000FEF763FDFEF73CFE8046B4F87200800A44
:101AB000FEF7D3FD3849884203DD4FF08541FEF73C
:101AC000B9FB6FF00601FEF72BFC4FF07E51FEF7DD
:101AD0005FFB4146FEF7B4FB834694F87600FEF7C1
:101AE000BCFD06462D48864205DD4FF08741304655
:101AF000FEF7A0FB064694F87000C0F30310083010
:101B0000FEF7C1FD02460B4600204FF0804102F077
:101B10001BFE81468A463046FEF7EFFD4A46534695
:101B2000FEF723FDFEF7FCFD3862B4F87600000AEC
:101B3000FEF793FD19490646884204DD4FF08741C0
:101B4000FEF778FB0646B4F87000C0F30320FEF7FA
:101B50009AFD02460B4600204FF0804102F0F4FD52
:101B6000044689463046FEF7C8FD4B462246FEF73E
:101B7000FCFCFEF7D5FDF86107F500572814C7F8FF
:101B800048BAC7F8448AA7F84C5AA7F84E0ABDE8E5
:101B9000F09F00000080FF430000F8410000FE427B
:101BA0002DE9F0410B46002106460D460C4608463D
:101BB0004FF6FF7703EB410202F50052491CA2F8F1
:101BC0005C7A89B2A2F8667A0529F3D300214FF432
:101BD000407712E006EB4102B2F88020BAB1D2079A
:101BE00007D003EB440202F50052641CA2F8661A07
:101BF000A4B2491C89B2B94203D2052D01D2052CE9
:101C0000E8D3042D0CD96FF00200BDE8F08103EB9E
:101C1000450202F500526D1CA2F85C1AADB2E8E76D
:101C2000042C02D96FF00300EFE72919042902D927
:101C30006FF00400E9E7002716E003EB47017E1C84
:101C400001F500580CE003EB460000F50050B0F839
:101C50005C1AB8F85C0AFFF78AFB0028D5D1761C1D
:101C6000AE42F0DB7F1CBFB2AF42E6D3002716E0E6
:101C700003EB47017E1C01F500580CE003EB460026
:101C800000F50050B0F8661AB8F8660AFFF76FFB67
:101C90000028BAD1761CA642F0DB7F1CBFB2A74257
:101CA000E6D3002716E003EB4701002601F50058B4
:101CB0000CE003EB460000F50050B0F8661AB8F8E7
:101CC0005C0AFFF754FB00289FD1761CA642F0DB8C
:101CD0007F1CBFB2AF42E6D397E7B0F96000B0F522
:101CE000004F00DB00B288827047000010B5B0F8EA
:101CF00078000C46000AFEF7B0FC0649884203DD76
:101D00004FF08741FEF796FA6FF00C01FEF708FBE3
:101D1000A06210BD0000FE422DE9F04705460C46CA
:101D200035F87E0F6FF02701A1870021E18715F8B4
:101D30000419C0F30130C1F3031124F8401F00EB74
:101D400080004000AA884143C2F3032224F81419FA
:101D500002FB0010E0822879012600F00F00083015
:101D600086402878FEF779FC20602888000AFEF774
:101D700074FC6060A878FEF770FCA0606888000AB8
:101D8000FEF76BFCE06000250D4F4FF087493046B1
:101D90002C3CFEF759FC804604EB8506F06AB842FD
:101DA00003DD4946FEF746FAF0624146F06AFEF767
:101DB00079FA6D1CF062042DEEDBBDE8F0870000BF
:101DC0000000FE422DE9F34FB0F86C10074641F3D6
:101DD000072085B07F2800DD40B28DF8000048B2B2
:101DE0007F2800DD40B28DF80200B7F86E1041F395
:101DF00007207F2800DD40B28DF8010048B27F281F
:101E000000DD40B28DF8030097F870000026C0F3A3
:101E1000031400F00F0101208840DFF8CCA0EB464E
:101E20000834FEF711FC03902046FEF72CFCCDE9A8
:101E30000110002505EB4614E01704EBD06104EB1C
:101E4000906080114911404201EB400004EBD471D5
:101E500021F00101611A01EB400000F0FF0907EBDE
:101E6000440090F88000C0F34200FEF7F6FB0699AC
:101E7000504501EB840404F58054C4F8440205DDA8
:101E80004FF08241FEF7D6F9C4F84402D4F8441268
:101E9000039804F51174FEF7D3F980461BF9090085
:101EA000FEF7D2FB4146FEF773F92060DDE9013110
:101EB0000A4600204FF0804102F046FC80468946E9
:101EC0002068FEF71AFC42464B46FEF74EFBFEF733
:101ED00027FC6D1C2060202DACDB761C182EA8DBA7
:101EE00007B0BDE8F08F0000000040402DE9FE4F34
:101EF000B0F868208A46110B072900DD10398DF8EB
:101F00000010C2F30321072900DD10398DF80210FB
:101F1000C2F30311072900DD10398DF8011002F01A
:101F20000F01072900DD10398DF80310B0F870009B
:101F30000026C0F30320E946FEF7A5FBCDE901101A
:101F40004FF0804B002505EB4614E01704EBD06101
:101F500004EB906080114911404201EB400004EB1A
:101F6000D47121F00101611A01EB4000C0B219F9EE
:101F70000000FEF769FB0AEB8404A4F5DE7404F5A7
:101F800000542060DDE901310A460020594602F084
:101F9000DBFB074688462068FEF7AFFB3A46434620
:101FA000FEF7E3FAFEF7BCFB6D1C2060202DCADBB8
:101FB000761C182EC6DBBDE8FE8F2DE9F04F8B4650
:101FC000018CB0F92230B8B001F00F08C1F303164C
:101FD000C1F3032AB3F5004F00DB1BB2002120AD93
:101FE00000EB41028C00928C491C02F00F0745F86F
:101FF000247005EB8404C2F303176760C2F3032760
:10200000120BC4E902720629EADB002155F82120EF
:10201000072A02DD103A45F82120491C1829F5DB72
:102020000021EC4600EB41028C00128E491C02F0AC
:102030000F074CF824700CEB8404C2F3031767609D
:10204000C2F30327120BC4E902720829EADB00215C
:102050005CF82120072A02DD103A4CF82120491CA7
:102060002029F5DB0022AE46E1465EF82270002111
:1020700007FA0AF701EB421400EB44050BEB4404AA
:10208000B5F88050AD0AA4F8445C1F2D02DD403D38
:10209000A4F8445C39F821C0ADB205FA08F50CFA91
:1020A00006FCBC441D446544491CA4F8445C20293A
:1020B000E0DB521C182AD8DB38B0BDE8F08F0000F6
:1020C0002DE9F041B0F8646005460C46B00AFEF711
:1020D000C4FA1949884203DD4FF08541FEF7AAF89A
:1020E0006FF00B01FEF71CF98046C6F30900FEF7FE
:1020F000B4FA1249884203DD4FF08941FEF79AF89D
:102100006FF00201FEF70CF90746288CB5F8626003
:1021100000F47040FEF7B7FA0022094BFEF725FAEB
:102120000022084BFEF708F9FEF7FAFAC4E9018726
:10213000A6812061BDE8F0810000F8410080FF43E6
:102140000000D0400000204010B50C4690F8780008
:10215000FEF783FA0649884203DD4FF08741FEF718
:1021600069F86FF00401FEF7DBF8A06110BD000014
:102170000000FE42B0F86620100A7F2801DDA0F5BD
:1021800080704001D2B24FF4404303EB421208800A
:102190004A807047FEE700002DE9F05F8A468046DE
:1021A00000254FF4004B3BE0012000F036FEDFF845
:1021B00078905F465946484601F0DAFBBB4600245A
:1021C0004F4626464FF40079012000F026FE49468E
:1021D000384601F0CDFB012000F01FFE6006040E22
:1021E0005946384601F00EFC08B1641CE4B20120E7
:1021F00000F013FE4946384601F0B8FB012000F01C
:102200000CFE761C082EDFDBA8F10100854202D10E
:1022100000F0BCF801E000F05FF80AF805406D1C22
:102220004545C1DBBDE8F09F000801402DE9F041C4
:10223000134D4FF400463146284601F099FB01202A
:1022400000F0EBFD6F153946284601F091FB0120A7
:1022500000F0E3FD3146284601F0D4FB70B10124C3
:10226000012000F0DAFD3946284601F07FFB3146B7
:10227000284601F07BFB2046BDE8F0810024EFE713
:102280000008014070B5134D4FF4007421462846F4
:1022900001F06CFB012000F0C0FDA601314628468C
:1022A00001F066FB012000F0B8FD2146284601F050
:1022B0005FFB012000F0B1FD3146284601F056FBDE
:1022C000012000F0AAFD21462846BDE8704001F03B
:1022D0004DBB00000008014070B5114D4FF40044A3
:1022E0002146284601F042FB012000F096FDA61190
:1022F0003146284601F03CFB012000F08EFD012014
:1023000000F08BFD3146284601F030FB012000F043
:1023100084FD21462846BDE8704001F029BB00003D
:10232000000801402DE9F041174F002504464FF405
:1023300000487E15012000F070FD20064146384619
:1023400002D501F015FB01E001F010FB012000F0C7
:1023500064FD3146384601F00BFB012000F05DFDC5
:10236000012000F05AFD3146384601F0FFFA6000C6
:102370006D1C44B2082DDDDB012000F04EFDBDE8F0
:10238000F041FFF753BF00000008014070B5114D48
:102390004FF400442146284601F0EAFA012000F0FB
:1023A0003CFDA6113146284601F0E2FA012000F07A
:1023B00034FD012000F031FD3146284601F0D6FA07
:1023C000012000F02AFD21462846BDE8704001F0BA
:1023D000CFBA00000008014070B5114D4FF4004421
:1023E0002146284601F0C4FAA6113146284601F0DC
:1023F000BFFA012000F011FD012000F00EFD214682
:10240000284601F0B3FA012000F007FD31462846C6
:1024100001F0ACFABDE87040012000F0FEBC000005
:102420000008014070B50F4D4FF400742146284656
:1024300001F09CFAA6013146284601F097FA0120E6
:1024400000F0EBFC2146284601F092FA012000F052
:10245000E4FC3146284601F08BFABDE870400120CB
:1024600000F0DBBC00080140084908220A60042390
:102470000B600749D3020B61064B186010034861DB
:1024800008610248001F0260704700001408014004
:10249000001001400C0C01402DE9FF4F91460C4605
:1024A0008346DDF834A0039B00F024F80E4D082687
:1024B0004FF0040C05F104080C4A31030C4B0EE0FC
:1024C000584609E0C5F800C0C8F80060C2F800A08E
:1024D000596119612E60401C4845F3D9641C03986A
:1024E0008442EDD9BDE8FF8F100801400C0C01407B
:1024F000001001402DE9FF4F83462A20FFF7B4FF6B
:10250000354C4FF00408C4F8008004F10409082594
:10251000C9F80050DFF8C4A04FEA1B21CAF8001028
:102520002F4F2E037E613E612560C4F80080C9F8FC
:1025300000500BF0FF01CAF800107E613E6125607B
:10254000C4F80080C9F800500298010ACAF80010C7
:102550007E613E612560C4F80080C9F80050029891
:10256000C1B2CAF800107E613E6125602B20FFF7E2
:102570007BFFC4F80080C9F800500198010ACAF82E
:1025800000107E613E612560C4F80080C9F80050EB
:102590000198C1B2CAF800107E613E612560C4F89E
:1025A0000080C9F800500398010ACAF800107E6143
:1025B0003E612560C4F80080C9F800500398C1B29C
:1025C000CAF800107E613E61256004B02C20BDE891
:1025D000F04FFFF749BF0000100801400C0C01400C
:1025E000001001402DE9F04F3620FFF73DFF364C3B
:1025F0004FF00408C4F8008004F104090825C9F864
:102600000050DFF8C8A06821CAF80010304F2E0330
:102610007E613E6125602A20FFF726FFC4F8008016
:10262000C9F800504FF0000BCAF800B07E613E615F
:102630002560C4F80080C9F80050CAF800B07E6177
:102640003E612560C4F80080C9F800500121CAF835
:1026500000107E613E612560C4F80080C9F800501A
:102660003F21CAF800107E613E6125602B20FFF7F4
:10267000FBFEC4F80080C9F80050CAF800B07E61C3
:102680003E612560C4F80080C9F80050CAF800B067
:102690007E613E612560C4F80080C9F80050CAF828
:1026A00000B07E613E612560C4F80080C9F800502A
:1026B000EF21CAF800107E613E612560BDE8F04F51
:1026C0002C20FFF7D1BE0000100801400C0C014087
:1026D000001001400B464FF450724FF4105100F0BF
:1026E00061B970B50C460546FEF750FE00283BD197
:1026F00021462846FFF73EFD21462846FFF7E0FC2D
:1027000021462846FFF7E9FA21462846FFF71CFD37
:10271000B5F870002146C0F3013084F82400284643
:10272000FFF7E4FA21462846FFF7F6FA2146284645
:10273000FFF77CF821462846FFF73FFC2146284654
:10274000FFF740FB21462846FFF7D0FB21462846ED
:10275000FFF764F921462846FFF718F92146284675
:10276000BDE87040FFF71CBA70BD2DE9FC470D466F
:10277000814600244FF400466B460122314648460C
:1027800000F010F900282DD1BDF8000010F0080F5E
:10279000F2D04FF450774FF48068052C1ED23022CF
:1027A0003146484600F05AF9411C1BD02B463A46A8
:1027B0004146484600F0F6F8002813D16B46012246
:1027C0003146484600F0EEF800280BD1BDF8000075
:1027D00004F1010410F0080FE4B2DED1042C03D997
:1027E0006FF00700BDE8FC8701AB012248F20D0144
:1027F000484600F0D7F8BDF80410A5F88016BDF8DB
:102800000010002801F00101A5F88216EAD108465F
:10281000E8E700002DE9F0470C46054600F054F8C3
:102820008146B5F84006FDF718FF234F06464FF0E6
:102830008F48B84203DD4146FDF7FCFC0646B5F87B
:102840000006FDF70AFF0546B84203DD4146FDF7E5
:10285000F1FC054630462169FDF7F2FC2946FDF7FB
:1028600097FC01463046FDF71DFDFDF746FF0022AF
:10287000124BFDF708FEFDF753FF0546A089FDF753
:10288000ECFE06460E494846FDF7D4FC6168FDF7AC
:10289000D7FC4FF07E51FDF77BFC01462846FDF743
:1028A00001FD3146FDF7C6FCA168FDF7FBFCBDE864
:1028B000F0470449FDF76CBC00FEFF4600001041E4
:1028C000333353400000C8412DE9F04106460D4620
:1028D000B0F85406FDF7C1FE21490446884204DDE4
:1028E0004FF08F41FDF7A6FC0446B6F88006C0F312
:1028F0008120FDF7B7FE02460B464FF080480020CE
:10290000414601F021FF06460F4695F82400FDF7E9
:10291000BAFE02460B460020414601F015FF324642
:102920003B46FDF722FEFDF7FBFE0646B5F900002B
:10293000FDF78AFE0746B5F90200FDF785FE05465C
:1029400021463046FDF77CFC2946FDF773FC3946ED
:10295000FDF7A8FCBDE8F0410249FDF719BC0000F5
:1029600000FEFF463333534070B50D4E4FF40074F4
:10297000234603221021304600F0FCFFA5012B4620
:1029800003221021304600F0F5FF2146304600F0CA
:10299000EFFF29463046BDE8704000F0E9BF000077
:1029A000000801402DE9F043ADF2846D8946804670
:1029B00000241D46174626464FF4D0616846FDF7B1
:1029C000DCFB4FEA48604FEA10684FEA192060F3D9
:1029D000070669F30F26FFF725FD012000F01DFA19
:1029E000FFF7FAFC012000F018FA4FFA88F0FFF721
:1029F00099FC00B101204FF0FF39A0B970B2FFF788
:102A000091FC00B1012070B946F30720FFF78AFC62
:102A100000B1012038B9FFF735FC48F0010040B2A1
:102A2000FFF780FC20B148460DF2846DBDE8F083CD
:102A300078006946FFF7B0FBFFF7F4FC694608E051
:102A400060000A18085C5278641C02EB002025F82C
:102A5000020BBC42F4DB0020E6E700002DE9F8435E
:102A6000804600200090080A8DF800008DF80110C3
:102A7000100A8DF8020015460E464FEA48048DF8FC
:102A80000320FFF7CFFC012000F0C7F9FFF7A4FCFB
:102A900060B2FFF747FC10B10120BDE8F8830024C5
:102AA0006F463857FFF73EFC10B14FF0FF30F4E7A8
:102AB000641C042CF5DBFFF7B5FC074B0122314603
:102AC0004046FFF76FFF04480088A84202D06FF02D
:102AD0000100E2E70020E0E7D6000020F8B5064656
:102AE0004807840D48F20D056B4601222946304601
:102AF000FFF758FF002808D1BDF80000294620F450
:102B0000607222433046FFF7A9FFF8BDFEE7704729
:102B10007047000010B5074C1021204600F026FF3A
:102B2000062002F08BFC2046BDE81040102100F08A
:102B30001FBF00000008014070B50403FFF7EAFF63
:102B400000F09EF80D4D1021284600F00FFF2020C8
:102B500002F074FCC4F3074002F070FCC4F30720D9
:102B600002F06CFCE0B202F069FC1021284600F093
:102B7000FFFEBDE8704000F083B80000000801408F
:102B800010B588B040F2026002F0FCFB40F20C602D
:102B900002F0F8FB184CA02303221821204600F075
:102BA000E9FE402303220421204600F0E3FE102327
:102BB00003221946204600F0DDFE1021204600F0D9
:102BC000D7FE00204FF48271CDE900106115CDE9E8
:102BD00002011021CDE90501084C04906946204608
:102BE00002F050FC0721204602F01CFC204602F0B7
:102BF0001FFC08B010BD000000080140003001407B
:102C00002DE9F041124F0C46064615461021384674
:102C100000F0ACFE032002F011FCC4F3074002F008
:102C20000DFCC4F3072002F009FCE0B202F006FC40
:102C3000002405E0FF2002F001FC3055641CA4B222
:102C4000AC42F7D33846BDE8F041102100F090BE09
:102C50000008014070B5094C1021204600F086FEA6
:102C6000052002F0EBFBFF2002F0E8FB05461021F7
:102C7000204600F07DFE284670BD0000000801409F
:102C800010B5FFF7E7FFC007FBD110BD2DE9F05FDE
:102C9000C1F30B060F0BC6F58054894680461546D6
:102CA000A24200D81446DFF87CA039038B464FF4CB
:102CB00080521C48FFF7A4FF002006E032181AF8E3
:102CC0000210FF2903D1401C80B2A042F6D3A042DB
:102CD00021D23846FFF730FF0020524605E018F8B1
:102CE00000108319401CD15480B2A042F7D359463A
:102CF0004FF480520B4800F017F8A5420FD0281B64
:102D0000A044A144002685B24FF480547F1CA54204
:102D1000CBD82C46C9E7224649464046EBE7BDE8FA
:102D2000F09F0000C40100202DE9F0410746C8B221
:102D3000C0F580740E461546A24200D814464FF4E2
:102D4000807822463146384600F00EF8A54208D079
:102D5000281B2744264485B24446A542F1D82C4678
:102D6000EFE7BDE8F08100002DE9F04115460C4683
:102D70000646FFF7CFFE124F1021384600F0F6FD51
:102D8000022002F05BFBC4F3074002F057FBC4F3E0
:102D9000072002F053FBE0B202F050FB002404E0F5
:102DA000305D02F04BFB641CA4B2AC42F8D310219E
:102DB000384600F0DDFDBDE8F041FFF761BF0000DF
:102DC00000080140704700000E48016841F0010111
:102DD000016041680C4A1140416002680B490A4099
:102DE0000260026822F4802202604268084B1A40A6
:102DF000426002680A4002604FF41F01816002F0E5
:102E0000A7BB0000001002400C00FFE8FFFFF6FE29
:102E1000FFFF00F703F0B2B8FEE7002100E0491C15
:102E20008142FCDB7047490050EAC12018BF0420F2
:102E30004A0D18BF40F0010040F2FF72B2EB515F43
:102E400008BF40F00200012808BF052070472DE9A7
:102E5000F0414F1E00EBC7010446D1E900011546C1
:102E60001E4637F006020DD02A463346FDF70BFB0F
:102E70007F1E04EBC703D3E90023FDF75DFA37F0AB
:102E80000602F1D1022F25D0042F13D0062F18BF30
:102E9000BDE8F0812A463346FDF7F5FAD4E90A2366
:102EA000FDF74AFA2A463346FDF7EDFAD4E908233E
:102EB000FDF742FA2A463346FDF7E5FAD4E9062340
:102EC000FDF73AFA2A463346FDF7DDFAD4E9042342
:102ED000FDF732FA2A463346FDF7D5FAD4E9022344
:102EE000FDF72AFA2A463346FDF7CDFAD4E9002346
:102EF000BDE8F041FDF720BA002213461046014913
:102F0000FDF733BB0000F03FFDF716BA0022134671
:102F100010461146FDF729BB40F2013200204FF068
:102F2000E041FDF7D8BC0000024A00201107FDF780
:102F3000D2BC000001FDFFFF02E008C8121F08C15B
:102F4000002AFAD170477047002001E001C1121F2A
:102F5000002AFBD17047000001490860704700005B
:102F6000C0010020816841F0080181608168090783
:102F7000FCD4816841F00401816081684907FCD478
:102F800070471205A2F5801201290BD0022908D141
:102F9000816B21F44011816302F44011826B114373
:102FA00081637047C16A21F47001C16202F470014B
:102FB000C26A1143C16270470029816802D041F49E
:102FC000006101E021F40061816070470D4910B596
:102FD00040180FD0B0F5806F0FD0B0F5C05F0FD1A3
:102FE00040F20F34204602F0E9F92046BDE81040D7
:102FF00002F0D6B940F20934F4E740F20A34F1E7BE
:1030000010BD000000DCFEBF816841F4807181606A
:1030100070478168C90703D1816841F0010181606F
:103020007047002A4FEAC1720AD01AB1826842F48E
:103030008012826089070ED5816841F4004109E061
:103040001AB1826822F480128260890703D58168F0
:1030500021F4004181607047012909D0022906D17D
:10306000816821F4E041816081681143816070478B
:10307000816821F46021F6E704490A6822F470228D
:103080000A600A6802430A60704700000424014095
:1030900030B51F24062909D2456B01EB81018C4014
:1030A000A54302FA01F42C43446318E00C290AD228
:1030B000056B891F01EB81018C40A54302FA01F4E5
:1030C0002C4304630BE0102909D2C56A0C3901EBCB
:1030D00081018C40A54302FA01F42C43C462072508
:1030E0000A2A08D2046902EB42018D40AC438B40AE
:1030F0002343036130BD122AFCD2C4680A3A02EBB2
:1031000042018D40AC438B402343C36030BDCA07AE
:1031100003D0826842F480028260890703D5816807
:1031200041F4001181607047002A4FEAC15211D06A
:10313000002A03DA426842F4807242604A0503D5ED
:10314000426842F480624260890715D5816841F087
:10315000020110E0002A03DA426822F48072426021
:103160004A0503D5426822F480624260890703D58C
:10317000816821F0020181607047000070B5064649
:10318000184D19486C7883686CB1012C16D0032C4B
:1031900027D1002068703046BDE870401F23124AD6
:1031A000022102F053BC01206870C5E9011393426B
:1031B00000D9AA6028890A4683B20CE0A968406851
:1031C000591A002200F012F8074A0D23203203207A
:1031D000C5E9012368703046BDE87040812102F0E6
:1031E00081BC70BD2C0100207444002010B5044B3C
:1031F000024C1C60C3E901011A7310BD55534253C0
:103200009444002010B5044600202071401EE06266
:10321000204601F095F908B1032010BDB4F82E0244
:10322000A0F52A41553901D0022010BD94F866005E
:1032300094F8691094F8672040EA016194F86800F6
:10324000000440EA022001430A48B0EB012F0DD0F0
:1032500014F8821FE278637841EA0261A2781204CE
:1032600042EA03221143B0EB012F01D1002010BD2F
:10327000012010BD00464154002244F6382306E0E8
:103280000021491C89B29942FBD3521C92B282425E
:10329000F6D37047002800D0012070472DE9F04197
:1032A0001C0015460E4603D020B10120BDE8F08178
:1032B0000420FBE74FF4007769023A463046FFF7F7
:1032C0009FFC641E05F1010506F50076F4D100208F
:1032D000ECE7002070472DE9F0411C0015460E4632
:1032E00003D020B10120BDE8F0810420FBE74FF4BA
:1032F000007769023A463046FFF7C8FC641E05F1C4
:10330000010506F50076F4D10020ECE770B50C4617
:10331000054600F073F840B104EB840005EB800033
:10332000816841F00101816070BDFEE770B50C4617
:10333000054600F063F840B104EB840005EB800023
:10334000816841F02001816070BDFEE770B50D46D7
:10335000044600F053F898B105EB850004EB8002B9
:10336000906820F00100906000209060D0601061B3
:1033700050616068AA000F2191400843606070BDF1
:10338000FEE770B514460D46064600F037F850B318
:1033900005EB850006EB800021680161A1684161B1
:1033A000218A89B2C1608168E36821F47C52616836
:1033B00019436369134319438160217E01298168A0
:1033C00012D021F040018160617E012981680ED018
:1033D00021F080018160A17E002981680AD041F03E
:1033E0001001816070BDFEE741F04001EBE741F064
:1033F0008001EFE721F01001F3E700000246044BE3
:1034000001209A4202D1042900D90020704700000F
:10341000000402402DE9F74F029B8BB90B1A5B1C8D
:103420000A2B0DDD00204D49FD234FF4A0748B5471
:10343000521C401C80B292B2A042F8D3BDE8FE8F6D
:10344000002340084908019100EB001101EB4012F4
:103450007DE002F0FF094FEA122E414C313200208C
:10346000B4F806A0C9F5807792B20146060AC6EB09
:103470004E161F36DFF8EC80B6B2C5B238F816C06B
:1034800008EB4606C5F58074B6F840800CFB04FCDA
:1034900008FB04F836F8024CF68F6C436E430CFBC5
:1034A00007FC7C4308FB09CC06FB0944313064442B
:1034B000240C2B4D80B2544501D200240CE0AE8880
:1034C000B44201D9FD2407E02D89A4EB0A046C4322
:1034D000C82594FBF5F4A4B2204E491C89B2F454DB
:1034E0005B1C9BB2F4545B1C9BB2A029BED3029818
:1034F000D8B11D481D4F1E4B056800214FF40044F4
:103500004FF4A07C002016F8008035F81880C7F82A
:1035100000805C611C61401C80B26045F3D3491C93
:10352000C9B20229EED300230EE000204FF4A071AF
:10353000F418A4F58054401C94F8C04EF4545B1C5D
:1035400080B29BB28842F3D30BF1010080B20199A3
:10355000834688427FF67DAF70E70000C4010020FB
:10356000CC000020C4110020180000200C0C0140E9
:103570000010014070B523484FF4807404604FF48C
:10358000C06001F0FFFE40F2026001F0FBFE40F27D
:10359000036001F0F7FE40F2046001F0F3FE40F238
:1035A000056001F0EFFE40F2066001F0EBFE154D04
:1035B0000823143D03221021284600F0DBF90423E0
:1035C00003221021284600F0D5F90F4EE301032213
:1035D0001021304600F0CEF9A3010322102130461D
:1035E00000F0C8F9234603221021284600F0C2F952
:1035F000BDE8704003224FF6FF731021034800F02E
:10360000B9B900001408014000100140000C01404D
:1036100017B581B0144602980090684600F088F90A
:10362000002802DA0B2004B010BD0B4B002253F827
:10363000201001B10A700199002900D00A7043F8E6
:10364000201001D0012C01D00020ECE7002202A9BB
:1036500001A800F003F8E6E7BC0100202DE9FF47D0
:103660004FF000090746C0F800901646084600F0E3
:103670005FF9050003D50B2004B0BDE8F087A14831
:1036800050F825408CB13C60207820B16078FFF77D
:1036900020FEC1070BD084F80090E8B26070FFF7FD
:1036A000F9FDC10708D00320E6E70C20E4E70EB1DE
:1036B000400704D40020DFE71EB1400701D50A20EF
:1036C000DAE7002631462046FFF79CFD012825D188
:1036D00000216D4604EB011090F8F22100F5F7701F
:1036E0004AB1027AC37A42EA0362837A407A1B04BF
:1036F00043EA0020024345F82120491C0429E9D36C
:10370000002755F8276026B131462046FFF77AFD9D
:1037100000E0022040B17F1C042FF2D3032801D027
:10372000F0BB01E00120A7E7B4F83B00B0F5007F53
:103730006DD1B4F8460068B994F8540094F8571065
:1037400094F8552040EA016094F85610090441EAC3
:1037500002210843A06194F840C084F803C0BCF182
:10376000010F02D0BCF1020F51D194F83D500CFB77
:1037700000FCA570A5B1691E0D4248D1B4F84120E6
:103780002281110743D1B4F8431079B994F850104D
:1037900094F8533041EA036194F852301B0400E07E
:1037A00035E094F8517043EA07231943E38F73B36C
:1037B00003EB0C0707EB1217B94228D3C91BB1FB67
:1037C000F5F121B3012540F6F678414500D30225F5
:1037D0004FF6F678414500D30325891C3744A7628C
:1037E00033446161C4E90763032D12D07AB103EB5E
:1037F0000C026262022D1FD001F0010201EB4101B7
:1038000002EB510101F2FF11B0EB512F16D20D2046
:1038100032E7002AFBD194F85C2094F85F3094F8EA
:103820005D7042EA036294F85E301B0443EA0723AA
:103830001A4389006262E5E74900E3E74FF0FF3091
:103840002061E06080206071032D52D1B4F86000E7
:1038500001284ED12046711C00F072FEE8BB84F8AE
:103860000590B4F82E02A0F52A41553941D194F8BB
:10387000300094F8331094F8312040EA016094F855
:103880003210090441EA022108431F49884230D11D
:1038900094F8140294F8171294F8152240EA016083
:1038A00094F81612090441EA022108431749884294
:1038B0001FD194F8180294F81B1294F8192240EAC8
:1038C000016094F81A12090441EA022108432061B8
:1038D00094F81C0294F81F1200E00AE040EA01602C
:1038E00094F81E1294F81D22090441EA02210843AB
:1038F000E06004492570091F0888401C0880E080AA
:10390000D8E60000BC010020525261417272416150
:103910000020704710B55A4392B2FFF771F90020AA
:1039200010BD10B55A4392B2FFF7B0F9002010BD98
:1039300010B503464FF0FF301C68002C13D0214611
:1039400000E0491C0A78212A0ED33A2AF9D114F84A
:10395000012B303A0A2A06D28C4204D1002A02D125
:10396000491C1046196010BD002010BD4161704710
:10397000016170472DE9F04301F00F04CD0600D539
:10398000144300224FF00F094FF0010808FA02F526
:103990001D4013D00768960009FA06FC27EA0C07B9
:1039A00004FA06FC4CEA070C282902D0482902D068
:1039B00002E0456100E00561C0F800C0521C92B20F
:1039C000082AE3D3082208FA02F51D4014D04768FC
:1039D0009600203E09FA06FC27EA0C0704FA06FCCA
:1039E0004CEA070C282902D0482902D002E04561A0
:1039F00000E00561C0F804C0521C92B2102AE2D364
:103A0000BDE8F0838068084000D0012070470000C6
:103A1000F0B5144C002801DAE36900E06368450D55
:103A20002E0185B2C0F30157B540C0F30342032F06
:103A300005D0C6020AD503269640B34307E023F01B
:103A40007062636823F07063636002E0AB4343F02D
:103A5000706201B12A43002801DAE261F0BD6260C0
:103A6000F0BD0000000001402DE9F05F0520FFF7E8
:103A700003FCCF20FEF7F8FCFF4E4FF00408C6F819
:103A8000008006F104090827C9F80070DFF8ECA3EC
:103A90000021CAF80010FA4D3C036C612C613760BC
:103AA000C6F80080C9F800708121CAF800106C6166
:103AB0002C613760C6F80080C9F800703020CAF861
:103AC00000006C612C6137600520FFF7D5FBED200D
:103AD000FEF7CAFCC6F80080C9F800706421CAF875
:103AE00000106C612C613760C6F80080C9F8007066
:103AF0000320CAF800006C612C613760C6F80080B2
:103B0000C9F800701221CAF800106C612C6137608E
:103B1000C6F80080C9F800708121CAF800106C61F5
:103B20002C6137600520FFF7A7FBE820FEF79CFC1F
:103B3000C6F80080C9F800708521CAF800106C61D1
:103B40002C613760C6F80080C9F800701020CAF8F0
:103B500000006C612C613760C6F80080C9F8007005
:103B60007821CAF800106C612C6137600520FFF7DE
:103B700083FBCB20FEF778FCC6F80080C9F8007004
:103B80003921CAF800106C612C613760C6F80080DA
:103B9000C9F800702C21CAF800106C612C613760E4
:103BA000C6F80080C9F800700021CAF800106C61E6
:103BB0002C613760C6F80080C9F800703421CAF85B
:103BC00000106C612C613760C6F80080C9F8007085
:103BD0000221CAF800106C612C6137600520FFF7E4
:103BE0004BFBF720FEF740FCC6F80080C9F80070D8
:103BF0002021CAF800106C612C6137600520FFF7A6
:103C00003BFBEA20FEF730FCC6F80080C9F80070E4
:103C10000021CAF800106C612C613760C6F8008082
:103C2000C9F80070CAF800106C612C61376005207B
:103C3000FFF722FBB120FEF717FCC6F80080C9F899
:103C400000700021CAF800106C612C613760C6F862
:103C50000080C9F800701B20CAF800006C612C615C
:103C600037600520FFF708FBB620FEF7FDFBC6F81E
:103C70000080C9F800700A21CAF800106C612C613C
:103C80003760C6F80080C9F800704FF0A20BCAF880
:103C900000B06C612C6137600520FFF7EDFAC020A1
:103CA000FEF7E2FBC6F80080C9F800703521CAF8BB
:103CB00000106C612C6137600520FFF7DDFAC12030
:103CC000FEF7D2FBC6F80080C9F800701121CAF8CF
:103CD00000106C612C613760C520FEF7C5FBC6F88B
:103CE0000080C9F800704520CAF800006C612C61A2
:103CF0003760C6F80080C9F80070CAF800006C612F
:103D00002C613760C720FEF7AFFBC6F80080C9F80A
:103D10000070CAF800B06C612C613760F220FEF7C9
:103D2000A3FBC6F80080C9F800704FF0000BCAF87A
:103D300000B06C612C6137602620FEF795FBC6F859
:103D40000080C9F800700121CAF800106C612C6174
:103D500037600520FFF790FAE020FEF785FBC6F8F4
:103D60000080C9F800700F20CAF800006C612C6157
:103D70003760C6F80080C9F800702621CAF8001024
:103D80006C612C613760C6F80080C9F8007024218E
:103D9000CAF800106C612C613760C6F80080C9F861
:103DA00000700B21CAF800106C612C613760C6F8F6
:103DB0000080C9F800700E21CAF800106C612C61F7
:103DC0003760C6F80080C9F800700920CAF8000002
:103DD0006C612C613760C6F80080C9F8007054220D
:103DE000CAF800206C612C613760C6F80080C9F801
:103DF0000070A822CAF800206C612C613760C6F8F8
:103E00000080C9F800704622CAF800206C612C615D
:103E10003760C6F80080C9F800700C22CAF800208C
:103E20006C612C613760C6F80080C9F800701722F9
:103E3000CAF800206C612C613760C6F80080C9F8B0
:103E400000705146CAF800006C612C613760C6F8FA
:103E50000080C9F800700F20CAF800006C612C6166
:103E60003760C6F80080C9F800700720CAF8000063
:103E70006C612C61376005E0100801400C0C0140BA
:103E800000100140C6F80080C9F80070C1F800B009
:103E90006C612C613760E120FEF7E6FAC6F800801D
:103EA000C9F80070CAF800B06C612C613760C6F8C0
:103EB0000080C9F800701921CAF800106C612C61EB
:103EC0003760C6F80080C9F800701B20CAF80000EF
:103ED0006C612C613760C6F80080C9F80070CAF8C0
:103EE00000806C612C613760C6F80080C9F80070F2
:103EF0001021CAF800106C612C613760C6F8008090
:103F0000C9F800700720CAF800006C612C613760A6
:103F1000C6F80080C9F800702A21CAF800106C6148
:103F20002C613760C6F80080C9F800704721CAF8D4
:103F300000106C612C613760C6F80080C9F8007011
:103F40003920CAF800006C612C613760C6F8008027
:103F5000C9F800700320CAF800006C612C6137605A
:103F6000C6F80080C9F800700620CAF800006C612D
:103F70002C613760C6F80080C9F80070CAF80000EC
:103F80006C612C613760C6F80080C9F80070302081
:103F9000CAF800006C612C613760C6F80080C9F86F
:103FA00000703821CAF800106C612C613760C6F8C7
:103FB0000080C9F800700F20CAF800006C612C6105
:103FC00037600520FFF758F93A20FEF74DFAC6F89A
:103FD0000080C9F800705521CAF800106C612C618E
:103FE00037601120FEF740FA0520FFF745F905205C
:103FF000FFF742F9BDE8F05F2920FEF735BA00006F
:1040000010B54FF4C06001F0BDF940F2026001F05C
:10401000B9F940F2036001F0B5F940F2046001F033
:10402000B1F901210948FFF7F3FC4FF48063032243
:1040300010210748FFF79EFC0322BDE810404FF413
:10404000005348210348FFF795BC000000023000F0
:10405000000801400010014008B501260025032496
:10406000C820FFF709F9FFF7CBFFFCF767FFFEF762
:1040700087FD0122D3A1D448FFF7CAFAFFF77AFAE5
:10408000FFF7F2FCFEF7AEFAFEF76EFC03213320D9
:10409000FEF724FDCD493320FEF71CFBCC49CB486D
:1040A000FEF71FFB0027ADF8007001F0C3FABDF862
:1040B0000000401C80B2ADF800000428F5D3C549CB
:1040C0004FF480700860DFF81083DFF810B3DFF87A
:1040D00010934FF4967A01226B46D1033320FEF7FA
:1040E00061FCBDF80000000703D501F0A3FAFDF75D
:1040F000B9F955EA060018D09BF800105846052972
:1041000013D2DFE801F003394D608B00B5A10161E6
:1041100002210171082C7FD2DFE804F00420222460
:1041200026282A2CB1A1CBF81410D9F80400504548
:104130007AD26420FFF7A0F8D9F804005045CAD21B
:10414000002EC8D19BF800000126401CC0B28BF89D
:1041500000000528BFD38BF80070BCE7A5A1E2E7FB
:10416000A6A1E0E7A7A1DEE7A8A1DCE7A9A1DAE71D
:10417000AAA1D8E7ABA1D6E7ACA10161077141784C
:1041800061B1012904D0022906D0032944D101E0FC
:10419000A8A1C8E7A9A1C6E7AAA1C4E7ABA1C2E745
:1041A000ACA1016107718178062935D2DFE801F001
:1041B0000305072D0932A9A1B5E7AAA1B3E7ABA171
:1041C000B1E7ACA1AFE7ADA1016102210171C178F6
:1041D0000C2921D2DFE801F0191B1E06080A0C0E7B
:1041E00011131517A7A19EE7A8A19CE7A9A19AE71B
:1041F000AAA198E7ABA196E70EE0ACA193E7ADA129
:1042000091E7AEA18FE7AFA18DE7B0A18BE7B1A198
:1042100089E709E0B1A186E7B2A184E7B3A1016112
:1042200002210171B3A17EE740F25721A0F2D760CD
:10423000884274D26420FFF71FF8D9F8040040F6D2
:104240002E12904289D240F2D661884285D9002D43
:1042500083D19BF80010012558460529F2D2DFE8EA
:1042600001F0030D28538400641CE4B2032C00D930
:10427000012421463320FEF731FC2CE74178491C0C
:10428000C9B24170042900D34770417829B101298E
:1042900006D002290BD0032904D0CBF818801AE7E6
:1042A000964900E096490C31CBF8181013E7954970
:1042B000F9E78178491CC9B28170062900D387705B
:1042C000817806291CD2DFE801F01B030A0E1115C4
:1042D0006FF02701C1800A21ABF80810FBE60A2124
:1042E000C1802821F8E7C7806421F5E74621C18015
:1042F0006E21F1E76FF02701C180ABF808A0EAE674
:104300006FF06301C180E7E7C178491CC9B2C17091
:104310000C2900D3C770C1780C2924D200E04EE0EC
:10432000DFE801F01A1C1E06080C0E1012141618F5
:10433000754900E07549CBF80C10CCE67449FAE7F2
:104340007449F8E77449F6E77449F4E77449F2E709
:104350007449F0E77449EEE77449ECE77449EAE719
:104360004FF07E51E7E77349E5E71A494FF4807053
:10437000091D086000F0F0FF1848203001F0DAF95C
:1043800000F088F913484FF480611038FFF7F0FA15
:10439000124805212030417041780329FCD1D9F819
:1043A0000400C828FDD2BFF34F8F63490868634AF1
:1043B00000F4E06010430860BFF34F8FFEE7002574
:1043C0002E4688E6303A000034420020C401002026
:1043D000C417002010080140E06900080000002018
:1043E000C400002072617465000000002E35487A18
:1043F000000000003120487A000000003220487A96
:10440000000000003420487A000000003820487A7C
:10441000000000003136487A000000003332487A4C
:10442000000000003634487A00000000206D617002
:1044300000000000666972650000000072626F771C
:10444000000000007472697000000000676C6F77F4
:10445000000000007370616E000000006175746FF1
:1044600000000000636F6C6400000000726F6F6DED
:1044700000000000626F696C00000000656D6973E8
:10448000000000006D65746C00000000416C6F78E6
:1044900000000000656D343000000000656D3630AE
:1044A00000000000736E6F77000000005054464516
:1044B00000000000706E742E000000006C696D65D5
:1044C0000000000076656765000000002048324F5C
:1044D00000000000736B696E00000000206D6178C1
:1044E000000000006661696C0000000020757362C6
:1044F000000000002020202000000000A46300082D
:10450000C4670008B46500080AD7233DCDCC4C3EF3
:10451000CDCCCC3E9A99193FCDCC4C3F9A99593F7E
:104520006666663F1F856B3FD7A3703F8FC2753F9E
:1045300048E17A3F3333733F0CED00E00400FA05A5
:1045400070B50446C06A0D46A8420ED0204600F061
:10455000D6FF38B9607801232A4604F13001FEF70E
:104560009DFE08B1012070BDE562002070BD000015
:1045700010B504460C480129037801D039B108E090
:10458000012A06D153B1204600F0CAFD06E0022AF6
:1045900001D0022010BD1BB1022BF4D0002010BDB1
:1045A00000F032FFEFE700002D01002010B50446B7
:1045B000812101F065F90221204601F061F9054AE7
:1045C00000211F231170044A0221204601F03EFA07
:1045D000002010BD2D0100207444002010B50446B9
:1045E0000B4A002101F078F9094A0021D21D20462A
:1045F00001F072F9FFF78CF9064800211F230170C2
:10460000054A0221204601F021FA002010BD0000D9
:10461000A60100202D0100207444002070B50A7806
:10462000194D12F0600218D0202A2BD14A780023AD
:10463000164CFE2A05D0FF2A08D001F0BDF8022052
:1046400070BD2B70237001230F4A11E023701F23CC
:104650000F4A022101F0FAF914E04A78012A0ED03B
:104660000A2A02D00B2A0DD106E0074A0123521C68
:10467000802101F037FA05E08878687002E0812136
:1046800001F0FCF9002070BD920100202D010020F6
:104690007444002010B54FF4C06000F04BF80022C5
:1046A0000121BDE810401420AFF30080F0B50646AC
:1046B0001F4800240F460068234600F4E0654FF4CD
:1046C000A06085420FD006DCB5F5407F16D0B5F569
:1046D000806F06D10FE0B5F5C06F09D0B5F5E06F7A
:1046E00004D000F027F80224234608E0042306E063
:1046F0000124032303E00324012300E00424C4F184
:1047000004008740C3F104010F20C8401040384323
:1047100006F1E021000181F8000406F01F010120EC
:1047200088407109890001F1E021C1F80001F0BD64
:104730000CED00E0024908430249086070470000A0
:104740000000FA050CED00E02DE9F04D1D460C4689
:1047500098B0174621F0004123F00043002814BF11
:104760004FF0010C4FF0000C0CEB440CFE4A0CEB2C
:1047700002064FEA620C66452BD33E0018BF0126A5
:1047800006EB45061644F94A964222D3F84A53EA04
:10479000070C02D0944205D148B918B00020114648
:1047A000BDE8F08D002808BF4FF0000C01D04FF09D
:1047B000010C0CEB440212F5001F0AD8002F14BFA5
:1047C0004FF0010C4FF0000C0CEB450212F5001FEE
:1047D00007D918B03A462B462146BDE8F04DFEF702
:1047E00093BB0022DFF88CA3002CB8BF534526DA18
:1047F000DFF884C36345A8BF022220DADFF870C364
:104800009C451CDCDFF874C30CEB235CBCF1140F7B
:1048100008DDCCF1340627FA06FC0CFA06F6BE4297
:104820000DD108E05FB9CCF1140623FA06FC0CFAAE
:1048300006F69E4203D10CF00102C2F1020251EAD7
:10484000000C19D1002D17DA002C18BF022A01D054
:10485000012A07D00220FEF77FFB18B0BDE8F04D1B
:10486000FEF74ABB0220FEF777FBFEF745FB18B0C8
:1048700081F00041BDE8F08DB7F1000C6CD15345DB
:1048800025D104F1804212F5801201BF00280020DA
:10489000B74918B008BFBDE8F08DB548884207DCBD
:1048A000002DA1BF6046294618B0BDE8F08D07E095
:1048B000281E05DA80F0004118B06046BDE8F08D92
:1048C000AF497944D1E9000118B0BDE8F08DDFF8B7
:1048D000A0C2634525D1002D1FDA19B1514512D16F
:1048E000D8B909E0002840F0EC82A24A214618B06D
:1048F00062F31E01BDE8F08D0020214618B060F380
:104900001E01BDE8F08D08DA18B02346BDE8F04D71
:10491000024600206146FBF728BE18B02146BDE8DC
:10492000F08D514518DAB5F1804F0DD0A5F1005C3E
:10493000BCF1FF5C10D1B4F1000C0DDB18B0614686
:10494000BDE8F04D00F0B5BD234618B00246BDE805
:10495000F04D1946FBF797BD060024F0004C3BD103
:10496000D9B1514533D1002C06DD002DA1BF002067
:10497000514618B0BDE8F08D002C01DD002D1BDB89
:10498000002C13DA002D11DB012A4FF0000014BFB8
:1049900078497C4918B0BDE8F08D022A18BF002C78
:1049A0000AD0012A08D1002C06DA0AE0002CB8BF90
:1049B000002D11DA012A04D0002018B00146BDE80C
:1049C000F08D18B000204FF00041BDE8F08DA1F14E
:1049D0004050B0F17F601AD0012000EBE47050EA43
:1049E000020421D0624C521E4FF0000B104304BF52
:1049F0004FF0000B644C654883427CDD644A654897
:104A000093421FDD884217DB002D25DB37E0002CA9
:104A100000DA4AB1022A0CBF01204FF0FF3018B073
:104A2000BDE8F04DFBF71EBE0120FEF795FA18B069
:104A3000BDE8F04DFEF76ABA4D4A8A4202DC002D0D
:104A40000ADC1CE0814202DA002D18DA04E0484B4F
:104A5000994220DD002D12DD0220FEF77DFAFEF7DF
:104A60005BFA05460E460022534658462146FBF7A0
:104A70000AFD18B066F31E012846BDE8F08D02203D
:104A8000FEF76AFAFEF750FA0A46214618B062F3BA
:104A90001E01BDE8F08D002230466146FBF7EDFCBB
:104AA00080460E466FF00102FBF715FF4FF05532BE
:104AB000394BFBF7E5FC42463346FBF7E4FC0022AA
:104AC000364BFBF7DDFC82464246334604911046E6
:104AD0001946FBF7D8FC5246049BFBF7D4FC8A46E8
:104AE00000904FF0C0422E4B40463146FBF7CBFCC6
:104AF0002C4A2B4B00E027E0CDE9060151460098F7
:104B0000FBF7C1FC82460191274A284B40463146BB
:104B1000FBF7B9FC5246019BFBF7AFFC82460B4604
:104B200002460591DDE90601FBF706FCDDE90623F7
:104B3000002688463046FBF7A0FC5246059BFBF753
:104B40009FFC024600F07EB90020B1F5801F07DA15
:104B5000352230466146FBF7BEFE06466FF0340054
:104B600000EB215024E00000FFFF1F00FFFF0F00BB
:104B70000000F03F0000F07F0000404301FCFFFF19
:104B8000722A00000000F0FF0000F0BF0000E041CA
:104B90000000F043FFFFEF3F5555D53F0000E03FD9
:104BA0004715F73FFE822B6544DF5DF80BAE543EA0
:104BB000A0F2FF300190C1F3130040F07F6141F09B
:104BC00040510291FE498842D8BF002004DDFD49D2
:104BD0008142C8BF012001DD0D9008E000200D904A
:104BE0000198401C01900298A0F580100290029953
:104BF000F54878440B910D9900EBC100D0E90023F2
:104C00000F9330460A920B99FBF737FCCDE906016A
:104C1000DDE90A2130460F9BFBF78EFB02460B466F
:104C20000020EA49FBF7A1FC059102460B460090E3
:104C3000DDE90601FBF727FC1490E5488A464FF0B2
:104C4000000878440299006812904FF0005040EA42
:104C500061010D980F9B01EB804000F50021099147
:104C60000A9A1298FBF709FC32460B9BFBF708FCEB
:104C700042465346FBF707FC064602914046514622
:104C8000099B129AFBF7FFFBDDE90623FBF7F8FB14
:104C90003246029BFBF7F1FB059B009AFBF7F3FB07
:104CA0000091149A0490534610461946FBF7EBFB0B
:104CB00006460246C7480B46029106217844FEF795
:104CC000C6F8CDE90510029B324610461946FBF79F
:104CD000DAFBDDE90532FBF7D6FB059106465346C4
:104CE00040461946149AFBF727FB009B049AFBF7F2
:104CF000CAFB3246059BFBF71FFBCDE90510424678
:104D0000534610461946FBF7BEFB0022B24B0291F8
:104D10000A90FBF711FBDDE90532FBF70DFB0E46B0
:104D20004246AD4B4046FBF7A8FB029B0A9AFBF7B5
:104D3000A4FBDDE90532FBF7A3FB424602910A9092
:104D4000334610465146FBF79EFBCDE9060153461C
:104D5000149A02990A98FBF796FB8A46029033460A
:104D6000424600990498FBF78EFB5346029AFBF7E4
:104D7000E3FA82460B4602460591DDE90601FBF7A0
:104D8000DBFADDE90623002088460646FBF775FBC3
:104D90005246059BFBF774FB824609914FF0604237
:104DA0008E4B30464146FBF76EFB049006918C4AD1
:104DB0008A4B50460999FBF766FB82460291894A65
:104DC000894B30464146FBF75EFB5246029BFBF7A0
:104DD000B3FA864B7B440D9A03EBC203D3E900235D
:104DE000FBF7AAFA0E9007910198FBF73BFC05919F
:104DF000DDE9061382460E9A0498FBF79DFA7C4A79
:104E00007A440D9B02EBC303D3E900230093029283
:104E1000FBF792FA5246059BFBF78EFA002688466E
:104E200052463046059BFBF728FB009B029AFBF796
:104E300024FB069B049AFBF720FB079B0E9AFBF7CB
:104E40001FFB024600200B46029038462946FBF71E
:104E50001AFB824601912B4638461946029AFBF707
:104E60000CFB32464346FBF70EFB5246019BFBF719
:104E700063FA07468A463246434629460298FBF7BC
:104E800002FB05460E463A465346FBF755FA594A89
:104E90008846914221DBA8EB020353EA000210D1BD
:104EA0002A463346FBF7E9FACDE90401524A534B4F
:104EB00038465146FBF740FADDE90423FBF774FD61
:104EC00021D20220FEF748F8FEF726F80A462146CE
:104ED00018B062F31E01BDE8F08D494B28F0004286
:104EE0009A4210D3474A08EB020353EA00027FF4C8
:104EF000C6AD2A463346FBF7C0FA3A465346FBF79F
:104F000053FD7FF6BCAD0022019228F000403E49DF
:104F10003E4A01EB2051824223DA481C4FF48011B3
:104F200021FA00F040443A4AC0F30A517A44394B1E
:104F3000A1F2FF31CB4020EA0303C0F3130040F499
:104F40008010C1F11401C84012680190B8F1000F3F
:104F5000BCBF4042019028463146FBF78EFA054619
:104F60000E462A46334638465146FBF7E5F94FF0E0
:104F700000084246284B40460591FBF784FACDE9EC
:104F80000601264A264B40460599FBF77CFA00911C
:104F900002902A46334640460599FBF76EFA3A4698
:104FA0005346FBF76DFA1F4A1F4BFBF76CFA009B49
:104FB000029AFBF7C1F90746884602460B4635E0E0
:104FC0008E9803007AB60B00BA2600000000F03F6E
:104FD000F2260000202600000000084009C7EE3F2E
:104FE000FD033ADCF5015B14E02F3EBEF82400001F
:104FF000BC24000000009040FE822B654715973CC2
:1050000000CC904000346F3F01FCFFFF0000E03F08
:1050100008240000FFFF0F00432EE63F396CA80C68
:10502000615C20BEEF39FAFE422EE63FDDE9060163
:10503000FBF782F9DDE9062305460E46FBF71DFA6C
:105040003A464346FBF71CFA0F462A463346009081
:1050500010461946FBF717FA824602462E48884644
:105060000B4605217844FDF7F2FE52464346FBF716
:105070000AFA2A463346FBF703FA80468A463B463D
:1050800028463146009AFBF7FEF93B46009AFBF7AB
:1050900053F90691009000224FF08043404651465C
:1050A000FBF7EBF90F460C90424653462846314633
:1050B000FBF7E9F93B460C9AFBF757FA069B009A77
:1050C000FBF7DBF92A463346FBF7D7F90022134BEF
:1050D000FBF7D6F9054601980E4601EB005108157D
:1050E000002810DC28463146019AFBF7F4FBFDF757
:1050F0009AFE042808BFFDF717FF28463146019A9B
:10510000FBF7E9FB05460B4618B02A4658462146F0
:10511000BDE8F04DFBF7B7B9A82200000000F03F52
:105120002DE9F05F05467B487B4C002790F8008016
:1051300010300326816862784068B8F1230F33D0BD
:105140000CDCB8F1000F73D0B8F1030F71D0B8F1D7
:10515000120F25D0B8F11A0F18D1B5E0B8F1250F0C
:1051600026D0DFF8B0E16C4BB8F1280FBEF802A0F2
:10517000D3F80CB09EF804909EF805C0BEF8073036
:105180004FF4007E18D0B8F12A0F53D0614B103382
:105190001B7B1B0679D5002A78D0012A77D040E006
:1051A0005D492422243192E05B490C2248318EE093
:1051B0005949082214318AE012B1012A12D030E094
:1051C000012060709AFA9AF0010441EA092141EA4B
:1051D0000C0158BA49024002C4E903100123764683
:1051E000724605E02269B2B10123764672465946FD
:1051F0004A48FEF78FFB3346484A8121284600F093
:1052000071FCE06800F50070E0602069A0F50070B6
:105210002061BDE8F09F5ABA5242667001EB42210C
:1052200042E0032AF5D13B4A1F236770103216E093
:1052300045E040E0CAB1022AF3D101237746724625
:1052400059463648FEF76DFBE06800F50070E060F7
:105250002069B0F5007020611AD03B462F4A2846DD
:10526000BDE8F05F022100F0F1BB022060709AFA05
:105270009AF0010441EA092040EA0C0059BA4002C0
:10528000E060480273462061E8E734E024E02EE065
:10529000204966701031D1E901021039B1F80710C8
:1052A00049BA494202EB41210022FDF79FFF194A0A
:1052B0000D23303215E018491222543107E0002A3C
:1052C000B1D166701146F0E7134908221C31284617
:1052D000BDE8F05FFDF752BF012060700E4A034643
:1052E000A0602846BDE8F05F812100F0FBBB0122F1
:1052F0006670491ED9E7002A93D10122A760FDF705
:1053000075FF044A0D2330328121284600F0EAFB64
:1053100066707EE7644400202C010020C411002048
:105320000B4A51680B4B194008280ED2DFE800F0F9
:10533000040404040D070D0741EA803105E020F064
:10534000040041EA803040F0805151607047000015
:1053500000100240FF3FFFEF10B500F03DF940F2B2
:10536000026000F00FF840F21C7000F00BF84FF4F0
:10537000400000F031F8BDE8104040F2177000F036
:1053800001B80000054901EB90110A6800F01F0305
:105390000120984002430A6070470000001002405C
:1053A000054901EB90110A6800F01F0301209840A5
:1053B00082430A607047000000100240054901EB7B
:1053C00090110A6800F01F030120984002430A6010
:1053D0007047000000100240034A516821F4400168
:1053E0000143516070470000001002400548016809
:1053F0004FF6FB72114001600168121F11400160FD
:1054000070470000405C004005490020A1F11002F7
:105410000B18DB7B1354401CC0B21028F8D3704724
:1054200074440020026842F4005202600161704737
:10543000016841F0400101607047000070B50B4CFD
:1054400005460221204600F018F80028F9D0294628
:10545000204600F010F80121204600F00EF8002848
:10546000F9D0204600F004F8C0B270BD0030014011
:10547000C06880B27047C16070478068084000D043
:105480000120704702680B6802F4415213434A68D6
:105490001A438B681343CA681A430B6913434A695A
:1054A00089691A4311430160C16921F40061C16136
:1054B00070472DE9F04106460F46FBF723FA041E1C
:1054C0000D4618BF0120284320F00040C0F17F6046
:1054D00000F1E040C00F0ED0301C18BF012038434F
:1054E00020F00040C0F17F6000F1E040C00F04BF39
:1054F0000120FDF731FD20462946BDE8F0812DE968
:10550000F0410446007900B3E66A04F130016078A6
:10551000012332460F46FDF7DEFE10B10120BDE843
:10552000F08100202071206AA169301A88420CD2D3
:10553000E57808E0A06901230644607832463946E0
:10554000FDF7C9FE6D1E022DF4D20020E7E7000032
:105550001E480021026842F4803202604FF6FF7359
:105560000268491C12F4003F01D19942F8D1016848
:10557000890300D4FEE741684160416841604168A9
:1055800041F480614160416821F4403141604168EB
:1055900041F44031416041680D4A11404160416829
:1055A0000C4A11434160016841F08071016001685B
:1055B0008901FCD5416821F003014160416841F057
:1055C0000201416041680907FCD5704700100240A4
:1055D000FFFFC3F7000028081348416821F00301CA
:1055E0004160416841F001014160016821F0807132
:1055F000016041680D4A1140416041680C4A114305
:105600004160016841F08071016001688901FCD549
:10561000416821F003014160416841F002014160AD
:1056200041680907FCD5704700100240FFFFC3F72F
:1056300000001C0838B50B493320FDF796F80A49DD
:105640000848FDF7E7F8094C4FF08241E061FAF7AE
:10565000F1FD03460648009003490248E268FBF763
:1056600009FA38BDC4010020C41700200000002042
:10567000C41100202DE9F04704460878DFF8A08027
:10568000284E0D4610F01F004FF0000748F6BF7976
:1056900004D0012812D0022826D118E06078022810
:1056A00001D0032804D16888012803D002281BD028
:1056B000BDE8F087E770D4F89C2024E060780228E9
:1056C00012D00328F4D108790128F1D90CE0297906
:1056D0006078022804D00328EAD1688850B10FE02E
:1056E0000029E5D08029E3D02046BDE8F04700211D
:1056F00000F0C4B921B1802902D0204600F060F842
:10570000D4F89C20294620469047D8F8000087808E
:10571000306800EA090080F030003060C8E700001F
:10572000E0000020005C004050F88C1F8978118058
:10573000006870470021C1700748012202600160C3
:10574000021D1160044A10321160044A4FF41F41D7
:105750001160016070470000405C0040D8000020EC
:1057600010B50C464178032916D12179012913D8A7
:10577000D0F89C2021469047E18801430FD1094988
:105780000020096888800849086848F6BF72104000
:1057900080F03000086002E0002100F06FF9002086
:1057A00010BD0000E0000020005C004050F8881FA1
:1057B0000978118000687047002100F05FB900008F
:1057C00010B5CC0901F07F0101EB810200EB8202F0
:1057D0004FEA8100174948F68F730844D0F8001C3F
:1057E00011D01032490606D5D0F8001C194041F0FE
:1057F0004001C0F8001CD0F8001C48F6BF731940E7
:1058000081F0300110E04C32490406D5D0F8001C7C
:10581000194041F48041C0F8001CD0F8001C4BF640
:105820008F73194081F44051C0F8001C00201070A3
:1058300010BD000000500040074B10B503EB4101C4
:105840000023521C04E031F8044B20F8024B5B1C8F
:10585000B3EB520FF7D310BD00600040074B10B5FB
:1058600003EB41010023521C03E030F8024B5B1CA8
:1058700010C1B3EB520FF8D310BD00000060004020
:10588000CB094FEA4160134948F68F7201EBD050C3
:10589000D0F8001C0DD0490606D5D0F8001C1140E8
:1058A00041F04001C0F8001CD0F8001C48F6BF725F
:1058B0000CE0490406D5D0F8001C114041F48041A9
:1058C000C0F8001CD0F8001C4BF68F721140C0F8D5
:1058D000001C7047005000402DE9F04F93780025E0
:1058E00003F00F04D37813F0030306D0012B0AD082
:1058F000022B0AD0032B08D102E04FF4007504E01C
:105900004FF4C06501E04FF480654E4B254303EB37
:105910008403C3F8005C967895885FEAD6184A4EEF
:1059200048F68F7948F6BF774BF68F7C32D004EB80
:10593000840200EB82004561B268B08802EB041477
:105940006D1C2080726825F00100024472600129FC
:1059500017D1D3F8001C41F4807101EA0901C3F8A2
:10596000001C2281716808447060D3F8000C384034
:1059700080F03000C3F8000CD3F8000C00EA0C00F3
:1059800004E0D3F8000C384080F02000C3F8000C8D
:10599000BDE8F08F04EB840800EB88004FF0FF3A7D
:1059A0004FF6FF7B056501292AD1D3F8000C40F49E
:1059B000807808EA0908C3F8008CD3F8008C08EA5C
:1059C000090848F04000C3F8000CD6F80880B088F9
:1059D00008EB04183E2DA8F8000007D91F3525F064
:1059E0001F000AEB401545F4004504E06D1C25F04E
:1059F00001000BEA4025A8F804507568284470603F
:105A00009088B268B58802EB04123E28158107D948
:105A10001F3020F01F000AEB401040F4004004E06B
:105A2000401C20F001000BEA40209081D3F8000CCC
:105A3000012900EA0C0002D080F40050A6E7C3F868
:105A4000000C9EE700500040D800002010B501F087
:105A50007F0101EB810400EB8400C0E915230648B7
:105A600000EB8100D0F8001C4BF68F72114081F4DE
:105A70004051C0F8001C10BD0050004030B501F08E
:105A80007F03CC0901F07F0101EB810200EB820270
:105A90004FEA810012490844D0F8004C08D048F67B
:105AA000BF752C4084F01004C0F8004C103207E0A1
:105AB0004BF68F752C4084F48054C0F8004C4C3267
:105AC00001201070002B09D1D1F8000C4BF6BF72E9
:105AD000104041F210025040C1F8000C30BD0000EF
