:020000040800F2
:10000000B04C0020490100081B2700081D190008FA
:1000100019270008B10E0008892A00080000000016
:10002000000000000000000000000000352A000869
:10003000DF0E0008000000001D2700086101000815
:100040006301000863010008630100086301000800
:1000500063010008630100086301000863010008F0
:1000600063010008630100086301000863010008E0
:1000700063010008630100086301000863010008D0
:1000800063010008630100086301000863010008C0
:10009000852A000863010008630100086301000865
:1000A00063010008630100086301000863010008A0
:1000B0006301000863010008630100086301000890
:1000C0006301000863010008630100086301000880
:1000D0006301000863010008630100086301000870
:1000E0006301000863010008630100086301000860
:1000F0006301000863010008630100086301000850
:10010000630100086301000863010008630100083F
:10011000630100086301000863010008630100082F
:10012000630100086301000863010008630100081F
:10013000DFF810D000F050FC0048004735410008BF
:10014000AFF30080B04C00200648804706480047C7
:10015000FEE7FEE7FEE7FEE7FEE7FEE7FEE7FEE777
:10016000FEE7FEE7392A000831010008D2B201E0BB
:1001700000F8012B491EFBD270470022F6E710B5AC
:1001800013460A4604461946FFF7F0FF204610BD05
:10019000F0B480EA0102D40F4200B2EB410F02D268
:1001A0000246084611464A0042D0C30DDDB2C1F3F3
:1001B000C752AD1A202D35DAC1F3160141F4000201
:1001C00004B15242C5F1200602FA06F12A41104458
:1001D000B3EBD05F23D0C4B1012DA0EBC35009DC39
:1001E000F0BC4FF0004202EAC352DBB200F500005F
:1001F00000F0E6BA400000F1807000EBC350A0F1BF
:10020000807040EAD170490009E0490841EAC071B4
:10021000A0EBC35000F50000400800EBC350F0BC59
:1002200000F0C5BA6142012202EB4101001BF6E772
:10023000F0BC704781F00041AAE780F00040A7E7DA
:1002400080EA010210B502F00043400022D04A00CB
:100250001FD0010E01EB1261C0F35600C2F356022B
:1002600040F4000042F40002A0FB022000047F39A9
:10027000140400D0401C50EA124001D44000491E32
:10028000C2B20C0604EBD010401C4008802A02D0F9
:1002900003E0002010BD20F00100002900DA00205A
:1002A000184310BD30B480EA010202F0004530F07E
:1002B000004221F0004013D090B1C30DD40DC2F321
:1002C0001601C0F31600E41A41F4000140F40002E4
:1002D0007D34914201D3641C00E04900002C02DA15
:1002E00030BC002070474FF400000023914201D33E
:1002F000891A034340084FEA4101F7D151B19142B5
:1003000002D14FF0004105E002D24FF0010101E0BF
:100310006FF0010103EBC450284430BC00F047BA31
:10032000420005D0C0F3C7525242914201DC002086
:10033000704700EBC15070472DE9FE4F804681EABF
:100340000300C00F0C46009021F0004123F000454F
:10035000B8EB0200A94105D24046214690461C4612
:100360000B46024623F00040104347D0270DC7F349
:100370000A00C3F30A510290401A019040286BDA38
:10038000C3F3130040F4801B0098924620B1002371
:10039000D2EB030A63EB0B0B01985946C0F1400204
:1003A000504600F0E3F906460D4650465946019A7C
:1003B00000F0EBF910EB08006141002487EA1152CC
:1003C00084EAE7731A4340D0009A62B3019A012A83
:1003D0004FEA075215DC001B61EB02014FF00042AF
:1003E00002EA0752CDE90042001C41F58011324675
:1003F0002B4600F022FA03B0BDE8F08F40462146BC
:10040000F9E7001B61EB0201001C41F580130018A5
:100410005B412018A2F5001747EB030140EAD570B5
:10042000B6196D4111E06D084FEA360645EAC07510
:100430004FEA0752001B61EB0201001C41F58011DD
:1004400049084FEA30000019514132462B4603B0AB
:10045000BDE8F04F00F0E2B900980122400000230F
:10046000D0EB020263EBE073009821464FEAE074A0
:10047000B8EB000061EB0401E9E783F000435BE7C0
:1004800081F0004158E72DE9FE4F81EA030404F0B2
:10049000004421F0004100944FF0000B23F0004392
:1004A00050EA01045ED052EA03045BD0C3F30A545D
:1004B000C1F30A552C44A4F2F3340194A0FB025476
:1004C000C1F3130141F48011C3F3130343F4801308
:1004D00001FB024400FB034E840A970A44EA81545C
:1004E00047EA8357A4FB076802958D0A05FB078539
:1004F0004FEA932C04FB0C542705029D4FEA065843
:1005000047EA1637B5EB08056EEB070C870E920E1F
:1005100047EA811742EA8312A7FB0201B6EB0B01FF
:1005200064EB00042B0D43EA0C335E1844EB1C50C3
:10053000DA465146E7FB0201C5F313044FEA0B33D9
:1005400043EA14534FEA0432019C43EA0603A4F140
:100550000C040294009CCDE900B400F06EF903B0E5
:10056000BDE8F08F00200146F9E72DE9F04D81EA62
:10057000030404F0004B21F0004514464FF0000A3C
:1005800023F0004150EA050220D054EA01021DD0B8
:10059000C5F30A570246C5F31303C1F31300C1F3B1
:1005A0000A5640F4801543F48013A7EB0608101B8D
:1005B000D64608F2FD3873EB050002D308F10108B6
:1005C00001E092185B41B8F1000F03DA0020014608
:1005D000BDE8F08D00204FF48011064684460EE001
:1005E000171B73EB050705D3121B63EB05030643CB
:1005F0004CEA010C49084FEA300092185B4150EA7E
:100600000107EDD152EA030012D082EA040083EA26
:100610000501084305D0101BAB4106D2012200237F
:1006200006E000224FF0004302E06FF00102531099
:100630001AEB06004CEB085110EB0A0041EB0B01E2
:10064000BDE8F04D00F0EAB8C10F80EAE070084460
:10065000CA079623002100F0B3B896230022114662
:1006600000F0AEB80EB5C10F80EAE0700844CA07CA
:10067000002140F233438DE80E000A460B4600F09D
:10068000DCF803B000BD0EB540F233410291002109
:10069000CDE900110A460B4600F0CFF803B000BDCB
:1006A00000F0004220F00040C10DC0F3160040F4FD
:1006B00000007F2901DA00207047962903DCC1F190
:1006C0009601C84001E096398840002AF4D04042A3
:1006D000704720F00040C10DC0F3160040F4000048
:1006E0007F2901DA00207047962903DCC1F19601C9
:1006F000C840704796398840704700F0004230F09B
:1007000000400AD0C10D01F56071C0F3160042EA45
:100710000151C2084007114370470020014670474D
:1007200001F0004330B421F0004150EA010206D04C
:100730000A0DA2F56072C1F31301002A02DC30BC7D
:1007400000207047440F44EAC104C100E01830BCE7
:1007500000EBC25000F02BB8002801DBC0F10040D4
:10076000002901DBC1F1004188427047202A04DBE7
:10077000203A00FA02F1002070479140C2F12003B4
:1007800020FA03F3194390407047202A06DBCB1769
:10079000203A41FA02F043EAE07306E041FA02F33C
:1007A000D040C2F120029140084319467047002909
:1007B000A8BF7047401C490008BF20F001007047E7
:1007C00010B4B0FA80FC00FA0CF050EA010404BF47
:1007D00010BC704749B1CCF1200421FA04F411FA9D
:1007E0000CF118BF012121430843A3EB0C01CB1DE1
:1007F0004FEA00614FEA102042BF002010BC704752
:1008000000EBC35010440029A4BF10BC7047401C2B
:10081000490008BF20F0010010BC704710B5141E3D
:1008200073F1000408DA401C41F1000192185B41A9
:100830001A4301D120F0010010BD2DE9F04D924680
:100840009B4611B1B1FA81F202E0B0FA80F2203297
:100850009046FFF78BFF04460F4640EA0A0041EA44
:100860000B0153465A46084313D0114653EA010080
:1008700019D0C8F14002504600F0C0F805460E46B7
:10088000504659464246FFF771FF084305D0012004
:1008900004E020463946BDE8F08D0020054346EAD5
:1008A000E0762C4337430A986305E40AA0EB08007E
:1008B0000022FD0A44EA47540A3002D500200146CE
:1008C000E9E7010510196941DDE9084500196941A9
:1008D000BDE8F04DA2E770B521F0004303430CD012
:1008E000C1F30A550024D5EB040564EB0403D617C5
:1008F000AD1AB34102DB0020014670BD201841EB68
:10090000025170BD2DE9F04D00231A461B1A8A4191
:1009100003DB00200146BDE8F08DC1F30A52C1F3AC
:10092000130141F480154FF0000BD10702D10018DC
:100930006D41521E0027044640F2FF11384601EB7C
:10094000620A3E468046024600204FF4801100F0C5
:1009500055F8C2197141BB1846EB0100B4EB030C0A
:1009600075EB000C04D3E41A65EB000517460E4640
:10097000241908F101006D4180463428E3DDF9199E
:1009800046EB0600091BA84103D24FF0FF32134685
:1009900001E0002213461BEB070046EB0A51BDE8BD
:1009A000F04DFFF73BBF000030B5041E71F10004AD
:1009B00004DB4FF00044404264EB0101141E73F16C
:1009C000000405DB1C464FF00043524263EB040376
:1009D000994208BF904230BD064C074D06E0E068E2
:1009E00040F0010394E8070098471034AC42F6D376
:1009F000FFF7A2FB5074000870740008202A04DB83
:100A0000203A21FA02F00021704721FA02F3D04087
:100A1000C2F12002914008431946704770B58C1806
:100A200010F8015B15F0070301D110F8013B2A1102
:100A300006D110F8012B03E010F8016B01F8016BEF
:100A40005B1EF9D12B0705D40023521E0DD401F8EB
:100A5000013BFAE710F8013BCB1A921C03E013F8B4
:100A6000015B01F8015B521EF9D5A142D8D30020E9
:100A700070BD000010B588B040F2026004F0EAFCDE
:100A800040F2096004F0E6FC4FF4A06004F0E2FCE0
:100A9000032004F0ADFC03231A460021354802F080
:100AA000D5FF354C0021204602F09AFC33480090D7
:100AB0003348002102908DF8181001208DF819009C
:100AC00040020190800003900220049000030590F2
:100AD0008DF81A106A46204602F09DFC002120463F
:100AE00002F06EFC0021204602F05AFC234C4C3CE4
:100AF000204602F09DF8002002F0F0F801220221C9
:100B0000204602F043F901221102204602F03EF98C
:100B10000021204602F082F802220121204602F044
:100B200062F8002205231146204602F0E3F8012274
:100B300005231146204602F0DDF84FF46022012122
:100B4000204602F0BBF801221146204602F09BF835
:100B5000204602F090F8012002F0DEF9204602F073
:100B600033F8204602F082F80121204602F001F914
:100B700008B010BD00080140000002404C240140B4
:100B8000C4000020F0B5094E059F0BE0044601EBC0
:100B9000810504E004EB851C641C06F80C7094428B
:100BA000F8D9491C9942F1D9F0BD0000CC010020D0
:100BB0002DE9F8439846089D14008946074605D557
:100BC00054422D22009500F061F808370A26642C63
:100BD00025DB642094FBF0F03030C2B24346494636
:100BE0003846009500F052F894FBF6F090FBF6F1D1
:100BF00006FB11003030C2B24346494607F10800F7
:100C0000009500F043F894FBF6F006FB10403030FE
:100C1000C2B24346494607F1100000951DE00A2C78
:100C200015DB94FBF6F03030C2B2434649463846F5
:100C3000009500F02BF894FBF6F006FB10403030E6
:100C4000C2B24346494607F10800009505E030343A
:100C5000E2B2434649463846009500F017F8BDE831
:100C6000F8832DE9F8411F46144688460546079E3D
:100C700007E03B4641462846009600F007F8641C12
:100C800008352278002AF4D1BDE8F8812DE9F04F2B
:100C9000203A374F374C099DD2B24FF0800CDEB26C
:100CA0004DB1012D27D0E246C1F10603BE46A34651
:100CB000C1F1100C58E00025BA46E14605EB0213DD
:100CC00005EB010C1AF803700CEB8C0C002300EB05
:100CD0008C1C00BF29FA03F838EA070803D10CEB93
:100CE000030804F808605B1C082BF3D36D1C082D67
:100CF000E4D3BDE8F08F0825BA46E14605EB0213C0
:100D000005EB010CACF1080C1AF803700CEB8C0C21
:100D1000002300EB8C1C00BF29FA03F838EA07080F
:100D200003D10CEB030804F808605B1C082BF3D319
:100D30006D1C102DE2D3DCE703EB02145D181EF8E6
:100D400004700024AD1F05EB850500EB851900BF7D
:100D50002AFA04F5BD4303D109EB04080BF8086037
:100D6000641C082CF4D35B1C9C45E5D8C1E700004B
:100D7000E86C0008CC0100202DE9F84F9A46DDE927
:100D80000A6715008B46044607D5504205B22D224E
:100D900020460096FFF77AFF08344FF47A704FF040
:100DA00064094FF00A08854220DB95FBF0F03030F3
:100DB000C2B25346594620460096FFF767FF95FB9F
:100DC000F9F0474690FBF7F108FB11003030C2B252
:100DD00008345346594620460096FFF757FF95FBC7
:100DE000F9F109FB115090FBF7F014E0642D2BDBB7
:100DF00007B1083495FBF9F03030C2B2534659467A
:100E000020460096FFF742FF474695FBF7F090FB20
:100E1000F7F108FB11003030C2B25346594608348E
:100E200000962046FFF732FF083453462E225946DB
:100E300020460096FFF72AFF95FBF7F007FB1050BE
:100E40003030C2B2009620E00A2D0ADB07B1103420
:100E5000474695FBF7F03030C2B2534659460096EC
:100E6000DFE707B118345346302259462046009632
:100E7000FFF70CFF083453462E22594620460096B1
:100E8000FFF704FF3035EAB200960834534659465E
:100E90002046FFF7FBFE04F10800534603A2594623
:100EA0000096FFF7DEFEBDE8F88F00002743000044
:100EB000FEE7411A01F121026FF00500032A06D373
:100EC0004A1C032A03D31F39032900D3002070478B
:100ED000007D10F0400001D06FF0060070477047B1
:100EE000F8B5FE2406220923012110460094FFF7DD
:100EF00049FE18220923012110460094FFF742FE03
:100F000001231822194606200094FFF73BFE09230F
:100F10001822194606200094FFF734FE0421062308
:100F2000052208460094FFF72DFE40F6255640F6B0
:100F300012654FF400511A4802F0D3FD58B3194816
:100F4000008880B2B04201D2304602E0A84200D907
:100F50002846A0F6255000EB0010ED2190FBF1F0A3
:100F600005042D0C09D0FF200090C5F1180080B2B7
:100F7000082317220221FFF705FEC5F11100000426
:100F8000000C07D0801D82B20823009402210720A4
:100F9000FFF7F8FDF8BD9020082317220090F5E731
:100FA00000100140C40000202DE9F34F0746B0F8BF
:100FB0004000BDB0C0F303113B911E2101EB10387E
:100FC00000F00F03C0F3032BB7F842A0002120A8C4
:100FD00007EB41048A00B4F84440491C04F00F05B3
:100FE00040F8225000EB8202C4F303155560C4F3AD
:100FF0000325240BC2E902540629E9DB5FF0000156
:1010000050F82120072A02DD103A40F82120491C1F
:101010001829F5DB00216A4607EB41048D00B4F87E
:101020005040491C04F00F0642F8256002EB85058C
:10103000C4F303166E60C4F30326240BC5E90264EF
:101040000829E9DB5FF0000152F82140072C02DD9E
:10105000103C42F82140491C2029F5DB01200026E4
:101060009840FFF7F1FA3A904046FFF70CFBCDE9C4
:101070003801002404EB461507EB4500B0F880006A
:10108000C0F30510FFF7E9FA3E9901EB85051E490B
:101090006864884204DD4FF08541FFF7CBF868644F
:1010A0003A98696CFFF7CCF8804620A850F82610D3
:1010B0005DF8240001FA0BF101EB0A023B9988402C
:1010C0001044FFF7C1FA4146FFF762F86864DDE9B2
:1010D00038210B4600204FF0804103F09BFB8046F7
:1010E0008946686CFFF709FB42464B46FFF73DFA1D
:1010F000FFF716FB641C6864202CBBDB761C182EE3
:10110000B7DB3FB0BDE8F08F0000F8412DE9F047B4
:101110000C46818A8022B0F86A5002EA111181F0EF
:10112000800605F03F00FFF798FA1A49884203DD70
:101130004FF08541FFF77EF86FF00301FFF7F0F8FD
:101140008046C5F38410FFF788FA134F4FF0844AA6
:10115000B84202DD5146FFF76DF84FF0FF31FFF75F
:10116000DFF88146E80AFFF778FAB84202DD514617
:10117000FFF760F86FF00201FFF7D2F884F82560FE
:1011800004F50054C4F8549AC4F8508AC4F8580AB4
:10119000BDE8F0870000F841000070412DE9F05FE4
:1011A00005460E46B0F840001B2101EB1038B5F89B
:1011B0007410C1F3090060F30F04B0F5007F03DB86
:1011C000A0F5806060F30F04880A60F31F441F28B5
:1011D00002DD403860F31F4404EB244060F31F44F9
:1011E000B5F87200C0F30900FFF737FA484907461F
:1011F000884204DD4FF08941FFF71CF8074640465E
:10120000FFF741FA02460B4600204FF0804103F001
:1012100001FB804689463846FFF76FFA42464B4647
:10122000FFF7A3F9FFF77CFA8046B5F87200800A51
:10123000FFF713FA3749884203DD4FF08541FEF787
:10124000F9FF6FF00601FFF76BF84FF07E51FEF7E4
:101250009FFF4146FEF7F4FF834695F87600FFF7BF
:10126000FCF92D490746884204DD4FF08741FEF71F
:10127000E1FF074695F87000C0F303100830FFF750
:1012800002FA02460B4600204FF0804103F0C2FAFA
:1012900081468A463846FFF730FA4A465346FFF7FA
:1012A00064F9FFF73DFA3062B5F87600000AFFF7FF
:1012B000D4F919490746884204DD4FF08741FEF70B
:1012C000B9FF0746B5F87000C0F30320FFF7DBF95C
:1012D00002460B4600204FF0804103F09BFA054682
:1012E00089463846FFF709FA4B462A46FFF73DF98B
:1012F000FFF716FAF06106F500562014C6F848BA52
:10130000C6F8448AA6F84C4AA6F84E0ABDE8F09FF3
:101310000080FF430000F8410000FE422DE9F0414B
:101320000E46002107460C460D4608464FF6FF7351
:1013300006EB410202F50052491CA2F85C3A89B260
:10134000A2F8663A0529F3D300214FF4407300BF99
:1013500007EB4102B2F88020BAB1D20707D006EB02
:10136000450202F500526D1CA2F8661AADB2491C86
:1013700089B2994203D2052C01D2052DE8D3042C61
:101380000CD96FF00200BDE8F08106EB440202F5D3
:101390000052641CA2F85C1AA4B2E8E7042D02D93A
:1013A0006FF00300EFE76119042902D96FF0040020
:1013B000E9E7002317E006EB43015F1C01F5005845
:1013C0000DE000BF06EB470000F50050B0F85C1AD6
:1013D000B8F85C0AFFF76DFD0028D4D17F1CA74246
:1013E000F0DB5B1C9BB2A342E5D3002317E006EBC6
:1013F00043015F1C01F500580DE000BF06EB4700FC
:1014000000F50050B0F8661AB8F8660AFFF751FD0B
:101410000028B8D17F1CAF42F0DB5B1C9BB2AB4213
:10142000E5D3002317E006EB4301002701F5005840
:101430000DE000BF06EB470000F50050B0F8661A5B
:10144000B8F85C0AFFF735FD00289CD17F1CAF423D
:10145000F0DB5B1C9BB2A342E5D394E7B0F96000DC
:10146000B0F5004F00DB00B28882704710B5B0F8CD
:1014700078000C46000AFFF7F0F80649884203DDC1
:101480004FF08741FEF7D6FE6FF00C01FEF748FFE4
:10149000A06210BD0000FE422DE9F04705460C4653
:1014A00035F87E0F0126C0F3013000EB80004100CB
:1014B0006FF02700A0870020E08715F80409C0F32B
:1014C000031024F8400FAA884843C2F3032224F8EB
:1014D000140902FB0100E082287900F00F010831B5
:1014E0008E402878FFF7B9F820602888000AFFF7B7
:1014F000B4F86060A878FFF7B0F8A0606888000AC8
:10150000FFF7ABF8E06000250D4F4FF087493046FC
:101510002C3CFFF799F8804604EB8506F06AB84248
:1015200003DD4946FEF786FEF0624146F06AFEF7AB
:10153000B9FE6D1CF062042DEEDBBDE8F087000003
:101540000000FE422DE9F34FB0F86C10074641F35E
:10155000072085B07F2800DD40B28DF8080048B232
:101560007F2800DD40B28DF80A00B7F86E1041F315
:1015700007207F2800DD40B28DF8090048B27F289F
:1015800000DD40B28DF80B0097F870000026C0F324
:10159000031400F00F0101208840DFF8D0A00DF106
:1015A000080B0834FFF750F803902046FFF76BF85C
:1015B000CDE900015FF0000505EB4614E01704EBF0
:1015C000D06104EB906080114911404201EB400072
:1015D00004EBD47121F00101611A01EB400000F02D
:1015E000FF0907EB440090F88000C0F34200FFF7CA
:1015F00034F80699504501EB840404F58054C4F88E
:10160000440205DD4FF08241FEF714FEC4F84402A7
:10161000D4F84412039804F51174FEF711FE8046C5
:101620001BF90900FFF710F84146FEF7B1FD2060F5
:10163000DDE900210B4600204FF0804103F0EAF87D
:10164000804689462068FFF758F842464B46FEF729
:101650008CFFFFF765F86D1C2060202DACDB761C3D
:10166000182EA7DB07B0BDE8F08F00000000404057
:101670002DE9FE4FB0F868208A46110B072900DDDE
:1016800010398DF80810C2F30321072900DD103945
:101690008DF80A10C2F30311072900DD10398DF807
:1016A000091002F00F01072900DD10398DF80B1029
:1016B000B0F870000026C0F303200DF10809FEF712
:1016C000E2FF4FF0804BCDE90001002505EB461409
:1016D000E01704EBD06104EB9060801149114042A7
:1016E00001EB400004EBD47121F00101611A01EB20
:1016F0004000C0B219F90000FEF7A6FF0AEB84040F
:10170000A4F5DE7404F500542060DDE900210B46E9
:101710000020594603F07EF8074688462068FEF709
:10172000ECFF3A464346FEF720FFFEF7F9FF6D1C3B
:101730002060202DCADB761C182EC6DBBDE8FE8F8C
:101740002DE9F04F8B46018CB0F92240B8B001F082
:101750000F09C1F3031CC1F3032AB4F5004F00DBEA
:1017600024B2002120AA00EB41038D009B8C491C70
:1017700003F00F0642F8256002EB8505C3F303165C
:101780006E60C3F303261B0BC5E902630629EADB7F
:101790005FF0000152F82130072B02DD103B42F8C8
:1017A0002130491C1829F5DB0023694600EB43056D
:1017B0009E002D8E5B1C05F00F0741F8267001EB93
:1017C0008606C5F303177760C5F303272D0BC6E91B
:1017D0000275082BEADB002351F82350072D02DDA8
:1017E000103D41F823505B1C202BF5DB002396466F
:1017F00000225EF8235005FA0AF500BF02EB4316FB
:1018000000EB46070BEB4606B7F88070BF0AA6F858
:10181000447C1F2F02DD403FA6F8447C31F8228033
:10182000BFB207FA09F708FA0CF8A844274447445E
:10183000521CA6F8447C202AE0DB5B1C182BD7DB6B
:1018400038B0BDE8F08F00002DE9F041B0F86460D9
:1018500005460C46B00AFEF700FF1949884203DD31
:101860004FF08541FEF7E6FC6FF00B01FEF758FDE7
:101870008046C6F30900FEF7F0FE1249884203DDF8
:101880004FF08941FEF7D6FC6FF00201FEF748FDEC
:101890000746288CB5F8626000F47040FEF7F3FE4E
:1018A0000022094BFEF761FE0022084BFEF744FDC3
:1018B000FEF736FFC4E90187A6812061BDE8F0810B
:1018C0000000F8410080FF430000D04000002040AD
:1018D00010B50C4690F87800FEF7BFFE0649884226
:1018E00003DD4FF08741FEF7A5FC6FF00401FEF722
:1018F00017FDA06110BD00000000FE42B0F8662098
:10190000100A7F2801DDA0F580704001D2B24FF4AB
:10191000404303EB421208804A807047FEE7000014
:101920002DE9F05F8B46804600254FF4004A184FA2
:101930004FF4007928E05146384602F085F800243B
:1019400026460820401EFDD14946384602F07CF864
:101950006006040E5146384602F0C3F808B1641C14
:10196000E4B24946384602F06DF8761C082EE8DBF2
:10197000A8F10100854202D100F0BEF801E000F0BC
:1019800061F80BF805406D1C4545D4DBBDE8F09FC0
:10199000000801402DE9F041144C4FF40046314657
:1019A000204602F051F80521491EFDD14FF4007781
:1019B0003946204602F048F80420401EFDD1314649
:1019C000204602F08EF870B101250420401EFDD1A2
:1019D0003946204602F036F83146204602F032F809
:1019E0002846BDE8F0810025EFE70000000801402F
:1019F00070B5134D4FF400742146284602F022F8CA
:101A00000522521EFDD14FF400463146284602F011
:101A10001BF80422521EFDD12146284602F014F87C
:101A20000421491EFDD13146284602F00BF804215D
:101A3000491EFDD121462846BDE8704002F002B89B
:101A40000008014070B5114C4FF40045294620466E
:101A500001F0F8FF0522521EFDD14FF40076314609
:101A6000204601F0F1FF0420401EFDD10422521E49
:101A7000FDD13146204601F0E5FF0421491EFDD18C
:101A800029462046BDE8704001F0DEBF0008014055
:101A90002DE9F041174F002504464FF400487E150C
:101AA0000420401EFDD120064146384602D501F0F3
:101AB000CBFF01E001F0C6FF0420401EFDD13146FE
:101AC000384601F0C1FF0420401EFDD10420401E15
:101AD000FDD13146384601F0B5FF60006D1C44B2BF
:101AE000082DDDDB0420401EFDD1BDE8F041FFF7ED
:101AF00051BF00000008014070B5114C4FF4004583
:101B00002946204601F0A0FF0522521EFDD14FF4C8
:101B100000763146204601F097FF0420401EFDD19B
:101B20000422521EFDD13146204601F08BFF0421D4
:101B3000491EFDD129462046BDE8704001F084BF12
:101B40000008014070B5104C4FF40045294620466E
:101B500001F07AFF66153146204601F075FF052237
:101B6000521EFDD10420401EFDD12946204601F021
:101B700069FF0421491EFDD13146204601F062FF74
:101B80000420401EFDD170BD0008014070B50F4C0F
:101B90004FF400752946204601F054FFAE0131464E
:101BA000204601F04FFF0522521EFDD12946204656
:101BB00001F04AFF0421491EFDD13146204601F0C3
:101BC00043FF0420401EFDD170BD0000000801400D
:101BD000084908220A6004230B600749D3020B61FD
:101BE000064B18601003486108610248001F02603C
:101BF0007047000014080140001001400C0C014027
:101C00002DE9FF4F1E4615460C46DDF834B000980E
:101C100000F026F80F4908224FF0040901F1040AE8
:101C2000DFF834C013030D4F0FE000980AE000BF47
:101C3000C1F80090CAF80020CCF800B07B613B618D
:101C40000A60401CA842F3D9641CB442EDD9BDE837
:101C5000FF8F0000100801400C0C014000100140F3
:101C60002DE9FF4F83462A20FFF7B2FF354C4FF096
:101C70000408C4F8008004F104090825C9F80050DC
:101C8000DFF8C4A04FEA1B21CAF800102F4F2E0323
:101C90007E613E612560C4F80080C9F800500BF0F9
:101CA000FF01CAF800107E613E612560C4F8008023
:101CB000C9F800500298010ACAF800107E613E611E
:101CC0002560C4F80080C9F800500298C1B2CAF873
:101CD00000107E613E6125602B20FFF779FFC4F87C
:101CE0000080C9F800500198010ACAF800107E610E
:101CF0003E612560C4F80080C9F800500198C1B267
:101D0000CAF800107E613E612560C4F80080C9F801
:101D100000500398010ACAF800107E613E612560F8
:101D2000C4F80080C9F800500398C1B2CAF8001086
:101D30007E613E61256004B02C20BDE8F04FFFF7C6
:101D400047BF0000100801400C0C0140001001408A
:101D50002DE9F04F3620FFF73BFF364C4FF00408DB
:101D6000C4F8008004F104090825C9F80050DFF820
:101D7000C8A06821CAF80010304F2E037E613E6172
:101D800025602A20FFF724FFC4F80080C9F800501E
:101D90004FF0000BCAF800B07E613E612560C4F8C8
:101DA0000080C9F80050CAF800B07E613E6125602D
:101DB000C4F80080C9F800500121CAF800107E6103
:101DC0003E612560C4F80080C9F800503F21CAF880
:101DD00000107E613E6125602B20FFF7F9FEC4F8FC
:101DE0000080C9F80050CAF800B07E613E612560ED
:101DF000C4F80080C9F80050CAF800B07E613E61A6
:101E00002560C4F80080C9F80050CAF800B07E61AF
:101E10003E612560C4F80080C9F80050EF21CAF87F
:101E200000107E613E612560BDE8F04F2C20FFF779
:101E3000CFBE0000100801400C0C01400010014012
:101E40002DE9FF4F99B099460D460746B0F882B686
:101E500000F046FB0A902946384600F0E7FAF84CB5
:101E600009902146FEF794F9FEF747FCDFF8D4838A
:101E70000022434602F0CEFCFEF752FC0646214605
:101E80004846FEF785F9FEF738FC0022434602F08B
:101E9000C1FCFEF745FC04463146FEF7CBF91B9921
:101EA000FEF700FA2146FEF7C8F90790E649E86A0E
:101EB000FEF7C6F94FF07E542146FEF769F9014658
:101EC0002046FEF7EFF9CDE90F04B5F94060304642
:101ED000FEF7BAFB696BFEF7B3F92146FEF758F936
:101EE0001190B5F94200801BFEF7AEFBA96BFEF71F
:101EF000A7F92146FEF74CF91199FEF7A1F91290C6
:101F0000B7F81406FEF7A9FBDFF8408304464FF04C
:101F10008F4A404504DD51462046FEF78BF90446C2
:101F2000B5F91400FEF790FB2146FEF7BBF90390CC
:101F3000B7F88006802101EA5019B7F81006FEF7BD
:101F40008CFB0590B7F85006FEF787FB002405AE22
:101F5000CDF8180056F82400C246504505DD4FF074
:101F60008F41FEF767F946F824000399FEF768F9F8
:101F700046F82400641C022CECDBB5490A98FEF7F5
:101F800059F90A90E969FEF75BF94FF07E54214652
:101F9000FEF7FEF804900090AE490998FEF74AF962
:101FA0000990296AFEF74CF92146FEF7F1F805F58C
:101FB00000580446B8F94C0AFEF746FB2146FEF7E6
:101FC0003FF90099FEF73CF90599FEF736F90590BF
:101FD00095F825100498494509D10190B8F94E0AA1
:101FE000FEF732FB2146FEF72BF901990CE0009039
:101FF000B8F94E0AFEF728FBD8F8501AFEF7C8F8D1
:102000002146FEF71DF90099FEF71AF90699FEF729
:1020100014F9069009980490AC6956F82B102046E4
:10202000FEF70EF9099005EB8B0000F50050D0F893
:10203000441A2046FEF704F90C90A86A0499FEF7AA
:10204000FFF84FF07E542146FEF7A2F80B907C4932
:10205000286BFEF7F5F82146FEF7EFF8002408900C
:10206000E21704EB926104EBD260891140114942FE
:1020700000EB4100A31C4FEAE37C46B203EB9C73E8
:10208000E01C4FEAE07C9B1000EB9C70611CA3EB12
:10209000A000CB1701EB937100EBA10004EB927150
:1020A000A0EBA1007242012101EB4201484340B282
:1020B0001790B9F1000F7DD004EBD470401040426E
:1020C00004EB4000704040B2B7F88216814272D1F2
:1020D00037F81400FEF7C1FA504503DD4FF08F4189
:1020E000FEF7A8F80399FEF7ABF8009005EB840023
:1020F00000F5805B1590DBF8440E0A99FEF7A0F816
:102100004FF07E51FEF744F80190DBF84402049949
:10211000FEF796F84FF07E51FEF73AF8834605EB4E
:102120004400B0F9440CFEF78FFA5946FEF788F8E0
:102130000199FEF785F80099FEF77FF895F82510CC
:102140008346494518D01798FEF77EFAD8F8541AF6
:10215000FEF776F801904FF0FF3000EB4600FEF7F7
:1021600073FAD8F8581AFEF76BF85946FEF710F8CC
:102170000199FEF75FF8834658461B99FEF792F8DF
:102180000999FEF757F8009015980C99406CFEF7E6
:1021900051F80B99FEF754F801460190FEF750F8FC
:1021A0000199FEF74DF8064607990198FEF748F8A1
:1021B000009901E02DE08BE0FDF7EAFF3146FEF7E4
:1021C0003FF800F007FC00F005FC296BFEF738F83B
:1021D000064608990198FEF733F83146FDF7D8FF17
:1021E00001460098FEF75EF80799FDF7D1FF00F071
:1021F000F1FB00F0EFFB1249FEF71CF88346B5F93E
:102200003E00FEF721FA5946FEF7A6FA03D2002651
:1022100023E0304658E7B5F94000FEF715FA594675
:10222000FEF79AFA01D2012617E0B5F94200FEF74F
:102230000BFA5946FEF790FA0ED202260DE0000086
:1022400033938843000010400000204200FEFF4608
:10225000333353400000C841032605EB4600B0F974
:102260003C00FEF7F1F95946FDF7E7FF05EB860163
:10227000C96AFDF7E5FF4FF07E51FDF789FF834600
:102280000FA850F826100198FDF7DAFF5946FDF720
:10229000D7FF01460098FEF705F80799FDF778FF8C
:1022A00000F098FB00F096FBFEF727FA4FF066323D
:1022B0000B4BFEF7E2F8FEF733FA0A49FDF7C0FFD1
:1022C0000949FDF765FFFEF704FA269921F8140085
:1022D000641CB4F5407FFFF6C3AE1DB0BDE8F08FBF
:1022E00066127140000020410000C8430B464FF4C5
:1022F00050724FF4105100F061B970B50C460546AC
:10230000FEF7E6FD00283BD121462846FFF7F6FA06
:1023100021462846FFF798FA21462846FFF79EF8FF
:1023200021462846FFF7D4FAB5F870002146C0F3DD
:10233000013084F824002846FFF798F82146284603
:10234000FFF7AAF821462846FEF72EFE214628462A
:10235000FFF7F6F921462846FFF7F4F8214628460C
:10236000FFF786F921462846FEF718FF2146284642
:10237000FEF7CCFE21462846BDE87040FEF7CEBFF2
:1023800070BD2DE9FC470D46814600244FF4004600
:102390006B4601223146484600F010F900282DD145
:1023A000BDF8000010F0080FF2D04FF450774FF452
:1023B0008068052C1ED230223146484600F052F982
:1023C000411C1BD02B463A464146484600F0F6F8E1
:1023D000002813D16B4601223146484600F0EEF842
:1023E00000280BD1BDF8000004F1010410F0080F23
:1023F000E4B2DED1042C03D96FF00700BDE8FC87FE
:1024000001AB012248F20D01484600F0D7F8010067
:10241000BDF80400A5F88006BDF8000000F001003A
:10242000A5F88206EAD00846E8E700002DE9F04763
:102430000C46054600F054F88146B5F84006FEF714
:102440000CF9234F06464FF08F48B84203DD414652
:10245000FDF7F0FE0646B5F80006FEF7FEF8054665
:10246000B84203DD4146FDF7E5FE054630462169E9
:10247000FDF7E6FE2946FDF78BFE01463046FDF7E7
:1024800011FFFEF73AF90022124BFDF7FCFFFEF7B1
:1024900047F90646A089FEF7E0F805460E4948468A
:1024A000FDF7C8FE6168FDF7CBFE4FF07E51FDF7EA
:1024B0006FFE01463046FDF7F5FE2946FDF7BAFEF0
:1024C000A168FDF7EFFEBDE8F0470449FDF760BEE7
:1024D00000FEFF4600001041333353400000C84166
:1024E0002DE9F04106460D46B0F85406FEF7B5F862
:1024F00021490446884204DD4FF08F41FDF79AFEE2
:102500000446B6F88006C0F38120FEF7ABF8024619
:102510000B464FF080480020414602F07BF9074609
:102520000E4695F82400FEF7AEF802460B46002052
:10253000414602F06FF93A463346FEF716F8FEF7C9
:10254000EFF80746B5F90000FEF77EF80646B5F944
:102550000200FEF779F8054621463846FDF770FE81
:102560002946FDF767FE3146FDF79CFEBDE8F041C8
:102570000249FDF70DBE000000FEFF463333534015
:1025800070B50D4E4FF400742346032210213046DF
:1025900001F05CFAA5012B4603221021304601F020
:1025A00055FA2146304601F04FFA29463046BDE83B
:1025B000704001F049BA0000000801402DE9F041E7
:1025C000ADF5D06D884607461D46164600244FF4EB
:1025D000D0616846FDF7D1FD7806070E4FEA182056
:1025E00060F3070468F30F24FFF7D0FA0520401EBC
:1025F000FDD1FFF7A7FA0420401EFDD178B2FFF706
:1026000047FA4FF0FF3840B960B2FFF741FA20B9FE
:1026100044F30720FFF73CFA20B140460DF5D06D9A
:10262000BDE8F081FFF7E4F947F0010040B2FFF7A1
:102630002FFA0028F1D170006946FFF771F9FFF712
:10264000A5FA0020694608E042008B188A5C5B7896
:10265000401C03EB022225F8022BB042F4DB0020E1
:10266000DCE700002DE9F8438046002000904FEAA7
:102670004860040E080A8DF800008DF80110100A59
:102680008DF8020015460E468DF80320FFF77EFAFE
:102690000620401EFDD1FFF755FA60B2FFF7F8F9AA
:1026A00010B10120BDE8F88300246F463857FFF7CA
:1026B000EFF910B14FF0FF30F4E7641C042CF5DBA8
:1026C000FFF764FA074B012231464046FFF776FFD9
:1026D00004480088A84202D06FF00100E2E7002021
:1026E000E0E70000DC000020F8B505464807860D4D
:1026F00048F20D046B46012221462846FFF75EFF93
:10270000002808D1BDF80000214620F46072324351
:102710002846FFF7A7FFF8BDFEE7704770470000A7
:1027200010B5074C1021204601F08CF9062002F06C
:10273000EDFE2046BDE81040102101F085B90000F3
:102740000008014070B50403FFF7EAFF00F09EF8AF
:102750000D4D1021284601F075F9202002F0D6FE1B
:10276000C4F3074002F0D2FEC4F3072002F0CEFE0D
:10277000E0B202F0CBFE1021284601F065F9BDE879
:10278000704000F083B800000008014010B588B028
:1027900040F2026002F05EFE40F20C6002F05AFE6F
:1027A000184CA02303221821204601F04FF94023A2
:1027B00003220421204601F049F91023032219467F
:1027C000204601F043F91021204601F03DF9002098
:1027D0004FF48271CDE900106115CDE9020110219D
:1027E000CDE90501084C04906946204602F0B2FE8E
:1027F0000721204602F07EFE204602F081FE08B04E
:1028000010BD000000080140003001402DE9F041FA
:10281000124F0C46064615461021384601F012F9B3
:10282000032002F073FEC4F3074002F06FFEC4F30E
:10283000072002F06BFEE0B202F068FE002405E023
:10284000FF2002F063FE3055641CA4B2AC42F7D303
:102850003846BDE8F041102101F0F6B8000801400B
:1028600070B5094D1021284601F0ECF8052002F062
:102870004DFEFF2002F04AFE04461021284601F0DA
:10288000E3F8204670BD0000000801402DE910402B
:10289000FFF7E6FFC007FBD110BD00002DE9F05F98
:1028A000C1F30B060F0BC6F58054884682461546C9
:1028B000A24200D81446DFF87C9039038B464FF4CF
:1028C00080521C48FFF7A2FF002006E0321819F8DA
:1028D0000210FF2903D1401C80B2A042F6D3A042CF
:1028E00022D23846FFF72EFF00204A4606E000BFFE
:1028F0001AF800108319401CD15480B2A042F7D3BB
:1029000059464FF480520B4800F016F8A5420FD0FC
:10291000281BA244A044002685B24FF480547F1C9B
:10292000A542CAD82C46C8E7224641465046EBE7A6
:10293000BDE8F09FCC0100202DE9F0410746C8B268
:10294000C0F580740E461546A24200D814464FF4D6
:10295000807822463146384600F00EF8A54208D06D
:10296000281B2744264485B24446A542F1D82C466C
:10297000EFE7BDE8F08100002DE9F04115460C4677
:102980000646FFF7CDFE124F1021384601F05AF8E7
:10299000022002F0BBFDC4F3074002F0B7FDC4F310
:1029A000072002F0B3FDE0B202F0B0FD002404E025
:1029B000305D02F0ABFD641CA4B2AC42F8D3102130
:1029C000384601F041F8BDE8F041FFF75FBF000075
:1029D000000801402DE9F04104464FF07F564FF0CA
:1029E000FF31FDF79DFC05461148A0EB6407394611
:1029F0002846FDF725FC3946FDF722FC3146FDF758
:102A00001CFC3946FDF71CFC074601462846FDF72D
:102A100017FC3946FDF714FC3146FDF70EFC39462C
:102A2000FDF70EFC01462046BDE8F041FDF708BC6D
:102A3000DF59375F704700000E48016841F001011F
:102A4000016041680C4A1140416002680B490A402C
:102A50000260026822F4802202604268084B1A4039
:102A6000426002680A4002604FF41F01816002F078
:102A7000D7BD0000001002400C00FFE8FFFFF6FE8B
:102A8000FFFF00F703F0E4BAFEE7490050EAC12077
:102A900018BF04204A0D18BF40F0010040F2FF7239
:102AA000B2EB515F08BF40F00200012808BF0520CB
:102AB00070472DE9F0414F1E00EBC7010446D1E9F4
:102AC000000115461E4637F006020DD02A46334651
:102AD000FDF7D9FC7F1E04EBC703D3E90023FDF704
:102AE0002BFC37F00602F1D1022F25D0042F13D092
:102AF000062F18BFBDE8F0812A463346FDF7C3FC18
:102B0000D4E90A23FDF718FC2A463346FDF7BBFC3F
:102B1000D4E90823FDF710FC2A463346FDF7B3FC41
:102B2000D4E90623FDF708FC2A463346FDF7ABFC43
:102B3000D4E90423FDF700FC2A463346FDF7A3FC45
:102B4000D4E90223FDF7F8FB2A463346FDF79BFC48
:102B5000D4E90023BDE8F041FDF7EEBB00221346A7
:102B600010460149FDF701BD0000F03FFDF7E4BB51
:102B70000022134610461146FDF7F7BC40F2013221
:102B800000204FF0E041FDF7A6BE0000024A002001
:102B90001107FDF7A0BE000001FDFFFF02E008C81D
:102BA000121F08C1002AFAD170477047002001E0C7
:102BB00001C1121F002AFBD17047000001490860C3
:102BC00070470000C8010020816841F00801816061
:102BD00081680907FCD4816841F004018160816843
:102BE0004907FCD470471205A2F5801201290BD0C9
:102BF000022908D1816B21F44011816302F4401154
:102C0000826B114381637047C16A21F47001C16214
:102C100002F47001C26A1143C162704700298168E1
:102C200002D041F4006101E021F40061816070474D
:102C30000D4910B540180FD0B0F5806F0FD0B0F52A
:102C4000C05F0FD140F20F34204602F01FFC204637
:102C5000BDE8104002F00CBC40F20934F4E740F249
:102C60000A34F1E710BD000000DCFEBF816841F4CA
:102C70008071816070478168C90703D1816841F024
:102C8000010181607047002A4FEAC1720AD01AB16F
:102C9000826842F48012826089070ED5816841F40F
:102CA000004109E01AB1826822F48012826089072B
:102CB00003D5816821F4004181607047012909D062
:102CC000022906D1816821F4E041816081681143C5
:102CD00081607047816821F46021F6E704490A6841
:102CE00022F470220A600A6802430A6070470000FA
:102CF0000424014070B51F24062909D2456B01EB5D
:102D00008106B440A54302FA06F12943416318E065
:102D10000C290AD2056B891F01EB81018C40A54368
:102D200002FA01F42C4304630BE0102909D2C56AAE
:102D30000C3901EB8106B440A54302FA06F12943A0
:102D4000C16207240A2A08D2016902EB42029440B8
:102D5000A14393400B43036170BD122AFCD2C168AA
:102D60000A3A02EB42029440A14393400B43C360F2
:102D700070BDCA0703D0826842F48002826089076E
:102D800003D5816841F4001181607047002A4FEA41
:102D9000C15211D0002A03DA426842F480724260C4
:102DA0004A0503D5426842F480624260890715D51E
:102DB000816841F0020110E0002A03DA426822F43F
:102DC000807242604A0503D5426822F48062426004
:102DD000890703D5816821F00201816070470000F6
:102DE00070B51A4C1A4E05466378B0686BB1012B6A
:102DF00016D0032B28D10020607032462846BDE84B
:102E000070401F23022102F08BBE01236370C4E9CE
:102E10000110904200D9A26020890A4683B20DE0D9
:102E2000A1687368411A0022184600F013F8084A96
:102E30000D2320320320C4E9012360702846BDE839
:102E40007040812102F0B8BE70BD00003401002046
:102E50007C44002010B5044B024C1C60C3E9010106
:102E60001A7310BD555342539C44002010B50446BC
:102E700000202071401EE062204601F0C7FB08B12F
:102E8000032010BDB4F82E02A0F52A41553901D017
:102E9000022010BD94F8660094F8691094F8672039
:102EA00040EA016194F86800000440EA022001430E
:102EB0000A48B0EB012F0DD014F8821FE278637836
:102EC00041EA0261A278120442EA03221143B0EB04
:102ED000012F01D1002010BD012010BD004641543A
:102EE00070B500244FF40046094D06E0084B01225E
:102EF0000A3331463320FFF761FBA87A0007F5D586
:102F000004493320FFF73DFA641C032CF5DB70BD48
:102F100000000020CC010020002244F6382306E007
:102F20000021491C89B29942FBD3521C92B28242C1
:102F3000F6D37047002800D0012070472DE9F041FA
:102F40001C0015460E4603D020B10120BDE8F081DB
:102F50000420FBE74FF4007769023A463046FFF75A
:102F600055FC641E05F1010506F50076F4D100203C
:102F7000ECE7002070472DE9F0411C0015460E4695
:102F800003D020B10120BDE8F0810420FBE74FF41D
:102F9000007769023A463046FFF780FC641E05F16F
:102FA000010506F50076F4D10020ECE72DE9FC5F81
:102FB0004FF00008E84C40F64851DFF8A093A4F821
:102FC00000806180424640464FF4407739F8123025
:102FD000834201D9184616468B4201D2194615463E
:102FE000521C92B2BA42F1D3DD4A61802080B2F91C
:102FF00000306FF027074FF0010BBB4204DBD94ACA
:10300000B2F90020BA4210DAD74AA76812785308FA
:1030100003FB07110BEB5202B1FBF2F1A1606168F7
:1030200003FB0100B0FBF2F008E0283303EB830060
:1030300040002832A06002EB820040006060A1687E
:10304000EF23401A4FF47D41B1FBF0F00021E06026
:1030500040F23F120846FEF703FEC4490420086010
:103060000820091D086000220921104600F01CFA02
:10307000FDF736FF0321BE4B1E2700BF01EB810089
:1030800007EB801082B200209854521C401C80B282
:1030900092B2FE28F8D3491C89B20829EED9022041
:1030A0000090B448FE230268B348017840F21F1034
:1030B000FDF7D7FD0A2003F0C1F9002213210A20F1
:1030C00000F0F2F9CDF80080CDF804802089FE23CD
:1030D000A0F5C87002B2A246274602211E20FDF7C5
:1030E0004BFECDE9008BB8885C46A0F5C87002B2F3
:1030F000FE230221E420FDF73FFEDFF880B2CDF889
:103100000080FE23022140F21F10DBF80020FDF7B3
:10311000A8FD0A2003F092F900221D21142000F0DE
:10312000C3F9CDE900483889FE23A0F5C87002B282
:1031300000211E20FDF720FE00940194B888FE2394
:10314000A0F5C87002B20021E420FDF715FE00943E
:10315000FE23002140F21F10DBF80020FDF781FD67
:103160000A2003F06BF9012273211E2000F09CF964
:1031700000227D21742000F097F94FF0FF0B05230A
:10318000A42219469C20CDF800B0FDF7FBFCA0223C
:10319000092301211046CDF800B0FDF7F3FC0A2009
:1031A00003F04CF90122DB217E2000F07DF90022A2
:1031B000E521DC2000F078F9FE2371A20221042031
:1031C000CDF80080FDF74DFD70486F490068FDF7B0
:1031D00037F8FDF765FA0246FE2302212420CDF8D8
:1031E0000080FDF7E5FCCDF80080CDF80480B9F84B
:1031F000E002FE23A0F5C87002B202218C20FDF788
:10320000BBFDFE2362A20221F020CDF80080FDF775
:1032100028FDDFF884B15F49DBF80000FDF710F806
:10322000FDF73EFA02B2CDF80080FE2302214FF4F2
:103230008470CDF80480FDF79FFD0A2003F0FEF8AE
:103240000022EF21E62000F02FF9FE234CA20021FE
:1032500004200094FDF705FD4C484B490068FCF73D
:10326000EFFFFDF71DFA0246FE2300212420009403
:10327000FDF79EFCCDE90048B9F8E002FE23A0F579
:10328000C87002B200218C20FDF776FDFE2340A21B
:103290000021F0200094FDF7E4FC3E49DBF800003B
:1032A000FCF7CEFFFDF7FCF9CDE9004802B2FE23A2
:1032B00000214FF48470FDF75FFD0A2003F0BEF893
:1032C0003988DFF8D890786809F1200781421ED14B
:1032D0001F2E1CD906F01F014FF61F0819F8010018
:1032E000440007EB5610E21D0078CDF80080460040
:1032F000E01F334680B21946FEF782FCF31DF61F2D
:103300002246B1B21046CDF80080FEF779FCBAF83B
:103310000210DAF8080081421CD11F2D1AD905F0DD
:103320001F014FF4FC6619F80100440007EB55102B
:10333000E21D007800964500E01F2B4680B219463A
:10334000FEF75EFCEB1DED1F2246A9B2104600966B
:10335000FEF756FCBDE8FC9FCC000020CC110020FD
:103360000600002008000020050000201008014091
:10337000CC010020140000200400002018000020D0
:10338000653D302E000000000000C8421000002003
:1033900054613A00000020411C000020D87200084F
:1033A00070B50C46054600F073F840B104EB84009C
:1033B00005EB8000816841F00101816070BDFEE78E
:1033C00070B50C46054600F063F840B104EB84008C
:1033D00005EB8000816841F02001816070BDFEE74F
:1033E00070B50D46044600F053F898B105EB850022
:1033F00004EB8002906820F0010090600020906053
:10340000D060106150616068AA000F2191400843AC
:10341000606070BDFEE770B514460D46064600F0CC
:1034200037F850B305EB850006EB80002168016199
:10343000A1684161218A89B2C1608168E36821F491
:103440007C52616819436369134319438160217E8B
:103450000129816812D021F040018160617E01293B
:1034600081680ED021F080018160A17E00298168F1
:103470000AD041F01001816070BDFEE741F04001CB
:10348000EBE741F08001EFE721F01001F3E70000E6
:103490000246044B01209A4202D1042900D900209F
:1034A00070470000000402402DE9F74F83B05FEA47
:1034B000020B10D10B1A5B1C0A2B0CDD00205D499E
:1034C000FD234FF4A0748B54401C521CA042FAD32D
:1034D00006B0BDE8F08F400800224908049100EBD7
:1034E000001101EB401A8146534841680291D0E92E
:1034F00002E0019099E000BF00204FEA1A230AF091
:10350000FF055B01C5F5807701460093009BDFF85E
:103510002CC1A3EB10231F33C4B23CF813800CEB77
:103520004303C4F58076B3F840C008FB06F80CFBF3
:1035300006FC33F8026CDB8F664308FB07F87E431A
:1035400063430CFB058C03FB056363441B0C734551
:1035500001D2002309E0029CA34201D9FD2304E02B
:10356000019CA3EB0E0363431B0ADCB2314B9C545A
:10357000521CBBF1000F01D19C54521C3130491C2C
:10358000A029C3D3BBF1000F3ED02D4C2D4A2E49AC
:1035900024684FF000084FF400400023254DED58FB
:1035A000EEB234F816C0C5F3072634F81670C5F32A
:1035B00007462D0E34F8166034F81550C2F800C0D6
:1035C00048610861C2F800C048610861176048613D
:1035D00008611760486108611660486108611660FB
:1035E00048610861156048610861156048610861BB
:1035F0001B1DA02BD2D308F1010808F0FF08B8F179
:10360000020FCAD300220CE000204FF4A0719C18D6
:10361000A4F58054401C94F8C04E9C54521C88421F
:10362000F5D30AF1310A09F10109049881457FF6C1
:1036300063AF4DE7CC010020CC000020CC1100206E
:103640000C0000200C0C01400010014070B5234814
:103650004FF4807404604FF4C06001F0FBFE40F250
:10366000026001F0F7FE40F2036001F0F3FE40F269
:10367000046001F0EFFE40F2056001F0EBFE40F265
:10368000066001F0E7FE154D0823143D03221021CA
:10369000284600F0DBF9042303221021284600F01D
:1036A000D5F90F4EE30103221021304600F0CEF988
:1036B000A30103221021304600F0C8F9234603225B
:1036C0001021284600F0C2F9BDE8704003224FF6F1
:1036D000FF731021034800F0B9B90000140801403D
:1036E00000100140000C014017B581B0144602984B
:1036F0000090684600F088F9002802DA0B2004B038
:1037000010BD0B4A002352F8201001B10B70019933
:10371000002900D00B7042F8201001D0012C01D0FC
:103720000020ECE7002202A901A800F003F8E6E778
:10373000C40100202DE9FF474FF000090746C0F8FB
:1037400000901646084600F05FF9050003D50B20EF
:1037500004B0BDE8F087A14850F825408CB13C602A
:10376000207820B16078FFF704FCC1070BD084F803
:103770000090E8B26070FFF7DDFBC10708D00320BE
:10378000E6E70C20E4E70EB1400704D40020DFE7B1
:103790001EB1400701D50A20DAE700252946204658
:1037A000FFF764FB012826D100216F4604EB0110CE
:1037B00090F8F22100F5F7704AB1027AC37A42EA32
:1037C0000362837A407A1B0443EA0020024347F8ED
:1037D0002120491C0429E9D35FF0000657F8265040
:1037E0002DB129462046FFF741FB08B909E0022028
:1037F000761C042EF2D3032801D0E0BB01E00120A7
:10380000A6E7B4F83B00B0F5007F6CD1B4F84620D1
:103810006AB994F8540094F8571040EA016294F899
:10382000560094F85510000440EA01200243A261BA
:1038300094F84010E170012901D0022953D194F885
:103840003D005143A070B0B1431E18424BD1B4F8B3
:10385000413023811E0746D1B4F843607EB994F805
:10386000506094F8537094F851C046EA076694F893
:1038700052703F0400E036E047EA0C273E43B4F8BC
:103880003EC0BCF1000F2ED00CEB010707EB131765
:10389000BE4228D3F61BB6FBF0F020B3012640F65B
:1038A000F678404500D302264FF6F678404500D31F
:1038B0000326801C2F44A762AC446061C4E9075C06
:1038C000032E12D07BB161446162022E20D000F041
:1038D000010100EB400001EB500000BF00F2FF10BF
:1038E000B2EB502F16D20D2032E7002BFBD194F80B
:1038F0005C1094F85F3094F85D7041EA036194F8CD
:103900005E301B0443EA0723194380006162E5E748
:103910004000E3E74FF0FF302061E06080206071FD
:10392000032E52D1B4F8600001284ED12046691C04
:1039300000F06CFEE8BB84F80590B4F82E02A0F508
:103940002A41553941D194F8300094F8331094F855
:10395000312040EA016094F83210090441EA022162
:1039600008431F49884230D194F8140294F8171282
:1039700094F8152240EA016094F81612090441EA0D
:1039800002210843174988421FD194F8180294F87D
:103990001B1294F8192240EA016094F81A120904E3
:1039A00041EA02210843206194F81C0294F81F1296
:1039B00000E00AE040EA016094F81E1294F81D222B
:1039C000090441EA02210843E06004492670091F06
:1039D0000888401C0880E080D8E60000C401002070
:1039E00052526141727241610020704710B55A43D2
:1039F00092B2FEF70BFF002010BD10B55A4392B2F1
:103A0000FEF74CFF002010BD10B504464FF0FF300C
:103A10002268002A13D0114600E0491C0B78212BA4
:103A20000ED33A2BF9D112F8013B303B0A2B06D2C8
:103A30008A4204D1002B02D1491C1846216010BDD6
:103A4000002010BD41617047016170472DE9F043CE
:103A500001F00F04CD0600D5144300254FF00F09E7
:103A60005FF0010202FA05F61E4014D007684FEA23
:103A7000850C09FA0CF827EA080704FA0CF848EA5A
:103A80000708282902D0482902D002E0466100E058
:103A90000661C0F800806D1CADB2082DE2D3082588
:103AA00002FA05F61E4016D047684FEA8508A8F1CD
:103AB000200809FA08FC27EA0C0704FA08FC4CEA7B
:103AC000070C282902D0482902D002E0466100E014
:103AD0000661C0F804C06D1CADB2102DE0D3BDE886
:103AE000F0838068084000D001207047F0B5144C86
:103AF000002801DAE36900E06368420D120185B233
:103B0000C0F301579540C0F30346032F05D0C2020E
:103B10000AD50322B240934307E023F07062636842
:103B200023F07063636002E0AB4343F0706201B165
:103B30002A43002801DAE261F0BD6260F0BD0000B6
:103B4000000001402DE9F05F0520FFF7E5F9CF20E7
:103B5000FEF73EF8FF4E4FF00408C6F8008006F16D
:103B600004090827C9F80070DFF8ECA30021CAF89F
:103B70000010FA4D3C036C612C613760C6F8008080
:103B8000C9F800708121CAF800106C612C6137609F
:103B9000C6F80080C9F800703020CAF800006C61D7
:103BA0002C6137600520FFF7B7F9ED20FEF710F81C
:103BB000C6F80080C9F800706421CAF800106C6172
:103BC0002C613760C6F80080C9F800700320CAF87D
:103BD00000006C612C613760C6F80080C9F8007085
:103BE0001221CAF800106C612C613760C6F80080A1
:103BF000C9F800708121CAF800106C612C6137602F
:103C00000520FFF789F9E820FDF7E2FFC6F80080FC
:103C1000C9F800708521CAF800106C612C6137600A
:103C2000C6F80080C9F800701020CAF800006C6166
:103C30002C613760C6F80080C9F800707821CAF896
:103C400000106C612C6137600520FFF765F9CB200F
:103C5000FDF7BEFFC6F80080C9F800703920CAF829
:103C600000006C612C613760C6F80080C9F80070F4
:103C70002C21CAF800106C612C613760C6F80080F6
:103C8000C9F800700021CAF800106C612C6137601F
:103C9000C6F80080C9F800703421CAF800106C61C1
:103CA0002C613760C6F80080C9F800700221CAF89C
:103CB00000106C612C6137600520FFF72DF9F720AB
:103CC000FDF786FFC6F80080C9F800702021CAF809
:103CD00000106C612C6137600520FFF71DF9EA20A8
:103CE000FDF776FFC6F80080C9F800700021CAF819
:103CF00000106C612C613760C6F80080C9F8007054
:103D0000CAF800106C612C6137600520FFF704F9D8
:103D1000B120FDF75DFFC6F80080C9F800700021F2
:103D2000CAF800106C612C613760C6F80080C9F8D1
:103D300000701B20CAF800006C612C613760052000
:103D4000FFF7EAF8B620FDF743FFC6F80080C9F890
:103D500000700A21CAF800106C612C613760C6F847
:103D60000080C9F800704FF0A20BCAF800B06C6177
:103D70002C6137600520FFF7CFF8C020FDF728FF42
:103D8000C6F80080C9F800703521CAF800106C61CF
:103D90002C6137600520FFF7BFF8C120FDF718FF41
:103DA000C6F80080C9F800701121CAF800106C61D3
:103DB0002C613760C520FDF70BFFC6F80080C9F8FD
:103DC00000704520CAF800006C612C613760C6F8AD
:103DD0000080C9F80070CAF800006C612C6137607F
:103DE000C720FDF7F5FEC6F80080C9F80070CAF8D4
:103DF00000B06C612C613760F220FDF7E9FEC6F877
:103E00000080C9F800704FF0000BCAF800B06C6178
:103E10002C6137602620FDF7DBFEC6F80080C9F86C
:103E200000700121CAF800106C612C613760052018
:103E3000FFF772F8E020FDF7CBFEC6F80080C9F866
:103E400000700F20CAF800006C612C613760C6F862
:103E50000080C9F800702621CAF800106C612C613E
:103E60003760C6F80080C9F800702421CAF8001035
:103E70006C612C613760C6F80080C9F800700B21B6
:103E8000CAF800106C612C613760C6F80080C9F870
:103E900000700E21CAF800106C612C613760C6F802
:103EA0000080C9F800700920CAF800006C612C611C
:103EB0003760C6F80080C9F800705422CAF80020A4
:103EC0006C612C613760C6F80080C9F80070A822C8
:103ED000CAF800206C612C613760C6F80080C9F810
:103EE00000704622CAF800206C612C613760C6F869
:103EF0000080C9F800700C22CAF800206C612C61A7
:103F00003760C6F80080C9F800701722CAF8002090
:103F10006C612C613760C6F80080C9F800705146AA
:103F2000CAF800006C612C613760C6F80080C9F8DF
:103F300000700F20CAF800006C612C613760C6F871
:103F40000080C9F800700720CAF800006C612C617D
:103F5000376005E0100801400C0C014000100140E2
:103F6000C6F80080C9F80070C1F800B06C612C611F
:103F70003760E120FDF72CFEC6F80080C9F800701C
:103F8000CAF800B06C612C613760C6F80080C9F8CF
:103F900000701921CAF800106C612C613760C6F8F6
:103FA0000080C9F800701B20CAF800006C612C6109
:103FB0003760C6F80080C9F80070CAF800806C61EC
:103FC0002C613760C6F80080C9F800701021CAF86B
:103FD00000106C612C613760C6F80080C9F8007071
:103FE0000720CAF800006C612C613760C6F80080B9
:103FF000C9F800702A21CAF800106C612C61376082
:10400000C6F80080C9F800704721CAF800106C613A
:104010002C613760C6F80080C9F800703920CAF8F2
:1040200000006C612C613760C6F80080C9F8007030
:104030000320CAF800006C612C613760C6F800806C
:10404000C9F800700620CAF800006C612C61376066
:10405000C6F80080C9F80070CAF800006C612C61D5
:104060003760C6F80080C9F800703020CAF8000038
:104070006C612C613760C6F80080C9F80070382187
:10408000CAF800106C612C613760C6F80080C9F86E
:1040900000700F20CAF800006C612C6137600520A9
:1040A000FEF73AFF3A20FDF793FDC6F80080C9F805
:1040B00000705521CAF800106C612C613760112026
:1040C000FDF786FD0520FEF727FF0520FEF724FFFC
:1040D000BDE8F05F2920FDF77BBD000010B54FF46F
:1040E000C06001F0B7F940F2026001F0B3F940F2AC
:1040F000036001F0AFF940F2046001F0ABF9012177
:104100000948FFF7F3FC4FF48063032210210748AE
:10411000FFF79CFC0322BDE810404FF400534821F8
:104120000348FFF793BC0000000230000008014084
:104130000010014008B501260025C820FEF7ECFE5E
:10414000FFF7CCFFFCF796FCFEF720FB0122D0A185
:10415000D048FFF7C9FAFFF779FAFFF7F3FCFDF74C
:10416000F7FDFEF70DFA04213320FEF7BDFACA4928
:104170003320FEF7BBF8C949C748FEF7BEF8FEF783
:10418000AFFEC74837020760C648C74CDFF81CA31C
:104190004FF002094FF4967BA8460090C24B0122D3
:1041A0000A33D1033320FEF709FAA07A000703D5BA
:1041B00001F0A8FAFEF7FAFE55EA060016D02078BC
:1041C000052813D2DFE800F003374C608B00B8A05D
:1041D000606184F80490607908287ED2DFE800F0FE
:1041E000041D1F2123252729B3A0A061DAF80400AC
:1041F00058457AD26420FEF78FFEDAF8040058455D
:10420000CCD2002ECAD120780126401CC0B220702A
:104210000528C3D384F80080C0E7A9A0E5E7AAA0D9
:10422000E3E7ABA0E1E7ACA0DFE7ADA0DDE7AEA040
:10423000DBE7AFA0D9E7B0A0606184F804806078C4
:1042400060B1012804D0022806D0032845D101E03E
:10425000ABA0CAE7ACA0C8E7ADA0C6E7AEA0C4E774
:10426000AFA0606184F80480A078062835D2DFE82A
:1042700000F003072D320509ABA0B6E7ACA0B4E708
:10428000ADA0B2E7AEA0B0E7AFA0606184F8049043
:10429000E0780C2821D2DFE800F0191B1E06080A7E
:1042A0000C0E11131517AAA09FE7ABA09DE7ACA0B9
:1042B0009BE7ADA099E7AEA097E70EE0AEA094E72C
:1042C000AFA092E7B0A090E7B1A08EE7B2A08CE7D4
:1042D000B3A08AE709E0B4A087E7B5A085E7B6A058
:1042E000606184F80490B6A07FE740F25721A0F205
:1042F000D76088426FD26420FEF70EFEDAF8040021
:1043000040F62E12904287D240F2D661884283D97D
:10431000002D81D1207801250528F4D2DFE800F0B6
:1043200003122E5C8C006079401CC0B260710528BD
:1043300001D901206071C1B23320FEF7D5F9FEF733
:10434000CFFD2BE76078401CC0B26070042802D318
:10435000404684F8018010F0FF0005D0012805D008
:10436000022809D0032803D0009803E0964800E013
:1043700096480C30E06011E79548FAE7A078401CB9
:10438000C0B2A070062802D3404684F80280C0B2B2
:1043900006281CD2DFE800F01B090D1503116FF091
:1043A0002700E0800A202081F8E60A20E08028200B
:1043B000F9E7A4F806806420F5E74620E0806E2047
:1043C000F1E76FF02700E080A4F808B0E6E66FF0B0
:1043D0006300E080E7E757E0E078401CC0B2E0709F
:1043E0000C2802D3404684F80380C0B20C2821D2A6
:1043F000DFE800F0191B1D06080B0D0F1113151730
:10440000744800E074482061C8E67448FBE77448CB
:10441000F9E77448F7E77448F5E77448F3E7744838
:10442000F1E77448EFE77448EDE77448EBE74FF0C5
:104430007E50E8E77248E6E71948001D076000F083
:10444000F3FF1948203001F0DDF900F089F9144834
:104450004FF480611038FFF7F7FA13480521203038
:10446000417041780329FCD1DAF80400C828FDD254
:10447000BFF34F8F63480168634A01F4E061114361
:104480000160BFF34F8FFEE700252E4686E6000051
:10449000303A00003C420020CC010020CC17002024
:1044A00010080140E46A000800000020C400002059
:1044B00072617465000000002E35487A000000002B
:1044C0003120487A000000003220487A00000000C5
:1044D0003420487A000000003820487A00000000AC
:1044E0003136487A000000003332487A000000007C
:1044F0003634487A00000000206D61700000000032
:10450000666972650000000072626F77000000004B
:104510007472697000000000676C6F770000000023
:104520007370616E000000006175746F0000000020
:10453000636F6C6400000000726F6F6D000000001C
:10454000626F696C00000000656D69730000000017
:104550006D65746C00000000416C6F780000000015
:10456000656D343000000000656D363000000000DD
:10457000736E6F7700000000505446450000000045
:10458000706E742E000000006C696D650000000004
:1045900076656765000000002048324F000000008B
:1045A000736B696E00000000206D617800000000F0
:1045B0006661696C000000002075736200000000F5
:1045C0002020202000000000A8640008C86800081F
:1045D000B86600080AD7233DCDCC4C3ECDCCCC3EAE
:1045E0009A99193FCDCC4C3F9A99593F6666663FE0
:1045F0001F856B3FD7A3703F8FC2753F48E17A3F5D
:104600003333733F0CED00E00400FA0570B5044647
:10461000C06A0D46A8420ED0204600F0D8FF38B937
:10462000607801232A4604F13001FEF787FC08B1C7
:10463000012070BDE562002070BD000010B5044689
:104640000C480129037801D039B108E0012A06D1CC
:1046500053B1204600F0CAFD06E0022A01D0022034
:1046600010BD1BB1022BF4D0002010BD00F034FFB0
:10467000EFE700003501002010B50446812101F06C
:1046800069F90221204601F065F9054900201F2340
:104690000870044A0221204601F042FA002010BDB1
:1046A000350100207C44002010B504460B4A00214F
:1046B00001F07CF9094A0021D21D204601F076F96B
:1046C000FFF792F9064900201F230870054A0221CE
:1046D000204601F025FA002010BD0000AE010020A8
:1046E000350100207C44002070B50A78194B12F087
:1046F000600218D0202A2BD14D780022164CFE2DB6
:1047000005D0FF2D08D001F0BFF8022070BD1A704F
:10471000227001230F4A11E022701F230F4A022149
:1047200001F0FEF914E04A78012A0ED00A2A02D0DC
:104730000B2A0DD106E0074A0123521C802101F00B
:104740003BFA05E08878587002E0812101F000FA18
:10475000002070BD9A010020350100207C4400201B
:1047600010B54FF4C06000F04BF800220121BDE805
:1047700010401420AFF3008070B505461F48002498
:104780000E460068234600F4E0614FF4A0608142C9
:104790000FD006DCB1F5407F16D0B1F5806F06D1A1
:1047A0000FE0B1F5C06F09D0B1F5E06F04D000F0B3
:1047B00027F80224234608E0042306E0012403230B
:1047C00003E00324012300E00424C4F10400864034
:1047D000C3F104010F20C8401040304305F1E0212F
:1047E000000181F8000405F01F01012088406909DB
:1047F000890001F1E021C1F8000170BD0CED00E07D
:104800000249084302490860704700000000FA05A9
:104810000CED00E02DE9F04D1D460C4698B0174612
:1048200021F0004123F00043002814BF4FF0010C99
:104830004FF0000C0CEB440CFE4A0CEB02064FEA66
:10484000620C66452BD33E0018BF012606EB4506D9
:104850001644F94A964222D3F84A53EA070C02D08A
:10486000944205D148B918B000201146BDE8F08D3A
:10487000002808BF4FF0000C01D04FF0010C0CEBEA
:10488000440212F5001F0AD8002F14BF4FF0010C8C
:104890004FF0000C0CEB450212F5001F07D918B0C1
:1048A0003A462B462146BDE8F04DFEF75FB900229F
:1048B000DFF88CA3002CB8BF534526DADFF884C399
:1048C0006345A8BF022220DADFF870C39C451CDCD8
:1048D000DFF874C30CEB235CBCF1140F08DDCCF1E2
:1048E000340627FA06FC0CFA06F6BE420DD108E0A3
:1048F0005FB9CCF1140623FA06FC0CFA06F69E42C8
:1049000003D10CF00102C2F1020251EA000C19D1EC
:10491000002D17DA002C18BF022A01D0012A07D077
:104920000220FEF74BF918B0BDE8F04DFEF716B9BE
:104930000220FEF743F9FEF711F918B081F00041AB
:10494000BDE8F08DB7F1000C6CD1534525D104F1D1
:10495000804212F5801201BF00280020B74918B02C
:1049600008BFBDE8F08DB548884207DC002DA1BF27
:104970006046294618B0BDE8F08D07E0281E05DA2C
:1049800080F0004118B06046BDE8F08DAF49794431
:10499000D1E9000118B0BDE8F08DDFF8A0C2634591
:1049A00025D1002D1FDA19B1514512D1D8B909E02E
:1049B000002840F0EC82A24A214618B062F31E01A2
:1049C000BDE8F08D0020214618B060F31E01BDE85F
:1049D000F08D08DA18B02346BDE8F04D02460020FD
:1049E0006146FBF7C2BD18B02146BDE8F08D5145C8
:1049F00018DAB5F1804F0DD0A5F1005CBCF1FF5C79
:104A000010D1B4F1000C0DDB18B06146BDE8F04DDB
:104A100000F0B7BD234618B00246BDE8F04D194678
:104A2000FBF731BD060024F0004C3BD1D9B1514514
:104A300033D1002C06DD002DA1BF0020514618B057
:104A4000BDE8F08D002C01DD002D1BDB002C13DAFE
:104A5000002D11DB012A4FF0000014BF78497C497A
:104A600018B0BDE8F08D022A18BF002C0AD0012A28
:104A700008D1002C06DA0AE0002CB8BF002D11DAAC
:104A8000012A04D0002018B00146BDE8F08D18B00E
:104A900000204FF00041BDE8F08DA1F14050B0F191
:104AA0007F601AD0012000EBE47050EA020421D0AC
:104AB000624C521E4FF0000B104304BF4FF0000B2E
:104AC000644C654883427CDD644A654893421FDD3F
:104AD000884217DB002D25DB37E0002C00DA4AB1D5
:104AE000022A0CBF01204FF0FF3018B0BDE8F04D96
:104AF000FBF7B8BD0120FEF761F818B0BDE8F04D36
:104B0000FEF736B84D4A8A4202DC002D0ADC1CE072
:104B1000814202DA002D18DA04E0484B994220DD88
:104B2000002D12DD0220FEF749F8FEF727F80546B2
:104B30000E460022534658462146FBF7A4FC18B007
:104B400066F31E012846BDE8F08D0220FEF736F818
:104B5000FEF71CF80A46214618B062F31E01BDE8B4
:104B6000F08D002230466146FBF787FC80460E46FA
:104B70006FF00102FBF7AFFE4FF05532394BFBF7F8
:104B80007FFC42463346FBF77EFC0022364BFBF7A8
:104B900077FC824642463346049110461946FBF79D
:104BA00072FC5246049BFBF76EFC8A4600904FF065
:104BB000C0422E4B40463146FBF765FC2C4A2B4B3E
:104BC00000E027E0CDE9060151460098FBF75BFCC9
:104BD00082460191274A284B40463146FBF753FC59
:104BE0005246019BFBF749FC82460B460246059163
:104BF000DDE90601FBF7A0FBDDE906230026884678
:104C00003046FBF73AFC5246059BFBF739FC02465F
:104C100000F07EB90020B1F5801F07DA352230465A
:104C20006146FBF758FE06466FF0340000EB21505A
:104C300024E00000FFFF1F00FFFF0F000000F03F17
:104C40000000F07F0000404301FCFFFFAE2A00009F
:104C50000000F0FF0000F0BF0000E0410000F04362
:104C6000FFFFEF3F5555D53F0000E03F4715F73FA9
:104C7000FE822B6544DF5DF80BAE543EA0F2FF30A0
:104C80000190C1F3130040F07F6141F04051029167
:104C9000FE498842D8BF002004DDFD498142C8BFDB
:104CA000012001DD0D9008E000200D900198401CCE
:104CB00001900298A0F5801002900299F54878447E
:104CC0000B910D9900EBC100D0E900230F93304602
:104CD0000A920B99FBF7D1FBCDE90601DDE90A2128
:104CE00030460F9BFBF728FB02460B460020EA49A3
:104CF000FBF73BFC059102460B460090DDE90601FF
:104D0000FBF7C1FB1490E5488A464FF00008784451
:104D10000299006812904FF0005040EA61010D982E
:104D20000F9B01EB804000F5002109910A9A12982F
:104D3000FBF7A3FB32460B9BFBF7A2FB4246534615
:104D4000FBF7A1FB0646029140465146099B129A89
:104D5000FBF799FBDDE90623FBF792FB3246029B4A
:104D6000FBF78BFB059B009AFBF78DFB0091149AD8
:104D70000490534610461946FBF785FB064602464B
:104D8000C7480B46029106217844FDF792FECDE913
:104D90000510029B324610461946FBF774FBDDE90D
:104DA0000532FBF770FB059106465346404619460F
:104DB000149AFBF7C1FA009B049AFBF764FB324696
:104DC000059BFBF7B9FACDE905104246534610465C
:104DD0001946FBF758FB0022B24B02910A90FBF7F1
:104DE000ABFADDE90532FBF7A7FA0E464246AD4BBA
:104DF0004046FBF742FB029B0A9AFBF73EFBDDE9CC
:104E00000532FBF73DFB424602910A9033461046BD
:104E10005146FBF738FBCDE906015346149A029937
:104E20000A98FBF730FB8A460290334642460099C7
:104E30000498FBF728FB5346029AFBF77DFA82465B
:104E40000B4602460591DDE90601FBF775FADDE93F
:104E50000623002088460646FBF70FFB5246059BBB
:104E6000FBF70EFB824609914FF060428E4B3046B5
:104E70004146FBF708FB049006918C4A8A4B50464A
:104E80000999FBF700FB82460291894A894B30461B
:104E90004146FBF7F8FA5246029BFBF74DFA864B68
:104EA0007B440D9A03EBC203D3E90023FBF744FADA
:104EB0000E9007910198FBF7D5FB0591DDE90613EC
:104EC00082460E9A0498FBF737FA7C4A7A440D9B87
:104ED00002EBC303D3E9002300930292FBF72CFA01
:104EE0005246059BFBF728FA002688465246304674
:104EF000059BFBF7C2FA009B029AFBF7BEFA069BE2
:104F0000049AFBF7BAFA079B0E9AFBF7B9FA024626
:104F100000200B46029038462946FBF7B4FA824639
:104F200001912B4638461946029AFBF7A6FA3246FB
:104F30004346FBF7A8FA5246019BFBF7FDF90746EB
:104F40008A463246434629460298FBF79CFA0546B4
:104F50000E463A465346FBF7EFF9594A88469142C6
:104F600021DBA8EB020353EA000210D12A463346A4
:104F7000FBF783FACDE90401524A534B38465146B8
:104F8000FBF7DAF9DDE90423FBF70EFD21D202205D
:104F9000FDF714FEFDF7F2FD0A46214618B062F354
:104FA0001E01BDE8F08D494B28F000429A4210D313
:104FB000474A08EB020353EA00027FF4C6AD2A46D3
:104FC0003346FBF75AFA3A465346FBF7EDFC7FF6B9
:104FD000BCAD0022019228F000403E493E4A01EB60
:104FE0002051824223DA481C4FF4801121FA00F04C
:104FF00040443A4AC0F30A517A44394BA1F2FF3196
:10500000CB4020EA0303C0F3130040F48010C1F149
:105010001401C84012680190B8F1000FBCBF4042B3
:10502000019028463146FBF728FA05460E462A46E7
:10503000334638465146FBF77FF94FF000084246A9
:10504000284B40460591FBF71EFACDE90601264A9A
:10505000264B40460599FBF716FA009102902A4626
:10506000334640460599FBF708FA3A465346FBF7A4
:1050700007FA1F4A1F4BFBF706FA009B029AFBF741
:105080005BF90746884602460B4635E08E980300DA
:105090007AB60B00F62600000000F03F2E27000035
:1050A0005C2600000000084009C7EE3FFD033ADC23
:1050B000F5015B14E02F3EBE34250000F82400000B
:1050C00000009040FE822B654715973C00CC904035
:1050D00000346F3F01FCFFFF0000E03F442400006C
:1050E000FFFF0F00432EE63F396CA80C615C20BE29
:1050F000EF39FAFE422EE63FDDE90601FBF71CF927
:10510000DDE9062305460E46FBF7B7F93A46434666
:10511000FBF7B6F90F462A4633460090104619466B
:10512000FBF7B1F9824602462E4888460B46052118
:105130007844FDF7BEFC52464346FBF7A4F92A46E5
:105140003346FBF79DF980468A463B462846314662
:10515000009AFBF798F93B46009AFBF7EDF80691A9
:10516000009000224FF0804340465146FBF785F9FE
:105170000F460C904246534628463146FBF783F9CA
:105180003B460C9AFBF7F1F9069B009AFBF775F981
:105190002A463346FBF771F90022134BFBF770F9EF
:1051A000054601980E4601EB00510815002810DC59
:1051B00028463146019AFBF78EFBFDF766FC042872
:1051C00008BFFDF7E3FC28463146019AFBF783FB55
:1051D00005460B4618B02A4658462146BDE8F04D14
:1051E000FBF751B9E42200000000F03F2DE9F05F29
:1051F00006467C487C4C002390F800801030032544
:10520000816862784068B8F1230F33D00CDCB8F1C4
:10521000000F74D0B8F1030F72D0B8F1120F25D07F
:10522000B8F11A0F18D1B7E0B8F1250F26D0DFF882
:10523000B4E16D4FB8F1280FBEF802A0D7F80CB05A
:105240009EF804909EF805C0BEF807704FF4007EEB
:1052500018D0B8F12A0F54D0624F10373F7B3F0669
:105260007AD5002A79D0012A78D041E05E492422FB
:10527000243194E05C490C22483190E05A490822DC
:1052800014318CE012B1012A12D031E0012060709B
:105290009AFA9AF0010441EA092040EA0C007ABA2D
:1052A00041025002C4E9031001237546724605E02D
:1052B0002269B2B101237546724659464B48FEF742
:1052C00095FB2B46494A8121304600F075FCE06889
:1052D00000F50070E0602069A0F500702061BDE875
:1052E000F09F7ABA524201EB42216570002244E0FD
:1052F000032AF4D163703B4A1F23103216E046E0C4
:1053000041E0CAB1022AF3D10123774672465946D9
:105310003648FEF772FBE06800F50070E060206937
:10532000B0F5007020611AD03B46304A3046BDE8E7
:10533000F05F022100F0F4BB022060709AFA9AF04C
:10534000010441EA092040EA0C00400279BAE06019
:10535000480273462061E8E735E025E02FE0214868
:10536000657010300022D0E901311038B0F8070024
:1053700040BA404201EB40211846FDF76BFD194A47
:105380000D23303215E018491222543107E0002A6B
:10539000B0D165701146F0E7134908221C31304640
:1053A000BDE8F05FFDF71CBD012060700E4A0346AA
:1053B000A0603046BDE8F05F812100F0FDBB012216
:1053C0006570491ED9E7002A92D10122A360FDF73A
:1053D00041FD044A0D2330328121304600F0ECFBC0
:1053E00065707CE76C44002034010020CC11002063
:1053F0000B4A51680B4B194008280ED2DFE800F029
:10540000040404040D070D0741EA803105E020F093
:10541000040041EA803040F0805151607047000044
:1054200000100240FF3FFFEF10B500F03DF940F2E1
:10543000026000F00FF840F21C7000F00BF84FF41F
:10544000400000F031F8BDE8104040F2177000F065
:1054500001B80000054901EB90110A6800F01F0334
:105460000120984002430A6070470000001002408B
:10547000054901EB90110A6800F01F0301209840D4
:1054800082430A607047000000100240054901EBAA
:1054900090110A6800F01F030120984002430A603F
:1054A0007047000000100240034A516821F4400197
:1054B0000143516070470000001002400548016838
:1054C0004FF6FB72114001600168121F114001602C
:1054D00070470000405C004005490020A1F1100227
:1054E0000B18DB7B1354401CC0B21028F8D3704754
:1054F0007C440020026842F400520260016170475F
:10550000016841F0400101607047000070B50B4C2C
:1055100005460221204600F018F80028F9D0294657
:10552000204600F010F80121204600F00EF8002877
:10553000F9D0204600F004F8C0B270BD0030014040
:10554000C06880B27047C16070478068084000D072
:1055500001207047026802F441530A681A434B68FD
:1055600013438A681A43CB6813430A691A434B6989
:105570008969134319430160C16921F40061C16164
:1055800070472DE9F04106460F46FBF7BBF9041EB4
:105590000D4618BF0120284320F00040C0F17F6075
:1055A00000F1E040C00F0ED0301C18BF012038437E
:1055B00020F00040C0F17F6000F1E040C00F04BF68
:1055C0000120FDF7FBFA20462946BDE8F0812DE9D0
:1055D000F0410446007900B3E56A04F130016078D7
:1055E00001232A460F46FDF7C6FC10B10120BDE895
:1055F000F08100202071206AA169281A88420CD20B
:10560000E67808E0A0690123054460782A46394617
:10561000FDF7B1FC761E022EF4D20020E7E7000071
:105620001E480021026842F4803202604FF6FF7388
:105630000268491C12F4003F01D19942F8D1016877
:10564000890300D4FEE741684160416841604168D8
:1056500041F480614160416821F44031416041681A
:1056600041F44031416041680D4A11404160416858
:105670000C4A11434160016841F08071016001688A
:105680008901FCD5416821F003014160416841F086
:105690000201416041680907FCD5704700100240D3
:1056A000FFFFC3F7000028081348416821F00301F9
:1056B0004160416841F001014160016821F0807161
:1056C000016041680D4A1140416041680C4A114334
:1056D0004160016841F08071016001688901FCD579
:1056E000416821F003014160416841F002014160DD
:1056F00041680907FCD5704700100240FFFFC3F75F
:1057000000001C0838B50B493320FCF73AFE0A4963
:105710000848FCF78BFE094C4FF08241E061FAF734
:1057200089FD034606480090034902482269FCF7B8
:1057300087FB38BDCC010020CC17002000000020E2
:10574000CC1100202DE9F04704460878DFF8A0804E
:10575000284E0D4610F01F004FF0000748F6BF79A5
:1057600004D0012812D0022826D118E0607802283F
:1057700001D0032804D16888012803D002281BD057
:10578000BDE8F087E770D4F89C2024E06078022818
:1057900012D00328F4D108790128F1D90CE0297935
:1057A0006078022804D00328EAD1688850B10FE05D
:1057B0000029E5D08029E3D02046BDE8F04700214C
:1057C00000F0C6B921B1802902D0204600F060F86F
:1057D000D4F89C20294620469047D8F800008780BE
:1057E000306800EA090080F030003060C8E700004F
:1057F000E8000020005C004050F88C1F8978118080
:10580000006870470021C1700748012202600160F2
:10581000021D1160044A10321160044A4FF41F4106
:105820001160016070470000405C0040E000002013
:1058300010B50C464178032916D12179012913D8D6
:10584000D0F89C2021469047E18801430FD10949B7
:105850000020096888800849086848F6BF7210402F
:1058600080F03000086002E0002100F071F90020B3
:1058700010BD0000E8000020005C004050F8881FC8
:105880000978118000687047002100F061B90000BC
:1058900010B5CC0901F07F0303EB830100EB81011C
:1058A0004FEA8300174B48F68F721844D0F8003C3B
:1058B00011D010315B0606D5D0F8003C134043F000
:1058C0004002C0F8002CD0F8002C48F6BF731A40F4
:1058D00082F0300210E04C315B0406D5D0F8003C79
:1058E000134043F48042C0F8002CD0F8002C4BF653
:1058F0008F731A4082F44052C0F8002C00200870C8
:1059000010BD000000500040084B10B503EB4103F0
:105910000021521C05E000BF33F8044B20F8024B75
:10592000491CB1EB520FF7D310BD000000600040DE
:10593000074B10B503EB41030021521C04E000BFEC
:1059400030F8024B491C10C3B1EB520FF8D310BD15
:1059500000600040CB094FEA4160134948F68F725E
:1059600001EBD050D0F8001C0DD0490606D5D0F878
:10597000001C114041F04001C0F8001CD0F8001C90
:1059800048F6BF720CE0490406D5D0F8001C11405F
:1059900041F48041C0F8001CD0F8001C4BF68F7217
:1059A0001140C0F8001C7047005000402DE9F04F36
:1059B0009378002403F00F06D37813F0030306D086
:1059C000012B0AD0022B0AD0032B08D102E04FF49E
:1059D000007404E04FF4C06401E04FF480644E4B67
:1059E000344303EB8603C3F8004C947895885FEA50
:1059F000D4184A4C48F68F7948F6BF774BF68F7C1F
:105A000032D006EB860200EB82004561A268A088D6
:105A100002EB06166D1C3080626825F0010002441E
:105A20006260012917D1D3F8001C41F4807101EAAA
:105A30000901C3F8001C3281616808446060D3F832
:105A4000000C384080F03000C3F8000CD3F8000C94
:105A500000EA0C0004E0D3F8000C384080F020008D
:105A6000C3F8000CBDE8F08F06EB860800EB880059
:105A70004FF0FF3A4FF6FF7B056501292AD1D3F895
:105A8000000C40F4807808EA0908C3F8008CD3F8C9
:105A9000008C08EA090848F04000C3F8000CD4F86C
:105AA0000880A08808EB06183E2DA8F8000007D94A
:105AB0001F3525F01F000AEB401545F4004504E0B2
:105AC0006D1C25F001000BEA4025A8F8045065681C
:105AD000284460609088A268A58802EB06123E28E0
