:020000040800F2
:10000000A84C002049010008CB2B0008B51D0008B2
:10001000C92B0008A50E0008352F000800000000BD
:10002000000000000000000000000000E12E0008B9
:10003000D30E000800000000CD2B0008610100086D
:100040006301000863010008630100086301000800
:1000500063010008630100086301000863010008F0
:1000600063010008630100086301000863010008E0
:1000700063010008630100086301000863010008D0
:1000800063010008630100086301000863010008C0
:10009000312F0008630100086301000863010008B4
:1000A00063010008630100086301000863010008A0
:1000B0006301000863010008630100086301000890
:1000C0006301000863010008630100086301000880
:1000D0006301000863010008630100086301000870
:1000E0006301000863010008630100086301000860
:1000F0006301000863010008630100086301000850
:10010000630100086301000863010008630100083F
:10011000630100086301000863010008630100082F
:10012000630100086301000863010008630100081F
:10013000DFF810D000F050FC00480047B141000843
:10014000AFF30080A84C00200648804706480047CF
:10015000FEE7FEE7FEE7FEE7FEE7FEE7FEE7FEE777
:10016000FEE7FEE7E52E000831010008D2B201E00B
:1001700000F8012B491EFBD270470022F6E710B5AC
:1001800013460A4604461946FFF7F0FF204610BD05
:10019000F0B480EA0102D40F4200B2EB410F02D268
:1001A0000246084611464A0042D0C30DDDB2C1F3F3
:1001B000C752AD1A202D35DAC1F3160141F4000201
:1001C00004B15242C5F1200602FA06F12A41104458
:1001D000B3EBD05F23D0C4B1012DA0EBC35009DC39
:1001E000F0BC4FF0004202EAC352DBB200F500005F
:1001F00000F0E6BA400000F1807000EBC350A0F1BF
:10020000807040EAD170490009E0490841EAC071B4
:10021000A0EBC35000F50000400800EBC350F0BC59
:1002200000F0C5BA6142012202EB4101001BF6E772
:10023000F0BC704781F00041AAE780F00040A7E7DA
:1002400080EA010210B502F00043400022D04A00CB
:100250001FD0010E01EB1261C0F35600C2F356022B
:1002600040F4000042F40002A0FB022000047F39A9
:10027000140400D0401C50EA124001D44000491E32
:10028000C2B20C0604EBD010401C4008802A02D0F9
:1002900003E0002010BD20F00100002900DA00205A
:1002A000184310BD30B480EA010202F0004530F07E
:1002B000004221F0004013D090B1C30DD40DC2F321
:1002C0001601C0F31600E41A41F4000140F40002E4
:1002D0007D34914201D3641C00E04900002C02DA15
:1002E00030BC002070474FF400000023914201D33E
:1002F000891A034340084FEA4101F7D151B19142B5
:1003000002D14FF0004105E002D24FF0010101E0BF
:100310006FF0010103EBC450284430BC00F047BA31
:10032000420005D0C0F3C7525242914201DC002086
:10033000704700EBC15070472DE9FE4F804681EABF
:100340000300C00F0C46009021F0004123F000454F
:10035000B8EB0200A94105D24046214690461C4612
:100360000B46024623F00040104347D0270DC7F349
:100370000A00C3F30A510290401A019040286BDA38
:10038000C3F3130040F4801B0098924620B1002371
:10039000D2EB030A63EB0B0B01985946C0F1400204
:1003A000504600F0E3F906460D4650465946019A7C
:1003B00000F0EBF910EB08006141002487EA1152CC
:1003C00084EAE7731A4340D0009A62B3019A012A83
:1003D0004FEA075215DC001B61EB02014FF00042AF
:1003E00002EA0752CDE90042001C41F58011324675
:1003F0002B4600F022FA03B0BDE8F08F40462146BC
:10040000F9E7001B61EB0201001C41F580130018A5
:100410005B412018A2F5001747EB030140EAD570B5
:10042000B6196D4111E06D084FEA360645EAC07510
:100430004FEA0752001B61EB0201001C41F58011DD
:1004400049084FEA30000019514132462B4603B0AB
:10045000BDE8F04F00F0E2B900980122400000230F
:10046000D0EB020263EBE073009821464FEAE074A0
:10047000B8EB000061EB0401E9E783F000435BE7C0
:1004800081F0004158E72DE9FE4F81EA030404F0B2
:10049000004421F0004100944FF0000B23F0004392
:1004A00050EA01045ED052EA03045BD0C3F30A545D
:1004B000C1F30A552C44A4F2F3340194A0FB025476
:1004C000C1F3130141F48011C3F3130343F4801308
:1004D00001FB024400FB034E840A970A44EA81545C
:1004E00047EA8357A4FB076802958D0A05FB078539
:1004F0004FEA932C04FB0C542705029D4FEA065843
:1005000047EA1637B5EB08056EEB070C870E920E1F
:1005100047EA811742EA8312A7FB0201B6EB0B01FF
:1005200064EB00042B0D43EA0C335E1844EB1C50C3
:10053000DA465146E7FB0201C5F313044FEA0B33D9
:1005400043EA14534FEA0432019C43EA0603A4F140
:100550000C040294009CCDE900B400F06EF903B0E5
:10056000BDE8F08F00200146F9E72DE9F04D81EA62
:10057000030404F0004B21F0004514464FF0000A3C
:1005800023F0004150EA050220D054EA01021DD0B8
:10059000C5F30A570246C5F31303C1F31300C1F3B1
:1005A0000A5640F4801543F48013A7EB0608101B8D
:1005B000D64608F2FD3873EB050002D308F10108B6
:1005C00001E092185B41B8F1000F03DA0020014608
:1005D000BDE8F08D00204FF48011064684460EE001
:1005E000171B73EB050705D3121B63EB05030643CB
:1005F0004CEA010C49084FEA300092185B4150EA7E
:100600000107EDD152EA030012D082EA040083EA26
:100610000501084305D0101BAB4106D2012200237F
:1006200006E000224FF0004302E06FF00102531099
:100630001AEB06004CEB085110EB0A0041EB0B01E2
:10064000BDE8F04D00F0EAB8C10F80EAE070084460
:10065000CA079623002100F0B3B896230022114662
:1006600000F0AEB80EB5C10F80EAE0700844CA07CA
:10067000002140F233438DE80E000A460B4600F09D
:10068000DCF803B000BD0EB540F233410291002109
:10069000CDE900110A460B4600F0CFF803B000BDCB
:1006A00000F0004220F00040C10DC0F3160040F4FD
:1006B00000007F2901DA00207047962903DCC1F190
:1006C0009601C84001E096398840002AF4D04042A3
:1006D000704720F00040C10DC0F3160040F4000048
:1006E0007F2901DA00207047962903DCC1F19601C9
:1006F000C840704796398840704700F0004230F09B
:1007000000400AD0C10D01F56071C0F3160042EA45
:100710000151C2084007114370470020014670474D
:1007200001F0004330B421F0004150EA010206D04C
:100730000A0DA2F56072C1F31301002A02DC30BC7D
:1007400000207047440F44EAC104C100E01830BCE7
:1007500000EBC25000F02BB8002801DBC0F10040D4
:10076000002901DBC1F1004188427047202A04DBE7
:10077000203A00FA02F1002070479140C2F12003B4
:1007800020FA03F3194390407047202A06DBCB1769
:10079000203A41FA02F043EAE07306E041FA02F33C
:1007A000D040C2F120029140084319467047002909
:1007B000A8BF7047401C490008BF20F001007047E7
:1007C00010B4B0FA80FC00FA0CF050EA010404BF47
:1007D00010BC704749B1CCF1200421FA04F411FA9D
:1007E0000CF118BF012121430843A3EB0C01CB1DE1
:1007F0004FEA00614FEA102042BF002010BC704752
:1008000000EBC35010440029A4BF10BC7047401C2B
:10081000490008BF20F0010010BC704710B5141E3D
:1008200073F1000408DA401C41F1000192185B41A9
:100830001A4301D120F0010010BD2DE9F04D924680
:100840009B4611B1B1FA81F202E0B0FA80F2203297
:100850009046FFF78BFF04460F4640EA0A0041EA44
:100860000B0153465A46084313D0114653EA010080
:1008700019D0C8F14002504600F0C0F805460E46B7
:10088000504659464246FFF771FF084305D0012004
:1008900004E020463946BDE8F08D0020054346EAD5
:1008A000E0762C4337430A986305E40AA0EB08007E
:1008B0000022FD0A44EA47540A3002D500200146CE
:1008C000E9E7010510196941DDE9084500196941A9
:1008D000BDE8F04DA2E770B521F0004303430CD012
:1008E000C1F30A550024D5EB040564EB0403D617C5
:1008F000AD1AB34102DB0020014670BD201841EB68
:10090000025170BD2DE9F04D00231A461B1A8A4191
:1009100003DB00200146BDE8F08DC1F30A52C1F3AC
:10092000130141F480154FF0000BD10702D10018DC
:100930006D41521E0027044640F2FF11384601EB7C
:10094000620A3E468046024600204FF4801100F0C5
:1009500055F8C2197141BB1846EB0100B4EB030C0A
:1009600075EB000C04D3E41A65EB000517460E4640
:10097000241908F101006D4180463428E3DDF9199E
:1009800046EB0600091BA84103D24FF0FF32134685
:1009900001E0002213461BEB070046EB0A51BDE8BD
:1009A000F04DFFF73BBF000030B5041E71F10004AD
:1009B00004DB4FF00044404264EB0101141E73F16C
:1009C000000405DB1C464FF00043524263EB040376
:1009D000994208BF904230BD064C074D06E0E068E2
:1009E00040F0010394E8070098471034AC42F6D376
:1009F000FFF7A2FB2875000848750008202A04DBD1
:100A0000203A21FA02F00021704721FA02F3D04087
:100A1000C2F12002914008431946704770B58C1806
:100A200010F8015B15F0070301D110F8013B2A1102
:100A300006D110F8012B03E010F8016B01F8016BEF
:100A40005B1EF9D12B0705D40023521E0DD401F8EB
:100A5000013BFAE710F8013BCB1A921C03E013F8B4
:100A6000015B01F8015B521EF9D5A142D8D30020E9
:100A700070BD000010B588B040F2026004F040FD87
:100A800040F2096004F03CFD4FF4A06004F038FD32
:100A9000032004F003FD03231A460021354803F028
:100AA00015F8354C0021204602F0DEFC33480021C9
:100AB00000908DF8181001208DF819004002019067
:100AC00080000390022004902D4A000302920590BA
:100AD0008DF81A106A46204602F0E1FC00212046FB
:100AE00002F0B2FC0021204602F09EFC234C4C3C5C
:100AF000204602F0F9FA002002F04CFB012202210C
:100B0000204602F09FFB01221102204602F09AFBD0
:100B10000021204602F0DEFA02220121204602F0E6
:100B2000BEFA002205231146204602F03FFB0122B7
:100B300005231146204602F039FB4FF460220121C3
:100B4000204602F017FB01221146204602F0F7FA78
:100B5000204602F0ECFA012002F01CFC204602F0D4
:100B60008FFA204602F0DEFA0121204602F05DFBFA
:100B700008B010BD00080140000002404C240140B4
:100B8000C4000020F0B5094F059E0BE0044601EBC0
:100B9000810504E004EB851C641C07F80C6094429A
:100BA000F8D9491C9942F1D9F0BD0000C8010020D4
:100BB0002DE9F8439846089D14008946064605D558
:100BC00054422D22009500F061F808360A27642C63
:100BD00025DB642094FBF0F03030C2B24346494636
:100BE0003046009500F052F894FBF7F090FBF7F1D7
:100BF00007FB11003030C2B24346494606F10800F7
:100C0000009500F043F894FBF7F007FB10403030FC
:100C1000C2B24346494606F1100000951DE00A2C79
:100C200015DB94FBF7F03030C2B2434649463046FC
:100C3000009500F02BF894FBF7F007FB10403030E4
:100C4000C2B24346494606F10800009505E030343B
:100C5000E2B2434649463046009500F017F8BDE839
:100C6000F8832DE9F8411F46144688460546079E3D
:100C700007E03B4641462846009600F007F8641C12
:100C800008352278002AF4D1BDE8F8812DE9F04F2B
:100C9000203AD5B2DDF824C0324A8027324EDCB289
:100CA000BCF1000F09D0BCF1010F23D0C1F1060344
:100CB0009346B946C1F1100A50E000239246B94666
:100CC00003EB05121AF8028000225F1807EB870772
:100CD00000EB871C29FA02F737EA080702D10CEB70
:100CE0000207F455521C082AF4D35B1C082BE7D3E7
:100CF000BDE8F08F08239246B94603EB05125F1852
:100D00001AF802800022083F07EB870700EB871CD8
:100D100029FA02F737EA080702D10CEB0207F4556B
:100D2000521C082AF4D35B1C102BE6D3E0E703EB3C
:100D300005125F181BF802800022BF1F07EB870710
:100D400000EB871C29FA02F737EA080702D10CEBFF
:100D50000207F455521C082AF4D35B1C9A45E6D8C6
:100D6000C6E70000C46D0008C80100202DE9F84F57
:100D70009A46DDE90A4715008B46064607D55042DC
:100D800005B22D2230460094FFF780FF08364FF45D
:100D90007A704FF064094FF00A08854220DB95FB1A
:100DA000F0F03030C2B25346594630460094FFF757
:100DB0006DFF95FBF9F0474690FBF7F108FB11003A
:100DC0003030C2B208365346594630460094FFF7D9
:100DD0005DFF95FBF9F109FB115090FBF7F014E072
:100DE000642D2BDB07B1083695FBF9F03030C2B229
:100DF0005346594630460094FFF748FF474695FB57
:100E0000F7F090FBF7F108FB11003030C2B2534607
:100E10005946083600943046FFF738FF08365346E7
:100E20002E22594630460094FFF730FF95FBF7F02D
:100E300007FB10503030C2B2009420E00A2D0ADBCC
:100E400007B11036474695FBF7F03030C2B2534633
:100E500059460094DFE707B1183653463022594609
:100E600030460094FFF712FF083653462E225946AB
:100E700030460094FFF70AFF3035EAB20094083696
:100E8000534659463046FFF701FF06F10800534626
:100E900003A259460094FFF7E4FEBDE8F88F000076
:100EA00027430000FEE7411A01F121026FF005001F
:100EB000032A06D34A1C032A03D31F39032900D36C
:100EC00000207047007D10F0400001D06FF0060058
:100ED00070477047F8B5FE25062209230121104608
:100EE0000095FFF74FFE18220923012110460095B7
:100EF000FFF748FE01231822194606200095FFF748
:100F000041FE09231822194606200095FFF73AFEF4
:100F100004210623052208460095FFF733FE40F61C
:100F2000255440F612664FF400511A4802F016FE9E
:100F300058B31948008880B2A04201D2204602E08E
:100F4000B04200D93046A0F6255000EB0010ED214C
:100F500090FBF1F00404240C09D0FF200090C4F1B0
:100F6000180080B2082317220221FFF70BFEC4F1FC
:100F700011000004000C07D0801D82B208230095E8
:100F800002210720FFF7FEFDF8BD9020082317225D
:100F90000090F5E700100140C40000202DE9FC5F3F
:100FA0004FF0E02000268661FE4F40F64850DFF803
:100FB000F8937E80B88030464FF4407239F81010B4
:100FC0007B88994201D979800546BB88994201D234
:100FD000B9800446401C80B29042EFD3F3486FF0D2
:100FE0002702B0F90000904204DBF149B1F900108A
:100FF000914203DAB888388178880CE0283000EB19
:1010000080024FF6FF7000EA4202283101EB8101B5
:101010003A8100EA4100F880398980B2401A4CF2E6
:10102000A85191FBF0F078810021EF2340F23F12AC
:10103000084601F06FF8DF49042008600820091D08
:10104000086000220921104602F072FAFFF742FF01
:10105000D94B03224FF01E0C02EB82000CEB8010E8
:1010600081B200205854491C401C80B289B2FE282D
:10107000F8D3521C92B2082AEED902200090CF4831
:1010800040F21F1BFE230268CD4801785846FFF747
:10109000E8FD0A2005F040FA002213210A2002F0A0
:1010A00047FA009601963889FE23A0F5C87002B26F
:1010B000B84602211E20FFF759FE0127CDE900673F
:1010C000B8F80600FE23A0F5C87002B20221E420A1
:1010D000FFF74CFEDFF8ECA20096FE2302215846F3
:1010E000DAF80020FFF7BDFD0A2005F015FA00220E
:1010F0001D21142002F01CFACDE90076B8F8080092
:10110000FE23A0F5C87002B200211E20FFF72EFEBC
:1011100000970197B8F80600FE23A0F5C87002B248
:101120000021E420FFF722FE0097FE23002158460D
:10113000DAF80020FFF795FD0A2005F0EDF901220D
:1011400073211E2002F0F4F900227D21742002F0A8
:10115000EFF94FF0FF0A0523A42219469C20CDF891
:1011600000A0FFF70FFDA022092301211046CDF8B2
:1011700000A0FFF707FD0A2005F0CEF90122DB21D0
:101180007E2002F0D5F90022E521DC2002F0D0F922
:10119000FE238DA2022104200096FFF762FDDFF8F6
:1011A00034B28B49DBF80000FFF74AF8FFF778FA12
:1011B0000246FE23022124200096FFF7F9FCFE23BD
:1011C00085A202213C200096FFF74BFD0096FE23EE
:1011D000B8F9002002216420FFF7EAFCFE2380A278
:1011E000022178200096FFF73CFDFE237DA202211C
:1011F000BE200096FFF735FD7B480096FE23B0F930
:1012000000200221CA20FFF7D3FCFE2374A2022192
:10121000E1200096FFF725FD00960196B9F8E0025F
:10122000FE23A0F5C87002B202218C20FFF79EFDBC
:10123000FE236EA20221F0200096FFF712FDDFF8D8
:10124000B4A16B49DAF80000FEF7FAFFFFF728FABD
:1012500002B20096FE2302214FF484700196FFF73C
:1012600085FD0A2005F058F90022EF21E62002F062
:101270005FF9FE2354A2002104200097FFF7F1FC40
:101280005349DBF80000FEF7DBFFFFF709FA0246DF
:10129000FE23002124200097FFF78AFCFE234EA2A4
:1012A00000213C200097FFF7DCFC0097FE23B8F9F3
:1012B000002000216420FFF77BFCFE2348A20021D0
:1012C00078200097FFF7CDFCFE2346A20021BE2028
:1012D0000097FFF7C6FC44480097FE23B0F90020B2
:1012E0000021CA20FFF764FCFE233DA20021E1207B
:1012F0000097FFF7B6FCCDE90076B9F8E002FE23CF
:10130000A0F5C87002B200218C20FFF72FFDFE234C
:1013100036A20021F0200097FFF7A3FC3449DAF849
:101320000000FEF78DFFFFF7BBF9CDE9007602B2B2
:10133000FE2300214FF48470FFF718FD0A2005F00A
:10134000EBF8B8F80210B8F80600DFF8AC9081426C
:1013500009F1200A1CD11F2D1AD905F01F014FF6E3
:101360001F0719F8010046000AEB5510F21D00781E
:1013700000974500F01F2B4680B2194600F09CFEF6
:10138000EB1DED1F3246A9B21046009700F094FE07
:10139000B8F80400B8F808104646884249D11F2C16
:1013A00047D92BE0CC000020C81100200600002007
:1013B0000800002010080140C8010020140000208F
:1013C0000400002018000020653D302E00000000C1
:1013D0000000C84210000020647261773A000000EB
:1013E0006D730000733A00000A00002054613A0057
:1013F000000020411C000020B473000804F01F010D
:101400004FF4FC6719F8010045000AEB5410EA1D7F
:10141000007800974400E81F234680B2194600F088
:101420004BFEE31DE41F2A46A1B21046009700F0D0
:1014300043FE4FF0E02080696FF07F41081A42F6CA
:101440007061B0FBF1F03080BDE8FC9F2DE9F34FF7
:101450000746B0F840001E21BDB000F00F03C0F3F6
:10146000031AC0F3032B01EB1038B7F842003B908E
:10147000002020AA07EB40018400B1F84410401C72
:1014800001F00F0542F8245002EB8404C1F3031568
:101490006560C1F30325090BC4E902510628E9DBA5
:1014A000002052F82010072902DD103942F82010E0
:1014B000401C1828F5DB00206D4607EB4001840036
:1014C000B1F85010401C01F00F0645F8246005EB00
:1014D0008404C1F303166660C1F30326090BC4E953
:1014E00002610828E9DB002055F82010072902DDF9
:1014F000103945F82010401C2028F5DB012000267B
:101500009840FFF7A1F83A904046FFF7BCF8CDE9C4
:101510003801002505EB461407EB4400B0F88000C5
:10152000C0F30510FFF799F83E9901EB84041E49BA
:101530006064884204DD4FF08541FEF77BFE606405
:101540003A98616CFEF77CFE804620A83B9950F8E3
:10155000260000FA0BF042185DF8250000FA0AF0A8
:101560001044FFF771F84146FEF712FE6064DDE9B2
:1015700038210B4600204FF0804103F0A3F980464C
:101580008946606CFFF7B9F842464B46FEF7EDFF1F
:10159000FFF7C6F86D1C6064202DBBDB761C182E8F
:1015A000B7DB3FB0BDE8F08F0000F8412DE9F04710
:1015B0000D46818A8022B0F86A4002EA111181F05A
:1015C000800604F03F00FFF748F81A49884203DD1F
:1015D0004FF08541FEF72EFE6FF00301FEF7A0FEEF
:1015E0008046C4F38410FFF738F8134F4FF0844A55
:1015F000B84202DD5146FEF71DFE4FF0FF31FEF707
:101600008FFE8146E00AFFF728F8B84202DD514616
:10161000FEF710FE6FF00201FEF782FE85F82560EE
:1016200005F50055C5F8549AC5F8508AC5F8580A0A
:10163000BDE8F0870000F841000070412DE9F05F3F
:1016400004460F46B0F840001B2101EB1038B4F8F7
:101650007410C1F3090060F30F05B0F5007F03DBE0
:10166000A0F5806060F30F05880A60F31F451F280E
:1016700002DD403860F31F4505EB254060F31F4550
:10168000B4F87200C0F30900FEF7E7FF49490646C7
:10169000884204DD4FF08941FEF7CCFD0646404606
:1016A000FEF7F1FF02460B4600204FF0804103F0A9
:1016B00009F9804689463046FFF71FF842464B46F7
:1016C000FEF753FFFFF72CF88046B4F87200800A4B
:1016D000FEF7C3FF3849884203DD4FF08541FEF72E
:1016E000A9FD6FF00601FEF71BFE4FF07E51FEF7DD
:1016F0004FFD4146FEF7A4FD834694F87600FEF7C1
:10170000ACFF06462D48864205DD4FF08741304646
:10171000FEF790FD064694F87000C0F30310083001
:10172000FEF7B1FF02460B4600204FF0804103F068
:10173000C9F881468A463046FEF7DFFF4A465346DF
:10174000FEF713FFFEF7ECFF3862B4F87600000AEC
:10175000FEF783FF19490646884204DD4FF08741B2
:10176000FEF768FD0646B4F87000C0F30320FEF7EC
:101770008AFF02460B4600204FF0804103F0A2F89A
:10178000044689463046FEF7B8FF4B462246FEF730
:10179000ECFEFEF7C5FFF86107F500572814C7F8FF
:1017A00048BAC7F8448AA7F84C5AA7F84E0ABDE8C9
:1017B000F09F00000080FF430000F8410000FE425F
:1017C0002DE9F0410B46002106460D460C46084621
:1017D0004FF6FF7703EB410202F50052491CA2F8D5
:1017E0005C7A89B2A2F8667A0529F3D300214FF416
:1017F000407712E006EB4102B2F88020BAB1D2077E
:1018000007D003EB440202F50052641CA2F8661AEA
:10181000A4B2491C89B2B94203D2052D01D2052CCC
:10182000E8D3042D0CD96FF00200BDE8F08103EB82
:10183000450202F500526D1CA2F85C1AADB2E8E751
:10184000042C02D96FF00300EFE72919042902D90B
:101850006FF00400E9E7002716E003EB47017E1C68
:1018600001F500580CE003EB460000F50050B0F81D
:101870005C1AB8F85C0AFFF716FB0028D5D1761C75
:10188000AE42F0DB7F1CBFB2AF42E6D3002716E0CA
:1018900003EB47017E1C01F500580CE003EB46000A
:1018A00000F50050B0F8661AB8F8660AFFF7FBFAC0
:1018B0000028BAD1761CA642F0DB7F1CBFB2A7423B
:1018C000E6D3002716E003EB4701002601F5005898
:1018D0000CE003EB460000F50050B0F8661AB8F8CB
:1018E0005C0AFFF7E0FA00289FD1761CA642F0DBE5
:1018F0007F1CBFB2AF42E6D397E7B0F96000B0F506
:10190000004F00DB00B288827047000010B5B0F8CD
:1019100078000C46000AFEF7A0FE0649884203DD67
:101920004FF08741FEF786FC6FF00C01FEF7F8FCE4
:10193000A06210BD0000FE422DE9F04705460C46AE
:1019400035F87E0F6FF02701A1870021E18715F898
:101950000419C0F30130C1F3031124F8401F00EB58
:1019600080004000AA884143C2F3032224F81419DE
:1019700002FB0010E0822879012600F00F000830F9
:1019800086402878FEF769FE20602888000AFEF766
:1019900064FE6060A878FEF760FEA0606888000AB8
:1019A000FEF75BFEE06000250D4F4FF087493046A3
:1019B0002C3CFEF749FE804604EB8506F06AB842EF
:1019C00003DD4946FEF736FCF0624146F06AFEF759
:1019D00069FC6D1CF062042DEEDBBDE8F0870000B1
:1019E0000000FE422DE9F34FB0F86C10074641F3BA
:1019F000072085B07F2800DD40B28DF8000048B296
:101A00007F2800DD40B28DF80200B7F86E1041F378
:101A100007207F2800DD40B28DF8010048B27F2802
:101A200000DD40B28DF8030097F870000026C0F387
:101A3000031400F00F0101208840DFF8CCA0EB4632
:101A40000834FEF701FE03902046FEF71CFECDE9A8
:101A50000110002505EB4614E01704EBD06104EB00
:101A6000906080114911404201EB400004EBD471B9
:101A700021F00101611A01EB400000F0FF0907EBC2
:101A8000440090F88000C0F34200FEF7E6FD06999E
:101A9000504501EB840404F58054C4F8440205DD8C
:101AA0004FF08241FEF7C6FBC4F84402D4F844125A
:101AB000039804F51174FEF7C3FB80461BF9090077
:101AC000FEF7C2FD4146FEF763FB2060DDE9013110
:101AD0000A4600204FF0804102F0F4FE804689461D
:101AE0002068FEF70AFE42464B46FEF73EFDFEF733
:101AF00017FE6D1C2060202DACDB761C182EA8DB99
:101B000007B0BDE8F08F0000000040402DE9FE4F17
:101B1000B0F868208A46110B072900DD10398DF8CE
:101B20000010C2F30321072900DD10398DF80210DF
:101B3000C2F30311072900DD10398DF8011002F0FE
:101B40000F01072900DD10398DF80310B0F870007F
:101B50000026C0F30320E946FEF795FDCDE901100C
:101B60004FF0804B002505EB4614E01704EBD061E5
:101B700004EB906080114911404201EB400004EBFE
:101B8000D47121F00101611A01EB4000C0B219F9D2
:101B90000000FEF759FD0AEB8404A4F5DE7404F599
:101BA00000542060DDE901310A460020594602F068
:101BB00089FE074688462068FEF79FFD3A46434661
:101BC000FEF7D3FCFEF7ACFD6D1C2060202DCADBB8
:101BD000761C182EC6DBBDE8FE8F2DE9F04F8B4634
:101BE000018CB0F92230B8B001F00F08C1F3031630
:101BF000C1F3032AB3F5004F00DB1BB2002120AD77
:101C000000EB41028C00928C491C02F00F0745F852
:101C1000247005EB8404C2F303176760C2F3032743
:101C2000120BC4E902720629EADB002155F82120D3
:101C3000072A02DD103A45F82120491C1829F5DB56
:101C40000021EC4600EB41028C00128E491C02F090
:101C50000F074CF824700CEB8404C2F30317676081
:101C6000C2F30327120BC4E902720829EADB002140
:101C70005CF82120072A02DD103A4CF82120491C8B
:101C80002029F5DB0022AE46E1465EF822700021F5
:101C900007FA0AF701EB421400EB44050BEB44048E
:101CA000B5F88050AD0AA4F8445C1F2D02DD403D1C
:101CB000A4F8445C39F821C0ADB205FA08F50CFA75
:101CC00006FCBC441D446544491CA4F8445C20291E
:101CD000E0DB521C182AD8DB38B0BDE8F08F0000DA
:101CE0002DE9F041B0F8646005460C46B00AFEF7F5
:101CF000B4FC1949884203DD4FF08541FEF79AFA9A
:101D00006FF00B01FEF70CFB8046C6F30900FEF7EF
:101D1000A4FC1249884203DD4FF08941FEF78AFA9C
:101D20006FF00201FEF7FCFA0746288CB5F86260F6
:101D300000F47040FEF7A7FC0022094BFEF715FCEB
:101D40000022084BFEF7F8FAFEF7EAFCC4E9018727
:101D5000A6812061BDE8F0810000F8410080FF43CA
:101D60000000D0400000204010B50C4690F87800EC
:101D7000FEF773FC0649884203DD4FF08741FEF70A
:101D800059FA6FF00401FEF7CBFAA06110BD000014
:101D90000000FE42B0F86620100A7F2801DDA0F5A1
:101DA00080704001D2B24FF4404303EB42120880EE
:101DB0004A807047FEE700002DE9F05F8A468046C2
:101DC00000254FF4004B3BE0012001F0B4F8DFF8B0
:101DD00078905F465946484601F076FEBB4600249F
:101DE0004F4626464FF40079012001F0A4F84946F9
:101DF000384601F069FE012001F09DF86006040EEE
:101E00005946384601F0AAFE08B1641CE4B201202C
:101E100001F091F84946384601F054FE012001F0E6
:101E20008AF8761C082EDFDBA8F10100854202D17A
:101E300000F0BCF801E000F05FF80AF805406D1C06
:101E40004545C1DBBDE8F09F000801402DE9F041A8
:101E5000134D4FF400463146284601F035FE01206F
:101E600001F069F86F153946284601F02DFE012072
:101E700001F061F83146284601F070FE70B101248E
:101E8000012001F058F83946284601F01BFE314682
:101E9000284601F017FE2046BDE8F0810024EFE758
:101EA0000008014070B5134D4FF4007421462846D8
:101EB00001F008FE012001F03EF8A6013146284657
:101EC00001F002FE012001F036F82146284601F01B
:101ED000FBFD012001F02FF83146284601F0F2FD0C
:101EE000012001F028F821462846BDE8704001F0A5
:101EF000E9BD00000008014070B5114D4FF40044E9
:101F00002146284601F0DEFD012001F014F8A6115B
:101F10003146284601F0D8FD012001F00CF80120DF
:101F200001F009F83146284601F0CCFD012001F00E
:101F300002F821462846BDE8704001F0C5BD00000A
:101F4000000801402DE9F041174F002504464FF4E9
:101F500000487E15012000F0EEFF2006414638467D
:101F600002D501F0B1FD01E001F0ACFD012000F06F
:101F7000E2FF3146384601F0A7FD012000F0DBFF0B
:101F8000012000F0D8FF3146384601F09BFD60008B
:101F90006D1C44B2082DDDDB012000F0CCFFBDE854
:101FA000F041FFF753BF00000008014070B5114D2C
:101FB0004FF400442146284601F086FD012000F040
:101FC000BAFFA6113146284601F07EFD012000F03F
:101FD000B2FF012000F0AFFF3146284601F072FD4C
:101FE000012000F0A8FF21462846BDE8704001F01E
:101FF0006BBD00000008014070B5114D4FF4004466
:102000002146284601F060FDA6113146284601F020
:102010005BFD012000F08FFF012000F08CFF2146C6
:10202000284601F04FFD012000F085FF314628468B
:1020300001F048FDBDE87040012000F07CBF0000C9
:102040000008014070B50F4D4FF40074214628463A
:1020500001F038FDA6013146284601F033FD01208C
:1020600000F069FF2146284601F02EFD012000F016
:1020700062FF3146284601F027FDBDE8704001208F
:1020800000F059BF00080140084908220A600423F3
:102090000B600749D3020B61064B186010034861BF
:1020A00008610248001F02607047000014080140E8
:1020B000001001400C0C01402DE9FF4F91460C46E9
:1020C0008346DDF834A0039B00F024F80E4D08266B
:1020D0004FF0040C05F104080C4A31030C4B0EE0E0
:1020E000584609E0C5F800C0C8F80060C2F800A072
:1020F000596119612E60401C4845F3D9641C03984E
:102100008442EDD9BDE8FF8F100801400C0C01405E
:10211000001001402DE9FF4F83462A20FFF7B4FF4E
:10212000354C4FF00408C4F8008004F10409082578
:10213000C9F80050DFF8C4A04FEA1B21CAF800100C
:102140002F4F2E037E613E612560C4F80080C9F8E0
:1021500000500BF0FF01CAF800107E613E6125605F
:10216000C4F80080C9F800500298010ACAF80010AB
:102170007E613E612560C4F80080C9F80050029875
:10218000C1B2CAF800107E613E6125602B20FFF7C6
:102190007BFFC4F80080C9F800500198010ACAF812
:1021A00000107E613E612560C4F80080C9F80050CF
:1021B0000198C1B2CAF800107E613E612560C4F882
:1021C0000080C9F800500398010ACAF800107E6127
:1021D0003E612560C4F80080C9F800500398C1B280
:1021E000CAF800107E613E61256004B02C20BDE875
:1021F000F04FFFF749BF0000100801400C0C0140F0
:10220000001001402DE9F04F3620FFF73DFF364C1E
:102210004FF00408C4F8008004F104090825C9F847
:102220000050DFF8C8A06821CAF80010304F2E0314
:102230007E613E6125602A20FFF726FFC4F80080FA
:10224000C9F800504FF0000BCAF800B07E613E6143
:102250002560C4F80080C9F80050CAF800B07E615B
:102260003E612560C4F80080C9F800500121CAF819
:1022700000107E613E612560C4F80080C9F80050FE
:102280003F21CAF800107E613E6125602B20FFF7D8
:10229000FBFEC4F80080C9F80050CAF800B07E61A7
:1022A0003E612560C4F80080C9F80050CAF800B04B
:1022B0007E613E612560C4F80080C9F80050CAF80C
:1022C00000B07E613E612560C4F80080C9F800500E
:1022D000EF21CAF800107E613E612560BDE8F04F35
:1022E0002C20FFF7D1BE0000100801400C0C01406B
:1022F000001001402DE9FF4F91B09A460C4606466A
:10230000B0F8829600F03EFB09902146304600F07E
:10231000DFFAFE4D06902946FDF73AFFFEF7EDF98C
:10232000DFF8EC830022434602F0CCFAFEF7F8F91E
:10233000074629465046FDF72BFFFEF7DEF900223F
:10234000434602F0BFFAFEF7EBF905463946FDF7C2
:1023500071FF1399FDF7A6FF2946FDF76EFF079061
:10236000EC49E06AFDF76CFF4FF07E5B5D46594635
:10237000FDF70EFF01462846FDF794FFCDE9020563
:10238000B4F940000746FEF75FF9616BFDF758FFAF
:102390002946FDF7FDFE0490B4F94200C01BFEF78C
:1023A00053F9A16BFDF74CFF2946FDF7F1FE0499A7
:1023B000FDF746FF0590B6F81406FEF74EF9DFF874
:1023C00058830546404504DD4FF08F41FDF732FF4D
:1023D0000546B4F91400FEF737F92946FDF762FF08
:1023E0000890B6F88006802101EA501AB6F8100667
:1023F000FEF733F90090B6F85006FEF72EF90025E7
:102400006F46019057F82500C349884205DD4FF01B
:102410008F41FDF70FFF47F825000899FDF710FFE2
:1024200047F825006D1C022DECDBBC490998FDF72F
:1024300001FF0A90E169FDF703FF4FF07E55294641
:10244000FDF7A6FE8346B6490698FDF7F3FE069013
:10245000216AFDF7F5FE2946FDF79AFE04F50058BE
:102460000546B8F94C0AFEF7EFF82946FDF7E8FEF5
:102470005946FDF7E5FE0099FDF7DFFE009094F860
:102480002510B8F94E0A514502D1FEF7DDF805E0F6
:10249000FEF7DAF8D8F8501AFDF77AFE2946FDF76C
:1024A000CFFE5946FDF7CCFE0199FDF7C6FE01901F
:1024B000069809900A980E90A56957F829102846A1
:1024C000FDF7BEFE0D9004EB890000F50050D0F83A
:1024D000441A2846FDF7B4FE0C90A06A0999FDF74E
:1024E000AFFE4FF07E552946FDF752FE0B9087490F
:1024F000206BFDF7A5FE2946FDF79FFE00250A90FB
:10250000EA1705EB926105EBD2608911401149424F
:1025100000EB4100AB1C4FEAE37C47B203EB9C733A
:10252000E81C4FEAE07C9B1000EB9C70691CA3EB5D
:10253000A000CB1701EB937100EBA10005EB9271AA
:10254000A0EBA1007A42012101EB4201484340B2D5
:102550000F90BAF1000F7CD005EBD57040104042CF
:1025600005EB4000784040B2B6F88216814271D146
:1025700036F81500FEF771F86749884203DD4FF021
:102580008F41FDF757FE0899FDF75AFE04EB850BC6
:1025900006900BF580501090D0F8440E0E99FDF780
:1025A0004FFE4FF07E51FDF7F3FD814610980999DB
:1025B000D0F84402FDF744FE4FF07E51FDF7E8FDF0
:1025C000109004EB4500B0F9440CFEF73DF810996B
:1025D000FDF736FE4946FDF733FE0699FDF72DFE61
:1025E00094F825108146514518D00F98FEF72CF825
:1025F000D8F8541AFDF724FE06904FF0FF3000EB98
:102600004700FEF721F8D8F8581AFDF719FE494699
:10261000FDF7BEFD0699FDF70DFE8146484613996C
:10262000FDF740FE0D99FDF705FE0690DBF844002E
:102630000C99FDF7FFFD0B99FDF702FE834601465D
:10264000FDF7FEFD5946FDF7FBFD07465846079985
:1026500001E030E08EE0FDF7F3FD0699FDF798FD0F
:102660003946FDF7EDFD00F00BFC00F009FC216B95
:10267000FDF7E6FD074658460A99FDF7E1FD3946A4
:10268000FDF786FD01460698FDF70CFE0799FDF75C
:102690007FFD00F0F5FB00F0F3FB1C49FDF7CAFDE0
:1026A0008146B4F93E00FDF7CFFF4946FEF754F8E6
:1026B00003D2002716E0384656E7B4F94000FDF78C
:1026C000C3FF4946FEF748F801D201270AE0B4F9F2
:1026D0004200FDF7B9FF4946FEF73EF801D2022756
:1026E00000E0032704EB4700B0F93C00FDF7ACFF26
:1026F0004946FDF7A2FD04EB8701C96AFDF7A0FD7D
:102700004FF07E51FDF744FD81460BE03393884343
:10271000000010400000204200FEFF4633335340CB
:102720000000C84102A850F827105846FDF788FD60
:102730004946FDF785FD01460698FDF7B3FD07996B
:10274000FDF726FD00F09CFB00F09AFBFDF7D5FF9E
:102750004FF066320B4BFDF790FEFDF7E1FF0A49A3
:10276000FDF76EFD0949FDF713FDFDF7B2FF1E9958
:1027700021F815006D1CB5F5407FFFF6C1AE15B010
:10278000BDE8F08F66127140000020410000C84390
:102790000B464FF450724FF4105100F061B970B510
:1027A0000C460546FEF78EFB00283BD12146284605
:1027B000FFF7F0FA21462846FFF792FA214628460D
:1027C000FFF79BF821462846FFF7CEFAB5F87000D0
:1027D0002146C0F3013084F824002846FFF796F81C
:1027E00021462846FFF7A8F821462846FEF72EFE88
:1027F00021462846FFF7F1F921462846FFF7F2F86F
:1028000021462846FFF782F921462846FEF716FFA3
:1028100021462846FEF7CAFE21462846BDE87040FC
:10282000FEF7CEBF70BD2DE9FC470D468146002462
:102830004FF400466B4601223146484600F010F93D
:1028400000282DD1BDF8000010F0080FF2D04FF491
:1028500050774FF48068052C1ED23022314648460E
:1028600000F05AF9411C1BD02B463A4641464846D7
:1028700000F0F6F8002813D16B4601223146484695
:1028800000F0EEF800280BD1BDF8000004F10104BF
:1028900010F0080FE4B2DED1042C03D96FF007006A
:1028A000BDE8FC8701AB012248F20D01484600F06B
:1028B000D7F8BDF80410A5F88016BDF80010002860
:1028C00001F00101A5F88216EAD10846E8E7000008
:1028D0002DE9F0470C46054600F054F88146B5F85E
:1028E0004006FDF7BAFE234F06464FF08F48B84228
:1028F00003DD4146FDF79EFC0646B5F80006FDF7F0
:10290000ACFE0546B84203DD4146FDF793FC0546A3
:1029100030462169FDF794FC2946FDF739FC014654
:102920003046FDF7BFFCFDF7E8FE0022124BFDF735
:10293000AAFDFDF7F5FE0546A089FDF78EFE0646C9
:102940000E494846FDF776FC6168FDF779FC4FF0CB
:102950007E51FDF71DFC01462846FDF7A3FC3146DC
:10296000FDF768FCA168FDF79DFCBDE8F047044950
:10297000FDF70EBC00FEFF4600001041333353400C
:102980000000C8412DE9F04106460D46B0F8540656
:10299000FDF763FE21490446884204DD4FF08F4174
:1029A000FDF748FC0446B6F88006C0F38120FDF729
:1029B00059FE02460B464FF080480020414601F088
:1029C00081FF06460F4695F82400FDF75CFE02469F
:1029D0000B460020414601F075FF32463B46FDF7AD
:1029E000C4FDFDF79DFE0646B5F90000FDF72CFE7F
:1029F0000746B5F90200FDF727FE05462146304699
:102A0000FDF71EFC2946FDF715FC3946FDF74AFC8B
:102A1000BDE8F0410249FDF7BBBB000000FEFF46E8
:102A20003333534070B50D4E4FF4007423460322E8
:102A30001021304601F04AF8A5012B46032210214F
:102A4000304601F043F82146304601F03DF8294672
:102A50003046BDE8704001F037B800000008014082
:102A60002DE9F043ADF2846D8946804600241D4671
:102A7000174626464FF4D0616846FDF77EFB4FEAC5
:102A800048604FEA10684FEA192060F3070669F3BF
:102A90000F26FFF7D7FA012000F04DFAFFF7ACFA46
:102AA000012000F048FA4FFA88F0FFF74BFA00B126
:102AB00001204FF0FF39A0B970B2FFF743FA00B11F
:102AC000012070B946F30720FFF73CFA00B101205E
:102AD00038B9FFF7E7F948F0010040B2FFF732FAE2
:102AE00020B148460DF2846DBDE8F0837800694658
:102AF000FFF762F9FFF7A6FA694608E060000A18D6
:102B0000085C5278641C02EB002025F8020BBC42E2
:102B1000F4DB0020E6E700002DE9F84380460020C2
:102B20000090080A8DF800008DF80110100A8DF849
:102B3000020015460E464FEA48048DF80320FFF7C1
:102B400081FA012000F0F7F9FFF756FA60B2FFF7BB
:102B5000F9F910B10120BDE8F88300246F46385719
:102B6000FFF7F0F910B14FF0FF30F4E7641C042CCC
:102B7000F5DBFFF767FA074B012231464046FFF7C6
:102B80006FFF04480088A84202D06FF00100E2E71E
:102B90000020E0E7D8000020F8B506464807840D7D
:102BA00048F20D056B46012229463046FFF758FFD3
:102BB000002808D1BDF80000294620F460722243A5
:102BC0003046FFF7A9FFF8BDFEE7704770470000E9
:102BD00010B5074C1021204600F074FF062002F0CB
:102BE000EBFC2046BDE81040102100F06DBF000056
:102BF0000008014070B50403FFF7EAFF00F09EF8FB
:102C00000D4D1021284600F05DFF202002F0D4FC7D
:102C1000C4F3074002F0D0FCC4F3072002F0CCFC60
:102C2000E0B202F0C9FC1021284600F04DFFBDE8DB
:102C3000704000F083B800000008014010B588B073
:102C400040F2026002F05CFC40F20C6002F058FCC2
:102C5000184CA02303221821204600F037FF402300
:102C600003220421204600F031FF102303221946DD
:102C7000204600F02BFF1021204600F025FF002009
:102C80004FF48271CDE900106115CDE902011021E8
:102C9000CDE90501084C04906946204602F0B0FCDD
:102CA0000721204602F07CFC204602F07FFC08B0A1
:102CB00010BD000000080140003001402DE9F04146
:102CC000124F0C46064615461021384600F0FAFE13
:102CD000032002F071FCC4F3074002F06DFCC4F362
:102CE000072002F069FCE0B202F066FC002405E077
:102CF000FF2002F061FC3055641CA4B2AC42F7D353
:102D00003846BDE8F041102100F0DEBE0008014069
:102D100070B5094C1021204600F0D4FE052002F0C9
:102D20004BFCFF2002F048FC05461021204600F035
:102D3000CBFE284670BD00000008014010B5FFF72B
:102D4000E7FFC007FBD110BD2DE9F05FC1F30B0613
:102D50000F0BC6F58054894680461546A24200D81E
:102D60001446DFF87CA039038B464FF480521C4890
:102D7000FFF7A4FF002006E032181AF80210FF291E
:102D800003D1401C80B2A042F6D3A04221D23846E3
:102D9000FFF730FF0020524605E018F800108319B5
:102DA000401CD15480B2A042F7D359464FF4805210
:102DB0000B4800F017F8A5420FD0281BA044A144EF
:102DC000002685B24FF480547F1CA542CBD82C46F8
:102DD000C9E7224649464046EBE7BDE8F09F0000C0
:102DE000C80100202DE9F0410746C8B2C0F5807443
:102DF0000E461546A24200D814464FF4807822466B
:102E00003146384600F00EF8A54208D0281B27446A
:102E1000264485B24446A542F1D82C46EFE7BDE8EA
:102E2000F08100002DE9F04115460C460646FFF7FB
:102E3000CFFE124F1021384600F044FE022002F06F
:102E4000BBFBC4F3074002F0B7FBC4F3072002F05A
:102E5000B3FBE0B202F0B0FB002404E0305D02F00E
:102E6000ABFB641CA4B2AC42F8D31021384600F08E
:102E70002BFEBDE8F041FFF761BF000000080140F4
:102E80002DE9F04104464FF07F554FF0FF31FDF73B
:102E900047FA06461148A0EB640739463046FDF76D
:102EA000CFF93946FDF7CCF92946FDF7C6F9394681
:102EB000FDF7C6F9074601463046FDF7C1F9394628
:102EC000FDF7BEF92946FDF7B8F93946FDF7B8F91F
:102ED00001462046BDE8F041FDF7B2B9DF59375F42
:102EE000704700000E48016841F00101016041682F
:102EF0000C4A1140416002680B490A4002600268B6
:102F000022F4802202604268084B1A404260026844
:102F10000A4002604FF41F01816002F0D7BB00003D
:102F2000001002400C00FFE8FFFFF6FEFFFF00F775
:102F300003F0FEB8FEE7002100E0491C8142FCDB03
:102F40007047490050EAC12018BF04204A0D18BF3D
:102F500040F0010040F2FF72B2EB515F08BF40F059
:102F60000200012808BF052070472DE9F0414F1EDF
:102F700000EBC7010446D1E9000115461E4637F0B3
:102F800006020DD02A463346FDF77DFA7F1E04EB7C
:102F9000C703D3E90023FDF7CFF937F00602F1D1DB
:102FA000022F25D0042F13D0062F18BFBDE8F081C3
:102FB0002A463346FDF767FAD4E90A23FDF7BCF940
:102FC0002A463346FDF75FFAD4E90823FDF7B4F942
:102FD0002A463346FDF757FAD4E90623FDF7ACF944
:102FE0002A463346FDF74FFAD4E90423FDF7A4F946
:102FF0002A463346FDF747FAD4E90223FDF79CF948
:103000002A463346FDF73FFAD4E90023BDE8F041F4
:10301000FDF792B90022134610460149FDF7A5BA03
:103020000000F03FFDF788B9002213461046114614
:10303000FDF79BBA40F2013200204FF0E041FDF76E
:103040004ABC0000024A00201107FDF744BC000002
:1030500001FDFFFF02E008C8121F08C1002AFAD1D3
:1030600070477047002001E001C1121F002AFBD108
:10307000704700000149086070470000C40100204B
:10308000816841F00801816081680907FCD481688A
:1030900041F00401816081684907FCD47047120542
:1030A000A2F5801201290BD0022908D1816B21F4ED
:1030B0004011816302F44011826B114381637047B8
:1030C000C16A21F47001C16202F47001C26A114345
:1030D000C16270470029816802D041F4006101E0BB
:1030E00021F40061816070470D4910B540180FD080
:1030F000B0F5806F0FD0B0F5C05F0FD140F20F3444
:10310000204602F019FA2046BDE8104002F006BA47
:1031100040F20934F4E740F20A34F1E710BD000050
:1031200000DCFEBF816841F4807181607047816876
:10313000C90703D1816841F0010181607047002A0D
:103140004FEAC1720AD01AB1826842F480128260DA
:1031500089070ED5816841F4004109E01AB18268FF
:1031600022F480128260890703D5816821F400412E
:1031700081607047012909D0022906D1816821F4B4
:10318000E04181608168114381607047816821F46A
:103190006021F6E704490A6822F470220A600A688E
:1031A00002430A60704700000424014030B51F2428
:1031B000062909D2456B01EB81018C40A54302FA37
:1031C00001F42C43446318E00C290AD2056B891FD3
:1031D00001EB81018C40A54302FA01F42C43046306
:1031E0000BE0102909D2C56A0C3901EB81018C4032
:1031F000A54302FA01F42C43C46207250A2A08D227
:10320000046902EB42018D40AC438B4023430361D0
:1032100030BD122AFCD2C4680A3A02EB42018D404A
:10322000AC438B402343C36030BDCA0703D08268E0
:1032300042F480028260890703D5816841F400115D
:1032400081607047002A4FEAC15211D0002A03DA88
:10325000426842F4807242604A0503D5426842F4F3
:1032600080624260890715D5816841F0020110E053
:10327000002A03DA426822F4807242604A0503D5CC
:10328000426822F480624260890703D5816821F098
:10329000020181607047000070B50646184D19485C
:1032A0006C7883686CB1012C16D0032C27D10020D8
:1032B00068703046BDE870401F23124A022102F0B8
:1032C0009FBC01206870C5E90113934200D9AA6030
:1032D00028890A4683B20CE0A9684068591A00227E
:1032E00000F012F8074A0D2320320320C5E901231C
:1032F00068703046BDE87040812102F0CDBC70BDE1
:10330000300100207844002010B5044B024C1C60B2
:10331000C3E901011A7310BD55534253984400206C
:1033200010B5044600202071401EE062204601F0E6
:10333000C5F908B1032010BDB4F82E02A0F52A414A
:10334000553901D0022010BD94F8660094F8691038
:1033500094F8672040EA016194F86800000440EAAC
:10336000022001430A48B0EB012F0DD014F8821F50
:10337000E278637841EA0261A278120442EA032209
:103380001143B0EB012F01D1002010BD012010BD71
:1033900000464154002244F6382306E00021491C2F
:1033A00089B29942FBD3521C92B28242F6D3704743
:1033B000002800D0012070472DE9F0411C0015467F
:1033C0000E4603D020B10120BDE8F0810420FBE7C8
:1033D0004FF4007769023A463046FFF76FFC641EEF
:1033E00005F1010506F50076F4D10020ECE7002098
:1033F00070472DE9F0411C0015460E4603D020B160
:103400000120BDE8F0810420FBE74FF4007769025A
:103410003A463046FFF798FC641E05F1010506F5B3
:103420000076F4D10020ECE770B50C46054600F0BC
:1034300073F840B104EB840005EB8000816841F033
:103440000101816070BDFEE770B50C46054600F0D5
:1034500063F840B104EB840005EB8000816841F023
:103460002001816070BDFEE770B50D46044600F096
:1034700053F898B105EB850004EB8002906820F0CA
:103480000100906000209060D06010615061606821
:10349000AA000F2191400843606070BDFEE770B53F
:1034A00014460D46064600F037F850B305EB85008C
:1034B00006EB800021680161A1684161218A89B21F
:1034C000C1608168E36821F47C52616819436369D3
:1034D000134319438160217E0129816812D021F0B4
:1034E00040018160617E012981680ED021F0800158
:1034F0008160A17E002981680AD041F010018160BD
:1035000070BDFEE741F04001EBE741F08001EFE7DD
:1035100021F01001F3E700000246044B01209A421B
:1035200002D1042900D900207047000000040240A5
:103530002DE9F74F029B8BB90B1A5B1C0A2B0DDD93
:1035400000205C49FD234FF4A0748B54521C401C96
:1035500080B292B2A042F8D3BDE8FE8F40080022AC
:103560004908019100EB001101EB401782465248D7
:10357000B0F808B099E0002007F0FF093B0AC9F550
:10358000807601464FEA431EAEEB10251F35DFF86B
:103590002C81ADB2C4B238F815C008EB4505C4F5AE
:1035A0008073B5F840800CFB03FC08FB03F835F88A
:1035B000023CED8F634365430CFB06FC734308FB41
:1035C00009CC05FB093363441B0C3B4C5B4501D222
:1035D00000230CE0E588AB4201D9FD2307E06489B4
:1035E000A3EB0B036343C82493FBF4F39BB2DFF814
:1035F000C4803130491C08F80230521C92B289B2A2
:1036000008F80230521C92B280B2A029BCD30298B2
:1036100098B32B482B4E2C4C026800254FF40043E6
:103620004FF4A079002158F8010000F0FF0C32F8A7
:103630001CC0C6F800C063612361C0F3072C32F8D8
:103640001CC0C6F800C063612361C0F3074C32F8A8
:103650001CC0C6F800C063612361000E32F8100080
:10366000306063612361091D89B24945DBD36D1C5C
:10367000EDB2022DD6D3002211E0FFE700204FF477
:10368000A07108EB0203A3F58053401C93F8C03EE1
:1036900008F80230521C80B292B28842F1D331371E
:1036A0000AF10100BFB21FFA80FA01998A457FF63C
:1036B00062AF51E7C8010020CC000020C8110020F3
:1036C0000C0000200C0C01400010014070B5234894
:1036D0004FF4807404604FF4C06001F011FF40F2B9
:1036E000026001F00DFF40F2036001F009FF40F2BB
:1036F000046001F005FF40F2056001F001FF40F2B7
:10370000066001F0FDFE154D0823143D0322102133
:10371000284600F0DBF9042303221021284600F09C
:10372000D5F90F4EE30103221021304600F0CEF907
:10373000A30103221021304600F0C8F923460322DA
:103740001021284600F0C2F9BDE8704003224FF670
:10375000FF731021034800F0B9B9000014080140BC
:1037600000100140000C014017B581B014460298CA
:103770000090684600F088F9002802DA0B2004B0B7
:1037800010BD0B4B002253F8201001B10A700199B3
:10379000002900D00A7043F8201001D0012C01D07C
:1037A0000020ECE7002202A901A800F003F8E6E7F8
:1037B000C00100202DE9FF474FF000090746C0F87F
:1037C00000901646084600F05FF9050003D50B206F
:1037D00004B0BDE8F087A14850F825408CB13C60AA
:1037E000207820B16078FFF702FEC1070BD084F883
:1037F0000090E8B26070FFF7DBFDC10708D003203E
:10380000E6E70C20E4E70EB1400704D40020DFE730
:103810001EB1400701D50A20DAE7002631462046CE
:10382000FFF77EFD012825D100216D4604EB011034
:1038300090F8F22100F5F7704AB1027AC37A42EAB1
:103840000362837A407A1B0443EA0020024345F86E
:103850002120491C0429E9D3002755F8276026B107
:1038600031462046FFF75CFD00E0022040B17F1C9E
:10387000042FF2D3032801D0F0BB01E00120A7E719
:10388000B4F83B00B0F5007F6DD1B4F8460068B9DC
:1038900094F8540094F8571094F8552040EA0160C9
:1038A00094F85610090441EA02210843A06194F8F3
:1038B00040C084F803C0BCF1010F02D0BCF1020F7C
:1038C00051D194F83D500CFB00FCA570A5B1691EC8
:1038D0000D4248D1B4F841202281110743D1B4F8F8
:1038E000431079B994F8501094F8533041EA0361C9
:1038F00094F852301B0400E035E094F8517043EA2C
:1039000007231943E38F73B303EB0C0707EB12177D
:10391000B94228D3C91BB1FBF5F121B3012540F60B
:10392000F678414500D302254FF6F678414500D39D
:103930000325891C3744A76233446161C4E90763E6
:10394000032D12D07AB103EB0C026262022D1FD05C
:1039500001F0010201EB410102EB510101F2FF1103
:10396000B0EB512F16D20D2032E7002AFBD194F88C
:103970005C2094F85F3094F85D7042EA036294F83A
:103980005E301B0443EA07231A4389006262E5E7BD
:103990004900E3E74FF0FF302061E0608020607174
:1039A000032D52D1B4F8600001284ED12046711C7D
:1039B00000F084FEE8BB84F80590B4F82E02A0F570
:1039C0002A41553941D194F8300094F8331094F8D5
:1039D000312040EA016094F83210090441EA0221E2
:1039E00008431F49884230D194F8140294F8171202
:1039F00094F8152240EA016094F81612090441EA8D
:103A000002210843174988421FD194F8180294F8FC
:103A10001B1294F8192240EA016094F81A12090462
:103A200041EA02210843206194F81C0294F81F1215
:103A300000E00AE040EA016094F81E1294F81D22AA
:103A4000090441EA02210843E06004492570091F86
:103A50000888401C0880E080D8E60000C0010020F3
:103A600052526141727241610020704710B55A4351
:103A700092B2FFF723F9002010BD10B55A4392B25D
:103A8000FFF762F9002010BD10B503464FF0FF307C
:103A90001C68002C13D0214600E0491C0A78212A1A
:103AA0000ED33A2AF9D114F8012B303A0A2A06D259
:103AB0008C4204D1002A02D1491C1046196010BD65
:103AC000002010BD41617047016170472DE9F0434E
:103AD00001F00F04CD0600D5144300224FF00F096A
:103AE0004FF0010808FA02F51D4013D00768960050
:103AF00009FA06FC27EA0C0704FA06FC4CEA070C54
:103B0000282902D0482902D002E0456100E0056181
:103B1000C0F800C0521C92B2082AE3D3082208FA67
:103B200002F51D4014D047689600203E09FA06FCB5
:103B300027EA0C0704FA06FC4CEA070C282902D0F5
:103B4000482902D002E0456100E00561C0F804C0E8
:103B5000521C92B2102AE2D3BDE8F083806808407C
:103B600000D0012070470000F0B5144C002801DAA5
:103B7000E36900E06368450D2E0185B2C0F301578B
:103B8000B540C0F30342032F05D0C6020AD5032671
:103B90009640B34307E023F07062636823F07063DC
:103BA000636002E0AB4343F0706201B12A43002836
:103BB00001DAE261F0BD6260F0BD0000000001408A
:103BC0002DE9F05F0520FFF7E5FBCF20FEF75CFA5B
:103BD000FF4E4FF00408C6F8008006F104090827DC
:103BE000C9F80070DFF8ECA30021CAF80010FA4D04
:103BF0003C036C612C613760C6F80080C9F8007026
:103C00008121CAF800106C612C613760C6F8008011
:103C1000C9F800703020CAF800006C612C61376070
:103C20000520FFF7B7FBED20FEF72EFAC6F800805F
:103C3000C9F800706421CAF800106C612C6137600B
:103C4000C6F80080C9F800700320CAF800006C6153
:103C50002C613760C6F80080C9F800701221CAF8DC
:103C600000106C612C613760C6F80080C9F80070E4
:103C70008121CAF800106C612C6137600520FFF7C4
:103C800089FBE820FEF700FAC6F80080C9F800704A
:103C90008521CAF800106C612C613760C6F800807D
:103CA000C9F800701020CAF800006C612C61376000
:103CB000C6F80080C9F800707821CAF800106C615D
:103CC0002C6137600520FFF765FBCB20FEF7DCF9A0
:103CD000C6F80080C9F800703921CAF800106C617C
:103CE0002C613760C6F80080C9F800702C21CAF832
:103CF00000106C612C613760C6F80080C9F8007054
:103D00000021CAF800106C612C613760C6F8008091
:103D1000C9F800703421CAF800106C612C6137605A
:103D2000C6F80080C9F800700221CAF800106C6162
:103D30002C6137600520FFF72DFBF720FEF7A4F973
:103D4000C6F80080C9F800702021CAF800106C6124
:103D50002C6137600520FFF71DFBEA20FEF794F980
:103D6000C6F80080C9F800700021CAF800106C6124
:103D70002C613760C6F80080C9F80070CAF80010DE
:103D80006C612C6137600520FFF704FBB120FEF762
:103D90007BF9C6F80080C9F800700021CAF800104D
:103DA0006C612C613760C6F80080C9F800701B2078
:103DB000CAF800006C612C6137600520FFF7EAFA51
:103DC000B620FEF761F9C6F80080C9F800700A2134
:103DD000CAF800106C612C613760C6F80080C9F821
:103DE00000704FF0A20BCAF800B06C612C61376014
:103DF0000520FFF7CFFAC020FEF746F9C6F800808D
:103E0000C9F800703521CAF800106C612C61376068
:103E10000520FFF7BFFAC120FEF736F9C6F800808B
:103E2000C9F800701121CAF800106C612C6137606C
:103E3000C520FEF729F9C6F80080C9F800704520B2
:103E4000CAF800006C612C613760C6F80080C9F8C0
:103E50000070CAF800006C612C613760C720FEF763
:103E600013F9C6F80080C9F80070CAF800B06C6198
:103E70002C613760F220FEF707F9C6F80080C9F818
:103E800000704FF0000BCAF800B06C612C61376015
:103E90002620FEF7F9F8C6F80080C9F80070012165
:103EA000CAF800106C612C6137600520FFF772FAC8
:103EB000E020FEF7E9F8C6F80080C9F800700F208E
:103EC000CAF800006C612C613760C6F80080C9F840
:103ED00000702621CAF800106C612C613760C6F8AA
:103EE0000080C9F800702421CAF800106C612C61B0
:103EF0003760C6F80080C9F800700B21CAF80010BE
:103F00006C612C613760C6F80080C9F800700E2122
:103F1000CAF800106C612C613760C6F80080C9F8DF
:103F200000700920CAF800006C612C613760C6F887
:103F30000080C9F800705422CAF800206C612C611E
:103F40003760C6F80080C9F80070A822CAF80020BF
:103F50006C612C613760C6F80080C9F80070462299
:103F6000CAF800206C612C613760C6F80080C9F87F
:103F700000700C22CAF800206C612C613760C6F812
:103F80000080C9F800701722CAF800206C612C610B
:103F90003760C6F80080C9F800705146CAF80000C2
:103FA0006C612C613760C6F80080C9F800700F2082
:103FB000CAF800006C612C613760C6F80080C9F84F
:103FC00000700720CAF800006C612C61376005E0C2
:103FD000100801400C0C014000100140C6F80080A0
:103FE000C9F80070C1F800B06C612C613760E12045
:103FF000FEF74AF8C6F80080C9F80070CAF800B0A9
:104000006C612C613760C6F80080C9F80070192116
:10401000CAF800106C612C613760C6F80080C9F8DE
:1040200000701B20CAF800006C612C613760C6F874
:104030000080C9F80070CAF800806C612C6137609C
:10404000C6F80080C9F800701021CAF800106C6131
:104050002C613760C6F80080C9F800700720CAF8E4
:1040600000006C612C613760C6F80080C9F80070F0
:104070002A21CAF800106C612C613760C6F80080F4
:10408000C9F800704721CAF800106C612C613760D4
:10409000C6F80080C9F800703920CAF800006C61C9
:1040A0002C613760C6F80080C9F800700320CAF898
:1040B00000006C612C613760C6F80080C9F80070A0
:1040C0000620CAF800006C612C613760C6F80080D9
:1040D000C9F80070CAF800006C612C613760C6F83E
:1040E0000080C9F800703020CAF800006C612C61B3
:1040F0003760C6F80080C9F800703821CAF800108F
:104100006C612C613760C6F80080C9F800700F2020
:10411000CAF800006C612C6137600520FFF73AF99E
:104120003A20FDF7B1FFC6F80080C9F800705521AC
:10413000CAF800106C612C6137601120FDF7A4FFF4
:104140000520FFF727F90520FFF724F9BDE8F05F08
:104150002920FDF799BF000010B54FF4C06001F0B1
:10416000CFF940F2026001F0CBF940F2036001F0B8
:10417000C7F940F2046001F0C3F901210948FFF7D3
:10418000F3FC4FF48063032210210748FFF79EFCE5
:104190000322BDE810404FF4005348210348FFF7C5
:1041A00095BC0000000230000008014000100140F2
:1041B00008B5012600250424C820FFF7EBF8FFF717
:1041C000CBFFFCF757FCFEF739FD0122DCA1DD48EF
:1041D000FFF7CAFAFFF77AFAFFF7F2FCFEF712F8D8
:1041E000FEF720FC04213320FEF7D6FCD64933200D
:1041F000FEF7CEFAD549D448FEF7D1FA0027ADF83C
:10420000007001F0F1FABDF80000401C80B2ADF87A
:1042100000000428F5D301F0D7FACD494FF480709F
:104220000860DFF83083DFF830A34FF4967B01227B
:104230006B46D1033320FEF713FCBDF800000007E6
:1042400012D54FF0E029C9F8187001F0CDFAD9F86D
:1042500018006FF07F41081A42F67061B0FBF1F070
:10426000AAF80A00FCF79AFE55EA060018D09AF858
:1042700000105046052913D2DFE801F0033B4F62DE
:104280008D00B6A1416102210171082C6FD2DFE8D7
:1042900004F004222426282A2C2EB2A1CAF81810D1
:1042A000DFF8C892D9F8040058457AD26420FFF7A5
:1042B00071F8D9F804005845B9D2002EB7D19AF850
:1042C00000000126401CC0B28AF800000528AED3C9
:1042D0008AF80070ABE7A6A1E0E7A7A1DEE7A8A1F6
:1042E000DCE7A9A1DAE7AAA1D8E7ABA1D6E7ACA1A0
:1042F000D4E7ADA141610771417861B1012904D0D2
:10430000022906D0032944D101E0A9A1C6E7AAA148
:10431000C4E7ABA1C2E7ACA1C0E7ADA141610771A1
:104320008178062935D2DFE801F003072D3205092F
:10433000A9A1B3E7AAA1B1E7ABA1AFE7ACA1ADE7F3
:10434000ADA1416102210171C1780C2921D2DFE8C0
:1043500001F0191B1E06080A0C0F11131517A8A14E
:104360009CE7A9A19AE7AAA198E7ABA196E710E07C
:10437000ABA193E7ACA191E7ADA18FE7AEA18DE72B
:10438000AFA18BE7B0A189E7B1A187E709E0B2A1AE
:1043900084E7B3A182E7B4A1416102210171B4A114
:1043A0007CE740F25721A0F2D760884274D26420A3
:1043B000FEF7F0FFD9F8040040F62E12904289D2A1
:1043C00040F2D661884285D9002D83D19AF8001039
:1043D000012550460529F2D2DFE801F0030D2853EC
:1043E0008400641CE4B2052C00D90124214633204A
:1043F000FEF7D2FB1BE74178491CC9B24170042982
:1044000000D34770417829B1012906D002290BD089
:10441000032904D0CAF80C8009E7974900E09749BE
:104420000C31CAF80C1002E79549F9E78178491C6C
:10443000C9B28170062900D38770817806291CD201
:10444000DFE801F01B0A0E1503116FF02701C18090
:104450000A21AAF80810EAE60A21C1802821F8E713
:10446000C7806421F5E74621C1806E21F1E76FF036
:104470002701C180AAF808B0D9E66FF06301C180B6
:10448000E7E7C178491CC9B2C1700C2900D3C770D5
:10449000C1780C2924D200E04EE0DFE801F01A1CBC
:1044A0001E06080C0E1012141618764900E0764904
:1044B000CAF81010BBE67549FAE77549F8E775497F
:1044C000F6E77549F4E77549F2E77549F0E775498C
:1044D000EEE77549ECE77549EAE74FF07E51E7E70B
:1044E0007349E5E71A494FF48070091D086000F030
:1044F000F1FF1948203001F0F7F900F089F914486C
:104500004FF480611038FFF7DFFA1348052120309F
:10451000417041780329FCD1D9F80400C828FDD2A4
:10452000BFF34F8F63490868634A00F4E0601043AB
:104530000860BFF34F8FFEE700252E4677E60000A8
:10454000303A000038420020C8010020C81700207F
:1045500010080140C06B0008000000207261746503
:10456000000000002E35487A00000000C400002042
:104570003120487A000000003220487A0000000014
:104580003420487A000000003820487A00000000FB
:104590003136487A000000003332487A00000000CB
:1045A0003634487A00000000206D61700000000081
:1045B000666972650000000072626F77000000009B
:1045C0007472697000000000676C6F770000000073
:1045D0007370616E000000006175746F0000000070
:1045E000636F6C6400000000726F6F6D000000006C
:1045F000626F696C00000000656D69730000000067
:104600006D65746C00000000416C6F780000000064
:10461000656D343000000000656D3630000000002C
:10462000736E6F7700000000505446450000000094
:10463000706E742E000000006C696D650000000053
:1046400076656765000000002048324F00000000DA
:10465000736B696E00000000206D6178000000003F
:104660006661696C00000000207573620000000044
:10467000202020200000000084650008A4690008B4
:10468000946700080AD7233DCDCC4C3ECDCCCC3E20
:104690009A99193FCDCC4C3F9A99593F6666663F2F
:1046A0001F856B3FD7A3703F8FC2753F48E17A3FAC
:1046B0003333733F0CED00E00400FA0570B5044697
:1046C000C06A0D46A8420ED0204600F0D6FF38B989
:1046D000607801232A4604F13001FEF76DFE08B12F
:1046E000012070BDE562002070BD000010B50446D9
:1046F0000C480129037801D039B108E0012A06D11C
:1047000053B1204600F0CAFD06E0022A01D0022083
:1047100010BD1BB1022BF4D0002010BD00F032FF01
:10472000EFE700003101002010B50446812101F0BF
:1047300081F90221204601F07DF9054A00211F235D
:104740001170044A0221204601F05AFA002010BDDF
:10475000310100207844002010B504460B4A0021A6
:1047600001F094F9094A0021D21D204601F08EF98A
:10477000FFF77AF9064800211F230170054A02213C
:10478000204601F03DFA002010BD0000AA010020E3
:10479000310100207844002070B50A78194D12F0DC
:1047A000600218D0202A2BD14A780023164CFE2A0A
:1047B00005D0FF2A08D001F0D9F8022070BD2B7077
:1047C000237001230F4A11E023701F230F4A022197
:1047D00001F016FA14E04A78012A0ED00A2A02D013
:1047E0000B2A0DD106E0074A0123521C802101F05B
:1047F00053FA05E08878687002E0812101F018FA28
:10480000002070BD96010020310100207844002076
:1048100010B54FF4C06000F04BF800220121BDE854
:1048200010401420AFF30080F0B506461F48002466
:104830000F460068234600F4E0654FF4A06085420F
:104840000FD006DCB5F5407F16D0B5F5806F06D1E8
:104850000FE0B5F5C06F09D0B5F5E06F04D000F0FA
:1048600027F80224234608E0042306E0012403235A
:1048700003E00324012300E00424C4F10400874082
:10488000C3F104010F20C8401040384306F1E02175
:10489000000181F8000406F01F0101208840710921
:1048A000890001F1E021C1F80001F0BD0CED00E04C
:1048B0000249084302490860704700000000FA05F9
:1048C0000CED00E02DE9F04D1D460C4698B0174662
:1048D00021F0004123F00043002814BF4FF0010CE9
:1048E0004FF0000C0CEB440CFE4A0CEB02064FEAB6
:1048F000620C66452BD33E0018BF012606EB450629
:104900001644F94A964222D3F84A53EA070C02D0D9
:10491000944205D148B918B000201146BDE8F08D89
:10492000002808BF4FF0000C01D04FF0010C0CEB39
:10493000440212F5001F0AD8002F14BF4FF0010CDB
:104940004FF0000C0CEB450212F5001F07D918B010
:104950003A462B462146BDE8F04DFEF763BB0022E8
:10496000DFF88CA3002CB8BF534526DADFF884C3E8
:104970006345A8BF022220DADFF870C39C451CDC27
:10498000DFF874C30CEB235CBCF1140F08DDCCF131
:10499000340627FA06FC0CFA06F6BE420DD108E0F2
:1049A0005FB9CCF1140623FA06FC0CFA06F69E4217
:1049B00003D10CF00102C2F1020251EA000C19D13C
:1049C000002D17DA002C18BF022A01D0012A07D0C7
:1049D0000220FEF74FFB18B0BDE8F04DFEF71ABB02
:1049E0000220FEF747FBFEF715FB18B081F00041EF
:1049F000BDE8F08DB7F1000C6CD1534525D104F121
:104A0000804212F5801201BF00280020B74918B07B
:104A100008BFBDE8F08DB548884207DC002DA1BF76
:104A20006046294618B0BDE8F08D07E0281E05DA7B
:104A300080F0004118B06046BDE8F08DAF49794480
:104A4000D1E9000118B0BDE8F08DDFF8A0C26345E0
:104A500025D1002D1FDA19B1514512D1D8B909E07D
:104A6000002840F0EC82A24A214618B062F31E01F1
:104A7000BDE8F08D0020214618B060F31E01BDE8AE
:104A8000F08D08DA18B02346BDE8F04D024600204C
:104A90006146FBF76ABD18B02146BDE8F08D51456F
:104AA00018DAB5F1804F0DD0A5F1005CBCF1FF5CC8
:104AB00010D1B4F1000C0DDB18B06146BDE8F04D2B
:104AC00000F0B5BD234618B00246BDE8F04D1946CA
:104AD000FBF7D9BC060024F0004C3BD1D9B15145BD
:104AE00033D1002C06DD002DA1BF0020514618B0A7
:104AF000BDE8F08D002C01DD002D1BDB002C13DA4E
:104B0000002D11DB012A4FF0000014BF78497C49C9
:104B100018B0BDE8F08D022A18BF002C0AD0012A77
:104B200008D1002C06DA0AE0002CB8BF002D11DAFB
:104B3000012A04D0002018B00146BDE8F08D18B05D
:104B400000204FF00041BDE8F08DA1F14050B0F1E0
:104B50007F601AD0012000EBE47050EA020421D0FB
:104B6000624C521E4FF0000B104304BF4FF0000B7D
:104B7000644C654883427CDD644A654893421FDD8E
:104B8000884217DB002D25DB37E0002C00DA4AB124
:104B9000022A0CBF01204FF0FF3018B0BDE8F04DE5
:104BA000FBF760BD0120FEF765FA18B0BDE8F04DD7
:104BB000FEF73ABA4D4A8A4202DC002D0ADC1CE0BC
:104BC000814202DA002D18DA04E0484B994220DDD8
:104BD000002D12DD0220FEF74DFAFEF72BFA0546F6
:104BE0000E460022534658462146FBF74CFC18B0AF
:104BF00066F31E012846BDE8F08D0220FEF73AFA62
:104C0000FEF720FA0A46214618B062F31E01BDE8FD
:104C1000F08D002230466146FBF72FFC80460E46A1
:104C20006FF00102FBF757FE4FF05532394BFBF79F
:104C300027FC42463346FBF726FC0022364BFBF7A7
:104C40001FFC824642463346049110461946FBF744
:104C50001AFC5246049BFBF716FC8A4600904FF064
:104C6000C0422E4B40463146FBF70DFC2C4A2B4BE5
:104C700000E027E0CDE9060151460098FBF703FC70
:104C800082460191274A284B40463146FBF7FBFB01
:104C90005246019BFBF7F1FB82460B46024605910B
:104CA000DDE90601FBF748FBDDE90623002688461F
:104CB0003046FBF7E2FB5246059BFBF7E1FB024661
:104CC00000F07EB90020B1F5801F07DA35223046AA
:104CD0006146FBF700FE06466FF0340000EB215002
:104CE00024E00000FFFF1F00FFFF0F000000F03F67
:104CF0000000F07F0000404301FCFFFFD62A0000C7
:104D00000000F0FF0000F0BF0000E0410000F043B1
:104D1000FFFFEF3F5555D53F0000E03F4715F73FF8
:104D2000FE822B6544DF5DF80BAE543EA0F2FF30EF
:104D30000190C1F3130040F07F6141F040510291B6
:104D4000FE498842D8BF002004DDFD498142C8BF2A
:104D5000012001DD0D9008E000200D900198401C1D
:104D600001900298A0F5801002900299F5487844CD
:104D70000B910D9900EBC100D0E900230F93304651
:104D80000A920B99FBF779FBCDE90601DDE90A21CF
:104D900030460F9BFBF7D0FA02460B460020EA494B
:104DA000FBF7E3FB059102460B460090DDE90601A7
:104DB000FBF769FB1490E5488A464FF000087844F9
:104DC0000299006812904FF0005040EA61010D987E
:104DD0000F9B01EB804000F5002109910A9A12987F
:104DE000FBF74BFB32460B9BFBF74AFB4246534615
:104DF000FBF749FB0646029140465146099B129A31
:104E0000FBF741FBDDE90623FBF73AFB3246029B49
:104E1000FBF733FB059B009AFBF735FB0091149AD7
:104E20000490534610461946FBF72DFB06460246F2
:104E3000C7480B46029106217844FEF796F8CDE963
:104E40000510029B324610461946FBF71CFBDDE9B4
:104E50000532FBF718FB05910646534640461946B6
:104E6000149AFBF769FA009B049AFBF70CFB324695
:104E7000059BFBF761FACDE9051042465346104603
:104E80001946FBF700FB0022B24B02910A90FBF798
:104E900053FADDE90532FBF74FFA0E464246AD4BB9
:104EA0004046FBF7EAFA029B0A9AFBF7E6FADDE9CD
:104EB0000532FBF7E5FA424602910A903346104666
:104EC0005146FBF7E0FACDE906015346149A0299E0
:104ED0000A98FBF7D8FA8A46029033464246009970
:104EE0000498FBF7D0FA5346029AFBF725FA82465C
:104EF0000B4602460591DDE90601FBF71DFADDE9E7
:104F00000623002088460646FBF7B7FA5246059B63
:104F1000FBF7B6FA824609914FF060428E4B30465D
:104F20004146FBF7B0FA049006918C4A8A4B5046F2
:104F30000999FBF7A8FA82460291894A894B3046C3
:104F40004146FBF7A0FA5246029BFBF7F5F9864B68
:104F50007B440D9A03EBC203D3E90023FBF7ECF982
:104F60000E9007910198FBF77DFB0591DDE9061393
:104F700082460E9A0498FBF7DFF97C4A7A440D9B2F
:104F800002EBC303D3E9002300930292FBF7D4F9A9
:104F90005246059BFBF7D0F900268846524630461C
:104FA000059BFBF76AFA009B029AFBF766FA069BE1
:104FB000049AFBF762FA079B0E9AFBF761FA024626
:104FC00000200B46029038462946FBF75CFA8246E1
:104FD00001912B4638461946029AFBF74EFA3246A3
:104FE0004346FBF750FA5246019BFBF7A5F90746EB
:104FF0008A463246434629460298FBF744FA05465C
:105000000E463A465346FBF797F9594A884691426D
:1050100021DBA8EB020353EA000210D12A463346F3
:10502000FBF72BFACDE90401524A534B384651465F
:10503000FBF782F9DDE90423FBF7B6FC21D202205D
:10504000FEF718F8FDF7F6FF0A46214618B062F39E
:105050001E01BDE8F08D494B28F000429A4210D362
:10506000474A08EB020353EA00027FF4C6AD2A4622
:105070003346FBF702FA3A465346FBF795FC7FF6B8
:10508000BCAD0022019228F000403E493E4A01EBAF
:105090002051824223DA481C4FF4801121FA00F09B
:1050A00040443A4AC0F30A517A44394BA1F2FF31E5
:1050B000CB4020EA0303C0F3130040F48010C1F199
:1050C0001401C84012680190B8F1000FBCBF404203
:1050D000019028463146FBF7D0F905460E462A4690
:1050E000334638465146FBF727F94FF00008424651
:1050F000284B40460591FBF7C6F9CDE90601264A43
:10510000264B40460599FBF7BEF9009102902A46CE
:10511000334640460599FBF7B0F93A465346FBF74C
:10512000AFF91F4A1F4BFBF7AEF9009B029AFBF742
:1051300003F90746884602460B4635E08E98030081
:105140007AB60B001E2700000000F03F5627000033
:10515000842600000000084009C7EE3FFD033ADC4A
:10516000F5015B14E02F3EBE5C2500002025000009
:1051700000009040FE822B654715973C00CC904084
:1051800000346F3F01FCFFFF0000E03F6C24000093
:10519000FFFF0F00432EE63F396CA80C615C20BE78
:1051A000EF39FAFE422EE63FDDE90601FBF7C4F8CF
:1051B000DDE9062305460E46FBF75FF93A4643460E
:1051C000FBF75EF90F462A46334600901046194613
:1051D000FBF759F9824602462E4888460B460521C0
:1051E0007844FDF7C2FE52464346FBF74CF92A4687
:1051F0003346FBF745F980468A463B46284631460A
:10520000009AFBF740F93B46009AFBF795F80691A8
:10521000009000224FF0804340465146FBF72DF9A5
:105220000F460C904246534628463146FBF72BF971
:105230003B460C9AFBF799F9069B009AFBF71DF980
:105240002A463346FBF719F90022134BFBF718F9EE
:10525000054601980E4601EB00510815002810DCA8
:1052600028463146019AFBF736FBFDF76AFE042813
:1052700008BFFDF7E7FE28463146019AFBF72BFBF6
:1052800005460B4618B02A4658462146BDE8F04D63
:10529000FBF7F9B80C2300000000F03F2DE9F05FA8
:1052A00005467B487B4C002790F800801030032691
:1052B000816862784068B8F1230F33D00CDCB8F114
:1052C000000F73D0B8F1030F71D0B8F1120F25D0D1
:1052D000B8F11A0F18D1B5E0B8F1250F26D0DFF8D4
:1052E000B0E16C4BB8F1280FBEF802A0D3F80CB0B7
:1052F0009EF804909EF805C0BEF807304FF4007E7B
:1053000018D0B8F12A0F53D0614B10331B7B1B060A
:1053100079D5002A78D0012A77D040E05D4924224F
:10532000243192E05B490C2248318EE05949082231
:1053300014318AE012B1012A12D030E001206070ED
:105340009AFA9AF0010441EA092141EA0C0158BA9B
:1053500049024002C4E9031001237646724605E083
:105360002269B2B101237646724659464A48FEF791
:105370007DFB3346484A8121284600F08DFCE068D9
:1053800000F50070E0602069A0F500702061BDE8C4
:10539000F09F5ABA5242667001EB422142E0032A62
:1053A000F5D13B4A1F236770103216E045E040E01C
:1053B000CAB1022AF3D101237746724659463648CC
:1053C000FEF75BFBE06800F50070E0602069B0F577
:1053D000007020611AD03B462F4A2846BDE8F05F96
:1053E000022100F00DBC022060709AFA9AF00104CC
:1053F00041EA092040EA0C0059BA4002E060480244
:1054000073462061E8E734E024E02EE0204966702E
:105410001031D1E901021039B1F8071049BA4942F7
:1054200002EB41210022FDF76FFF194A0D233032B4
:1054300015E018491222543107E0002AB1D16670F4
:105440001146F0E7134908221C312846BDE8F05FF9
:10545000FDF722BF012060700E4A0346A060284677
:10546000BDE8F05F812100F017BC01226670491E83
:10547000D9E7002A93D10122A760FDF745FF044A2E
:105480000D2330328121284600F006FC66707EE74D
:105490006844002030010020C81100200B4A5168E8
:1054A0000B4B194008280ED2DFE800F00404040476
:1054B0000D070D0741EA803105E020F0040041EAC4
:1054C000803040F080515160704700000010024071
:1054D000FF3FFFEF10B500F03DF940F2026000F031
:1054E0000FF840F21C7000F00BF84FF4400000F091
:1054F00031F8BDE8104040F2177000F001B800002C
:10550000054901EB90110A6800F01F030120984043
:1055100002430A607047000000100240054901EB99
:1055200090110A6800F01F030120984082430A602E
:105530007047000000100240054901EB90110A6815
:1055400000F01F030120984002430A6070470000EA
:1055500000100240034A516821F4400101435160A8
:105560007047000000100240054801684FF6FB72CA
:10557000114001600168121F114001607047000076
:10558000405C004005490020A1F110020B18DB7BB4
:105590001354401CC0B21028F8D370477844002040
:1055A000026842F40052026001617047016841F0F4
:1055B000400101607047000070B50B4C05460221A8
:1055C000204600F018F80028F9D02946204600F0BF
:1055D00010F80121204600F00EF80028F9D02046EE
:1055E00000F004F8C0B270BD00300140C06880B265
:1055F0007047C16070478068084000D00120704744
:1056000002680B6802F4415213434A681A438B68DC
:105610001343CA681A430B6913434A6989691A43D9
:1056200011430160C16921F40061C16170472DE936
:10563000F04106460F46FBF765F9041E0D4618BFFC
:105640000120284320F00040C0F17F6000F1E040DD
:10565000C00F0ED0301C18BF0120384320F000408E
:10566000C0F17F6000F1E040C00F04BF0120FDF7F2
:1056700001FD20462946BDE8F0812DE9F0410446B0
:10568000007900B3E66A04F1300160780123324604
:105690000F46FDF7AEFE10B10120BDE8F0810020FD
:1056A0002071206AA169301A88420CD2E57808E09E
:1056B000A06901230644607832463946FDF799FE19
:1056C0006D1E022DF4D20020E7E700001E480021E5
:1056D000026842F4803202604FF6FF730268491C90
:1056E00012F4003F01D19942F8D10168890300D436
:1056F000FEE74168416041684160416841F4806172
:105700004160416821F440314160416841F44031D9
:10571000416041680D4A1140416041680C4A1143A3
:105720004160016841F08071016001688901FCD528
:10573000416821F003014160416841F0020141608C
:1057400041680907FCD5704700100240FFFFC3F70E
:10575000000028081348416821F0030141604168B6
:1057600041F001014160016821F0807101604168F0
:105770000D4A1140416041680C4A11434160016883
:1057800041F08071016001688901FCD5416821F018
:1057900003014160416841F002014160416809072D
:1057A000FCD5704700100240FFFFC3F700001C0843
:1057B0004FF0E0210428086903D020F004000861BC
:1057C000704740F00400FAE710B56FF00400FFF7EF
:1057D000EFFF4FF0E0206FF07F41416100218161D8
:1057E0000121016110BD000038B50B493320FDF7E0
:1057F0001AF80A490848FDF76BF8094C4FF0824146
:10580000E061FAF717FD0346064800900349024895
:105810002269FCF76FFD38BDC8010020C8170020C1
:1058200000000020C81100202DE9F0470446087848
:10583000DFF8A080284E0D4610F01F004FF0000743
:1058400048F6BF7904D0012812D0022826D118E0EA
:105850006078022801D0032804D16888012803D089
:1058600002281BD0BDE8F087E770D4F89C2024E024
:105870006078022812D00328F4D108790128F1D9E0
:105880000CE029796078022804D00328EAD16888DE
:1058900050B10FE00029E5D08029E3D02046BDE8D3
:1058A000F047002100F0C4B921B1802902D0204680
:1058B00000F060F8D4F89C20294620469047D8F89C
:1058C00000008780306800EA090080F03000306016
:1058D000C8E70000E4000020005C004050F88C1F86
:1058E00089781180006870470021C1700748012243
:1058F00002600160021D1160044A10321160044A06
:105900004FF41F411160016070470000405C00408F
:10591000DC00002010B50C464178032916D121790E
:10592000012913D8D0F89C2021469047E1880143F3
:105930000FD109490020096888800849086848F69D
:10594000BF72104080F03000086002E0002100F0DB
:105950006FF9002010BD0000E4000020005C004052
:1059600050F8881F0978118000687047002100F006
:105970005FB9000010B5CC0901F07F0101EB810295
:1059800000EB82024FEA8100174948F68F73084402
:10599000D0F8001C11D01032490606D5D0F8001CF2
:1059A000194041F04001C0F8001CD0F8001C48F636
:1059B000BF73194081F0300110E04C32490406D524
:1059C000D0F8001C194041F48041C0F8001CD0F808
:1059D000001C4BF68F73194081F44051C0F8001C35
:1059E0000020107010BD000000500040074B10B5A3
:1059F00003EB41010023521C04E031F8044B20F872
:105A0000024B5B1CB3EB520FF7D310BD006000409C
:105A1000074B10B503EB41010023521C03E030F8A3
:105A2000024B5B1C10C1B3EB520FF8D310BD00004A
:105A300000600040CB094FEA4160134948F68F727D
:105A400001EBD050D0F8001C0DD0490606D5D0F897
:105A5000001C114041F04001C0F8001CD0F8001CAF
:105A600048F6BF720CE0490406D5D0F8001C11407E
:105A700041F48041C0F8001CD0F8001C4BF68F7236
:105A80001140C0F8001C7047005000402DE9F04F55
:105A90009378002503F00F04D37813F0030306D0A6
:105AA000012B0AD0022B0AD0032B08D102E04FF4BD
:105AB000007504E04FF4C06501E04FF480654E4B83
:105AC000254303EB8403C3F8005C967895885FEA6E
:105AD000D6184A4E48F68F7948F6BF774BF68F7C3A
